{
  "_format": "hh-sol-artifact-1",
  "contractName": "Counter",
  "sourceName": "contracts/example/Examplecontract.sol",
  "abi": [
    {
      "inputs": [],
      "name": "get",
      "outputs": [
        {
          "internalType": "uint256",
          "name": "",
          "type": "uint256"
        }
      ],
      "stateMutability": "view",
      "type": "function"
    },
    {
      "inputs": [
        {
          "internalType": "uint256",
          "name": "x",
          "type": "uint256"
        }
      ],
      "name": "increment",
      "outputs": [],
      "stateMutability": "nonpayable",
      "type": "function"
    }
  ],
  "bytecode": "0x608060405234801561001057600080fd5b50610101806100206000396000f3fe6080604052348015600f57600080fd5b506004361060325760003560e01c80636d4ce63c1460375780637cf5dab014604c575b600080fd5b60005460405190815260200160405180910390f35b605b60573660046074565b605d565b005b80600080828254606c9190608c565b909155505050565b600060208284031215608557600080fd5b5035919050565b8082018082111560c5577f4e487b7100000000000000000000000000000000000000000000000000000000600052601160045260246000fd5b9291505056fea26469706673582212207d46c6e171163e27771519214c88d899948a4d562aced28cd65354165ffa858864736f6c63430008110033",
  "linkReferences": {},
  "deployedLinkReferences": {}
}