{
  "_format": "hh-sol-artifact-1",
  "contractName": "Verifier",
  "sourceName": "@matterlabs/zksync-contracts/l1/contracts/zksync/Verifier.sol",
  "abi": [
    {
      "inputs": [
        {
          "components": [
            {
              "components": [
                {
                  "internalType": "uint256",
                  "name": "value",
                  "type": "uint256"
                }
              ],
              "internalType": "struct PairingsBn254.Fr",
              "name": "zero",
              "type": "tuple"
            },
            {
              "components": [
                {
                  "internalType": "uint256",
                  "name": "value",
                  "type": "uint256"
                }
              ],
              "internalType": "struct PairingsBn254.Fr",
              "name": "alpha",
              "type": "tuple"
            },
            {
              "components": [
                {
                  "internalType": "uint256",
                  "name": "value",
                  "type": "uint256"
                }
              ],
              "internalType": "struct PairingsBn254.Fr",
              "name": "beta",
              "type": "tuple"
            },
            {
              "components": [
                {
                  "internalType": "uint256",
                  "name": "value",
                  "type": "uint256"
                }
              ],
              "internalType": "struct PairingsBn254.Fr",
              "name": "gamma",
              "type": "tuple"
            },
            {
              "components": [
                {
                  "internalType": "uint256",
                  "name": "value",
                  "type": "uint256"
                }
              ],
              "internalType": "struct PairingsBn254.Fr[9]",
              "name": "alpha_values",
              "type": "tuple[9]"
            },
            {
              "components": [
                {
                  "internalType": "uint256",
                  "name": "value",
                  "type": "uint256"
                }
              ],
              "internalType": "struct PairingsBn254.Fr",
              "name": "eta",
              "type": "tuple"
            },
            {
              "components": [
                {
                  "internalType": "uint256",
                  "name": "value",
                  "type": "uint256"
                }
              ],
              "internalType": "struct PairingsBn254.Fr",
              "name": "beta_lookup",
              "type": "tuple"
            },
            {
              "components": [
                {
                  "internalType": "uint256",
                  "name": "value",
                  "type": "uint256"
                }
              ],
              "internalType": "struct PairingsBn254.Fr",
              "name": "gamma_lookup",
              "type": "tuple"
            },
            {
              "components": [
                {
                  "internalType": "uint256",
                  "name": "value",
                  "type": "uint256"
                }
              ],
              "internalType": "struct PairingsBn254.Fr",
              "name": "beta_plus_one",
              "type": "tuple"
            },
            {
              "components": [
                {
                  "internalType": "uint256",
                  "name": "value",
                  "type": "uint256"
                }
              ],
              "internalType": "struct PairingsBn254.Fr",
              "name": "beta_gamma",
              "type": "tuple"
            },
            {
              "components": [
                {
                  "internalType": "uint256",
                  "name": "value",
                  "type": "uint256"
                }
              ],
              "internalType": "struct PairingsBn254.Fr",
              "name": "v",
              "type": "tuple"
            },
            {
              "components": [
                {
                  "internalType": "uint256",
                  "name": "value",
                  "type": "uint256"
                }
              ],
              "internalType": "struct PairingsBn254.Fr",
              "name": "u",
              "type": "tuple"
            },
            {
              "components": [
                {
                  "internalType": "uint256",
                  "name": "value",
                  "type": "uint256"
                }
              ],
              "internalType": "struct PairingsBn254.Fr",
              "name": "z",
              "type": "tuple"
            },
            {
              "components": [
                {
                  "internalType": "uint256",
                  "name": "value",
                  "type": "uint256"
                }
              ],
              "internalType": "struct PairingsBn254.Fr",
              "name": "z_omega",
              "type": "tuple"
            },
            {
              "components": [
                {
                  "internalType": "uint256",
                  "name": "value",
                  "type": "uint256"
                }
              ],
              "internalType": "struct PairingsBn254.Fr",
              "name": "z_minus_last_omega",
              "type": "tuple"
            },
            {
              "components": [
                {
                  "internalType": "uint256",
                  "name": "value",
                  "type": "uint256"
                }
              ],
              "internalType": "struct PairingsBn254.Fr",
              "name": "l_0_at_z",
              "type": "tuple"
            },
            {
              "components": [
                {
                  "internalType": "uint256",
                  "name": "value",
                  "type": "uint256"
                }
              ],
              "internalType": "struct PairingsBn254.Fr",
              "name": "l_n_minus_one_at_z",
              "type": "tuple"
            },
            {
              "components": [
                {
                  "internalType": "uint256",
                  "name": "value",
                  "type": "uint256"
                }
              ],
              "internalType": "struct PairingsBn254.Fr",
              "name": "t",
              "type": "tuple"
            },
            {
              "components": [
                {
                  "internalType": "uint256",
                  "name": "X",
                  "type": "uint256"
                },
                {
                  "internalType": "uint256",
                  "name": "Y",
                  "type": "uint256"
                }
              ],
              "internalType": "struct PairingsBn254.G1Point",
              "name": "tp",
              "type": "tuple"
            }
          ],
          "internalType": "struct Plonk4VerifierWithAccessToDNext.PartialVerifierState",
          "name": "state",
          "type": "tuple"
        }
      ],
      "name": "compute_powers_of_alpha",
      "outputs": [],
      "stateMutability": "pure",
      "type": "function"
    },
    {
      "inputs": [],
      "name": "get_verification_key",
      "outputs": [
        {
          "components": [
            {
              "internalType": "uint256",
              "name": "domain_size",
              "type": "uint256"
            },
            {
              "internalType": "uint256",
              "name": "num_inputs",
              "type": "uint256"
            },
            {
              "components": [
                {
                  "internalType": "uint256",
                  "name": "value",
                  "type": "uint256"
                }
              ],
              "internalType": "struct PairingsBn254.Fr",
              "name": "omega",
              "type": "tuple"
            },
            {
              "components": [
                {
                  "internalType": "uint256",
                  "name": "X",
                  "type": "uint256"
                },
                {
                  "internalType": "uint256",
                  "name": "Y",
                  "type": "uint256"
                }
              ],
              "internalType": "struct PairingsBn254.G1Point[2]",
              "name": "gate_selectors_commitments",
              "type": "tuple[2]"
            },
            {
              "components": [
                {
                  "internalType": "uint256",
                  "name": "X",
                  "type": "uint256"
                },
                {
                  "internalType": "uint256",
                  "name": "Y",
                  "type": "uint256"
                }
              ],
              "internalType": "struct PairingsBn254.G1Point[8]",
              "name": "gate_setup_commitments",
              "type": "tuple[8]"
            },
            {
              "components": [
                {
                  "internalType": "uint256",
                  "name": "X",
                  "type": "uint256"
                },
                {
                  "internalType": "uint256",
                  "name": "Y",
                  "type": "uint256"
                }
              ],
              "internalType": "struct PairingsBn254.G1Point[4]",
              "name": "permutation_commitments",
              "type": "tuple[4]"
            },
            {
              "components": [
                {
                  "internalType": "uint256",
                  "name": "X",
                  "type": "uint256"
                },
                {
                  "internalType": "uint256",
                  "name": "Y",
                  "type": "uint256"
                }
              ],
              "internalType": "struct PairingsBn254.G1Point",
              "name": "lookup_selector_commitment",
              "type": "tuple"
            },
            {
              "components": [
                {
                  "internalType": "uint256",
                  "name": "X",
                  "type": "uint256"
                },
                {
                  "internalType": "uint256",
                  "name": "Y",
                  "type": "uint256"
                }
              ],
              "internalType": "struct PairingsBn254.G1Point[4]",
              "name": "lookup_tables_commitments",
              "type": "tuple[4]"
            },
            {
              "components": [
                {
                  "internalType": "uint256",
                  "name": "X",
                  "type": "uint256"
                },
                {
                  "internalType": "uint256",
                  "name": "Y",
                  "type": "uint256"
                }
              ],
              "internalType": "struct PairingsBn254.G1Point",
              "name": "lookup_table_type_commitment",
              "type": "tuple"
            },
            {
              "components": [
                {
                  "internalType": "uint256",
                  "name": "value",
                  "type": "uint256"
                }
              ],
              "internalType": "struct PairingsBn254.Fr[3]",
              "name": "non_residues",
              "type": "tuple[3]"
            },
            {
              "components": [
                {
                  "internalType": "uint256[2]",
                  "name": "X",
                  "type": "uint256[2]"
                },
                {
                  "internalType": "uint256[2]",
                  "name": "Y",
                  "type": "uint256[2]"
                }
              ],
              "internalType": "struct PairingsBn254.G2Point[2]",
              "name": "g2_elements",
              "type": "tuple[2]"
            }
          ],
          "internalType": "struct VerificationKey",
          "name": "vk",
          "type": "tuple"
        }
      ],
      "stateMutability": "pure",
      "type": "function"
    },
    {
      "inputs": [
        {
          "components": [
            {
              "internalType": "uint256",
              "name": "domain_size",
              "type": "uint256"
            },
            {
              "internalType": "uint256",
              "name": "num_inputs",
              "type": "uint256"
            },
            {
              "components": [
                {
                  "internalType": "uint256",
                  "name": "value",
                  "type": "uint256"
                }
              ],
              "internalType": "struct PairingsBn254.Fr",
              "name": "omega",
              "type": "tuple"
            },
            {
              "components": [
                {
                  "internalType": "uint256",
                  "name": "X",
                  "type": "uint256"
                },
                {
                  "internalType": "uint256",
                  "name": "Y",
                  "type": "uint256"
                }
              ],
              "internalType": "struct PairingsBn254.G1Point[2]",
              "name": "gate_selectors_commitments",
              "type": "tuple[2]"
            },
            {
              "components": [
                {
                  "internalType": "uint256",
                  "name": "X",
                  "type": "uint256"
                },
                {
                  "internalType": "uint256",
                  "name": "Y",
                  "type": "uint256"
                }
              ],
              "internalType": "struct PairingsBn254.G1Point[8]",
              "name": "gate_setup_commitments",
              "type": "tuple[8]"
            },
            {
              "components": [
                {
                  "internalType": "uint256",
                  "name": "X",
                  "type": "uint256"
                },
                {
                  "internalType": "uint256",
                  "name": "Y",
                  "type": "uint256"
                }
              ],
              "internalType": "struct PairingsBn254.G1Point[4]",
              "name": "permutation_commitments",
              "type": "tuple[4]"
            },
            {
              "components": [
                {
                  "internalType": "uint256",
                  "name": "X",
                  "type": "uint256"
                },
                {
                  "internalType": "uint256",
                  "name": "Y",
                  "type": "uint256"
                }
              ],
              "internalType": "struct PairingsBn254.G1Point",
              "name": "lookup_selector_commitment",
              "type": "tuple"
            },
            {
              "components": [
                {
                  "internalType": "uint256",
                  "name": "X",
                  "type": "uint256"
                },
                {
                  "internalType": "uint256",
                  "name": "Y",
                  "type": "uint256"
                }
              ],
              "internalType": "struct PairingsBn254.G1Point[4]",
              "name": "lookup_tables_commitments",
              "type": "tuple[4]"
            },
            {
              "components": [
                {
                  "internalType": "uint256",
                  "name": "X",
                  "type": "uint256"
                },
                {
                  "internalType": "uint256",
                  "name": "Y",
                  "type": "uint256"
                }
              ],
              "internalType": "struct PairingsBn254.G1Point",
              "name": "lookup_table_type_commitment",
              "type": "tuple"
            },
            {
              "components": [
                {
                  "internalType": "uint256",
                  "name": "value",
                  "type": "uint256"
                }
              ],
              "internalType": "struct PairingsBn254.Fr[3]",
              "name": "non_residues",
              "type": "tuple[3]"
            },
            {
              "components": [
                {
                  "internalType": "uint256[2]",
                  "name": "X",
                  "type": "uint256[2]"
                },
                {
                  "internalType": "uint256[2]",
                  "name": "Y",
                  "type": "uint256[2]"
                }
              ],
              "internalType": "struct PairingsBn254.G2Point[2]",
              "name": "g2_elements",
              "type": "tuple[2]"
            }
          ],
          "internalType": "struct VerificationKey",
          "name": "vk",
          "type": "tuple"
        },
        {
          "components": [
            {
              "internalType": "uint256[]",
              "name": "input_values",
              "type": "uint256[]"
            },
            {
              "components": [
                {
                  "internalType": "uint256",
                  "name": "X",
                  "type": "uint256"
                },
                {
                  "internalType": "uint256",
                  "name": "Y",
                  "type": "uint256"
                }
              ],
              "internalType": "struct PairingsBn254.G1Point[4]",
              "name": "state_polys_commitments",
              "type": "tuple[4]"
            },
            {
              "components": [
                {
                  "internalType": "uint256",
                  "name": "X",
                  "type": "uint256"
                },
                {
                  "internalType": "uint256",
                  "name": "Y",
                  "type": "uint256"
                }
              ],
              "internalType": "struct PairingsBn254.G1Point",
              "name": "copy_permutation_grand_product_commitment",
              "type": "tuple"
            },
            {
              "components": [
                {
                  "internalType": "uint256",
                  "name": "X",
                  "type": "uint256"
                },
                {
                  "internalType": "uint256",
                  "name": "Y",
                  "type": "uint256"
                }
              ],
              "internalType": "struct PairingsBn254.G1Point[4]",
              "name": "quotient_poly_parts_commitments",
              "type": "tuple[4]"
            },
            {
              "components": [
                {
                  "internalType": "uint256",
                  "name": "value",
                  "type": "uint256"
                }
              ],
              "internalType": "struct PairingsBn254.Fr[4]",
              "name": "state_polys_openings_at_z",
              "type": "tuple[4]"
            },
            {
              "components": [
                {
                  "internalType": "uint256",
                  "name": "value",
                  "type": "uint256"
                }
              ],
              "internalType": "struct PairingsBn254.Fr[1]",
              "name": "state_polys_openings_at_z_omega",
              "type": "tuple[1]"
            },
            {
              "components": [
                {
                  "internalType": "uint256",
                  "name": "value",
                  "type": "uint256"
                }
              ],
              "internalType": "struct PairingsBn254.Fr[1]",
              "name": "gate_selectors_openings_at_z",
              "type": "tuple[1]"
            },
            {
              "components": [
                {
                  "internalType": "uint256",
                  "name": "value",
                  "type": "uint256"
                }
              ],
              "internalType": "struct PairingsBn254.Fr[3]",
              "name": "copy_permutation_polys_openings_at_z",
              "type": "tuple[3]"
            },
            {
              "components": [
                {
                  "internalType": "uint256",
                  "name": "value",
                  "type": "uint256"
                }
              ],
              "internalType": "struct PairingsBn254.Fr",
              "name": "copy_permutation_grand_product_opening_at_z_omega",
              "type": "tuple"
            },
            {
              "components": [
                {
                  "internalType": "uint256",
                  "name": "value",
                  "type": "uint256"
                }
              ],
              "internalType": "struct PairingsBn254.Fr",
              "name": "quotient_poly_opening_at_z",
              "type": "tuple"
            },
            {
              "components": [
                {
                  "internalType": "uint256",
                  "name": "value",
                  "type": "uint256"
                }
              ],
              "internalType": "struct PairingsBn254.Fr",
              "name": "linearization_poly_opening_at_z",
              "type": "tuple"
            },
            {
              "components": [
                {
                  "internalType": "uint256",
                  "name": "X",
                  "type": "uint256"
                },
                {
                  "internalType": "uint256",
                  "name": "Y",
                  "type": "uint256"
                }
              ],
              "internalType": "struct PairingsBn254.G1Point",
              "name": "lookup_s_poly_commitment",
              "type": "tuple"
            },
            {
              "components": [
                {
                  "internalType": "uint256",
                  "name": "X",
                  "type": "uint256"
                },
                {
                  "internalType": "uint256",
                  "name": "Y",
                  "type": "uint256"
                }
              ],
              "internalType": "struct PairingsBn254.G1Point",
              "name": "lookup_grand_product_commitment",
              "type": "tuple"
            },
            {
              "components": [
                {
                  "internalType": "uint256",
                  "name": "value",
                  "type": "uint256"
                }
              ],
              "internalType": "struct PairingsBn254.Fr",
              "name": "lookup_s_poly_opening_at_z_omega",
              "type": "tuple"
            },
            {
              "components": [
                {
                  "internalType": "uint256",
                  "name": "value",
                  "type": "uint256"
                }
              ],
              "internalType": "struct PairingsBn254.Fr",
              "name": "lookup_grand_product_opening_at_z_omega",
              "type": "tuple"
            },
            {
              "components": [
                {
                  "internalType": "uint256",
                  "name": "value",
                  "type": "uint256"
                }
              ],
              "internalType": "struct PairingsBn254.Fr",
              "name": "lookup_t_poly_opening_at_z",
              "type": "tuple"
            },
            {
              "components": [
                {
                  "internalType": "uint256",
                  "name": "value",
                  "type": "uint256"
                }
              ],
              "internalType": "struct PairingsBn254.Fr",
              "name": "lookup_t_poly_opening_at_z_omega",
              "type": "tuple"
            },
            {
              "components": [
                {
                  "internalType": "uint256",
                  "name": "value",
                  "type": "uint256"
                }
              ],
              "internalType": "struct PairingsBn254.Fr",
              "name": "lookup_selector_poly_opening_at_z",
              "type": "tuple"
            },
            {
              "components": [
                {
                  "internalType": "uint256",
                  "name": "value",
                  "type": "uint256"
                }
              ],
              "internalType": "struct PairingsBn254.Fr",
              "name": "lookup_table_type_poly_opening_at_z",
              "type": "tuple"
            },
            {
              "components": [
                {
                  "internalType": "uint256",
                  "name": "X",
                  "type": "uint256"
                },
                {
                  "internalType": "uint256",
                  "name": "Y",
                  "type": "uint256"
                }
              ],
              "internalType": "struct PairingsBn254.G1Point",
              "name": "opening_proof_at_z",
              "type": "tuple"
            },
            {
              "components": [
                {
                  "internalType": "uint256",
                  "name": "X",
                  "type": "uint256"
                },
                {
                  "internalType": "uint256",
                  "name": "Y",
                  "type": "uint256"
                }
              ],
              "internalType": "struct PairingsBn254.G1Point",
              "name": "opening_proof_at_z_omega",
              "type": "tuple"
            }
          ],
          "internalType": "struct Plonk4VerifierWithAccessToDNext.Proof",
          "name": "proof",
          "type": "tuple"
        },
        {
          "components": [
            {
              "components": [
                {
                  "internalType": "uint256",
                  "name": "value",
                  "type": "uint256"
                }
              ],
              "internalType": "struct PairingsBn254.Fr",
              "name": "zero",
              "type": "tuple"
            },
            {
              "components": [
                {
                  "internalType": "uint256",
                  "name": "value",
                  "type": "uint256"
                }
              ],
              "internalType": "struct PairingsBn254.Fr",
              "name": "alpha",
              "type": "tuple"
            },
            {
              "components": [
                {
                  "internalType": "uint256",
                  "name": "value",
                  "type": "uint256"
                }
              ],
              "internalType": "struct PairingsBn254.Fr",
              "name": "beta",
              "type": "tuple"
            },
            {
              "components": [
                {
                  "internalType": "uint256",
                  "name": "value",
                  "type": "uint256"
                }
              ],
              "internalType": "struct PairingsBn254.Fr",
              "name": "gamma",
              "type": "tuple"
            },
            {
              "components": [
                {
                  "internalType": "uint256",
                  "name": "value",
                  "type": "uint256"
                }
              ],
              "internalType": "struct PairingsBn254.Fr[9]",
              "name": "alpha_values",
              "type": "tuple[9]"
            },
            {
              "components": [
                {
                  "internalType": "uint256",
                  "name": "value",
                  "type": "uint256"
                }
              ],
              "internalType": "struct PairingsBn254.Fr",
              "name": "eta",
              "type": "tuple"
            },
            {
              "components": [
                {
                  "internalType": "uint256",
                  "name": "value",
                  "type": "uint256"
                }
              ],
              "internalType": "struct PairingsBn254.Fr",
              "name": "beta_lookup",
              "type": "tuple"
            },
            {
              "components": [
                {
                  "internalType": "uint256",
                  "name": "value",
                  "type": "uint256"
                }
              ],
              "internalType": "struct PairingsBn254.Fr",
              "name": "gamma_lookup",
              "type": "tuple"
            },
            {
              "components": [
                {
                  "internalType": "uint256",
                  "name": "value",
                  "type": "uint256"
                }
              ],
              "internalType": "struct PairingsBn254.Fr",
              "name": "beta_plus_one",
              "type": "tuple"
            },
            {
              "components": [
                {
                  "internalType": "uint256",
                  "name": "value",
                  "type": "uint256"
                }
              ],
              "internalType": "struct PairingsBn254.Fr",
              "name": "beta_gamma",
              "type": "tuple"
            },
            {
              "components": [
                {
                  "internalType": "uint256",
                  "name": "value",
                  "type": "uint256"
                }
              ],
              "internalType": "struct PairingsBn254.Fr",
              "name": "v",
              "type": "tuple"
            },
            {
              "components": [
                {
                  "internalType": "uint256",
                  "name": "value",
                  "type": "uint256"
                }
              ],
              "internalType": "struct PairingsBn254.Fr",
              "name": "u",
              "type": "tuple"
            },
            {
              "components": [
                {
                  "internalType": "uint256",
                  "name": "value",
                  "type": "uint256"
                }
              ],
              "internalType": "struct PairingsBn254.Fr",
              "name": "z",
              "type": "tuple"
            },
            {
              "components": [
                {
                  "internalType": "uint256",
                  "name": "value",
                  "type": "uint256"
                }
              ],
              "internalType": "struct PairingsBn254.Fr",
              "name": "z_omega",
              "type": "tuple"
            },
            {
              "components": [
                {
                  "internalType": "uint256",
                  "name": "value",
                  "type": "uint256"
                }
              ],
              "internalType": "struct PairingsBn254.Fr",
              "name": "z_minus_last_omega",
              "type": "tuple"
            },
            {
              "components": [
                {
                  "internalType": "uint256",
                  "name": "value",
                  "type": "uint256"
                }
              ],
              "internalType": "struct PairingsBn254.Fr",
              "name": "l_0_at_z",
              "type": "tuple"
            },
            {
              "components": [
                {
                  "internalType": "uint256",
                  "name": "value",
                  "type": "uint256"
                }
              ],
              "internalType": "struct PairingsBn254.Fr",
              "name": "l_n_minus_one_at_z",
              "type": "tuple"
            },
            {
              "components": [
                {
                  "internalType": "uint256",
                  "name": "value",
                  "type": "uint256"
                }
              ],
              "internalType": "struct PairingsBn254.Fr",
              "name": "t",
              "type": "tuple"
            },
            {
              "components": [
                {
                  "internalType": "uint256",
                  "name": "X",
                  "type": "uint256"
                },
                {
                  "internalType": "uint256",
                  "name": "Y",
                  "type": "uint256"
                }
              ],
              "internalType": "struct PairingsBn254.G1Point",
              "name": "tp",
              "type": "tuple"
            }
          ],
          "internalType": "struct Plonk4VerifierWithAccessToDNext.PartialVerifierState",
          "name": "state",
          "type": "tuple"
        }
      ],
      "name": "prepare_queries",
      "outputs": [
        {
          "components": [
            {
              "components": [
                {
                  "internalType": "uint256",
                  "name": "X",
                  "type": "uint256"
                },
                {
                  "internalType": "uint256",
                  "name": "Y",
                  "type": "uint256"
                }
              ],
              "internalType": "struct PairingsBn254.G1Point[13]",
              "name": "commitments_at_z",
              "type": "tuple[13]"
            },
            {
              "components": [
                {
                  "internalType": "uint256",
                  "name": "value",
                  "type": "uint256"
                }
              ],
              "internalType": "struct PairingsBn254.Fr[13]",
              "name": "values_at_z",
              "type": "tuple[13]"
            },
            {
              "components": [
                {
                  "internalType": "uint256",
                  "name": "X",
                  "type": "uint256"
                },
                {
                  "internalType": "uint256",
                  "name": "Y",
                  "type": "uint256"
                }
              ],
              "internalType": "struct PairingsBn254.G1Point[6]",
              "name": "commitments_at_z_omega",
              "type": "tuple[6]"
            },
            {
              "components": [
                {
                  "internalType": "uint256",
                  "name": "value",
                  "type": "uint256"
                }
              ],
              "internalType": "struct PairingsBn254.Fr[6]",
              "name": "values_at_z_omega",
              "type": "tuple[6]"
            }
          ],
          "internalType": "struct Plonk4VerifierWithAccessToDNext.Queries",
          "name": "queries",
          "type": "tuple"
        }
      ],
      "stateMutability": "view",
      "type": "function"
    },
    {
      "inputs": [
        {
          "components": [
            {
              "internalType": "uint256",
              "name": "domain_size",
              "type": "uint256"
            },
            {
              "internalType": "uint256",
              "name": "num_inputs",
              "type": "uint256"
            },
            {
              "components": [
                {
                  "internalType": "uint256",
                  "name": "value",
                  "type": "uint256"
                }
              ],
              "internalType": "struct PairingsBn254.Fr",
              "name": "omega",
              "type": "tuple"
            },
            {
              "components": [
                {
                  "internalType": "uint256",
                  "name": "X",
                  "type": "uint256"
                },
                {
                  "internalType": "uint256",
                  "name": "Y",
                  "type": "uint256"
                }
              ],
              "internalType": "struct PairingsBn254.G1Point[2]",
              "name": "gate_selectors_commitments",
              "type": "tuple[2]"
            },
            {
              "components": [
                {
                  "internalType": "uint256",
                  "name": "X",
                  "type": "uint256"
                },
                {
                  "internalType": "uint256",
                  "name": "Y",
                  "type": "uint256"
                }
              ],
              "internalType": "struct PairingsBn254.G1Point[8]",
              "name": "gate_setup_commitments",
              "type": "tuple[8]"
            },
            {
              "components": [
                {
                  "internalType": "uint256",
                  "name": "X",
                  "type": "uint256"
                },
                {
                  "internalType": "uint256",
                  "name": "Y",
                  "type": "uint256"
                }
              ],
              "internalType": "struct PairingsBn254.G1Point[4]",
              "name": "permutation_commitments",
              "type": "tuple[4]"
            },
            {
              "components": [
                {
                  "internalType": "uint256",
                  "name": "X",
                  "type": "uint256"
                },
                {
                  "internalType": "uint256",
                  "name": "Y",
                  "type": "uint256"
                }
              ],
              "internalType": "struct PairingsBn254.G1Point",
              "name": "lookup_selector_commitment",
              "type": "tuple"
            },
            {
              "components": [
                {
                  "internalType": "uint256",
                  "name": "X",
                  "type": "uint256"
                },
                {
                  "internalType": "uint256",
                  "name": "Y",
                  "type": "uint256"
                }
              ],
              "internalType": "struct PairingsBn254.G1Point[4]",
              "name": "lookup_tables_commitments",
              "type": "tuple[4]"
            },
            {
              "components": [
                {
                  "internalType": "uint256",
                  "name": "X",
                  "type": "uint256"
                },
                {
                  "internalType": "uint256",
                  "name": "Y",
                  "type": "uint256"
                }
              ],
              "internalType": "struct PairingsBn254.G1Point",
              "name": "lookup_table_type_commitment",
              "type": "tuple"
            },
            {
              "components": [
                {
                  "internalType": "uint256",
                  "name": "value",
                  "type": "uint256"
                }
              ],
              "internalType": "struct PairingsBn254.Fr[3]",
              "name": "non_residues",
              "type": "tuple[3]"
            },
            {
              "components": [
                {
                  "internalType": "uint256[2]",
                  "name": "X",
                  "type": "uint256[2]"
                },
                {
                  "internalType": "uint256[2]",
                  "name": "Y",
                  "type": "uint256[2]"
                }
              ],
              "internalType": "struct PairingsBn254.G2Point[2]",
              "name": "g2_elements",
              "type": "tuple[2]"
            }
          ],
          "internalType": "struct VerificationKey",
          "name": "vk",
          "type": "tuple"
        },
        {
          "components": [
            {
              "internalType": "uint256[]",
              "name": "input_values",
              "type": "uint256[]"
            },
            {
              "components": [
                {
                  "internalType": "uint256",
                  "name": "X",
                  "type": "uint256"
                },
                {
                  "internalType": "uint256",
                  "name": "Y",
                  "type": "uint256"
                }
              ],
              "internalType": "struct PairingsBn254.G1Point[4]",
              "name": "state_polys_commitments",
              "type": "tuple[4]"
            },
            {
              "components": [
                {
                  "internalType": "uint256",
                  "name": "X",
                  "type": "uint256"
                },
                {
                  "internalType": "uint256",
                  "name": "Y",
                  "type": "uint256"
                }
              ],
              "internalType": "struct PairingsBn254.G1Point",
              "name": "copy_permutation_grand_product_commitment",
              "type": "tuple"
            },
            {
              "components": [
                {
                  "internalType": "uint256",
                  "name": "X",
                  "type": "uint256"
                },
                {
                  "internalType": "uint256",
                  "name": "Y",
                  "type": "uint256"
                }
              ],
              "internalType": "struct PairingsBn254.G1Point[4]",
              "name": "quotient_poly_parts_commitments",
              "type": "tuple[4]"
            },
            {
              "components": [
                {
                  "internalType": "uint256",
                  "name": "value",
                  "type": "uint256"
                }
              ],
              "internalType": "struct PairingsBn254.Fr[4]",
              "name": "state_polys_openings_at_z",
              "type": "tuple[4]"
            },
            {
              "components": [
                {
                  "internalType": "uint256",
                  "name": "value",
                  "type": "uint256"
                }
              ],
              "internalType": "struct PairingsBn254.Fr[1]",
              "name": "state_polys_openings_at_z_omega",
              "type": "tuple[1]"
            },
            {
              "components": [
                {
                  "internalType": "uint256",
                  "name": "value",
                  "type": "uint256"
                }
              ],
              "internalType": "struct PairingsBn254.Fr[1]",
              "name": "gate_selectors_openings_at_z",
              "type": "tuple[1]"
            },
            {
              "components": [
                {
                  "internalType": "uint256",
                  "name": "value",
                  "type": "uint256"
                }
              ],
              "internalType": "struct PairingsBn254.Fr[3]",
              "name": "copy_permutation_polys_openings_at_z",
              "type": "tuple[3]"
            },
            {
              "components": [
                {
                  "internalType": "uint256",
                  "name": "value",
                  "type": "uint256"
                }
              ],
              "internalType": "struct PairingsBn254.Fr",
              "name": "copy_permutation_grand_product_opening_at_z_omega",
              "type": "tuple"
            },
            {
              "components": [
                {
                  "internalType": "uint256",
                  "name": "value",
                  "type": "uint256"
                }
              ],
              "internalType": "struct PairingsBn254.Fr",
              "name": "quotient_poly_opening_at_z",
              "type": "tuple"
            },
            {
              "components": [
                {
                  "internalType": "uint256",
                  "name": "value",
                  "type": "uint256"
                }
              ],
              "internalType": "struct PairingsBn254.Fr",
              "name": "linearization_poly_opening_at_z",
              "type": "tuple"
            },
            {
              "components": [
                {
                  "internalType": "uint256",
                  "name": "X",
                  "type": "uint256"
                },
                {
                  "internalType": "uint256",
                  "name": "Y",
                  "type": "uint256"
                }
              ],
              "internalType": "struct PairingsBn254.G1Point",
              "name": "lookup_s_poly_commitment",
              "type": "tuple"
            },
            {
              "components": [
                {
                  "internalType": "uint256",
                  "name": "X",
                  "type": "uint256"
                },
                {
                  "internalType": "uint256",
                  "name": "Y",
                  "type": "uint256"
                }
              ],
              "internalType": "struct PairingsBn254.G1Point",
              "name": "lookup_grand_product_commitment",
              "type": "tuple"
            },
            {
              "components": [
                {
                  "internalType": "uint256",
                  "name": "value",
                  "type": "uint256"
                }
              ],
              "internalType": "struct PairingsBn254.Fr",
              "name": "lookup_s_poly_opening_at_z_omega",
              "type": "tuple"
            },
            {
              "components": [
                {
                  "internalType": "uint256",
                  "name": "value",
                  "type": "uint256"
                }
              ],
              "internalType": "struct PairingsBn254.Fr",
              "name": "lookup_grand_product_opening_at_z_omega",
              "type": "tuple"
            },
            {
              "components": [
                {
                  "internalType": "uint256",
                  "name": "value",
                  "type": "uint256"
                }
              ],
              "internalType": "struct PairingsBn254.Fr",
              "name": "lookup_t_poly_opening_at_z",
              "type": "tuple"
            },
            {
              "components": [
                {
                  "internalType": "uint256",
                  "name": "value",
                  "type": "uint256"
                }
              ],
              "internalType": "struct PairingsBn254.Fr",
              "name": "lookup_t_poly_opening_at_z_omega",
              "type": "tuple"
            },
            {
              "components": [
                {
                  "internalType": "uint256",
                  "name": "value",
                  "type": "uint256"
                }
              ],
              "internalType": "struct PairingsBn254.Fr",
              "name": "lookup_selector_poly_opening_at_z",
              "type": "tuple"
            },
            {
              "components": [
                {
                  "internalType": "uint256",
                  "name": "value",
                  "type": "uint256"
                }
              ],
              "internalType": "struct PairingsBn254.Fr",
              "name": "lookup_table_type_poly_opening_at_z",
              "type": "tuple"
            },
            {
              "components": [
                {
                  "internalType": "uint256",
                  "name": "X",
                  "type": "uint256"
                },
                {
                  "internalType": "uint256",
                  "name": "Y",
                  "type": "uint256"
                }
              ],
              "internalType": "struct PairingsBn254.G1Point",
              "name": "opening_proof_at_z",
              "type": "tuple"
            },
            {
              "components": [
                {
                  "internalType": "uint256",
                  "name": "X",
                  "type": "uint256"
                },
                {
                  "internalType": "uint256",
                  "name": "Y",
                  "type": "uint256"
                }
              ],
              "internalType": "struct PairingsBn254.G1Point",
              "name": "opening_proof_at_z_omega",
              "type": "tuple"
            }
          ],
          "internalType": "struct Plonk4VerifierWithAccessToDNext.Proof",
          "name": "proof",
          "type": "tuple"
        },
        {
          "components": [
            {
              "components": [
                {
                  "internalType": "uint256",
                  "name": "value",
                  "type": "uint256"
                }
              ],
              "internalType": "struct PairingsBn254.Fr",
              "name": "zero",
              "type": "tuple"
            },
            {
              "components": [
                {
                  "internalType": "uint256",
                  "name": "value",
                  "type": "uint256"
                }
              ],
              "internalType": "struct PairingsBn254.Fr",
              "name": "alpha",
              "type": "tuple"
            },
            {
              "components": [
                {
                  "internalType": "uint256",
                  "name": "value",
                  "type": "uint256"
                }
              ],
              "internalType": "struct PairingsBn254.Fr",
              "name": "beta",
              "type": "tuple"
            },
            {
              "components": [
                {
                  "internalType": "uint256",
                  "name": "value",
                  "type": "uint256"
                }
              ],
              "internalType": "struct PairingsBn254.Fr",
              "name": "gamma",
              "type": "tuple"
            },
            {
              "components": [
                {
                  "internalType": "uint256",
                  "name": "value",
                  "type": "uint256"
                }
              ],
              "internalType": "struct PairingsBn254.Fr[9]",
              "name": "alpha_values",
              "type": "tuple[9]"
            },
            {
              "components": [
                {
                  "internalType": "uint256",
                  "name": "value",
                  "type": "uint256"
                }
              ],
              "internalType": "struct PairingsBn254.Fr",
              "name": "eta",
              "type": "tuple"
            },
            {
              "components": [
                {
                  "internalType": "uint256",
                  "name": "value",
                  "type": "uint256"
                }
              ],
              "internalType": "struct PairingsBn254.Fr",
              "name": "beta_lookup",
              "type": "tuple"
            },
            {
              "components": [
                {
                  "internalType": "uint256",
                  "name": "value",
                  "type": "uint256"
                }
              ],
              "internalType": "struct PairingsBn254.Fr",
              "name": "gamma_lookup",
              "type": "tuple"
            },
            {
              "components": [
                {
                  "internalType": "uint256",
                  "name": "value",
                  "type": "uint256"
                }
              ],
              "internalType": "struct PairingsBn254.Fr",
              "name": "beta_plus_one",
              "type": "tuple"
            },
            {
              "components": [
                {
                  "internalType": "uint256",
                  "name": "value",
                  "type": "uint256"
                }
              ],
              "internalType": "struct PairingsBn254.Fr",
              "name": "beta_gamma",
              "type": "tuple"
            },
            {
              "components": [
                {
                  "internalType": "uint256",
                  "name": "value",
                  "type": "uint256"
                }
              ],
              "internalType": "struct PairingsBn254.Fr",
              "name": "v",
              "type": "tuple"
            },
            {
              "components": [
                {
                  "internalType": "uint256",
                  "name": "value",
                  "type": "uint256"
                }
              ],
              "internalType": "struct PairingsBn254.Fr",
              "name": "u",
              "type": "tuple"
            },
            {
              "components": [
                {
                  "internalType": "uint256",
                  "name": "value",
                  "type": "uint256"
                }
              ],
              "internalType": "struct PairingsBn254.Fr",
              "name": "z",
              "type": "tuple"
            },
            {
              "components": [
                {
                  "internalType": "uint256",
                  "name": "value",
                  "type": "uint256"
                }
              ],
              "internalType": "struct PairingsBn254.Fr",
              "name": "z_omega",
              "type": "tuple"
            },
            {
              "components": [
                {
                  "internalType": "uint256",
                  "name": "value",
                  "type": "uint256"
                }
              ],
              "internalType": "struct PairingsBn254.Fr",
              "name": "z_minus_last_omega",
              "type": "tuple"
            },
            {
              "components": [
                {
                  "internalType": "uint256",
                  "name": "value",
                  "type": "uint256"
                }
              ],
              "internalType": "struct PairingsBn254.Fr",
              "name": "l_0_at_z",
              "type": "tuple"
            },
            {
              "components": [
                {
                  "internalType": "uint256",
                  "name": "value",
                  "type": "uint256"
                }
              ],
              "internalType": "struct PairingsBn254.Fr",
              "name": "l_n_minus_one_at_z",
              "type": "tuple"
            },
            {
              "components": [
                {
                  "internalType": "uint256",
                  "name": "value",
                  "type": "uint256"
                }
              ],
              "internalType": "struct PairingsBn254.Fr",
              "name": "t",
              "type": "tuple"
            },
            {
              "components": [
                {
                  "internalType": "uint256",
                  "name": "X",
                  "type": "uint256"
                },
                {
                  "internalType": "uint256",
                  "name": "Y",
                  "type": "uint256"
                }
              ],
              "internalType": "struct PairingsBn254.G1Point",
              "name": "tp",
              "type": "tuple"
            }
          ],
          "internalType": "struct Plonk4VerifierWithAccessToDNext.PartialVerifierState",
          "name": "state",
          "type": "tuple"
        }
      ],
      "name": "rescue_custom_gate_linearization_contribution",
      "outputs": [
        {
          "components": [
            {
              "internalType": "uint256",
              "name": "X",
              "type": "uint256"
            },
            {
              "internalType": "uint256",
              "name": "Y",
              "type": "uint256"
            }
          ],
          "internalType": "struct PairingsBn254.G1Point",
          "name": "result",
          "type": "tuple"
        }
      ],
      "stateMutability": "view",
      "type": "function"
    },
    {
      "inputs": [
        {
          "internalType": "uint256[]",
          "name": "public_inputs",
          "type": "uint256[]"
        },
        {
          "internalType": "uint256[]",
          "name": "serialized_proof",
          "type": "uint256[]"
        }
      ],
      "name": "verify_serialized_proof",
      "outputs": [
        {
          "internalType": "bool",
          "name": "",
          "type": "bool"
        }
      ],
      "stateMutability": "view",
      "type": "function"
    }
  ],
  "bytecode": "0x608060405234801561001057600080fd5b506153fe806100206000396000f3fe608060405234801561001057600080fd5b50600436106100675760003560e01c8063bd5794e211610050578063bd5794e2146100b4578063c2ef6041146100c9578063fec4e96e146100e957600080fd5b8063330deb9f1461006c5780633ec236cb14610094575b600080fd5b61007f61007a3660046145b0565b6100fe565b60405190151581526020015b60405180910390f35b6100a76100a2366004614ed7565b610141565b60405161008b9190615002565b6100bc610296565b60405161008b9190615151565b6100dc6100d7366004614ed7565b610af4565b60405161008b9190615284565b6100fc6100f736600461531e565b610e58565b005b600080610109610296565b6020810151909150851461011c57600080fd5b600061012a87878787610f06565b9050610136818361135f565b979650505050505050565b6040805180820190915260008082526020820152604080516020810190915260008152604080516020810190915260008152608085015161019a9060005b60200201516040805160208101909152600081529051815290565b91506101a68280611644565b60808501516101be9060015b60200201518390611670565b60808401516101d69060015b60200201518390611644565b6101e081836116c6565b60808501516101f090600161017f565b91506101fc8280611644565b608085015161020c9060026101b2565b608084015161021c9060026101ca565b61022681836116c6565b608085015161023690600261017f565b60808601519092506102499060006101ca565b60808501516102599060036101b2565b60808401516102699060036101ca565b61027381836116c6565b606086015161028c90829060015b6020020151906116f2565b9695505050505050565b61029e613e3c565b60016020820152630400000081526102d57f1dba8b5bdd64ef6ce29a9039aca3c0e524395c43b9227b96c75090cc6cc7ec97611731565b60408201526103247f08fa9d6f0dd6ac1cbeb94ae20fe7a23df05cb1095df66fb561190e615a4037ef7f196dcc8692fe322d21375920559944c12ba7b1ba8b732344cf4ba2e3aa0fc8b461177e565b6080820151526103737e74aaf5d97bd57551311a8b3e4aa7840bc55896502020b2f43ad6a98d81a4437f2d275a3ad153dc9d89ebb9c9b6a0afd2dde82470554e9738d905c328fbb4c8bc61177e565b6080820151602001526103c67f287f1975a9aeaef5d2bb0767b5ef538f76e82f7da01c0cb6db8c6f920818ec4f7f2fff6f53594129f794a7731d963d27e72f385c5c6d8e08829e6f66a9d29a12ea61177e565b6080820151604001526104197f038809fa3d4b7320d43e023454194f0a7878baa7e73a295d2d105260f1c34cbc7f25418b1105cf45b2a3da6c349bab1d9caaf145eaf24d1e8fb92c11654c00078161177e565b60808201516060015261046c7f0561cafd527ac3f0bc550db77d87cd1c63938f7ec051e62ebf84a5bbe07f98407f28f87201b4cbe19f1517a1c29ca6d6cb074502ccfed4c31c8931c6992c3eea4361177e565b60808281015101526104be7f27e0af572bac6e36d31c33808cb44c0ef8ceee5e2850e916fb01f3747db724917f1da20087ba61c59366b21e31e4ac6889d357cf11bf16b94d875f94f41525c42761177e565b608082015160a001526105117f2c2bcafea8f93d07f96874f470985a8d272c09c8ed49373f36497ee80bd8da177f299276cf6dca1a7e3780f6276c5d067403f6e024e83e0cc1ab4c5f7252b7f65361177e565b608082015160c001526105647f0ba9d4a53e050da25b8410045b634f1ca065ff74acd35bab1a72bf1f20047ef37f1f1eefc8b0507a08f852f554bd7abcbd506e52de390ca127477a678d212abfe561177e565b608082015160e001526105b77f1c6b68d9920620012d85a4850dad9bd6d03ae8bbc7a08b827199e85dba1ef2b17f0f6380560d1b585628ed259289cec19d3a7c70c60e66bbfebfcb70c8c312d91e61177e565b6060820151526106067f0dfead780e5067181aae631ff734a33fca302773472997daca58ba49dbd20dcc7ef13fa6e356f525d2fd1c533acf2858c0d2b9f0a9b3180f94e1543929c7507361177e565b6060820151602001526106597f1df0747c787934650d99c5696f9273088ad07ec3e0825c9d39685a9b9978ebed7f2ace2a277becbc69af4e89518eb50960a733d9d71354845ea43d2e65c8e0e4cb61177e565b60a0820151526106a97f06598c8236a5f5045cd7444dc87f3e1f66f99bf01251e13be4dc0ab1f7f1af4b7f14ca234fe9b3bb1e5517fc60d6b90f8ad44b0899a2d4f71a64c9640b3142ce8b61177e565b60a0820151602001526106fc7f01889e2c684caefde60471748f4259196ecf4209a735ccdf7b1816f05bafa50a7f092d287a080bfe2fd40ad392ff290e462cd0e347b8fd9d05b90af234ce77a11b61177e565b60a08201516040015261074f7f0dd98eeb5bc12c221da969398b67750a8774dbdd37a78da52367f9fc0e566d5c7f06750ceb40c9fb87fc424df9599340938b7552b759914a90cb0e41d3915c945b61177e565b60a0820151606001526107a27f2f491c662ae53ceb358f57a868dc00b89befa853bd9a449127ea2d46820995bd7f231fe6538634ff8b6fa21ca248fb15e7f43d82eb0bfa705490d24ddb3e3cad7761177e565b60c08201526107f17f0ebe0de4a2f39df3b903da484c1641ffdffb77ff87ce4f9508c548659eb22d3c7f12a3209440242d5662729558f1017ed9dcc08fe49a99554dd45f5f15da5e4e0b61177e565b60e0820151526108417f1b7d54f8065ca63bed0bfbb9280a1011b886d07e0c0a26a66ecc96af68c53bf97f2c51121fff5b8f58c302f03c74e0cb176ae5a1d1730dec4696eb9cce3fe284ca61177e565b60e0820151602001526108947f0138733c5faa9db6d4b8df9748081e38405999e511fb22d40f77cf3aef293c447f269bee1c1ac28053238f7fe789f1ea2e481742d6d16ae78ed81e87c254af076561177e565b60e0820151604001526108e77f1b1be7279d59445065a95f01f16686adfa798ec4f1e6845ffcec9b837e88372e7f057c90cb96d8259238ed86b05f629efd55f472a721efeeb56926e979433e6c0e61177e565b60e08201516060015261093a7f12cd873a6f18a4a590a846d9ebf61565197edf457efd26bc408eb61b72f37b597f19890cbdac892682e7a5910ca6c238c082130e1c71f33d0c9c901153377770d161177e565b61010082015261094a6005611731565b6101208201515261095b6007611731565b6101208201516020015261096f600a611731565b61012082015160026020020181905250610a3160405180604001604052807f198e9393920d483a7260bfb731fb5d25f1aa493335a9e71297e485b7aef312c281526020017f1800deef121f1e76426a00665e5c4479674322d4f75edadd46debd5cd992f6ed81525060405180604001604052807f090689d0585ff075ec9e99ad690c3395bc4b313370b38ef355acdadcd122975b81526020017f12c85ea5db8c6deb4aab71808dcb408fe3d1e7690c43d37b4ce6cc0166fa7daa8152506117a9565b610140820151526040805180820182527f260e01b251f6f1c7e7ff4e580791dee8ea51d87a358e038b4efe30fac09383c181527f0118c4d5b837bcc2bc89b5b398b5974e9f5944073b32078b7e231fec938883b060208281019190915282518084019093527f04fc6369f7110fe3d25156c1bb9a72859cf2a04641f99ba4ee413c80da6a5fe483527f22febda3c0c0632a56475b4214e5615e11e6dd3f96e6cea2854a87d4dacc5e5590830152610ae7916117a9565b6101408201516020015290565b610afc613f03565b600260005b6004811015610b7f5784602001518160048110610b2057610b20615342565b6020020151835183600d8110610b3857610b38615342565b602002015260808501518160048110610b5357610b53615342565b6020020151836020015183600d8110610b6e57610b6e615342565b602002015260019182019101610b01565b50606085015151825182600d8110610b9957610b99615342565b602002015260c084015160006020020151826020015182600d8110610bc057610bc0615342565b602002015260010160005b610bd76001600461536e565b811015610c53578560a001518160048110610bf457610bf4615342565b6020020151835183600d8110610c0c57610c0c615342565b602002015260e08501518160038110610c2757610c27615342565b6020020151836020015183600d8110610c4257610c42615342565b602002015260019182019101610bcb565b5060408481015190830151526020840151610c706001600461536e565b60048110610c8057610c80615342565b6020908102919091015160408401518201526101008501516060840180519190915260a0808701515191519092015260e08601515190840151600090610cd6906040805160208101909152600081529051815290565b905060015b6004811015610d2957610cfe828960e00151836004811061028157610281615342565b6102408701819052610d119084906117b1565b60a0860151610d21908390611644565b600101610cdb565b508351829084600d8110610d3f57610d3f615342565b6020020181905250856101e00151846020015184600d8110610d6357610d63615342565b602002015260c087015184516001949094019384600d8110610d8757610d87615342565b6020020181905250856102200151846020015184600d8110610dab57610dab615342565b602002015261010087015184516001949094019384600d8110610dd057610dd0615342565b6020020181905250856102400151846020015184600d8110610df457610df4615342565b602002015250610160850151604084810180518201929092526101a0870151606080870180519093019190915261018088015183518201526101c0880151825190910152905160809081019290925261020090950151945101939093529392505050565b602081015151600003610e6a57600080fd5b610e746001611731565b608082018051919091526020808301805160408051808501825260008082529251815294518401949094529051835192830190935281529051815260025b6009811015610f01576020830151610ecb908390611644565b6040805160208101909152600081528251815283608001518260098110610ef457610ef4615342565b6020020152600101610eb2565b505050565b610f0e613f3d565b602c8214610f1b57600080fd5b8367ffffffffffffffff811115610f3457610f3461461c565b604051908082528060200260200182016040528015610f5d578160200160208202803683370190505b50815260005b84811015610fad57858582818110610f7d57610f7d615342565b9050602002013582600001518281518110610f9a57610f9a615342565b6020908102919091010152600101610f63565b506000805b600481101561102757610ffe858584818110610fd057610fd0615342565b905060200201358686610fe38660010190565b818110610ff257610ff2615342565b905060200201356117c0565b8360200151826004811061101457611014615342565b6020020152600282019150600101610fb2565b5061105084848381811061103d5761103d615342565b905060200201358585610fe38560010190565b604083015260020161106d84848381811061103d5761103d615342565b61016083015260020161108b84848381811061103d5761103d615342565b61018083015260020160005b60048110156110de576110b5858584818110610fd057610fd0615342565b836060015182600481106110cb576110cb615342565b6020020152600282019150600101611097565b5060005b60048110156111335761110c85858481811061110057611100615342565b90506020020135611731565b8360800151826004811061112257611122615342565b6020020152600191820191016110e2565b5060005b600181101561117c5761115585858481811061110057611100615342565b8360a00151826001811061116b5761116b615342565b602002015260019182019101611137565b5060005b60018110156111c55761119e85858481811061110057611100615342565b8360c0015182600181106111b4576111b4615342565b602002015260019182019101611180565b5060005b600381101561120e576111e785858481811061110057611100615342565b8360e0015182600381106111fd576111fd615342565b6020020152600191820191016111c9565b5061122484848381811061110057611100615342565b61010083015260010161124284848381811061110057611100615342565b6101a083015260010161126084848381811061110057611100615342565b6101c083015260010161127e84848381811061110057611100615342565b6101e083015260010161129c84848381811061110057611100615342565b6102008301526001016112ba84848381811061110057611100615342565b6102208301526001016112d884848381811061110057611100615342565b6102408301526001016112f684848381811061110057611100615342565b61012083015260010161131484848381811061110057611100615342565b61014083015260010161133284848381811061103d5761103d615342565b61026083015260020161135084848381811061103d5761103d615342565b61028083015250949350505050565b60008061136c84846119e8565b9050611379838583612691565b151560000361138c57600091505061163e565b60608401516000906113c590825b6020020151604080518082019091526000808252602080830191825283518352929092015190915290565b84516101808401519192506000916113dc9161299c565b604080516020808201835260008083528451835283518085019094528084529083015291925060015b600481101561144f576114278960600151826004811061139a5761139a615342565b91506114338284612a2d565b61143d85836117b1565b6114478385611644565b600101611405565b505050506000611460858785610af4565b8051839052610120870151602082015152905061147e858785612a38565b815160209081019190915261014087015181830180519092015281515190515160006114aa6001611731565b90506114c9604051806040016040528060008152602001600081525090565b60015b600d811015611552576101408801516114e6908490611644565b61150083876000015183600d811061028157610281615342565b915061150c85836117b1565b856020015181600d811061152257611522615342565b602002015161022089018190526115399084611644565b61022088015161154a9085906116c6565b6001016114cc565b50610140870151611564908390611644565b600061158183876040015160006006811061028157610281615342565b6060870151519091506115948185611644565b60015b600681101561161d576101408a01516115b1908690611644565b6115cb858960400151836006811061028157610281615342565b93506115d783856117b1565b876060015181600681106115ed576115ed615342565b60200201516102208b018190526116049086611644565b6102208a01516116159083906116c6565b600101611597565b506116328b61014001518d8b89868a87612e8a565b99505050505050505050505b92915050565b7f30644e72e131a029b85045b68181585d2833e84879b9709143e1f593f0000001815183510990915250565b7f30644e72e131a029b85045b68181585d2833e84879b9709143e1f593f000000181516116bd907f30644e72e131a029b85045b68181585d2833e84879b9709143e1f593f000000161536e565b83510890915250565b7f30644e72e131a029b85045b68181585d2833e84879b9709143e1f593f0000001815183510890915250565b60408051808201909152600080825260208201528251158015611719575082602001516001145b1561172657600060208401525b61163e838383613025565b6040805160208101909152600081527f30644e72e131a029b85045b68181585d2833e84879b9709143e1f593f0000001821061176c57600080fd5b50604080516020810190915290815290565b60408051808201909152600080825260208201525b5060408051808201909152918252602082015290565b61179361414b565b6117bc828284613067565b5050565b6040805180820190915260008082526020820152821580156117e0575081155b1561180157604051806040016040528084815260200183815250905061163e565b7f30644e72e131a029b85045b68181585d97816a916871ca8d3c208c16d87cfd4783106118755760405162461bcd60e51b815260206004820152601260248201527f7820617869732069736e27742076616c6964000000000000000000000000000060448201526064015b60405180910390fd5b7f30644e72e131a029b85045b68181585d97816a916871ca8d3c208c16d87cfd4782106118e45760405162461bcd60e51b815260206004820152601260248201527f7920617869732069736e27742076616c69640000000000000000000000000000604482015260640161186c565b60007f30644e72e131a029b85045b68181585d97816a916871ca8d3c208c16d87cfd47838409905060007f30644e72e131a029b85045b68181585d97816a916871ca8d3c208c16d87cfd4785860990507f30644e72e131a029b85045b68181585d97816a916871ca8d3c208c16d87cfd4785820990507f30644e72e131a029b85045b68181585d97816a916871ca8d3c208c16d87cfd476003820890508082146119d05760405162461bcd60e51b815260206004820152600f60248201527f6973206e6f74206f6e2063757276650000000000000000000000000000000000604482015260640161186c565b50506040805180820190915292835250602082015290565b6119f061416b565b60408051606081018252600080825260208201819052918101829052905b8360200151811015611a5257611a4a85600001518281518110611a3357611a33615342565b6020026020010151836130f790919063ffffffff16565b600101611a0e565b5060005b6004811015611b8357611b7b85602001518260048110611a7857611a78615342565b602002015183908051825160208085018051604080516000818601819052602480830188905260448084019590955260648084018a9052845180850382018152608494850186528051908901208c5286518551600160e01b818b018190528185019b909b52808801919091528082019a909a528451808b03820181529984018552895199880199909920808752998701518b518551808a01949094528383018190528387019b909b52828a0181905284518084038b0181529284018552825192880192909220909a528451835180880198909852998701989098529185019790975283850195909552855180840390940184529190930190935280519101209052565b600101611a56565b50611b8d81613185565b60a08301526101608401518051825160208085018051604080516000818601819052602480830188905260448084019590955260648084018a9052845180850382018152608494850186528051908901208c5286518551600160e01b818b018190528185019b909b52808801919091528082019a909a528451808b03820181529984018552895199880199909920808752998701518b518551808a01949094528383018190528387019b909b52828a0181905284518084038b01815292840185528251928801929092208b528551845180890199909952908801999099529286019790975284860191909152805180850390950185529290940190915281519101209052611c9a81613185565b6040830152611ca881613185565b6060830152604084810151805183516020808601805186516000818501819052602480830187905260448084019490945260648084018990528a518085038201815260849485018c528051908801208c5285518b51600160e01b818a018190528185019a909a5280870191909152808201999099528a51808a03820181529884018b52885198870198909820808652988601518b518b51808901949094528383018190528386019a909a528289018190528a518084038a0181529284018b528251928701929092208b5284518a5180880198909852908701989098529185019690965283850152855180840390940184529190930190935280519101209052611db081613185565b60c0830152611dbe81613185565b60e08301526101808401518051825160208085018051604080516000818601819052602480830188905260448084019590955260648084018a9052845180850382018152608494850186528051908901208c5286518551600160e01b818b018190528185019b909b52808801919091528082019a909a528451808b03820181529984018552895199880199909920808752998701518b518551808a01949094528383018190528387019b909b52828a0181905284518084038b01815292840185528251928801929092208b528551845180890199909952908801999099529286019790975284860191909152805180850390950185529290940190915281519101209052611ecb81613185565b602083015260005b6004811015611efd57611ef585606001518260048110611a7857611a78615342565b600101611ed3565b50611f0781613185565b610180830152610120840151518151602080840180516040805160008186015260248082018790526044808301949094526064808301899052835180840382018152608493840185528051908801208a5285518451600160e01b818a015292830198909852938101969096528583019690965280518086039092018252939094019092528251920191909120905260005b600481101561204d5761204585608001518260048110611fba57611fba615342565b6020908102919091015151845185830180516040805160008188015260248082018690526044808301949094526064808301889052835180840382018152608493840185528051908a01208c5285518451600160e01b818c01529283019790975293810195909552848301959095528051808503909201825292909301909152815191909201209052565b600101611f98565b5060005b600181101561207b576120738560a001518260018110611fba57611fba615342565b600101612051565b5060005b60018110156120a9576120a18560c001518260018110611fba57611fba615342565b60010161207f565b5060005b60038110156120d7576120cf8560e001518260038110611fba57611fba615342565b6001016120ad565b506101808201516040805160208101825260008152915182526101a084018290528401516121059190611644565b61010084015151815160208084018051604080516000818601819052602480830188905260448084019590955260648084018a9052845180850382018152608494850186528051908901208b5286518551600160e01b818b018190528185019b909b52808801919091528082019a909a528451808b038201815299840185528951998801999099208087526101e08e0151518b518651808b0186905280850182905280890193909352828c0182905286518084038d01815292860187528251928a01929092208c5287518651808b018c90528085019390935282880152818b015284518082038b01815290840185528051908801208087526102208e0151518b518651808b0186905280850182905280890193909352828c0182905286518084038d01815292860187528251928a01929092208c5287518651808b018c90528085019390935282880152818b015284518082038b01815290840185528051908801208087526102408e0151518b518651808b0186905280850182905280890193909352828c0182905286518084038d01815292860187528251928a01929092208c5287518651808b018c90528085019390935282880152818b015284518082038b01815290840185528051908801208087526101a08e0151518b518651808b0186905280850182905280890193909352828c0182905286518084038d01815292860187528251928a01929092208c5287518651808b018c90528085019390935282880152818b015284518082038b01815290840185528051908801208087526101c08e0151518b518651808b0186905280850182905280890193909352828c0182905286518084038d01815292860187528251928a01929092208c5287518651808b018c90528085019390935282880152818b015284518082038b01815290840185528051908801208087526102008e0151518b518651808b0186905280850182905280890193909352828c0182905286518084038d01815292860187528251928a01929092208c5287518651808b018c90528085019390935282880152818b015284518082038b01815290840185528051908801208087526101408e0151518b518651808b019590955284840181905284880192909252838b0181905285518085038c01815293850186528351938901939093208b5286518551808a019a909a529189015293870193909352858701929092528051808603909601865293019092528251920191909120905261249b81613185565b6101408301526102608401518051825160208085018051604080516000818601819052602480830188905260448084019590955260648084018a9052845180850382018152608494850186528051908901208c5286518551600160e01b818b018190528185019b909b52808801919091528082019a909a528451808b03820181529984018552895199880199909920808752998701518b518551808a018590528084018290528088019c909c528b8b018290528551808d038c0181529b850186528b519b89019b909b208c5286518551808a018b90528084019c909c528b8701528a8a01528351808b038a01815299830184528951998701999099208086526102808e015180518c518651808b01869052808e0182905280890194909452838c0182905286518085038d01815293860187528351938a01939093208d5287518651808b018c9052808e019490945283880152828b015284518083038b0181529184018552815191880191909120808752908701518b518551808a0194909452838c0181905283870192909252828a0181905284518084038b01815292840185528251928801929092208b52855184518089019990995299880152928601979097528486019190915280518085039095018552929094019091528151910120905261268481613185565b6101608301525092915050565b600080846020015167ffffffffffffffff8111156126b1576126b161461c565b6040519080825280602002602001820160405280156126da578160200160208202803683370190505b50905060005b815181101561270f57808282815181106126fc576126fc615342565b60209081029190910101526001016126e0565b50600085602001511161272157600080fd5b600061272d6000611731565b905060005b86602001518110156127ab576127578188600001518960400151886101800151613275565b6102208601528551805161279291612786918490811061277957612779615342565b6020026020010151611731565b61022087015190611644565b6102208501516127a39083906116c6565b600101612732565b5060c08501516127c49060005b60200201518290611644565b610140850151604080516020810190915260008152905181526127e781836116c6565b6127f085610e58565b608085015160009061280390600461017f565b905061281d8761010001518261164490919063ffffffff16565b6128296001600461536e565b60031461283557600080fd5b60408051602081019091526000815260005b60038110156128c9576128698960e00151826003811061017f5761017f615342565b915061288288604001518361164490919063ffffffff16565b6128a78960800151826004811061289b5761289b615342565b602002015183906116c6565b60608801516128b79083906116c6565b6128c18383611644565b600101612847565b5060808801516128da90600361017f565b90506128f38760600151826116c690919063ffffffff16565b6128fd8282611644565b6129078383611670565b600061291c8a60000151896101800151613323565b608089015190915061292f9060056127b8565b6129398482611670565b60006129468b8b8b6133a9565b905061295285826116c6565b6101208a0151604080516020810190915260008152905181528b516101808b015161298791612980916135f9565b8290611644565b945194519094149a9950505050505050505050565b604080516020808201835260008252825160c0810184528181528082018290529283015283516060830152608082018390527f30644e72e131a029b85045b68181585d2833e84879b9709143e1f593f000000160a0830152906129fd61431f565b600060208260c08560055afa905080612a1557600080fd5b50604080516020810190915290518152949350505050565b6117bc828284613025565b6040805180820190915260008082526020820152612a5760008061177e565b90506000612a868460800151600060048110612a7557612a75615342565b602002015160808701516000610281565b9050612a9282826117b1565b6080840151612aae906001602002015160808701516001610281565b9050612aba82826117b1565b6080840151612ad6906002602002015160808701516002610281565b9050612ae282826117b1565b6080840151612afe906003602002015160808701516003610281565b9050612b0a82826117b1565b6080840151600090612b1c908261017f565b6080860151909150612b2f9060016127b8565b6080860151612b419082906004610281565b9150612b4d83836117b1565b6080850151612b5d90600061017f565b6080860151909150612b709060026127b8565b6080860151612b829082906005610281565b9150612b8e83836117b1565b608086015160c00151612ba29084906117b1565b60a0850151516080870151612bb991906007610281565b9150612bc583836117b1565b60c085015151612bd6908490612a2d565b6000612be3878787610141565b9050612bef84826117b1565b612bfb6001600461536e565b600314612c0757600080fd5b6000612c136001611731565b90506000612c31876080015160046009811061017f5761017f615342565b905060005b6004811015612cf95761018088015160408051602081019091526000815290518152945080600003612c7157612c6c8584611644565b612ca2565b6101208a0151612ca290612c8660018461536e565b60038110612c9657612c96615342565b60200201518690611644565b6040880151612cb2908690611644565b6060880151612cc29086906116c6565b612ce789608001518260048110612cdb57612cdb615342565b602002015186906116c6565b612cf18286611644565b600101612c36565b506040880151612d0990826116f2565b9450612d1586866117b1565b6080870151612d2590600461017f565b9050612d3e87604001518261164490919063ffffffff16565b610100880151612d4f908290611644565b60005b612d5e6001600461536e565b811015612dd257612d7e8960e00151826003811061017f5761017f615342565b9450612d9788604001518661164490919063ffffffff16565b6060880151612da79086906116c6565b612dc089608001518260048110612cdb57612cdb615342565b612dca8286611644565b600101612d52565b5060a0890151612de59082906003610281565b9450612df18686613628565b612e0b60008a600001518b604001518a6101800151613275565b6101e0880181905251600003612e2057600080fd5b506101e0860151604080516020810190915260008152905181526080870151612e4a9060056127b8565b6040880151612e5990826116f2565b9450612e6586866117b1565b6000612e718989613633565b9050612e7d87826117b1565b5050505050509392505050565b60408051808201909152600080825260208083018281528751845290870151905290612ec487610160015186612a2d90919063ffffffff16565b612ece81866117b1565b60408051602081019091526000815283518152610160880151612ef2908290611644565b612efc81866116c6565b6000612f3482612f2e604080518082018252600080825260209182015281518083019092526001825260029082015290565b906116f2565b9050612f408382613628565b6101808901516102608b0151612f55916116f2565b90506000612f788a6101a001516040805160208101909152600081529051815290565b9050612f928a61016001518261164490919063ffffffff16565b6102808b0151600090612fa590836116f2565b9050612fb183826117b1565b612fbb85846117b1565b6000612fda8c61016001518e61028001516116f290919063ffffffff16565b9050612ff48d6102600151826117b190919063ffffffff16565b612ffd81613901565b8d5160208f015161301088838584613953565b98505050505050505050979650505050505050565b61302d61433d565b835181526020840151816001602002015282518160026020020152600060408360608460075afa90508061306057600080fd5b5050505050565b815115801561307857506020820151155b15613090578251815260209283015192019190915250565b82511580156130a157506020830151155b156130b6578151815260209182015191015250565b6130be61435b565b8351815260208085015181830152835160408301528301518160035b6020020152600060408360808460065afa90508061306057600080fd5b81516020808401516040516000928101929092526024820183905260448201526064810183905260840160408051808303601f1901815291815281516020928301208552848201519051600160e01b928101929092526024820183905260448201526064810183905260840160408051601f1981840301815291905280516020918201209301929092525050565b604080516020810190915260008152815160208084015160408086015190517c0200000000000000000000000000000000000000000000000000000000938101939093526024830193909352604482015260e09190911b7fffffffff000000000000000000000000000000000000000000000000000000001660648201526000906068016040516020818303038152906040528051906020012090506001836040018181516132349190615381565b63ffffffff1690525060408051602081019091527f1fffffffffffffffffffffffffffffffffffffffffffffffffffffffffffffff91909116815292915050565b60408051602081019091526000815283851061329057600080fd5b600061329c6001611731565b905060006132aa858861299c565b90506132b6848761299c565b92506132c28383611670565b82516000036132d057600080fd5b6132da8382611644565b604080516020810190915260008152845181526132f78183611670565b61330361298088611731565b61330c81613a53565b90506133188482611644565b505050949350505050565b604080516020810190915260008152600061333e6001611731565b9050600061334b85611731565b6040805160208101909152600081528551815290915061336b8184611670565b6133758183611644565b61337e81613a53565b905061338a858761299c565b93506133968484611670565b6133a08482611644565b50505092915050565b60408051602081019091526000815260408051602081019091526000815260006133d36001611731565b90506133f38460c001516040805160208101909152600081529051815290565b610100850181905261340590826116c6565b61010084015160408051602081019091526000815290518152610120850181905260e08501516134359190611644565b6101a08501516040805160208101909152600081529051815291506134678460c001518361164490919063ffffffff16565b6101208401516134789083906116c6565b6101c0850151613489908390611644565b60808401516134999060066101ca565b60006134ba600188600001516134af919061536e565b60408901519061299c565b90506134db8561018001516040805160208101909152600081529051815290565b6101c086018190526134ed9082611670565b6101c08501516134fe908490611644565b61350884846116c6565b613522600088600001518960400151886101800151613275565b6101e0860181905260408051602081019091526000815290518152608086015160e00151909350613554908490611644565b61355e8484611670565b600061358060018960000151613574919061536e565b6101208801519061299c565b90506135a860018960000151613596919061536e565b895160408b01516101808a0151613275565b61020087018190526040805160208101909152600081529051815293506135cf8482611644565b608086015161010001516135e4908590611644565b6135ee8585611670565b505050509392505050565b604080516020810190915260008152613612828461299c565b905061163e6136216001611731565b8290611670565b6117bc828284613aa4565b604080518082019091526000808252602082015260006136536000611731565b905061366b6040518060200160405280600081525090565b60408051602080820183526000918290526101c088015183519182019093529081529051815260808501516136a19060066127b8565b6101c08501516136b2908290611644565b6101608601516000906136c590836116f2565b90506136d185826117b1565b6102008701516040805160208101909152600081529051815291506137038660c001518361164490919063ffffffff16565b6101e08701516137149083906116c6565b6101208601516137259083906116c6565b60408051602081019091526000815260006137406001611731565b90506137586040518060200160405280600081525090565b60005b6137676001600461536e565b8110156137b5576137878b60800151826004811061017f5761017f615342565b91506137938284611644565b61379d84836116c6565b60a08a01516137ad908490611644565b60010161375b565b506102408a01516040805160208101909152600081529051815295506137db8683611644565b6137e583876116c6565b6102208a01516137f6908490611644565b60e08901516138069084906116c6565b6138108584611644565b610100890151613821908690611644565b6040805160208101909152600081528751815295506138408686611670565b6080890151869550613853906006612c96565b6101c0890151613864908690611644565b6101e08901516040805160208101909152600081529051815260808a01519096506138989060075b60200201518790611644565b6138a285876116c6565b6102008901516040805160208101909152600081529051815260808a01519096506138ce90600861388c565b6138d885876116c6565b6101808a01516138e890866116f2565b93506138f488856117b1565b5050505050505092915050565b806020015160000361391c5780511561391957600080fd5b50565b602081015161394b907f30644e72e131a029b85045b68181585d97816a916871ca8d3c208c16d87cfd4761536e565b602090910152565b60408051600280825260608201909252600091829190816020015b604080518082019091526000808252602082015281526020019060019003908161396e5750506040805160028082526060820190925291925060009190602082015b6139b861414b565b8152602001906001900390816139b057905050905086826000815181106139e1576139e1615342565b60200260200101819052508482600181518110613a0057613a00615342565b60200260200101819052508581600081518110613a1f57613a1f615342565b60200260200101819052508381600181518110613a3e57613a3e615342565b60200260200101819052506101368282613b72565b6040805160208101909152600081528151600003613a7057600080fd5b61163e82613a9f60027f30644e72e131a029b85045b68181585d2833e84879b9709143e1f593f000000161536e565b61299c565b8151158015613ab557506020820151155b15613acd578251815260209283015192019190915250565b8251158015613ade57506020830151155b15613b2057815181526020820151613b16907f30644e72e131a029b85045b68181585d97816a916871ca8d3c208c16d87cfd4761536e565b6020909101525050565b613b2861435b565b835181526020808501518183015283516040830152830151613b6a907f30644e72e131a029b85045b68181585d97816a916871ca8d3c208c16d87cfd4761536e565b8160036130da565b60008151835114613b8257600080fd5b82516000613b9182600661539e565b905060008167ffffffffffffffff811115613bae57613bae61461c565b604051908082528060200260200182016040528015613bd7578160200160208202803683370190505b50905060005b83811015613e0857868181518110613bf757613bf7615342565b60200260200101516000015182826006613c11919061539e565b613c1c9060006153b5565b81518110613c2c57613c2c615342565b602002602001018181525050868181518110613c4a57613c4a615342565b60200260200101516020015182826006613c64919061539e565b613c6f9060016153b5565b81518110613c7f57613c7f615342565b602002602001018181525050858181518110613c9d57613c9d615342565b6020908102919091010151515182613cb683600661539e565b613cc19060026153b5565b81518110613cd157613cd1615342565b602002602001018181525050858181518110613cef57613cef615342565b60209081029190910181015151015182613d0a83600661539e565b613d159060036153b5565b81518110613d2557613d25615342565b602002602001018181525050858181518110613d4357613d43615342565b602002602001015160200151600060028110613d6157613d61615342565b602002015182613d7283600661539e565b613d7d9060046153b5565b81518110613d8d57613d8d615342565b602002602001018181525050858181518110613dab57613dab615342565b602002602001015160200151600160028110613dc957613dc9615342565b602002015182613dda83600661539e565b613de59060056153b5565b81518110613df557613df5615342565b6020908102919091010152600101613bdd565b50613e1161431f565b6000602082602086026020860160085afa905080613e2e57600080fd5b505115159695505050505050565b6040518061016001604052806000815260200160008152602001613e6c6040518060200160405280600081525090565b8152602001613e79614379565b8152602001613e866143b2565b8152602001613e936143de565b8152602001613eb5604051806040016040528060008152602001600081525090565b8152602001613ec26143de565b8152602001613ee4604051806040016040528060008152602001600081525090565b8152602001613ef1614407565b8152602001613efe61443b565b905290565b6040518060800160405280613f16614468565b8152602001613f23614494565b8152602001613f306144b7565b8152602001613efe6144e1565b604051806102a0016040528060608152602001613f586143de565b8152602001613f7a604051806040016040528060008152602001600081525090565b8152602001613f876143de565b8152602001613f94614502565b81526040805180820182526000602080830182815283528085019290925282518084018452918201908152815290820152606001613fd0614407565b8152602001613feb6040518060200160405280600081525090565b81526020016140066040518060200160405280600081525090565b81526020016140216040518060200160405280600081525090565b8152602001614043604051806040016040528060008152602001600081525090565b8152602001614065604051806040016040528060008152602001600081525090565b81526020016140806040518060200160405280600081525090565b815260200161409b6040518060200160405280600081525090565b81526020016140b66040518060200160405280600081525090565b81526020016140d16040518060200160405280600081525090565b81526020016140ec6040518060200160405280600081525090565b81526020016141076040518060200160405280600081525090565b8152602001614129604051806040016040528060008152602001600081525090565b8152602001613efe604051806040016040528060008152602001600081525090565b604051806040016040528061415e614523565b8152602001613efe614523565b60408051610280810182526000610260820181815282528251602080820185528282528084019190915283518082018552828152838501528351908101909352825290606082019081526020016141c0614541565b81526020016141db6040518060200160405280600081525090565b81526020016141f66040518060200160405280600081525090565b81526020016142116040518060200160405280600081525090565b815260200161422c6040518060200160405280600081525090565b81526020016142476040518060200160405280600081525090565b81526020016142626040518060200160405280600081525090565b815260200161427d6040518060200160405280600081525090565b81526020016142986040518060200160405280600081525090565b81526020016142b36040518060200160405280600081525090565b81526020016142ce6040518060200160405280600081525090565b81526020016142e96040518060200160405280600081525090565b81526020016143046040518060200160405280600081525090565b81526020016141296040518060200160405280600081525090565b60405180602001604052806001906020820280368337509192915050565b60405180606001604052806003906020820280368337509192915050565b60405180608001604052806004906020820280368337509192915050565b60405180604001604052806002905b60408051808201909152600080825260208201528152602001906001900390816143885790505090565b604080516101408101909152600061010082018181526101208301919091528152600760208201614388565b6040805160c0810190915260006080820181815260a08301919091528152600360208201614388565b60405180606001604052806003905b6040805160208101909152600081528152602001906001900390816144165790505090565b60405180604001604052806002905b61445261414b565b81526020019060019003908161444a5790505090565b604080516101e0810190915260006101a082018181526101c08301919091528152600c60208201614388565b604080516101c0810190915260006101a082019081528152600c60208201614416565b604080516101008101909152600060c0820181815260e08301919091528152600560208201614388565b6040805160e08101909152600060c082019081528152600560208201614416565b6040805160a081019091526000608082019081528152600360208201614416565b60405180604001604052806002906020820280368337509192915050565b604080516101408101909152600061012082019081528152600860208201614416565b60008083601f84011261457657600080fd5b50813567ffffffffffffffff81111561458e57600080fd5b6020830191508360208260051b85010111156145a957600080fd5b9250929050565b600080600080604085870312156145c657600080fd5b843567ffffffffffffffff808211156145de57600080fd5b6145ea88838901614564565b9096509450602087013591508082111561460357600080fd5b5061461087828801614564565b95989497509550505050565b634e487b7160e01b600052604160045260246000fd5b6040805190810167ffffffffffffffff811182821017156146555761465561461c565b60405290565b6040516102a0810167ffffffffffffffff811182821017156146555761465561461c565b604051610260810167ffffffffffffffff811182821017156146555761465561461c565b604051610160810167ffffffffffffffff811182821017156146555761465561461c565b6040516080810167ffffffffffffffff811182821017156146555761465561461c565b6000602082840312156146fc57600080fd5b6040516020810181811067ffffffffffffffff8211171561471f5761471f61461c565b6040529135825250919050565b60006040828403121561473e57600080fd5b614746614632565b9050813581526020820135602082015292915050565b600082601f83011261476d57600080fd5b614775614632565b80608084018581111561478757600080fd5b845b818110156147ab5761479b878261472c565b8452602090930192604001614789565b509095945050505050565b600082601f8301126147c757600080fd5b60408051610100810181811067ffffffffffffffff821117156147ec576147ec61461c565b82528061020085018681111561480157600080fd5b855b8181101561482457614815888261472c565b83526020909201918401614803565b50919695505050505050565b600082601f83011261484157600080fd5b6148496146c7565b8061010084018581111561485c57600080fd5b845b818110156147ab57614870878261472c565b845260209093019260400161485e565b600082601f83011261489157600080fd5b6040516060810181811067ffffffffffffffff821117156148b4576148b461461c565b6040528060608401858111156148c957600080fd5b845b818110156148eb576148dd87826146ea565b8352602092830192016148cb565b509195945050505050565b600082601f83011261490757600080fd5b61490f614632565b80604084018581111561492157600080fd5b845b818110156147ab578035845260209384019301614923565b600082601f83011261494c57600080fd5b614954614632565b8061010084018581111561496757600080fd5b845b818110156147ab57608081880312156149825760008081fd5b61498a614632565b61499488836148f6565b81526149a388604084016148f6565b6020828101919091529085529390930192608001614969565b600082601f8301126149cd57600080fd5b8135602067ffffffffffffffff808311156149ea576149ea61461c565b8260051b604051601f19603f83011681018181108482111715614a0f57614a0f61461c565b604052938452858101830193838101925087851115614a2d57600080fd5b83870191505b8482101561013657813583529183019190830190614a33565b600082601f830112614a5d57600080fd5b614a656146c7565b806080840185811115614a7757600080fd5b845b818110156147ab57614a8b87826146ea565b845260209384019301614a79565b600082601f830112614aaa57600080fd5b604051602080820182811067ffffffffffffffff82111715614ace57614ace61461c565b6040528184820186811115614ae257600080fd5b855b81811015614b0357614af688826146ea565b8352918301918301614ae4565b50929695505050505050565b60006105a08284031215614b2257600080fd5b614b2a61465b565b9050813567ffffffffffffffff811115614b4357600080fd5b614b4f848285016149bc565b825250614b5f8360208401614830565b6020820152610120614b738482850161472c565b6040830152610160614b8785828601614830565b6060840152610260614b9b86828701614a4c565b6080850152614bae866102e08701614a99565b60a0850152614bc1866103008701614a99565b60c0850152614bd4866103208701614880565b60e0850152614be78661038087016146ea565b610100850152614bfb866103a087016146ea565b83850152614c0d866103c087016146ea565b610140850152614c21866103e0870161472c565b82850152614c3386610420870161472c565b610180850152614c478661046087016146ea565b6101a0850152614c5b8661048087016146ea565b6101c0850152614c6f866104a087016146ea565b6101e0850152614c83866104c087016146ea565b610200850152614c97866104e087016146ea565b610220850152614cab8661050087016146ea565b610240850152614cbf86610520870161472c565b81850152505050614cd483610560840161472c565b61028082015292915050565b600082601f830112614cf157600080fd5b60405161012080820182811067ffffffffffffffff82111715614d1657614d1661461c565b60405283018185821115614d2957600080fd5b845b828110156148eb57614d3d87826146ea565b825260209182019101614d2b565b60006103808284031215614d5e57600080fd5b614d6661467f565b9050614d7283836146ea565b8152614d8183602084016146ea565b6020820152614d9383604084016146ea565b6040820152614da583606084016146ea565b6060820152614db78360808401614ce0565b60808201526101a0614dcb848285016146ea565b60a08301526101c0614ddf858286016146ea565b60c08401526101e0614df3868287016146ea565b60e0850152610200614e07878288016146ea565b610100860152610220614e1c888289016146ea565b610120870152610240614e3189828a016146ea565b610140880152614e45896102608a016146ea565b610160880152614e59896102808a016146ea565b610180880152614e6d896102a08a016146ea565b86880152614e7f896102c08a016146ea565b85880152614e91896102e08a016146ea565b84880152614ea3896103008a016146ea565b83880152614eb5896103208a016146ea565b82880152614ec7896103408a0161472c565b8188015250505050505092915050565b6000806000838503610a60811215614eee57600080fd5b6106c080821215614efe57600080fd5b614f066146a3565b91508535825260208601356020830152614f2387604088016146ea565b6040830152614f35876060880161475c565b6060830152614f478760e088016147b6565b6080830152614f5a876102e08801614830565b60a0830152614f6d876103e0880161472c565b60c0830152614f80876104208801614830565b60e0830152614f9387610520880161472c565b610100830152614fa7876105608801614880565b610120830152614fbb876105c0880161493b565b61014083015290935084013567ffffffffffffffff811115614fdc57600080fd5b614fe886828701614b0f565b925050614ff9856106e08601614d4b565b90509250925092565b81518152602080830151908201526040810161163e565b8060005b60028110156150515761503b84835180518252602090810151910152565b604093909301926020919091019060010161501d565b50505050565b8060005b60088110156150515761507984835180518252602090810151910152565b604093909301926020919091019060010161505b565b8060005b6004811015615051576150b184835180518252602090810151910152565b6040939093019260209190910190600101615093565b8060005b6003811015615051578151518452602093840193909101906001016150cb565b8060005b60028110156150515781518452602093840193909101906001016150ef565b8060005b60028110156150515781516151288582516150eb565b6020908101519061513c60408701836150eb565b60809590950194929092019150600101615112565b60006106c0820190508251825260208301516020830152604083015161517a6040840182519052565b50606083015161518d6060840182615019565b5060808301516151a060e0840182615057565b5060a08301516151b46102e084018261508f565b5060c083015180516103e08401526020015161040083015260e08301516151df61042084018261508f565b5061010083015180516105208401526020015161054083015261012083015161520c6105608401826150c7565b506101408301516152216105c084018261510e565b5092915050565b8060005b60068110156150515761524a84835180518252602090810151910152565b604093909301926020919091019060010161522c565b8060005b600681101561505157815151845260209384019390910190600101615264565b81516107208201908260005b600d8110156152c4576152ae82845180518252602090810151910152565b6020929092019160409190910190600101615290565b505050602080840151610340840160005b600d8110156152f357825151825291830191908301906001016152d5565b50505050604083015161530a6104e0840182615228565b506060830151615221610660840182615260565b6000610380828403121561533157600080fd5b61533b8383614d4b565b9392505050565b634e487b7160e01b600052603260045260246000fd5b634e487b7160e01b600052601160045260246000fd5b8181038181111561163e5761163e615358565b63ffffffff81811683821601908082111561522157615221615358565b808202811582820484141761163e5761163e615358565b8082018082111561163e5761163e61535856fea26469706673582212200449faa2b5b420ae3c983149817215ae68821ed23c9127a017eb58997680d87a64736f6c63430008110033",
  "linkReferences": {},
  "deployedLinkReferences": {}
}