{
  "_format": "hh-sol-artifact-1",
  "contractName": "L1NaffleDiamond",
  "sourceName": "contracts/naffle/ethereum/L1NaffleDiamond.sol",
  "abi": [
    {
      "inputs": [
        {
          "internalType": "address",
          "name": "_admin",
          "type": "address"
        },
        {
          "internalType": "uint256",
          "name": "_minimumNaffleDuration",
          "type": "uint256"
        },
        {
          "internalType": "uint256",
          "name": "_minimumPaidTicketSpots",
          "type": "uint256"
        },
        {
          "internalType": "uint256",
          "name": "_minimumTicketPriceInWei",
          "type": "uint256"
        },
        {
          "internalType": "address",
          "name": "_foundersKeyContractAddress",
          "type": "address"
        },
        {
          "internalType": "address",
          "name": "_foundersKeyPlaceholderAddress",
          "type": "address"
        }
      ],
      "stateMutability": "nonpayable",
      "type": "constructor"
    },
    {
      "inputs": [],
      "name": "DiamondWritable__InvalidInitializationParameters",
      "type": "error"
    },
    {
      "inputs": [],
      "name": "DiamondWritable__RemoveTargetNotZeroAddress",
      "type": "error"
    },
    {
      "inputs": [],
      "name": "DiamondWritable__ReplaceTargetIsIdentical",
      "type": "error"
    },
    {
      "inputs": [],
      "name": "DiamondWritable__SelectorAlreadyAdded",
      "type": "error"
    },
    {
      "inputs": [],
      "name": "DiamondWritable__SelectorIsImmutable",
      "type": "error"
    },
    {
      "inputs": [],
      "name": "DiamondWritable__SelectorNotFound",
      "type": "error"
    },
    {
      "inputs": [],
      "name": "DiamondWritable__SelectorNotSpecified",
      "type": "error"
    },
    {
      "inputs": [],
      "name": "DiamondWritable__TargetHasNoCode",
      "type": "error"
    },
    {
      "inputs": [],
      "name": "ERC165Base__InvalidInterfaceId",
      "type": "error"
    },
    {
      "inputs": [],
      "name": "FailedMessageInclusion",
      "type": "error"
    },
    {
      "inputs": [],
      "name": "InvalidAction",
      "type": "error"
    },
    {
      "inputs": [
        {
          "internalType": "uint256",
          "name": "endTime",
          "type": "uint256"
        }
      ],
      "name": "InvalidEndTime",
      "type": "error"
    },
    {
      "inputs": [
        {
          "internalType": "uint256",
          "name": "spots",
          "type": "uint256"
        }
      ],
      "name": "InvalidPaidTicketSpots",
      "type": "error"
    },
    {
      "inputs": [],
      "name": "InvalidTokenType",
      "type": "error"
    },
    {
      "inputs": [],
      "name": "MessageAlreadyProcessed",
      "type": "error"
    },
    {
      "inputs": [],
      "name": "NotAllowed",
      "type": "error"
    },
    {
      "inputs": [],
      "name": "Ownable__NotOwner",
      "type": "error"
    },
    {
      "inputs": [],
      "name": "Ownable__NotTransitiveOwner",
      "type": "error"
    },
    {
      "inputs": [],
      "name": "Proxy__ImplementationIsNotContract",
      "type": "error"
    },
    {
      "inputs": [],
      "name": "SafeOwnable__NotNomineeOwner",
      "type": "error"
    },
    {
      "inputs": [],
      "name": "UintUtils__InsufficientHexLength",
      "type": "error"
    },
    {
      "anonymous": false,
      "inputs": [
        {
          "components": [
            {
              "internalType": "address",
              "name": "target",
              "type": "address"
            },
            {
              "internalType": "enum IDiamondWritableInternal.FacetCutAction",
              "name": "action",
              "type": "uint8"
            },
            {
              "internalType": "bytes4[]",
              "name": "selectors",
              "type": "bytes4[]"
            }
          ],
          "indexed": false,
          "internalType": "struct IDiamondWritableInternal.FacetCut[]",
          "name": "facetCuts",
          "type": "tuple[]"
        },
        {
          "indexed": false,
          "internalType": "address",
          "name": "target",
          "type": "address"
        },
        {
          "indexed": false,
          "internalType": "bytes",
          "name": "data",
          "type": "bytes"
        }
      ],
      "name": "DiamondCut",
      "type": "event"
    },
    {
      "anonymous": false,
      "inputs": [
        {
          "indexed": false,
          "internalType": "uint256",
          "name": "naffleId",
          "type": "uint256"
        }
      ],
      "name": "L1NaffleCancelled",
      "type": "event"
    },
    {
      "anonymous": false,
      "inputs": [
        {
          "indexed": false,
          "internalType": "uint256",
          "name": "naffleId",
          "type": "uint256"
        },
        {
          "indexed": true,
          "internalType": "address",
          "name": "owner",
          "type": "address"
        },
        {
          "indexed": true,
          "internalType": "address",
          "name": "ethTokenAddress",
          "type": "address"
        },
        {
          "indexed": false,
          "internalType": "uint256",
          "name": "nftId",
          "type": "uint256"
        },
        {
          "indexed": false,
          "internalType": "uint256",
          "name": "paidTicketSpots",
          "type": "uint256"
        },
        {
          "indexed": false,
          "internalType": "uint256",
          "name": "ticketPriceInWei",
          "type": "uint256"
        },
        {
          "indexed": false,
          "internalType": "uint256",
          "name": "endTime",
          "type": "uint256"
        },
        {
          "indexed": false,
          "internalType": "enum NaffleTypes.NaffleType",
          "name": "naffleType",
          "type": "uint8"
        },
        {
          "indexed": false,
          "internalType": "enum NaffleTypes.TokenContractType",
          "name": "tokenContractType",
          "type": "uint8"
        }
      ],
      "name": "L1NaffleCreated",
      "type": "event"
    },
    {
      "anonymous": false,
      "inputs": [
        {
          "indexed": true,
          "internalType": "uint256",
          "name": "naffleId",
          "type": "uint256"
        },
        {
          "indexed": true,
          "internalType": "address",
          "name": "winner",
          "type": "address"
        }
      ],
      "name": "L1NaffleWinnerSet",
      "type": "event"
    },
    {
      "anonymous": false,
      "inputs": [
        {
          "indexed": true,
          "internalType": "address",
          "name": "previousOwner",
          "type": "address"
        },
        {
          "indexed": true,
          "internalType": "address",
          "name": "newOwner",
          "type": "address"
        }
      ],
      "name": "OwnershipTransferred",
      "type": "event"
    },
    {
      "anonymous": false,
      "inputs": [
        {
          "indexed": true,
          "internalType": "bytes32",
          "name": "role",
          "type": "bytes32"
        },
        {
          "indexed": true,
          "internalType": "bytes32",
          "name": "previousAdminRole",
          "type": "bytes32"
        },
        {
          "indexed": true,
          "internalType": "bytes32",
          "name": "newAdminRole",
          "type": "bytes32"
        }
      ],
      "name": "RoleAdminChanged",
      "type": "event"
    },
    {
      "anonymous": false,
      "inputs": [
        {
          "indexed": true,
          "internalType": "bytes32",
          "name": "role",
          "type": "bytes32"
        },
        {
          "indexed": true,
          "internalType": "address",
          "name": "account",
          "type": "address"
        },
        {
          "indexed": true,
          "internalType": "address",
          "name": "sender",
          "type": "address"
        }
      ],
      "name": "RoleGranted",
      "type": "event"
    },
    {
      "anonymous": false,
      "inputs": [
        {
          "indexed": true,
          "internalType": "bytes32",
          "name": "role",
          "type": "bytes32"
        },
        {
          "indexed": true,
          "internalType": "address",
          "name": "account",
          "type": "address"
        },
        {
          "indexed": true,
          "internalType": "address",
          "name": "sender",
          "type": "address"
        }
      ],
      "name": "RoleRevoked",
      "type": "event"
    },
    {
      "stateMutability": "payable",
      "type": "fallback"
    },
    {
      "inputs": [
        {
          "internalType": "uint256",
          "name": "_naffleId",
          "type": "uint256"
        }
      ],
      "name": "_getNaffleById",
      "outputs": [
        {
          "components": [
            {
              "internalType": "address",
              "name": "tokenAddress",
              "type": "address"
            },
            {
              "internalType": "uint256",
              "name": "nftId",
              "type": "uint256"
            },
            {
              "internalType": "uint256",
              "name": "naffleId",
              "type": "uint256"
            },
            {
              "internalType": "address",
              "name": "owner",
              "type": "address"
            },
            {
              "internalType": "address",
              "name": "winner",
              "type": "address"
            },
            {
              "internalType": "bool",
              "name": "cancelled",
              "type": "bool"
            },
            {
              "internalType": "enum NaffleTypes.TokenContractType",
              "name": "naffleTokenType",
              "type": "uint8"
            }
          ],
          "internalType": "struct NaffleTypes.L1Naffle",
          "name": "naffle",
          "type": "tuple"
        }
      ],
      "stateMutability": "view",
      "type": "function"
    },
    {
      "inputs": [],
      "name": "acceptOwnership",
      "outputs": [],
      "stateMutability": "nonpayable",
      "type": "function"
    },
    {
      "inputs": [
        {
          "components": [
            {
              "internalType": "address",
              "name": "target",
              "type": "address"
            },
            {
              "internalType": "enum IDiamondWritableInternal.FacetCutAction",
              "name": "action",
              "type": "uint8"
            },
            {
              "internalType": "bytes4[]",
              "name": "selectors",
              "type": "bytes4[]"
            }
          ],
          "internalType": "struct IDiamondWritableInternal.FacetCut[]",
          "name": "facetCuts",
          "type": "tuple[]"
        },
        {
          "internalType": "address",
          "name": "target",
          "type": "address"
        },
        {
          "internalType": "bytes",
          "name": "data",
          "type": "bytes"
        }
      ],
      "name": "diamondCut",
      "outputs": [],
      "stateMutability": "nonpayable",
      "type": "function"
    },
    {
      "inputs": [
        {
          "internalType": "bytes4",
          "name": "selector",
          "type": "bytes4"
        }
      ],
      "name": "facetAddress",
      "outputs": [
        {
          "internalType": "address",
          "name": "facet",
          "type": "address"
        }
      ],
      "stateMutability": "view",
      "type": "function"
    },
    {
      "inputs": [],
      "name": "facetAddresses",
      "outputs": [
        {
          "internalType": "address[]",
          "name": "addresses",
          "type": "address[]"
        }
      ],
      "stateMutability": "view",
      "type": "function"
    },
    {
      "inputs": [
        {
          "internalType": "address",
          "name": "facet",
          "type": "address"
        }
      ],
      "name": "facetFunctionSelectors",
      "outputs": [
        {
          "internalType": "bytes4[]",
          "name": "selectors",
          "type": "bytes4[]"
        }
      ],
      "stateMutability": "view",
      "type": "function"
    },
    {
      "inputs": [],
      "name": "facets",
      "outputs": [
        {
          "components": [
            {
              "internalType": "address",
              "name": "target",
              "type": "address"
            },
            {
              "internalType": "bytes4[]",
              "name": "selectors",
              "type": "bytes4[]"
            }
          ],
          "internalType": "struct IDiamondReadable.Facet[]",
          "name": "diamondFacets",
          "type": "tuple[]"
        }
      ],
      "stateMutability": "view",
      "type": "function"
    },
    {
      "inputs": [],
      "name": "getFallbackAddress",
      "outputs": [
        {
          "internalType": "address",
          "name": "fallbackAddress",
          "type": "address"
        }
      ],
      "stateMutability": "view",
      "type": "function"
    },
    {
      "inputs": [
        {
          "internalType": "bytes32",
          "name": "role",
          "type": "bytes32"
        }
      ],
      "name": "getRoleAdmin",
      "outputs": [
        {
          "internalType": "bytes32",
          "name": "",
          "type": "bytes32"
        }
      ],
      "stateMutability": "view",
      "type": "function"
    },
    {
      "inputs": [
        {
          "internalType": "bytes32",
          "name": "role",
          "type": "bytes32"
        },
        {
          "internalType": "address",
          "name": "account",
          "type": "address"
        }
      ],
      "name": "grantRole",
      "outputs": [],
      "stateMutability": "nonpayable",
      "type": "function"
    },
    {
      "inputs": [
        {
          "internalType": "bytes32",
          "name": "role",
          "type": "bytes32"
        },
        {
          "internalType": "address",
          "name": "account",
          "type": "address"
        }
      ],
      "name": "hasRole",
      "outputs": [
        {
          "internalType": "bool",
          "name": "",
          "type": "bool"
        }
      ],
      "stateMutability": "view",
      "type": "function"
    },
    {
      "inputs": [],
      "name": "nomineeOwner",
      "outputs": [
        {
          "internalType": "address",
          "name": "",
          "type": "address"
        }
      ],
      "stateMutability": "view",
      "type": "function"
    },
    {
      "inputs": [],
      "name": "owner",
      "outputs": [
        {
          "internalType": "address",
          "name": "",
          "type": "address"
        }
      ],
      "stateMutability": "view",
      "type": "function"
    },
    {
      "inputs": [
        {
          "internalType": "bytes32",
          "name": "role",
          "type": "bytes32"
        }
      ],
      "name": "renounceRole",
      "outputs": [],
      "stateMutability": "nonpayable",
      "type": "function"
    },
    {
      "inputs": [
        {
          "internalType": "bytes32",
          "name": "role",
          "type": "bytes32"
        },
        {
          "internalType": "address",
          "name": "account",
          "type": "address"
        }
      ],
      "name": "revokeRole",
      "outputs": [],
      "stateMutability": "nonpayable",
      "type": "function"
    },
    {
      "inputs": [
        {
          "internalType": "address",
          "name": "fallbackAddress",
          "type": "address"
        }
      ],
      "name": "setFallbackAddress",
      "outputs": [],
      "stateMutability": "nonpayable",
      "type": "function"
    },
    {
      "inputs": [
        {
          "internalType": "bytes4",
          "name": "interfaceId",
          "type": "bytes4"
        }
      ],
      "name": "supportsInterface",
      "outputs": [
        {
          "internalType": "bool",
          "name": "",
          "type": "bool"
        }
      ],
      "stateMutability": "view",
      "type": "function"
    },
    {
      "inputs": [
        {
          "internalType": "address",
          "name": "account",
          "type": "address"
        }
      ],
      "name": "transferOwnership",
      "outputs": [],
      "stateMutability": "nonpayable",
      "type": "function"
    },
    {
      "stateMutability": "payable",
      "type": "receive"
    }
  ],
  "bytecode": "0x60806040523480156200001157600080fd5b5060405162003b3738038062003b3783398101604081905262000034916200101e565b60408051600c8082526101a0820190925260009160208201610180803683370190505090506000632c40805960e01b8282620000708162001084565b935081518110620000855762000085620010ac565b6001600160e01b031990921660209283029190910190910152639142376560e01b8282620000b38162001084565b935081518110620000c857620000c8620010ac565b6001600160e01b031990921660209283029190910190910152620000f5632f40adcf60e21b6001620004ee565b6307e4c70760e21b82826200010a8162001084565b9350815181106200011f576200011f620010ac565b6001600160e01b0319909216602092830291909101909101526200014c6307e4c70760e21b6001620004ee565b637a0ed62760e01b8282620001618162001084565b935081518110620001765762000176620010ac565b6001600160e01b0319909216602092830291909101909101526356fe50af60e11b8282620001a48162001084565b935081518110620001b957620001b9620010ac565b6001600160e01b0319909216602092830291909101909101526314bbdacb60e21b8282620001e78162001084565b935081518110620001fc57620001fc620010ac565b6001600160e01b0319909216602092830291909101909101526366ffd66360e11b82826200022a8162001084565b9350815181106200023f576200023f620010ac565b6001600160e01b0319909216602092830291909101909101526200026c6348e2b09360e01b6001620004ee565b6301ffc9a760e01b8282620002818162001084565b935081518110620002965762000296620010ac565b6001600160e01b031990921660209283029190910190910152620002c36301ffc9a760e01b6001620004ee565b638da5cb5b60e01b8282620002d88162001084565b935081518110620002ed57620002ed620010ac565b6001600160e01b03199092166020928302919091019091015263455a8a8560e11b82826200031b8162001084565b935081518110620003305762000330620010ac565b6001600160e01b03199092166020928302919091019091015263f2fde38b60e01b82826200035e8162001084565b935081518110620003735762000373620010ac565b6001600160e01b0319909216602092830291909101909101526379ba509760e01b8282620003a18162001084565b935081518110620003b657620003b6620010ac565b6001600160e01b031990921660209283029190910190910152620003e36307f5828d60e41b6001620004ee565b604080516001808252818301909252600091816020015b60408051606080820183526000808352602083015291810191909152815260200190600190039081620003fa57905050604080516060810190915230815290915060208101600081526020018481525081600081518110620004605762000460620010ac565b60200260200101819052506200048e816000604051806020016040528060008152506200056060201b60201c565b62000499336200073c565b50620004ab91506000905087620007b0565b620004b68562000826565b620004c18462000843565b620004cc8362000860565b620004d7826200087d565b620004e281620008b7565b50505050505062001251565b6001600160e01b031980831690036200051a5760405163b0a19dd560e01b815260040160405180910390fd5b8062000530620008f160201b620010a61760201c565b6001600160e01b03199390931660009081526020939093526040909220805460ff19169215159290921790915550565b6000620005776200091560201b620010ca1760201c565b600181015490915061ffff811690819060009060071615620005ab5750600381901c60009081526002840160205260409020545b60005b8751811015620006aa576000888281518110620005cf57620005cf620010ac565b60200260200101519050600081602001519050816040015151600003620006095760405163eb6c3aeb60e01b815260040160405180910390fd5b6000816002811115620006205762000620620010c2565b036200063f57620006348786868562000939565b90955093506200069f565b6001816002811115620006565762000656620010c2565b036200066e5762000668878362000a98565b6200069f565b6002816002811115620006855762000685620010c2565b036200069f57620006998786868562000bfe565b90955093505b5050600101620005ae565b50828214620006c75760018401805461ffff191661ffff84161790555b6007821615620006ea57600382901c600090815260028501602052604090208190555b7f8faa70878671ccd212d20771b795c50af8fd3ff6cf27f4bde57e5d4de0aeb6738787876040516200071f939291906200112c565b60405180910390a162000733868662000e2a565b50505050505050565b60006200075362000f2b60201b620010ee1760201c565b80546040519192506001600160a01b03808516929116907f8be0079c531659141344cd1fd0a4f28419497f9722a3daafe3b4186f6b6457e090600090a380546001600160a01b0319166001600160a01b0392909216919091179055565b620007e981620007ca62000f4f60201b620011121760201c565b600085815260209182526040902091906200113662000f73821b17901c565b5060405133906001600160a01b0383169084907f2f8788117e7eff1d82e926ec794901d17c78024a50270940304540a733656f0d90600090a45050565b806200083c62000f9360201b6200114b1760201c565b6005015550565b806200085962000f9360201b6200114b1760201c565b6006015550565b806200087662000f9360201b6200114b1760201c565b6007015550565b806200089362000f9360201b6200114b1760201c565b60020180546001600160a01b0319166001600160a01b039290921691909117905550565b80620008cd62000f9360201b6200114b1760201c565b60030180546001600160a01b0319166001600160a01b039290921691909117905550565b7ffc606c433378e3a7e0a6a531deac289b66caa1b4aa8554fd4ab2c6f1570f92d890565b7f177481ac65e4292921c69f62d1cc7f57541261e5d61c8175cf4e36a01c9bfc9390565b805160009081906001600160a01b031630148015906200097957506200097783600001516001600160a01b031662000fb760201b6200045c1760201c565b155b156200099857604051633ddc5cab60e21b815260040160405180910390fd5b60005b83604001515181101562000a8b57600084604001518281518110620009c457620009c4620010ac565b6020908102919091018101516001600160e01b031981166000908152918a9052604090912054909150606081901c1562000a1157604051634923a77160e11b815260040160405180910390fd5b85516001600160e01b0319838116600081815260208d90526040902060609390931b6001600160601b0319168b1790925560058a901b60e090811692831c91831c1999909916179781900362000a7b57600389901c600090815260028b0160205260408120989098555b505050600195860195016200099b565b5093959294509192505050565b62000abb81600001516001600160a01b031662000fb760201b6200045c1760201c565b62000ad957604051633ddc5cab60e21b815260040160405180910390fd5b60005b81604001515181101562000bf95760008260400151828151811062000b055762000b05620010ac565b6020908102919091018101516001600160e01b03198116600090815291869052604090912054909150606081901c8062000b52576040516337e25a9760e11b815260040160405180910390fd5b306001600160a01b0382160362000b7c5760405163e983573160e01b815260040160405180910390fd5b84600001516001600160a01b0316816001600160a01b03160362000bb3576040516330baabf360e11b815260040160405180910390fd5b5083516001600160e01b031992909216600090815260208690526040902060609290921b6001600160601b0319166001600160601b039190911617905560010162000adc565b505050565b805160009081906001600160a01b03161562000c2d57604051633ab3490960e21b815260040160405180910390fd5b600385901c6007861660005b85604001515181101562000e165760008660400151828151811062000c625762000c62620010ac565b6020908102919091018101516001600160e01b031981166000908152918c9052604090912054909150606081901c62000cae576040516337e25a9760e11b815260040160405180910390fd5b30606082901c0362000cd35760405163e983573160e01b815260040160405180910390fd5b600089900362000d0157600019909401600081815260028c0160205260409020549850936007935062000d09565b600019909301925b600584901b89901b6000806001600160e01b03198084169086161462000d5c576001600160e01b03198316600090815260208f90526040902080546001600160601b0319166001600160601b0386161790555b50506001600160e01b03198316600090815260208d90526040812055611fff600383901c1660e0600584901b1687821462000dc157600082815260028f016020526040902080546001600160e01b031980841c19909116908516831c17905562000de5565b80836001600160e01b031916901c816001600160e01b031960001b901c198d16179b505b8660000362000e0457600088815260028f01602052604081208190559b505b50506001909301925062000c39915050565b5060039190911b1796939550929350505050565b8051156001600160a01b038316151462000e57576040516326df4ccd60e01b815260040160405180910390fd5b6001600160a01b0382161562000f27576001600160a01b038216301462000eb55762000e97826001600160a01b031662000fb760201b6200045c1760201c565b62000eb557604051633ddc5cab60e21b815260040160405180910390fd5b6000826001600160a01b03168260405162000ed1919062001233565b600060405180830381855af49150503d806000811462000f0e576040519150601f19603f3d011682016040523d82523d6000602084013e62000f13565b606091505b505090508062000bf9573d6000803e3d6000fd5b5050565b7f8a22373512790c48b83a1fe2efdd2888d4a917bcdc24d0adf63e60f67168046090565b7fd3889cc5458b268d0544e5534672df1296288ca3f93cbd39bd6f497a5c62281190565b600062000f8a836001600160a01b03841662000fbd565b90505b92915050565b7f470a3a09bc7c093da4939d34501d4f187895d1929b6aa0b7092dcd8f223c67ba90565b3b151590565b600081815260018301602052604081205462000f8d575081546001808201845560008481526020808220909301849055845493815293810190915260409092205590565b80516001600160a01b03811681146200101957600080fd5b919050565b60008060008060008060c087890312156200103857600080fd5b620010438762001001565b9550602087015194506040870151935060608701519250620010686080880162001001565b91506200107860a0880162001001565b90509295509295509295565b600060018201620010a557634e487b7160e01b600052601160045260246000fd5b5060010190565b634e487b7160e01b600052603260045260246000fd5b634e487b7160e01b600052602160045260246000fd5b60005b83811015620010f5578181015183820152602001620010db565b50506000910152565b6000815180845262001118816020860160208601620010d8565b601f01601f19169290920160200192915050565b60006060808301818452808751808352608092508286019150828160051b8701016020808b0160005b848110156200120157898403607f19018652815180516001600160a01b031685528381015189860190600381106200119d57634e487b7160e01b600052602160045260246000fd5b868601526040918201519186018a905281519081905290840190600090898701905b80831015620011eb5783516001600160e01b0319168252928601926001929092019190860190620011bf565b5097850197955050509082019060010162001155565b50506001600160a01b038a16908801528681036040880152620012258189620010fe565b9a9950505050505050505050565b6000825162001247818460208701620010d8565b9190910192915050565b6128d680620012616000396000f3fe60806040526004361061012d5760003560e01c80638ab5150a116100a557806391d1485411610074578063cdffacc611610059578063cdffacc6146103b4578063d547741f1461040d578063f2fde38b1461042d57610134565b806391d1485414610367578063adfca15e1461038757610134565b80638ab5150a146102fd5780638bb9c5bf146103125780638da5cb5b14610332578063914237651461034757610134565b80632c408059116100fc57806352ef6b2c116100e157806352ef6b2c146102a457806379ba5097146102c65780637a0ed627146102db57610134565b80632c408059146102575780632f2ff15d1461028457610134565b806301ffc9a7146101a7578063184ff1e4146101dc5780631f931c1c14610209578063248a9ca31461022957610134565b3661013457005b600061013e61044d565b90506001600160a01b0381163b610181576040517f87c9fc3400000000000000000000000000000000000000000000000000000000815260040160405180910390fd5b3660008037600080366000845af43d6000803e8080156101a0573d6000f35b3d6000fd5b005b3480156101b357600080fd5b506101c76101c2366004612106565b610462565b60405190151581526020015b60405180910390f35b3480156101e857600080fd5b506101fc6101f7366004612121565b6104a5565b6040516101d39190612150565b34801561021557600080fd5b506101a5610224366004612221565b6105ce565b34801561023557600080fd5b50610249610244366004612121565b610658565b6040519081526020016101d3565b34801561026357600080fd5b5061026c61068e565b6040516001600160a01b0390911681526020016101d3565b34801561029057600080fd5b506101a561029f3660046122d3565b6106c1565b3480156102b057600080fd5b506102b961070a565b6040516101d391906122ff565b3480156102d257600080fd5b506101a56108e0565b3480156102e757600080fd5b506102f061093c565b6040516101d39190612391565b34801561030957600080fd5b5061026c610deb565b34801561031e57600080fd5b506101a561032d366004612121565b610df5565b34801561033e57600080fd5b5061026c610e01565b34801561035357600080fd5b506101a561036236600461242c565b610e0b565b34801561037357600080fd5b506101c76103823660046122d3565b610e8e565b34801561039357600080fd5b506103a76103a236600461242c565b610ea1565b6040516101d39190612447565b3480156103c057600080fd5b5061026c6103cf366004612106565b6001600160e01b03191660009081527f177481ac65e4292921c69f62d1cc7f57541261e5d61c8175cf4e36a01c9bfc93602052604090205460601c90565b34801561041957600080fd5b506101a56104283660046122d3565b611020565b34801561043957600080fd5b506101a561044836600461242c565b611064565b600061045761116f565b905090565b3b151590565b6001600160e01b0319811660009081527ffc606c433378e3a7e0a6a531deac289b66caa1b4aa8554fd4ab2c6f1570f92d8602052604081205460ff165b92915050565b6104e26040805160e081018252600080825260208201819052918101829052606081018290526080810182905260a081018290529060c082015290565b60008281527f470a3a09bc7c093da4939d34501d4f187895d1929b6aa0b7092dcd8f223c67c26020908152604091829020825160e08101845281546001600160a01b039081168252600180840154948301949094526002830154948201949094526003820154841660608201526004820154938416608082015260ff7401000000000000000000000000000000000000000085048116151560a08301529093919260c085019275010000000000000000000000000000000000000000009004909116908111156105b4576105b461213a565b60018111156105c5576105c561213a565b90525092915050565b6105d66111e2565b6001600160a01b0316336001600160a01b03161461060757604051632f7a8ee160e01b815260040160405180910390fd5b61065161061485876124ee565b8484848080601f01602080910402602001604051908101604052809392919081815260200183838082843760009201919091525061121592505050565b5050505050565b60008181527fd3889cc5458b268d0544e5534672df1296288ca3f93cbd39bd6f497a5c622811602052604081206002015461049f565b60006104577f177481ac65e4292921c69f62d1cc7f57541261e5d61c8175cf4e36a01c9bfc96546001600160a01b031690565b60008281527fd3889cc5458b268d0544e5534672df1296288ca3f93cbd39bd6f497a5c62281160205260409020600201546106fb8161142b565b6107058383611435565b505050565b7f177481ac65e4292921c69f62d1cc7f57541261e5d61c8175cf4e36a01c9bfc94546060907f177481ac65e4292921c69f62d1cc7f57541261e5d61c8175cf4e36a01c9bfc939061ffff1667ffffffffffffffff81111561076d5761076d61245a565b604051908082528060200260200182016040528015610796578160200160208202803683370190505b50915060008060005b600184015461ffff168210156108d8576000818152600285016020526040812054905b60088110156108c357836107d581612638565b600188015490955061ffff16851190506108c357600581901b82901b6001600160e01b0319811660009081526020889052604081205460601c90805b88811015610866578a818151811061082b5761082b612652565b60200260200101516001600160a01b0316836001600160a01b0316036108545760019150610866565b8061085e81612638565b915050610811565b508015610875575050506108b1565b818a898151811061088857610888612652565b6001600160a01b0390921660209283029190910190910152876108aa81612638565b9850505050505b806108bb81612638565b9150506107c2565b505080806108d090612638565b91505061079f565b505082525090565b6108e86114a9565b6001600160a01b0316336001600160a01b031614610932576040517fefd1052d00000000000000000000000000000000000000000000000000000000815260040160405180910390fd5b61093a6114d1565b565b7f177481ac65e4292921c69f62d1cc7f57541261e5d61c8175cf4e36a01c9bfc94546060907f177481ac65e4292921c69f62d1cc7f57541261e5d61c8175cf4e36a01c9bfc939061ffff1667ffffffffffffffff81111561099f5761099f61245a565b6040519080825280602002602001820160405280156109e557816020015b6040805180820190915260008152606060208201528152602001906001900390816109bd5790505b50600182015490925060009061ffff1667ffffffffffffffff811115610a0d57610a0d61245a565b604051908082528060200260200182016040528015610a36578160200160208202803683370190505b50905060008060005b600185015461ffff16821015610d79576000818152600286016020526040812054905b6008811015610d645783610a7581612638565b600189015490955061ffff1685119050610d6457600581901b82901b6001600160e01b0319811660009081526020899052604081205460601c90805b88811015610bf857826001600160a01b03168c8281518110610ad557610ad5612652565b6020026020010151600001516001600160a01b031603610be657838c8281518110610b0257610b02612652565b6020026020010151602001518b8381518110610b2057610b20612652565b602002602001015160ff1681518110610b3b57610b3b612652565b60200260200101907bffffffffffffffffffffffffffffffffffffffffffffffffffffffff191690817bffffffffffffffffffffffffffffffffffffffffffffffffffffffff19168152505060ff8a8281518110610b9b57610b9b612652565b602002602001015160ff1610610bb057600080fd5b898181518110610bc257610bc2612652565b602002602001018051809190610bd790612668565b60ff1690525060019150610bf8565b80610bf081612638565b915050610ab1565b508015610c0757505050610d52565b818b8981518110610c1a57610c1a612652565b60209081029190910101516001600160a01b03909116905260018a015461ffff1667ffffffffffffffff811115610c5357610c5361245a565b604051908082528060200260200182016040528015610c7c578160200160208202803683370190505b508b8981518110610c8f57610c8f612652565b602002602001015160200181905250828b8981518110610cb157610cb1612652565b602002602001015160200151600081518110610ccf57610ccf612652565b60200260200101907bffffffffffffffffffffffffffffffffffffffffffffffffffffffff191690817bffffffffffffffffffffffffffffffffffffffffffffffffffffffff1916815250506001898981518110610d2f57610d2f612652565b60ff9092166020928302919091019091015287610d4b81612638565b9850505050505b80610d5c81612638565b915050610a62565b50508080610d7190612638565b915050610a3f565b5060005b82811015610de0576000848281518110610d9957610d99612652565b602002602001015160ff1690506000878381518110610dba57610dba612652565b602002602001015160200151905081815250508080610dd890612638565b915050610d7d565b508185525050505090565b60006104576114a9565b610dfe81611518565b50565b60006104576111e2565b610e136111e2565b6001600160a01b0316336001600160a01b031614610e4457604051632f7a8ee160e01b815260040160405180910390fd5b7f177481ac65e4292921c69f62d1cc7f57541261e5d61c8175cf4e36a01c9bfc96805473ffffffffffffffffffffffffffffffffffffffff19166001600160a01b03831617905550565b6000610e9a8383611522565b9392505050565b7f177481ac65e4292921c69f62d1cc7f57541261e5d61c8175cf4e36a01c9bfc94546060907f177481ac65e4292921c69f62d1cc7f57541261e5d61c8175cf4e36a01c9bfc939061ffff1667ffffffffffffffff811115610f0457610f0461245a565b604051908082528060200260200182016040528015610f2d578160200160208202803683370190505b50915060008060005b600184015461ffff16821015611016576000818152600285016020526040812054905b60088110156110015783610f6c81612638565b600188015490955061ffff168511905061100157600581901b82901b6001600160e01b0319811660009081526020889052604090205460601c6001600160a01b038a1603610fee5780888781518110610fc757610fc7612652565b6001600160e01b03199092166020928302919091019091015285610fea81612638565b9650505b5080610ff981612638565b915050610f59565b5050808061100e90612638565b915050610f36565b5050825250919050565b60008281527fd3889cc5458b268d0544e5534672df1296288ca3f93cbd39bd6f497a5c622811602052604090206002015461105a8161142b565b6107058383611559565b61106c6111e2565b6001600160a01b0316336001600160a01b03161461109d57604051632f7a8ee160e01b815260040160405180910390fd5b610dfe816115cd565b7ffc606c433378e3a7e0a6a531deac289b66caa1b4aa8554fd4ab2c6f1570f92d890565b7f177481ac65e4292921c69f62d1cc7f57541261e5d61c8175cf4e36a01c9bfc9390565b7f8a22373512790c48b83a1fe2efdd2888d4a917bcdc24d0adf63e60f67168046090565b7fd3889cc5458b268d0544e5534672df1296288ca3f93cbd39bd6f497a5c62281190565b6000610e9a836001600160a01b03841661161b565b7f470a3a09bc7c093da4939d34501d4f187895d1929b6aa0b7092dcd8f223c67ba90565b600080356001600160e01b03191681527f177481ac65e4292921c69f62d1cc7f57541261e5d61c8175cf4e36a01c9bfc93602052604090205460601c806111df57507f177481ac65e4292921c69f62d1cc7f57541261e5d61c8175cf4e36a01c9bfc96546001600160a01b031690565b90565b60007f8a22373512790c48b83a1fe2efdd2888d4a917bcdc24d0adf63e60f6716804605b546001600160a01b0316919050565b7f177481ac65e4292921c69f62d1cc7f57541261e5d61c8175cf4e36a01c9bfc94547f177481ac65e4292921c69f62d1cc7f57541261e5d61c8175cf4e36a01c9bfc939061ffff8116908190600090600716156112845750600381901c60009081526002840160205260409020545b60005b87518110156113825760008882815181106112a4576112a4612652565b602002602001015190506000816020015190508160400151516000036112f6576040517feb6c3aeb00000000000000000000000000000000000000000000000000000000815260040160405180910390fd5b600081600281111561130a5761130a61213a565b036113255761131b8786868561165e565b9095509350611378565b60018160028111156113395761133961213a565b0361134d5761134887836117bb565b611378565b60028160028111156113615761136161213a565b036113785761137287868685611951565b90955093505b5050600101611287565b508282146113bb576001840180547fffffffffffffffffffffffffffffffffffffffffffffffffffffffffffff00001661ffff84161790555b60078216156113dd57600382901c600090815260028501602052604090208190555b7f8faa70878671ccd212d20771b795c50af8fd3ff6cf27f4bde57e5d4de0aeb673878787604051611410939291906126d7565b60405180910390a16114228686611bd9565b50505050505050565b610dfe8133611cd6565b60008281527fd3889cc5458b268d0544e5534672df1296288ca3f93cbd39bd6f497a5c6228116020526040902061146c9082611136565b5060405133906001600160a01b0383169084907f2f8788117e7eff1d82e926ec794901d17c78024a50270940304540a733656f0d90600090a45050565b60007f24aa1f7b31fd188a8d3ecfb06bc55c806040e59b03bd4396283442fce6617890611206565b6114da33611d5b565b7f24aa1f7b31fd188a8d3ecfb06bc55c806040e59b03bd4396283442fce6617890805473ffffffffffffffffffffffffffffffffffffffff19169055565b610dfe8133611559565b60008281527fd3889cc5458b268d0544e5534672df1296288ca3f93cbd39bd6f497a5c62281160205260408120610e9a9083611de2565b60008281527fd3889cc5458b268d0544e5534672df1296288ca3f93cbd39bd6f497a5c622811602052604090206115909082611e04565b5060405133906001600160a01b0383169084907ff6391f5c32d9c69d2a47ea670b442974b53935d1edc7fd64eb21e047a839171b90600090a45050565b610dfe817f24aa1f7b31fd188a8d3ecfb06bc55c806040e59b03bd4396283442fce6617890805473ffffffffffffffffffffffffffffffffffffffff19166001600160a01b03831617905550565b600081815260018301602052604081205461049f575081546001808201845560008481526020808220909301849055845493815293810190915260409092205590565b805160009081906001600160a01b03163014801590611686575082516001600160a01b03163b155b156116a457604051633ddc5cab60e21b815260040160405180910390fd5b60005b8360400151518110156117ae576000846040015182815181106116cc576116cc612652565b6020908102919091018101516001600160e01b031981166000908152918a9052604090912054909150606081901c15611731576040517f92474ee200000000000000000000000000000000000000000000000000000000815260040160405180910390fd5b85516001600160e01b0319838116600081815260208d90526040902060609390931b6bffffffffffffffffffffffff19168b1790925560058a901b60e090811692831c91831c1999909916179781900361179f57600389901c600090815260028b0160205260408120989098555b505050600195860195016116a7565b5093959294509192505050565b80516001600160a01b03163b6117e457604051633ddc5cab60e21b815260040160405180910390fd5b60005b8160400151518110156107055760008260400151828151811061180c5761180c612652565b6020908102919091018101516001600160e01b03198116600090815291869052604090912054909150606081901c80611871576040517f6fc4b52e00000000000000000000000000000000000000000000000000000000815260040160405180910390fd5b306001600160a01b038216036118b3576040517fe983573100000000000000000000000000000000000000000000000000000000815260040160405180910390fd5b84600001516001600160a01b0316816001600160a01b031603611902576040517f617557e600000000000000000000000000000000000000000000000000000000815260040160405180910390fd5b5083516001600160e01b031992909216600090815260208690526040902060609290921b6bffffffffffffffffffffffff19166bffffffffffffffffffffffff919091161790556001016117e7565b805160009081906001600160a01b031615611998576040517feacd242400000000000000000000000000000000000000000000000000000000815260040160405180910390fd5b600385901c6007861660005b856040015151811015611bc5576000866040015182815181106119c9576119c9612652565b6020908102919091018101516001600160e01b031981166000908152918c9052604090912054909150606081901c611a2d576040517f6fc4b52e00000000000000000000000000000000000000000000000000000000815260040160405180910390fd5b30606082901c03611a6a576040517fe983573100000000000000000000000000000000000000000000000000000000815260040160405180910390fd5b6000899003611a9657600019909401600081815260028c01602052604090205498509360079350611a9e565b600019909301925b600584901b89901b6000806001600160e01b031980841690861614611afa576001600160e01b03198316600090815260208f90526040902080546bffffffffffffffffffffffff19166bffffffffffffffffffffffff86161790555b50506001600160e01b03198316600090815260208d90526040812055611fff600383901c1660e0600584901b16878214611b5d57600082815260028f016020526040902080546001600160e01b031980841c19909116908516831c179055611b96565b80837bffffffffffffffffffffffffffffffffffffffffffffffffffffffff1916901c816001600160e01b031960001b901c198d16179b505b86600003611bb457600088815260028f01602052604081208190559b505b5050600190930192506119a4915050565b5060039190911b1796939550929350505050565b8051156001600160a01b0383161514611c1e576040517f26df4ccd00000000000000000000000000000000000000000000000000000000815260040160405180910390fd5b6001600160a01b03821615611cd2576001600160a01b0382163014611c65576001600160a01b0382163b611c6557604051633ddc5cab60e21b815260040160405180910390fd5b6000826001600160a01b031682604051611c7f91906127b0565b600060405180830381855af49150503d8060008114611cba576040519150601f19603f3d011682016040523d82523d6000602084013e611cbf565b606091505b5050905080610705573d6000803e3d6000fd5b5050565b611ce08282611522565b611cd257611cf6816001600160a01b0316611e19565b611d01836020611e2b565b604051602001611d129291906127cc565b60408051601f19818403018152908290527f08c379a0000000000000000000000000000000000000000000000000000000008252611d529160040161284d565b60405180910390fd5b7f8a22373512790c48b83a1fe2efdd2888d4a917bcdc24d0adf63e60f67168046080546040516001600160a01b038481169216907f8be0079c531659141344cd1fd0a4f28419497f9722a3daafe3b4186f6b6457e090600090a3805473ffffffffffffffffffffffffffffffffffffffff19166001600160a01b0392909216919091179055565b6001600160a01b03811660009081526001830160205260408120541515610e9a565b6000610e9a836001600160a01b038416612024565b606061049f6001600160a01b03831660145b60606000611e3a836002612860565b611e45906002612877565b67ffffffffffffffff811115611e5d57611e5d61245a565b6040519080825280601f01601f191660200182016040528015611e87576020820181803683370190505b5090507f300000000000000000000000000000000000000000000000000000000000000081600081518110611ebe57611ebe612652565b60200101907effffffffffffffffffffffffffffffffffffffffffffffffffffffffffffff1916908160001a9053507f780000000000000000000000000000000000000000000000000000000000000081600181518110611f2157611f21612652565b60200101907effffffffffffffffffffffffffffffffffffffffffffffffffffffffffffff1916908160001a905350600160028402015b6001811115611feb577f303132333435363738396162636465660000000000000000000000000000000085600f1660108110611f9657611f96612652565b1a60f81b828281518110611fac57611fac612652565b60200101907effffffffffffffffffffffffffffffffffffffffffffffffffffffffffffff1916908160001a90535060049490941c9360001901611f58565b508315610e9a576040517fc913478500000000000000000000000000000000000000000000000000000000815260040160405180910390fd5b600081815260018301602052604081205480156120e25783546000908590600019810190811061205657612056612652565b906000526020600020015490508085600001600184038154811061207c5761207c612652565b60009182526020808320909101929092559182526001860190526040902081905583548490806120ae576120ae61288a565b6001900381819060005260206000200160009055905583600101600084815260200190815260200160002060009055600191505b5092915050565b80356001600160e01b03198116811461210157600080fd5b919050565b60006020828403121561211857600080fd5b610e9a826120e9565b60006020828403121561213357600080fd5b5035919050565b634e487b7160e01b600052602160045260246000fd5b600060e0820190506001600160a01b0380845116835260208401516020840152604084015160408401528060608501511660608401528060808501511660808401525060a0830151151560a083015260c0830151600281106121b4576121b461213a565b8060c08401525092915050565b80356001600160a01b038116811461210157600080fd5b60008083601f8401126121ea57600080fd5b50813567ffffffffffffffff81111561220257600080fd5b60208301915083602082850101111561221a57600080fd5b9250929050565b60008060008060006060868803121561223957600080fd5b853567ffffffffffffffff8082111561225157600080fd5b818801915088601f83011261226557600080fd5b81358181111561227457600080fd5b8960208260051b850101111561228957600080fd5b6020830197508096505061229f602089016121c1565b945060408801359150808211156122b557600080fd5b506122c2888289016121d8565b969995985093965092949392505050565b600080604083850312156122e657600080fd5b823591506122f6602084016121c1565b90509250929050565b6020808252825182820181905260009190848201906040850190845b818110156123405783516001600160a01b03168352928401929184019160010161231b565b50909695505050505050565b600081518084526020808501945080840160005b838110156123865781516001600160e01b03191687529582019590820190600101612360565b509495945050505050565b60006020808301818452808551808352604092508286019150828160051b87010184880160005b8381101561241e578883037fffffffffffffffffffffffffffffffffffffffffffffffffffffffffffffffc0018552815180516001600160a01b0316845287015187840187905261240b8785018261234c565b95880195935050908601906001016123b8565b509098975050505050505050565b60006020828403121561243e57600080fd5b610e9a826121c1565b602081526000610e9a602083018461234c565b634e487b7160e01b600052604160045260246000fd5b6040516060810167ffffffffffffffff811182821017156124935761249361245a565b60405290565b604051601f8201601f1916810167ffffffffffffffff811182821017156124c2576124c261245a565b604052919050565b600067ffffffffffffffff8211156124e4576124e461245a565b5060051b60200190565b60006125016124fc846124ca565b612499565b83815260208082019190600586811b86013681111561251f57600080fd5b865b8181101561261557803567ffffffffffffffff808211156125425760008081fd5b818a019150606082360312156125585760008081fd5b612560612470565b612569836121c1565b8152868301356003811061257d5760008081fd5b81880152604083810135838111156125955760008081fd5b939093019236601f8501126125ac57600092508283fd5b833592506125bc6124fc846124ca565b83815292871b840188019288810190368511156125d95760008081fd5b948901945b848610156125fe576125ef866120e9565b825294890194908901906125de565b918301919091525088525050948301948301612521565b5092979650505050505050565b634e487b7160e01b600052601160045260246000fd5b6000600019820361264b5761264b612622565b5060010190565b634e487b7160e01b600052603260045260246000fd5b600060ff821660ff810361267e5761267e612622565b60010192915050565b60005b838110156126a257818101518382015260200161268a565b50506000910152565b600081518084526126c3816020860160208601612687565b601f01601f19169290920160200192915050565b6000606080830181845280875180835260808601915060808160051b87010192506020808a0160005b83811015612781577fffffffffffffffffffffffffffffffffffffffffffffffffffffffffffffff8089870301855281516001600160a01b03815116875283810151600381106127525761275261213a565b8785015260409081015190870188905261276e8888018261234c565b9650509382019390820190600101612700565b50506001600160a01b03891690870152505083810360408501526127a581866126ab565b979650505050505050565b600082516127c2818460208701612687565b9190910192915050565b7f416363657373436f6e74726f6c3a206163636f756e7420000000000000000000815260008351612804816017850160208801612687565b7f206973206d697373696e6720726f6c65200000000000000000000000000000006017918401918201528351612841816028840160208801612687565b01602801949350505050565b602081526000610e9a60208301846126ab565b808202811582820484141761049f5761049f612622565b8082018082111561049f5761049f612622565b634e487b7160e01b600052603160045260246000fdfea264697066735822122086556166561fce47ebb503653053a56a523601fab1808e62c434ca8a98bbbc8064736f6c63430008110033",
  "linkReferences": {},
  "deployedLinkReferences": {}
}