{
  "_format": "hh-sol-artifact-1",
  "contractName": "L2OpenEntryTicketBase",
  "sourceName": "contracts/tokens/zksync/ticket/open_entry/L2OpenEntryTicketBase.sol",
  "abi": [
    {
      "inputs": [],
      "name": "AddressUtils__NotContract",
      "type": "error"
    },
    {
      "inputs": [],
      "name": "ERC165Base__InvalidInterfaceId",
      "type": "error"
    },
    {
      "inputs": [],
      "name": "ERC721Base__BalanceQueryZeroAddress",
      "type": "error"
    },
    {
      "inputs": [],
      "name": "ERC721Base__ERC721ReceiverNotImplemented",
      "type": "error"
    },
    {
      "inputs": [],
      "name": "ERC721Base__InvalidOwner",
      "type": "error"
    },
    {
      "inputs": [],
      "name": "ERC721Base__MintToZeroAddress",
      "type": "error"
    },
    {
      "inputs": [],
      "name": "ERC721Base__NonExistentToken",
      "type": "error"
    },
    {
      "inputs": [],
      "name": "ERC721Base__NotOwnerOrApproved",
      "type": "error"
    },
    {
      "inputs": [],
      "name": "ERC721Base__NotTokenOwner",
      "type": "error"
    },
    {
      "inputs": [],
      "name": "ERC721Base__SelfApproval",
      "type": "error"
    },
    {
      "inputs": [],
      "name": "ERC721Base__TokenAlreadyMinted",
      "type": "error"
    },
    {
      "inputs": [],
      "name": "ERC721Base__TransferToZeroAddress",
      "type": "error"
    },
    {
      "inputs": [],
      "name": "ERC721Metadata__NonExistentToken",
      "type": "error"
    },
    {
      "inputs": [],
      "name": "EnumerableMap__IndexOutOfBounds",
      "type": "error"
    },
    {
      "inputs": [],
      "name": "EnumerableMap__NonExistentKey",
      "type": "error"
    },
    {
      "inputs": [],
      "name": "EnumerableSet__IndexOutOfBounds",
      "type": "error"
    },
    {
      "inputs": [
        {
          "internalType": "uint256",
          "name": "ticketId",
          "type": "uint256"
        }
      ],
      "name": "InvalidTicketId",
      "type": "error"
    },
    {
      "inputs": [
        {
          "internalType": "enum NaffleTypes.NaffleStatus",
          "name": "status",
          "type": "uint8"
        }
      ],
      "name": "NaffleNotCancelled",
      "type": "error"
    },
    {
      "inputs": [],
      "name": "NotAllowed",
      "type": "error"
    },
    {
      "inputs": [
        {
          "internalType": "uint256",
          "name": "ticketId",
          "type": "uint256"
        }
      ],
      "name": "NotOwnerOfTicket",
      "type": "error"
    },
    {
      "inputs": [
        {
          "internalType": "address",
          "name": "sender",
          "type": "address"
        }
      ],
      "name": "NotTicketOwner",
      "type": "error"
    },
    {
      "inputs": [],
      "name": "SolidStateERC721__PayableApproveNotSupported",
      "type": "error"
    },
    {
      "inputs": [],
      "name": "SolidStateERC721__PayableTransferNotSupported",
      "type": "error"
    },
    {
      "inputs": [
        {
          "internalType": "uint256",
          "name": "ticketId",
          "type": "uint256"
        }
      ],
      "name": "TicketAlreadyUsed",
      "type": "error"
    },
    {
      "inputs": [],
      "name": "UintUtils__InsufficientHexLength",
      "type": "error"
    },
    {
      "anonymous": false,
      "inputs": [
        {
          "indexed": true,
          "internalType": "address",
          "name": "owner",
          "type": "address"
        },
        {
          "indexed": true,
          "internalType": "address",
          "name": "operator",
          "type": "address"
        },
        {
          "indexed": true,
          "internalType": "uint256",
          "name": "tokenId",
          "type": "uint256"
        }
      ],
      "name": "Approval",
      "type": "event"
    },
    {
      "anonymous": false,
      "inputs": [
        {
          "indexed": true,
          "internalType": "address",
          "name": "owner",
          "type": "address"
        },
        {
          "indexed": true,
          "internalType": "address",
          "name": "operator",
          "type": "address"
        },
        {
          "indexed": false,
          "internalType": "bool",
          "name": "approved",
          "type": "bool"
        }
      ],
      "name": "ApprovalForAll",
      "type": "event"
    },
    {
      "anonymous": false,
      "inputs": [
        {
          "indexed": true,
          "internalType": "bytes32",
          "name": "role",
          "type": "bytes32"
        },
        {
          "indexed": true,
          "internalType": "bytes32",
          "name": "previousAdminRole",
          "type": "bytes32"
        },
        {
          "indexed": true,
          "internalType": "bytes32",
          "name": "newAdminRole",
          "type": "bytes32"
        }
      ],
      "name": "RoleAdminChanged",
      "type": "event"
    },
    {
      "anonymous": false,
      "inputs": [
        {
          "indexed": true,
          "internalType": "bytes32",
          "name": "role",
          "type": "bytes32"
        },
        {
          "indexed": true,
          "internalType": "address",
          "name": "account",
          "type": "address"
        },
        {
          "indexed": true,
          "internalType": "address",
          "name": "sender",
          "type": "address"
        }
      ],
      "name": "RoleGranted",
      "type": "event"
    },
    {
      "anonymous": false,
      "inputs": [
        {
          "indexed": true,
          "internalType": "bytes32",
          "name": "role",
          "type": "bytes32"
        },
        {
          "indexed": true,
          "internalType": "address",
          "name": "account",
          "type": "address"
        },
        {
          "indexed": true,
          "internalType": "address",
          "name": "sender",
          "type": "address"
        }
      ],
      "name": "RoleRevoked",
      "type": "event"
    },
    {
      "anonymous": false,
      "inputs": [
        {
          "indexed": true,
          "internalType": "uint256",
          "name": "naffleId",
          "type": "uint256"
        },
        {
          "indexed": false,
          "internalType": "uint256",
          "name": "ticketId",
          "type": "uint256"
        },
        {
          "indexed": false,
          "internalType": "uint256",
          "name": "naffleTicketId",
          "type": "uint256"
        },
        {
          "indexed": true,
          "internalType": "address",
          "name": "owner",
          "type": "address"
        }
      ],
      "name": "TicketDetachedFromNaffle",
      "type": "event"
    },
    {
      "anonymous": false,
      "inputs": [
        {
          "indexed": true,
          "internalType": "uint256",
          "name": "naffleId",
          "type": "uint256"
        },
        {
          "indexed": false,
          "internalType": "uint256[]",
          "name": "ticketIds",
          "type": "uint256[]"
        },
        {
          "indexed": false,
          "internalType": "uint256",
          "name": "startingTicketId",
          "type": "uint256"
        },
        {
          "indexed": true,
          "internalType": "address",
          "name": "owner",
          "type": "address"
        }
      ],
      "name": "TicketsAttachedToNaffle",
      "type": "event"
    },
    {
      "anonymous": false,
      "inputs": [
        {
          "indexed": true,
          "internalType": "address",
          "name": "from",
          "type": "address"
        },
        {
          "indexed": true,
          "internalType": "address",
          "name": "to",
          "type": "address"
        },
        {
          "indexed": true,
          "internalType": "uint256",
          "name": "tokenId",
          "type": "uint256"
        }
      ],
      "name": "Transfer",
      "type": "event"
    },
    {
      "inputs": [
        {
          "internalType": "address",
          "name": "operator",
          "type": "address"
        },
        {
          "internalType": "uint256",
          "name": "tokenId",
          "type": "uint256"
        }
      ],
      "name": "approve",
      "outputs": [],
      "stateMutability": "payable",
      "type": "function"
    },
    {
      "inputs": [
        {
          "internalType": "uint256",
          "name": "_naffleId",
          "type": "uint256"
        },
        {
          "internalType": "uint256[]",
          "name": "_ticketIds",
          "type": "uint256[]"
        },
        {
          "internalType": "uint256",
          "name": "startingTicketId",
          "type": "uint256"
        },
        {
          "internalType": "address",
          "name": "owner",
          "type": "address"
        }
      ],
      "name": "attachToNaffle",
      "outputs": [],
      "stateMutability": "nonpayable",
      "type": "function"
    },
    {
      "inputs": [
        {
          "internalType": "address",
          "name": "account",
          "type": "address"
        }
      ],
      "name": "balanceOf",
      "outputs": [
        {
          "internalType": "uint256",
          "name": "",
          "type": "uint256"
        }
      ],
      "stateMutability": "view",
      "type": "function"
    },
    {
      "inputs": [
        {
          "internalType": "uint256",
          "name": "_naffleId",
          "type": "uint256"
        },
        {
          "internalType": "uint256",
          "name": "_naffleTicketId",
          "type": "uint256"
        }
      ],
      "name": "detachFromNaffle",
      "outputs": [],
      "stateMutability": "nonpayable",
      "type": "function"
    },
    {
      "inputs": [
        {
          "internalType": "uint256",
          "name": "tokenId",
          "type": "uint256"
        }
      ],
      "name": "getApproved",
      "outputs": [
        {
          "internalType": "address",
          "name": "",
          "type": "address"
        }
      ],
      "stateMutability": "view",
      "type": "function"
    },
    {
      "inputs": [
        {
          "internalType": "bytes32",
          "name": "role",
          "type": "bytes32"
        }
      ],
      "name": "getRoleAdmin",
      "outputs": [
        {
          "internalType": "bytes32",
          "name": "",
          "type": "bytes32"
        }
      ],
      "stateMutability": "view",
      "type": "function"
    },
    {
      "inputs": [
        {
          "internalType": "bytes32",
          "name": "role",
          "type": "bytes32"
        },
        {
          "internalType": "address",
          "name": "account",
          "type": "address"
        }
      ],
      "name": "grantRole",
      "outputs": [],
      "stateMutability": "nonpayable",
      "type": "function"
    },
    {
      "inputs": [
        {
          "internalType": "bytes32",
          "name": "role",
          "type": "bytes32"
        },
        {
          "internalType": "address",
          "name": "account",
          "type": "address"
        }
      ],
      "name": "hasRole",
      "outputs": [
        {
          "internalType": "bool",
          "name": "",
          "type": "bool"
        }
      ],
      "stateMutability": "view",
      "type": "function"
    },
    {
      "inputs": [
        {
          "internalType": "address",
          "name": "account",
          "type": "address"
        },
        {
          "internalType": "address",
          "name": "operator",
          "type": "address"
        }
      ],
      "name": "isApprovedForAll",
      "outputs": [
        {
          "internalType": "bool",
          "name": "",
          "type": "bool"
        }
      ],
      "stateMutability": "view",
      "type": "function"
    },
    {
      "inputs": [],
      "name": "name",
      "outputs": [
        {
          "internalType": "string",
          "name": "",
          "type": "string"
        }
      ],
      "stateMutability": "view",
      "type": "function"
    },
    {
      "inputs": [
        {
          "internalType": "uint256",
          "name": "tokenId",
          "type": "uint256"
        }
      ],
      "name": "ownerOf",
      "outputs": [
        {
          "internalType": "address",
          "name": "",
          "type": "address"
        }
      ],
      "stateMutability": "view",
      "type": "function"
    },
    {
      "inputs": [
        {
          "internalType": "bytes32",
          "name": "role",
          "type": "bytes32"
        }
      ],
      "name": "renounceRole",
      "outputs": [],
      "stateMutability": "nonpayable",
      "type": "function"
    },
    {
      "inputs": [
        {
          "internalType": "bytes32",
          "name": "role",
          "type": "bytes32"
        },
        {
          "internalType": "address",
          "name": "account",
          "type": "address"
        }
      ],
      "name": "revokeRole",
      "outputs": [],
      "stateMutability": "nonpayable",
      "type": "function"
    },
    {
      "inputs": [
        {
          "internalType": "address",
          "name": "from",
          "type": "address"
        },
        {
          "internalType": "address",
          "name": "to",
          "type": "address"
        },
        {
          "internalType": "uint256",
          "name": "tokenId",
          "type": "uint256"
        }
      ],
      "name": "safeTransferFrom",
      "outputs": [],
      "stateMutability": "payable",
      "type": "function"
    },
    {
      "inputs": [
        {
          "internalType": "address",
          "name": "from",
          "type": "address"
        },
        {
          "internalType": "address",
          "name": "to",
          "type": "address"
        },
        {
          "internalType": "uint256",
          "name": "tokenId",
          "type": "uint256"
        },
        {
          "internalType": "bytes",
          "name": "data",
          "type": "bytes"
        }
      ],
      "name": "safeTransferFrom",
      "outputs": [],
      "stateMutability": "payable",
      "type": "function"
    },
    {
      "inputs": [
        {
          "internalType": "address",
          "name": "operator",
          "type": "address"
        },
        {
          "internalType": "bool",
          "name": "status",
          "type": "bool"
        }
      ],
      "name": "setApprovalForAll",
      "outputs": [],
      "stateMutability": "nonpayable",
      "type": "function"
    },
    {
      "inputs": [
        {
          "internalType": "bytes4",
          "name": "interfaceId",
          "type": "bytes4"
        }
      ],
      "name": "supportsInterface",
      "outputs": [
        {
          "internalType": "bool",
          "name": "",
          "type": "bool"
        }
      ],
      "stateMutability": "view",
      "type": "function"
    },
    {
      "inputs": [],
      "name": "symbol",
      "outputs": [
        {
          "internalType": "string",
          "name": "",
          "type": "string"
        }
      ],
      "stateMutability": "view",
      "type": "function"
    },
    {
      "inputs": [
        {
          "internalType": "uint256",
          "name": "index",
          "type": "uint256"
        }
      ],
      "name": "tokenByIndex",
      "outputs": [
        {
          "internalType": "uint256",
          "name": "",
          "type": "uint256"
        }
      ],
      "stateMutability": "view",
      "type": "function"
    },
    {
      "inputs": [
        {
          "internalType": "address",
          "name": "owner",
          "type": "address"
        },
        {
          "internalType": "uint256",
          "name": "index",
          "type": "uint256"
        }
      ],
      "name": "tokenOfOwnerByIndex",
      "outputs": [
        {
          "internalType": "uint256",
          "name": "",
          "type": "uint256"
        }
      ],
      "stateMutability": "view",
      "type": "function"
    },
    {
      "inputs": [
        {
          "internalType": "uint256",
          "name": "tokenId",
          "type": "uint256"
        }
      ],
      "name": "tokenURI",
      "outputs": [
        {
          "internalType": "string",
          "name": "",
          "type": "string"
        }
      ],
      "stateMutability": "view",
      "type": "function"
    },
    {
      "inputs": [],
      "name": "totalSupply",
      "outputs": [
        {
          "internalType": "uint256",
          "name": "",
          "type": "uint256"
        }
      ],
      "stateMutability": "view",
      "type": "function"
    },
    {
      "inputs": [
        {
          "internalType": "address",
          "name": "from",
          "type": "address"
        },
        {
          "internalType": "address",
          "name": "to",
          "type": "address"
        },
        {
          "internalType": "uint256",
          "name": "tokenId",
          "type": "uint256"
        }
      ],
      "name": "transferFrom",
      "outputs": [],
      "stateMutability": "payable",
      "type": "function"
    }
  ],
  "bytecode": "0x608060405234801561001057600080fd5b50612a94806100206000396000f3fe6080604052600436106101805760003560e01c80634f6ccce7116100d6578063a22cb4651161007f578063d547741f11610059578063d547741f146103fa578063e985e9c51461041a578063fb8b28161461043a57600080fd5b8063a22cb465146103a7578063b88d4fde146103c7578063c87b56dd146103da57600080fd5b80638bb9c5bf116100b05780638bb9c5bf1461035257806391d148541461037257806395d89b411461039257600080fd5b80634f6ccce7146102f25780636352211e1461031257806370a082311461033257600080fd5b806318160ddd116101385780632f2ff15d116101125780632f2ff15d1461029f5780632f745c59146102bf57806342842e0e146102df57600080fd5b806318160ddd1461024957806323b872dd1461026c578063248a9ca31461027f57600080fd5b8063081812fc11610169578063081812fc146101dc578063095ea7b31461021457806312dd20b21461022957600080fd5b806301ffc9a71461018557806306fdde03146101ba575b600080fd5b34801561019157600080fd5b506101a56101a0366004612257565b61045a565b60405190151581526020015b60405180910390f35b3480156101c657600080fd5b506101cf6104b5565b6040516101b191906122c4565b3480156101e857600080fd5b506101fc6101f73660046122d7565b6104c4565b6040516001600160a01b0390911681526020016101b1565b610227610222366004612315565b6104cf565b005b34801561023557600080fd5b50610227610244366004612341565b6104dd565b34801561025557600080fd5b5061025e6104e7565b6040519081526020016101b1565b61022761027a366004612363565b6104f1565b34801561028b57600080fd5b5061025e61029a3660046122d7565b610501565b3480156102ab57600080fd5b506102276102ba3660046123a4565b610537565b3480156102cb57600080fd5b5061025e6102da366004612315565b61057b565b6102276102ed366004612363565b61058e565b3480156102fe57600080fd5b5061025e61030d3660046122d7565b610599565b34801561031e57600080fd5b506101fc61032d3660046122d7565b6105a4565b34801561033e57600080fd5b5061025e61034d3660046123d4565b6105af565b34801561035e57600080fd5b5061022761036d3660046122d7565b6105ba565b34801561037e57600080fd5b506101a561038d3660046123a4565b6105c6565b34801561039e57600080fd5b506101cf6105d2565b3480156103b357600080fd5b506102276103c23660046123f1565b6105dc565b6102276103d5366004612495565b6105e6565b3480156103e657600080fd5b506101cf6103f53660046122d7565b6105f8565b34801561040657600080fd5b506102276104153660046123a4565b610603565b34801561042657600080fd5b506101a5610435366004612559565b610647565b34801561044657600080fd5b50610227610455366004612587565b610696565b7fffffffff00000000000000000000000000000000000000000000000000000000811660009081527ffc606c433378e3a7e0a6a531deac289b66caa1b4aa8554fd4ab2c6f1570f92d8602052604081205460ff165b92915050565b60606104bf610705565b905090565b60006104af826107b6565b6104d98282610832565b5050565b6104d982826109a2565b60006104bf610c0e565b6104fc838383610c39565b505050565b60008181527fd3889cc5458b268d0544e5534672df1296288ca3f93cbd39bd6f497a5c62281160205260408120600201546104af565b60008281527fd3889cc5458b268d0544e5534672df1296288ca3f93cbd39bd6f497a5c622811602052604090206002015461057181610c77565b6104fc8383610c81565b60006105878383610cf5565b9392505050565b6104fc838383610d36565b60006104af82610d51565b60006104af82610d84565b60006104af82610df3565b6105c381610e75565b50565b60006105878383610e7f565b60606104bf610eb6565b6104d98282610ee7565b6105f284848484610fb4565b50505050565b60606104af82610ff3565b60008281527fd3889cc5458b268d0544e5534672df1296288ca3f93cbd39bd6f497a5c622811602052604090206002015461063d81610c77565b6104fc8383611200565b6001600160a01b0380831660009081527f3c7bf052874fa81625121783266a03507bd2cd48b16e571c01a04e8dd3fb07aa6020908152604080832093851683529290529081205460ff16610587565b7f1711c63114197c394f54d5497ead4a5b8cd22ec97e5359f1583e739cfb54a5f7546001600160a01b031633146106f9576040517f3d693ada00000000000000000000000000000000000000000000000000000000815260040160405180910390fd5b6105f284848484611274565b60607f99574a7094154bb123ae6ae102096f0bf9679b85a5cd1e727aaa0ae5f132e6b1805461073390612652565b80601f016020809104026020016040519081016040528092919081815260200182805461075f90612652565b80156107ac5780601f10610781576101008083540402835291602001916107ac565b820191906000526020600020905b81548152906001019060200180831161078f57829003601f168201915b5050505050905090565b60006107c1826113fc565b6107f7576040517fc1b843ef00000000000000000000000000000000000000000000000000000000815260040160405180910390fd5b5060009081527f3c7bf052874fa81625121783266a03507bd2cd48b16e571c01a04e8dd3fb07a960205260409020546001600160a01b031690565b61083d828234611428565b600061084882610d84565b9050806001600160a01b0316836001600160a01b031603610895576040517f424a22cb00000000000000000000000000000000000000000000000000000000815260040160405180910390fd5b336001600160a01b038216148015906108f157506001600160a01b03811660009081527f3c7bf052874fa81625121783266a03507bd2cd48b16e571c01a04e8dd3fb07aa6020908152604080832033845290915290205460ff16155b1561090f57604051632f5de44f60e01b815260040160405180910390fd5b60008281527f3c7bf052874fa81625121783266a03507bd2cd48b16e571c01a04e8dd3fb07a9602052604080822080547fffffffffffffffffffffffff0000000000000000000000000000000000000000166001600160a01b0387811691821790925591518593918516917f8c5be1e5ebec7d5bd14f71427d1e84f3dd0314c0f7b2291e5b200ac8c7c3b92591a4505050565b7f1711c63114197c394f54d5497ead4a5b8cd22ec97e5359f1583e739cfb54a5f760006109f67f1711c63114197c394f54d5497ead4a5b8cd22ec97e5359f1583e739cfb54a5f7546001600160a01b031690565b6001600160a01b0316632995e4d1856040518263ffffffff1660e01b8152600401610a2391815260200190565b6101e060405180830381865afa158015610a41573d6000803e3d6000fd5b505050506040513d601f19601f82011682018060405250810190610a6591906126c4565b905060028161018001516004811115610a8057610a806127aa565b14610ac7578061018001516040517fb9988107000000000000000000000000000000000000000000000000000000008152600401610abe91906127c0565b60405180910390fd5b600084815260018301602090815260408083208684528252808320548084526003860190925282209091829003610b2d576040517f51d7ea4f00000000000000000000000000000000000000000000000000000000815260048101869052602401610abe565b6000610b3883610d84565b90506001600160a01b0381163314610b7e576040517fcf4e2561000000000000000000000000000000000000000000000000000000008152336004820152602401610abe565b600080835560018084018290558482526003870160209081526040808420848155928301939093556002808601549201805460ff191660ff90931615159290921790915581518581529081018890526001600160a01b0383169189917fb32c33d6bf3228794e7808a827027134577150aa465f79e109d918057f047d84910160405180910390a350505050505050565b60006104bf7f3c7bf052874fa81625121783266a03507bd2cd48b16e571c01a04e8dd3fb07a6611433565b610c458383833461143d565b610c4f3382611449565b610c6c57604051632f5de44f60e01b815260040160405180910390fd5b6104fc838383611527565b6105c38133611712565b60008281527fd3889cc5458b268d0544e5534672df1296288ca3f93cbd39bd6f497a5c62281160205260409020610cb8908261178e565b5060405133906001600160a01b0383169084907f2f8788117e7eff1d82e926ec794901d17c78024a50270940304540a733656f0d90600090a45050565b6001600160a01b03821660009081527f3c7bf052874fa81625121783266a03507bd2cd48b16e571c01a04e8dd3fb07a86020526040812061058790836117a3565b6104fc83838360405180602001604052806000815250610fb4565b6000610d7d7f3c7bf052874fa81625121783266a03507bd2cd48b16e571c01a04e8dd3fb07a6836117af565b5092915050565b600080610db17f3c7bf052874fa81625121783266a03507bd2cd48b16e571c01a04e8dd3fb07a6846117cb565b90506001600160a01b0381166104af576040517f7e1a7d8b00000000000000000000000000000000000000000000000000000000815260040160405180910390fd5b60006001600160a01b038216610e35576040517f810ff97000000000000000000000000000000000000000000000000000000000815260040160405180910390fd5b6001600160a01b03821660009081527f3c7bf052874fa81625121783266a03507bd2cd48b16e571c01a04e8dd3fb07a8602052604090206104af90611433565b6105c38133611200565b60008281527fd3889cc5458b268d0544e5534672df1296288ca3f93cbd39bd6f497a5c6228116020526040812061058790836117d7565b60607f99574a7094154bb123ae6ae102096f0bf9679b85a5cd1e727aaa0ae5f132e6b1600101805461073390612652565b336001600160a01b03831603610f29576040517f424a22cb00000000000000000000000000000000000000000000000000000000815260040160405180910390fd5b3360008181527f3c7bf052874fa81625121783266a03507bd2cd48b16e571c01a04e8dd3fb07aa602090815260408083206001600160a01b03871680855290835292819020805460ff191686151590811790915590519081529192917f17307eab39ab6107e8899845ad3d59bd9653f200f220920489ca2b5937696c31910160405180910390a35050565b610fc08484843461143d565b610fca3383611449565b610fe757604051632f5de44f60e01b815260040160405180910390fd5b6105f2848484846117f9565b6060610ffe826113fc565b611034576040517f2382d38000000000000000000000000000000000000000000000000000000000815260040160405180910390fd5b60008281527f99574a7094154bb123ae6ae102096f0bf9679b85a5cd1e727aaa0ae5f132e6b46020526040812080547f99574a7094154bb123ae6ae102096f0bf9679b85a5cd1e727aaa0ae5f132e6b192919061109090612652565b80601f01602080910402602001604051908101604052809291908181526020018280546110bc90612652565b80156111095780601f106110de57610100808354040283529160200191611109565b820191906000526020600020905b8154815290600101906020018083116110ec57829003601f168201915b50505050509050600082600201805461112190612652565b80601f016020809104026020016040519081016040528092919081815260200182805461114d90612652565b801561119a5780601f1061116f5761010080835404028352916020019161119a565b820191906000526020600020905b81548152906001019060200180831161117d57829003601f168201915b5050505050905080516000036111b257509392505050565b8151156111e55780826040516020016111cc9291906127e8565b6040516020818303038152906040529350505050919050565b806111ef86611846565b6040516020016111cc9291906127e8565b60008281527fd3889cc5458b268d0544e5534672df1296288ca3f93cbd39bd6f497a5c62281160205260409020611237908261197b565b5060405133906001600160a01b0383169084907ff6391f5c32d9c69d2a47ea670b442974b53935d1edc7fd64eb21e047a839171b90600090a45050565b7f1711c63114197c394f54d5497ead4a5b8cd22ec97e5359f1583e739cfb54a5f760005b84518110156113b05760008582815181106112b5576112b5612817565b602090810291909101810151600081815260038601909252604090912080549192509015611312576040517f3d1f022500000000000000000000000000000000000000000000000000000000815260048101839052602401610abe565b846001600160a01b031661132583610d84565b6001600160a01b031614611368576040517f8ed983be00000000000000000000000000000000000000000000000000000000815260048101839052602401610abe565b8781556001808201879055600089815290850160209081526040808320898452909152902082905561139986612843565b9550505080806113a890612843565b915050611298565b50816001600160a01b0316857f34595258291c50b59418f913a101393f1556dc651ef3fc99cd42bed99ef0017f86866040516113ed92919061285d565b60405180910390a35050505050565b60006104af7f3c7bf052874fa81625121783266a03507bd2cd48b16e571c01a04e8dd3fb07a683611990565b6104fc8383836119a8565b60006104af825490565b6105f2848484846119e0565b6000611454826113fc565b61148a576040517fc1b843ef00000000000000000000000000000000000000000000000000000000815260040160405180910390fd5b600061149583610d84565b9050806001600160a01b0316846001600160a01b031614806114d05750836001600160a01b03166114c5846107b6565b6001600160a01b0316145b8061151f57506001600160a01b0380821660009081527f3c7bf052874fa81625121783266a03507bd2cd48b16e571c01a04e8dd3fb07aa602090815260408083209388168352929052205460ff165b949350505050565b600061153282610d84565b9050836001600160a01b0316816001600160a01b03161461157f576040517f0f2db4ad00000000000000000000000000000000000000000000000000000000815260040160405180910390fd5b6001600160a01b0383166115bf576040517f40311a0900000000000000000000000000000000000000000000000000000000815260040160405180910390fd5b6115ca848484611a1d565b6001600160a01b03841660009081527f3c7bf052874fa81625121783266a03507bd2cd48b16e571c01a04e8dd3fb07a8602052604090207f3c7bf052874fa81625121783266a03507bd2cd48b16e571c01a04e8dd3fb07a69061162d9084611a28565b506001600160a01b038416600090815260028201602052604090206116529084611a34565b5061165e818486611a40565b50600083815260038201602052604080822080547fffffffffffffffffffffffff0000000000000000000000000000000000000000169055518491906001600160a01b038516907f8c5be1e5ebec7d5bd14f71427d1e84f3dd0314c0f7b2291e5b200ac8c7c3b925908390a482846001600160a01b0316866001600160a01b03167fddf252ad1be2c89b69c2b068fc378daa952ba7f163c4a11628f55a4df523b3ef60405160405180910390a45050505050565b61171c8282610e7f565b6104d957611732816001600160a01b0316611a56565b61173d836020611a68565b60405160200161174e9291906128a5565b60408051601f19818403018152908290527f08c379a0000000000000000000000000000000000000000000000000000000008252610abe916004016122c4565b6000610587836001600160a01b038416611c61565b60006105878383611ca4565b60008080806117be8686611d09565b9097909650945050505050565b60006105878383611d85565b6001600160a01b03811660009081526001830160205260408120541515610587565b611804848484611527565b61181084848484611e02565b6105f2576040517f9ff10cdd00000000000000000000000000000000000000000000000000000000815260040160405180910390fd5b60608160000361188957505060408051808201909152600181527f3000000000000000000000000000000000000000000000000000000000000000602082015290565b8160005b81156118b3578061189d81612843565b91506118ac9050600a8361293c565b915061188d565b60008167ffffffffffffffff8111156118ce576118ce612424565b6040519080825280601f01601f1916602001820160405280156118f8576020820181803683370190505b5090505b841561151f5761190d600183612950565b915061191a600a86612963565b611925906030612977565b60f81b81838151811061193a5761193a612817565b60200101907effffffffffffffffffffffffffffffffffffffffffffffffffffffffffffff1916908160001a905350611974600a8661293c565b94506118fc565b6000610587836001600160a01b038416611f2e565b60008181526001830160205260408120541515610587565b80156104fc576040517fb56d7c1b00000000000000000000000000000000000000000000000000000000815260040160405180910390fd5b8015611a18576040517f22b1813900000000000000000000000000000000000000000000000000000000815260040160405180910390fd5b6105f2565b6104fc838383611fe8565b60006105878383611f2e565b60006105878383611c61565b600061151f84846001600160a01b038516611ff3565b60606104af6001600160a01b03831660145b60606000611a7783600261298a565b611a82906002612977565b67ffffffffffffffff811115611a9a57611a9a612424565b6040519080825280601f01601f191660200182016040528015611ac4576020820181803683370190505b5090507f300000000000000000000000000000000000000000000000000000000000000081600081518110611afb57611afb612817565b60200101907effffffffffffffffffffffffffffffffffffffffffffffffffffffffffffff1916908160001a9053507f780000000000000000000000000000000000000000000000000000000000000081600181518110611b5e57611b5e612817565b60200101907effffffffffffffffffffffffffffffffffffffffffffffffffffffffffffff1916908160001a905350600160028402015b6001811115611c28577f303132333435363738396162636465660000000000000000000000000000000085600f1660108110611bd357611bd3612817565b1a60f81b828281518110611be957611be9612817565b60200101907effffffffffffffffffffffffffffffffffffffffffffffffffffffffffffff1916908160001a90535060049490941c9360001901611b95565b508315610587576040517fc913478500000000000000000000000000000000000000000000000000000000815260040160405180910390fd5b60008181526001830160205260408120546104af575081546001808201845560008481526020808220909301849055845493815293810190915260409092205590565b81546000908210611ce1576040517fe637bf3b00000000000000000000000000000000000000000000000000000000815260040160405180910390fd5b826000018281548110611cf657611cf6612817565b9060005260206000200154905092915050565b815460009081908310611d48576040517f117ec13800000000000000000000000000000000000000000000000000000000815260040160405180910390fd5b6000846000018481548110611d5f57611d5f612817565b906000526020600020906002020190508060000154816001015492509250509250929050565b6000818152600183016020526040812054808203611dcf576040517ff551fb1400000000000000000000000000000000000000000000000000000000815260040160405180910390fd5b836000016001820381548110611de757611de7612817565b90600052602060002090600202016001015491505092915050565b60006001600160a01b0384163b611e1b5750600161151f565b6000611ec663150b7a0260e01b33888787604051602401611e3f94939291906129a1565b604051602081830303815290604052907bffffffffffffffffffffffffffffffffffffffffffffffffffffffff19166020820180517bffffffffffffffffffffffffffffffffffffffffffffffffffffffff8381831617835250505050604051806060016040528060328152602001612a2d603291396001600160a01b0388169190612092565b9050600081806020019051810190611ede91906129dd565b7fffffffff00000000000000000000000000000000000000000000000000000000167f150b7a02000000000000000000000000000000000000000000000000000000001492505050949350505050565b60008181526001830160205260408120548015610d7d57835460009085906000198101908110611f6057611f60612817565b9060005260206000200154905080856000016001840381548110611f8657611f86612817565b6000918252602080832090910192909255918252600186019052604090208190558354849080611fb857611fb86129fa565b60008281526020808220830160001990810183905590920190925593815260019485019093525050604081205590565b6104fc8383836120a1565b600082815260018401602052604081205480820361205a575050604080518082018252838152602080820184815286546001818101895560008981528481209551600290930290950191825591519082015586548684528188019092529290912055610587565b8285600001600183038154811061207357612073612817565b9060005260206000209060020201600101819055506000915050610587565b606061151f84846000856120ac565b6104fc83838361219c565b6060843b6120e6576040517f89c35afc00000000000000000000000000000000000000000000000000000000815260040160405180910390fd5b600080866001600160a01b031685876040516121029190612a10565b60006040518083038185875af1925050503d806000811461213f576040519150601f19603f3d011682016040523d82523d6000602084013e612144565b606091505b5091509150811561215857915061151f9050565b8051156121685780518082602001fd5b836040517f08c379a0000000000000000000000000000000000000000000000000000000008152600401610abe91906122c4565b6001600160a01b0382166104fc5760008181527f99574a7094154bb123ae6ae102096f0bf9679b85a5cd1e727aaa0ae5f132e6b46020526040902080546104fc91906121e790612652565b6000825580601f106121f7575050565b601f0160209004906000526020600020908101906105c391905b808211156122255760008155600101612211565b5090565b7fffffffff00000000000000000000000000000000000000000000000000000000811681146105c357600080fd5b60006020828403121561226957600080fd5b813561058781612229565b60005b8381101561228f578181015183820152602001612277565b50506000910152565b600081518084526122b0816020860160208601612274565b601f01601f19169290920160200192915050565b6020815260006105876020830184612298565b6000602082840312156122e957600080fd5b5035919050565b6001600160a01b03811681146105c357600080fd5b8035612310816122f0565b919050565b6000806040838503121561232857600080fd5b8235612333816122f0565b946020939093013593505050565b6000806040838503121561235457600080fd5b50508035926020909101359150565b60008060006060848603121561237857600080fd5b8335612383816122f0565b92506020840135612393816122f0565b929592945050506040919091013590565b600080604083850312156123b757600080fd5b8235915060208301356123c9816122f0565b809150509250929050565b6000602082840312156123e657600080fd5b8135610587816122f0565b6000806040838503121561240457600080fd5b823561240f816122f0565b9150602083013580151581146123c957600080fd5b634e487b7160e01b600052604160045260246000fd5b6040516101e0810167ffffffffffffffff8111828210171561245e5761245e612424565b60405290565b604051601f8201601f1916810167ffffffffffffffff8111828210171561248d5761248d612424565b604052919050565b600080600080608085870312156124ab57600080fd5b84356124b6816122f0565b93506020858101356124c7816122f0565b935060408601359250606086013567ffffffffffffffff808211156124eb57600080fd5b818801915088601f8301126124ff57600080fd5b81358181111561251157612511612424565b61252384601f19601f84011601612464565b9150808252898482850101111561253957600080fd5b808484018584013760008482840101525080935050505092959194509250565b6000806040838503121561256c57600080fd5b8235612577816122f0565b915060208301356123c9816122f0565b6000806000806080858703121561259d57600080fd5b8435935060208086013567ffffffffffffffff808211156125bd57600080fd5b818801915088601f8301126125d157600080fd5b8135818111156125e3576125e3612424565b8060051b91506125f4848301612464565b818152918301840191848101908b84111561260e57600080fd5b938501935b8385101561262c57843582529385019390850190612613565b97505050506040870135935061264791505060608601612305565b905092959194509250565b600181811c9082168061266657607f821691505b60208210810361268657634e487b7160e01b600052602260045260246000fd5b50919050565b8051612310816122f0565b80516003811061231057600080fd5b80516005811061231057600080fd5b80516002811061231057600080fd5b60006101e082840312156126d757600080fd5b6126df61243a565b6126e88361268c565b81526126f66020840161268c565b602082015260408301516040820152606083015160608201526080830151608082015260a083015160a082015260c083015160c082015260e083015160e0820152610100808401518183015250610120808401518183015250610140808401518183015250610160612769818501612697565b9082015261018061277b8482016126a6565b908201526101a061278d8482016126b5565b908201526101c061279f8482016126b5565b908201529392505050565b634e487b7160e01b600052602160045260246000fd5b60208101600583106127e257634e487b7160e01b600052602160045260246000fd5b91905290565b600083516127fa818460208801612274565b83519083019061280e818360208801612274565b01949350505050565b634e487b7160e01b600052603260045260246000fd5b634e487b7160e01b600052601160045260246000fd5b600060001982036128565761285661282d565b5060010190565b604080825283519082018190526000906020906060840190828701845b828110156128965781518452928401929084019060010161287a565b50505092019290925292915050565b7f416363657373436f6e74726f6c3a206163636f756e74200000000000000000008152600083516128dd816017850160208801612274565b7f206973206d697373696e6720726f6c6520000000000000000000000000000000601791840191820152835161291a816028840160208801612274565b01602801949350505050565b634e487b7160e01b600052601260045260246000fd5b60008261294b5761294b612926565b500490565b818103818111156104af576104af61282d565b60008261297257612972612926565b500690565b808201808211156104af576104af61282d565b80820281158282048414176104af576104af61282d565b60006001600160a01b038087168352808616602084015250836040830152608060608301526129d36080830184612298565b9695505050505050565b6000602082840312156129ef57600080fd5b815161058781612229565b634e487b7160e01b600052603160045260246000fd5b60008251612a22818460208701612274565b919091019291505056fe4552433732313a207472616e7366657220746f206e6f6e20455243373231526563656976657220696d706c656d656e746572a2646970667358221220347a3ab03fe141d11985ca171deb66bc98c2c8f5ed99fa47ec0d9db3802f363164736f6c63430008110033",
  "linkReferences": {},
  "deployedLinkReferences": {}
}