{
  "_format": "hh-sol-artifact-1",
  "contractName": "L1NaffleBase",
  "sourceName": "contracts/naffle/ethereum/L1NaffleBase.sol",
  "abi": [
    {
      "inputs": [],
      "name": "FailedMessageInclusion",
      "type": "error"
    },
    {
      "inputs": [],
      "name": "InvalidAction",
      "type": "error"
    },
    {
      "inputs": [
        {
          "internalType": "uint256",
          "name": "endTime",
          "type": "uint256"
        }
      ],
      "name": "InvalidEndTime",
      "type": "error"
    },
    {
      "inputs": [
        {
          "internalType": "uint256",
          "name": "spots",
          "type": "uint256"
        }
      ],
      "name": "InvalidPaidTicketSpots",
      "type": "error"
    },
    {
      "inputs": [],
      "name": "InvalidTokenType",
      "type": "error"
    },
    {
      "inputs": [],
      "name": "MessageAlreadyProcessed",
      "type": "error"
    },
    {
      "inputs": [],
      "name": "NotAllowed",
      "type": "error"
    },
    {
      "inputs": [],
      "name": "NotSupported",
      "type": "error"
    },
    {
      "inputs": [],
      "name": "UintUtils__InsufficientHexLength",
      "type": "error"
    },
    {
      "anonymous": false,
      "inputs": [
        {
          "indexed": false,
          "internalType": "uint256",
          "name": "naffleId",
          "type": "uint256"
        }
      ],
      "name": "L1NaffleCancelled",
      "type": "event"
    },
    {
      "anonymous": false,
      "inputs": [
        {
          "indexed": false,
          "internalType": "uint256",
          "name": "naffleId",
          "type": "uint256"
        },
        {
          "indexed": true,
          "internalType": "address",
          "name": "owner",
          "type": "address"
        },
        {
          "indexed": true,
          "internalType": "address",
          "name": "ethTokenAddress",
          "type": "address"
        },
        {
          "indexed": false,
          "internalType": "uint256",
          "name": "nftId",
          "type": "uint256"
        },
        {
          "indexed": false,
          "internalType": "uint256",
          "name": "paidTicketSpots",
          "type": "uint256"
        },
        {
          "indexed": false,
          "internalType": "uint256",
          "name": "ticketPriceInWei",
          "type": "uint256"
        },
        {
          "indexed": false,
          "internalType": "uint256",
          "name": "endTime",
          "type": "uint256"
        },
        {
          "indexed": false,
          "internalType": "enum NaffleTypes.NaffleType",
          "name": "naffleType",
          "type": "uint8"
        },
        {
          "indexed": false,
          "internalType": "enum NaffleTypes.TokenContractType",
          "name": "tokenContractType",
          "type": "uint8"
        }
      ],
      "name": "L1NaffleCreated",
      "type": "event"
    },
    {
      "anonymous": false,
      "inputs": [
        {
          "indexed": true,
          "internalType": "uint256",
          "name": "naffleId",
          "type": "uint256"
        },
        {
          "indexed": true,
          "internalType": "address",
          "name": "winner",
          "type": "address"
        }
      ],
      "name": "L1NaffleWinnerSet",
      "type": "event"
    },
    {
      "anonymous": false,
      "inputs": [
        {
          "indexed": true,
          "internalType": "bytes32",
          "name": "role",
          "type": "bytes32"
        },
        {
          "indexed": true,
          "internalType": "bytes32",
          "name": "previousAdminRole",
          "type": "bytes32"
        },
        {
          "indexed": true,
          "internalType": "bytes32",
          "name": "newAdminRole",
          "type": "bytes32"
        }
      ],
      "name": "RoleAdminChanged",
      "type": "event"
    },
    {
      "anonymous": false,
      "inputs": [
        {
          "indexed": true,
          "internalType": "bytes32",
          "name": "role",
          "type": "bytes32"
        },
        {
          "indexed": true,
          "internalType": "address",
          "name": "account",
          "type": "address"
        },
        {
          "indexed": true,
          "internalType": "address",
          "name": "sender",
          "type": "address"
        }
      ],
      "name": "RoleGranted",
      "type": "event"
    },
    {
      "anonymous": false,
      "inputs": [
        {
          "indexed": true,
          "internalType": "bytes32",
          "name": "role",
          "type": "bytes32"
        },
        {
          "indexed": true,
          "internalType": "address",
          "name": "account",
          "type": "address"
        },
        {
          "indexed": true,
          "internalType": "address",
          "name": "sender",
          "type": "address"
        }
      ],
      "name": "RoleRevoked",
      "type": "event"
    },
    {
      "inputs": [
        {
          "internalType": "uint256",
          "name": "_l2BlockNumber",
          "type": "uint256"
        },
        {
          "internalType": "uint256",
          "name": "_index",
          "type": "uint256"
        },
        {
          "internalType": "uint16",
          "name": "_l2TxNumberInBlock",
          "type": "uint16"
        },
        {
          "internalType": "bytes",
          "name": "_message",
          "type": "bytes"
        },
        {
          "internalType": "bytes32[]",
          "name": "_proof",
          "type": "bytes32[]"
        }
      ],
      "name": "consumeSetWinnerMessage",
      "outputs": [],
      "stateMutability": "nonpayable",
      "type": "function"
    },
    {
      "inputs": [
        {
          "internalType": "address",
          "name": "_ethTokenAddress",
          "type": "address"
        },
        {
          "internalType": "uint256",
          "name": "_nftId",
          "type": "uint256"
        },
        {
          "internalType": "uint256",
          "name": "_paidTicketSpots",
          "type": "uint256"
        },
        {
          "internalType": "uint256",
          "name": "_ticketPriceInWei",
          "type": "uint256"
        },
        {
          "internalType": "uint256",
          "name": "_endTime",
          "type": "uint256"
        },
        {
          "internalType": "enum NaffleTypes.NaffleType",
          "name": "_naffleType",
          "type": "uint8"
        }
      ],
      "name": "createNaffle",
      "outputs": [
        {
          "internalType": "uint256",
          "name": "naffleId",
          "type": "uint256"
        },
        {
          "internalType": "bytes32",
          "name": "txHash",
          "type": "bytes32"
        }
      ],
      "stateMutability": "nonpayable",
      "type": "function"
    },
    {
      "inputs": [
        {
          "internalType": "bytes32",
          "name": "role",
          "type": "bytes32"
        }
      ],
      "name": "getRoleAdmin",
      "outputs": [
        {
          "internalType": "bytes32",
          "name": "",
          "type": "bytes32"
        }
      ],
      "stateMutability": "view",
      "type": "function"
    },
    {
      "inputs": [
        {
          "internalType": "bytes32",
          "name": "role",
          "type": "bytes32"
        },
        {
          "internalType": "address",
          "name": "account",
          "type": "address"
        }
      ],
      "name": "grantRole",
      "outputs": [],
      "stateMutability": "nonpayable",
      "type": "function"
    },
    {
      "inputs": [
        {
          "internalType": "bytes32",
          "name": "role",
          "type": "bytes32"
        },
        {
          "internalType": "address",
          "name": "account",
          "type": "address"
        }
      ],
      "name": "hasRole",
      "outputs": [
        {
          "internalType": "bool",
          "name": "",
          "type": "bool"
        }
      ],
      "stateMutability": "view",
      "type": "function"
    },
    {
      "inputs": [
        {
          "internalType": "address",
          "name": "",
          "type": "address"
        },
        {
          "internalType": "address",
          "name": "",
          "type": "address"
        },
        {
          "internalType": "uint256[]",
          "name": "",
          "type": "uint256[]"
        },
        {
          "internalType": "uint256[]",
          "name": "",
          "type": "uint256[]"
        },
        {
          "internalType": "bytes",
          "name": "",
          "type": "bytes"
        }
      ],
      "name": "onERC1155BatchReceived",
      "outputs": [
        {
          "internalType": "bytes4",
          "name": "",
          "type": "bytes4"
        }
      ],
      "stateMutability": "pure",
      "type": "function"
    },
    {
      "inputs": [
        {
          "internalType": "address",
          "name": "",
          "type": "address"
        },
        {
          "internalType": "address",
          "name": "",
          "type": "address"
        },
        {
          "internalType": "uint256",
          "name": "",
          "type": "uint256"
        },
        {
          "internalType": "uint256",
          "name": "",
          "type": "uint256"
        },
        {
          "internalType": "bytes",
          "name": "",
          "type": "bytes"
        }
      ],
      "name": "onERC1155Received",
      "outputs": [
        {
          "internalType": "bytes4",
          "name": "",
          "type": "bytes4"
        }
      ],
      "stateMutability": "pure",
      "type": "function"
    },
    {
      "inputs": [
        {
          "internalType": "address",
          "name": "",
          "type": "address"
        },
        {
          "internalType": "address",
          "name": "",
          "type": "address"
        },
        {
          "internalType": "uint256",
          "name": "",
          "type": "uint256"
        },
        {
          "internalType": "bytes",
          "name": "",
          "type": "bytes"
        }
      ],
      "name": "onERC721Received",
      "outputs": [
        {
          "internalType": "bytes4",
          "name": "",
          "type": "bytes4"
        }
      ],
      "stateMutability": "pure",
      "type": "function"
    },
    {
      "inputs": [
        {
          "internalType": "bytes32",
          "name": "role",
          "type": "bytes32"
        }
      ],
      "name": "renounceRole",
      "outputs": [],
      "stateMutability": "nonpayable",
      "type": "function"
    },
    {
      "inputs": [
        {
          "internalType": "bytes32",
          "name": "role",
          "type": "bytes32"
        },
        {
          "internalType": "address",
          "name": "account",
          "type": "address"
        }
      ],
      "name": "revokeRole",
      "outputs": [],
      "stateMutability": "nonpayable",
      "type": "function"
    },
    {
      "inputs": [
        {
          "internalType": "bytes4",
          "name": "interfaceId",
          "type": "bytes4"
        }
      ],
      "name": "supportsInterface",
      "outputs": [
        {
          "internalType": "bool",
          "name": "",
          "type": "bool"
        }
      ],
      "stateMutability": "pure",
      "type": "function"
    }
  ],
  "bytecode": "0x608060405234801561001057600080fd5b50612018806100206000396000f3fe608060405234801561001057600080fd5b50600436106100c95760003560e01c80638091e04811610081578063bc197c811161005b578063bc197c81146101f6578063d547741f14610209578063f23a6e611461021c57600080fd5b80638091e048146101bd5780638bb9c5bf146101d057806391d14854146101e357600080fd5b8063248a9ca3116100b2578063248a9ca31461015f5780632f2ff15d14610180578063756f42d21461019557600080fd5b806301ffc9a7146100ce578063150b7a02146100f6575b600080fd5b6100e16100dc3660046116d2565b610255565b60405190151581526020015b60405180910390f35b61012e610104366004611772565b7f150b7a023d4804d13e8c85fb27262cb750cf6ba9f9dd3bb30d90f482ceeb4b1f95945050505050565b6040517fffffffff0000000000000000000000000000000000000000000000000000000090911681526020016100ed565b61017261016d3660046117e5565b6102ee565b6040519081526020016100ed565b61019361018e3660046117fe565b610324565b005b6101a86101a336600461182e565b61036d565b604080519283526020830191909152016100ed565b6101936101cb3660046118d5565b61038d565b6101936101de3660046117e5565b6104b9565b6100e16101f13660046117fe565b6104c5565b61012e610204366004611972565b6104d8565b6101936102173660046117fe565b61050c565b61012e61022a366004611a31565b7ff23a6e612e1ff4830e658fe43f4e3cb4a5f8170bd5d9e69fb5d7a7fa9e4fdf979695505050505050565b60007fffffffff0000000000000000000000000000000000000000000000000000000082167f150b7a020000000000000000000000000000000000000000000000000000000014806102e857507fffffffff0000000000000000000000000000000000000000000000000000000082167f4e2312e000000000000000000000000000000000000000000000000000000000145b92915050565b60008181527fd3889cc5458b268d0544e5534672df1296288ca3f93cbd39bd6f497a5c62281160205260408120600201546102e8565b60008281527fd3889cc5458b268d0544e5534672df1296288ca3f93cbd39bd6f497a5c622811602052604090206002015461035e81610550565b610368838361055a565b505050565b60008061037e8888888888886105ce565b91509150965096945050505050565b6103d387878787878080601f016020809104026020016040519081016040528093929190818152602001838380828437600092019190915250899250889150610e1a9050565b600080806103e386880188611ad3565b92509250925060405160200161042a9060208082526009908201527f73657457696e6e65720000000000000000000000000000000000000000000000604082015260600190565b60405160208183030381529060405280519060200120836040516020016104519190611bee565b604051602081830303815290604052805190602001200361047b576104768282610fef565b6104ad565b6040517f4a7f394f00000000000000000000000000000000000000000000000000000000815260040160405180910390fd5b50505050505050505050565b6104c28161123e565b50565b60006104d18383611248565b9392505050565b60006040517fa038794000000000000000000000000000000000000000000000000000000000815260040160405180910390fd5b60008281527fd3889cc5458b268d0544e5534672df1296288ca3f93cbd39bd6f497a5c622811602052604090206002015461054681610550565b610368838361127f565b6104c281336112f3565b60008281527fd3889cc5458b268d0544e5534672df1296288ca3f93cbd39bd6f497a5c622811602052604090206105919082611373565b5060405133906001600160a01b0383169084907f2f8788117e7eff1d82e926ec794901d17c78024a50270940304540a733656f0d90600090a45050565b600080807f470a3a09bc7c093da4939d34501d4f187895d1929b6aa0b7092dcd8f223c67ba60028101546040517f70a082310000000000000000000000000000000000000000000000000000000081523360048201529192506001600160a01b0316906370a0823190602401602060405180830381865afa158015610657573d6000803e3d6000fd5b505050506040513d601f19601f8201168201806040525081019061067b9190611c01565b15801561070c575060038101546040517f70a082310000000000000000000000000000000000000000000000000000000081523360048201526001600160a01b03909116906370a0823190602401602060405180830381865afa1580156106e6573d6000803e3d6000fd5b505050506040513d601f19601f8201168201806040525081019061070a9190611c01565b155b15610743576040517f3d693ada00000000000000000000000000000000000000000000000000000000815260040160405180910390fd5b60058101546107529042611c30565b851015610793576040517f82e42d11000000000000000000000000000000000000000000000000000000008152600481018690526024015b60405180910390fd5b80600401600081546107a490611c43565b909155506004810154925060018460018111156107c3576107c3611c5d565b1480156107cf57508615155b806107f9575060008460018111156107e9576107e9611c5d565b1480156107f95750806006015487105b15610833576040517fda865cbe0000000000000000000000000000000000000000000000000000000081526004810188905260240161078a565b6040517f01ffc9a70000000000000000000000000000000000000000000000000000000081527f80ac58cd0000000000000000000000000000000000000000000000000000000060048201526000906001600160a01b038b16906301ffc9a790602401602060405180830381865afa1580156108b3573d6000803e3d6000fd5b505050506040513d601f19601f820116820180604052508101906108d79190611c73565b1561096557506040517f23b872dd000000000000000000000000000000000000000000000000000000008152336004820152306024820152604481018990526000906001600160a01b038b16906323b872dd906064015b600060405180830381600087803b15801561094857600080fd5b505af115801561095c573d6000803e3d6000fd5b50505050610a99565b6040517f01ffc9a70000000000000000000000000000000000000000000000000000000081527fd9b67a260000000000000000000000000000000000000000000000000000000060048201526001600160a01b038b16906301ffc9a790602401602060405180830381865afa1580156109e2573d6000803e3d6000fd5b505050506040513d601f19601f82011682018060405250810190610a069190611c73565b15610a675750604080516020810182526000815290517ff242432a0000000000000000000000000000000000000000000000000000000081526001916001600160a01b038c169163f242432a9161092e91339130918f918891600401611c95565b6040517fa1e9dd9d00000000000000000000000000000000000000000000000000000000815260040160405180910390fd5b6040805160e0810182526001600160a01b038c168152602081018b905290810185905233606082015260006080820181905260a082015260c08101826001811115610ae657610ae6611c5d565b90526000858152600884016020908152604091829020835181546001600160a01b039182167fffffffffffffffffffffffff00000000000000000000000000000000000000009182161783559285015160018084019190915593850151600283015560608501516003830180549183169190941617909255608084015160048201805460a0870151151574010000000000000000000000000000000000000000027fffffffffffffffffffffff00000000000000000000000000000000000000000090911692909416919091179290921780835560c085015191939192917fffffffffffffffffffff00ffffffffffffffffffffffffffffffffffffffffff909116907501000000000000000000000000000000000000000000908490811115610c1257610c12611c5d565b021790555050825460408051610120810182526001600160a01b038e81168252336020830152918101889052606081018d9052608081018c905260a081018b905260c081018a90529116915060009060e08101886001811115610c7757610c77611c5d565b8152602001846001811115610c8e57610c8e611c5d565b905260018501546040519192506001600160a01b038085169263eb6724199234921690600090610cc2908790602401611d03565b60408051601f19818403018152918152602080830180517bffffffffffffffffffffffffffffffffffffffffffffffffffffffff167fbeec04fb00000000000000000000000000000000000000000000000000000000179052815160008082529181019092526127109161032091610d4a565b6060815260200190600190039081610d355790505b5060006040518963ffffffff1660e01b8152600401610d6f9796959493929190611d87565b60206040518083038185885af1158015610d8d573d6000803e3d6000fd5b50505050506040513d601f19601f82011682018060405250810190610db29190611c01565b94508b6001600160a01b0316336001600160a01b03167ffac33cbe84e030c7a2ce84c12728f5a78c4dc1b248d028b8d5c6806de89fad9d888e8e8e8e8e8b604051610e039796959493929190611e34565b60405180910390a350505050965096945050505050565b60008681527f470a3a09bc7c093da4939d34501d4f187895d1929b6aa0b7092dcd8f223c67c4602090815260408083208884529091529020547f470a3a09bc7c093da4939d34501d4f187895d1929b6aa0b7092dcd8f223c67ba9060ff1615610eaf576040517f7b04260900000000000000000000000000000000000000000000000000000000815260040160405180910390fd5b80546040805160608101825261ffff8816815260018401546001600160a01b03908116602083015281830188905291517fe4948f43000000000000000000000000000000000000000000000000000000008152919092169190600090839063e4948f4390610f29908d908d9087908c908c90600401611e81565b602060405180830381865afa158015610f46573d6000803e3d6000fd5b505050506040513d601f19601f82011682018060405250810190610f6a9190611c73565b905080610fa3576040517fa0df83c200000000000000000000000000000000000000000000000000000000815260040160405180910390fd5b5050506000968752600a0160209081526040808820968852959052505050912080547fffffffffffffffffffffffffffffffffffffffffffffffffffffffffffffff0016600117905550565b60008281527f470a3a09bc7c093da4939d34501d4f187895d1929b6aa0b7092dcd8f223c67c2602052604081206004810180547fffffffffffffffffffffffff0000000000000000000000000000000000000000166001600160a01b03851617908190557f470a3a09bc7c093da4939d34501d4f187895d1929b6aa0b7092dcd8f223c67ba92907501000000000000000000000000000000000000000000900460ff1660018111156110a3576110a3611c5d565b0361113657805460018201546040517f23b872dd0000000000000000000000000000000000000000000000000000000081523060048201526001600160a01b03868116602483015260448201929092529116906323b872dd90606401600060405180830381600087803b15801561111957600080fd5b505af115801561112d573d6000803e3d6000fd5b50505050611202565b600160048201547501000000000000000000000000000000000000000000900460ff16600181111561116a5761116a611c5d565b03611202578054600180830154604080516020810182526000815290517ff242432a0000000000000000000000000000000000000000000000000000000081526001600160a01b039094169363f242432a936111cf9330938a93919291600401611c95565b600060405180830381600087803b1580156111e957600080fd5b505af11580156111fd573d6000803e3d6000fd5b505050505b6040516001600160a01b0384169085907f9ccdd6fbecccb3ba5d8faf4887a259f0e6cb4421747e6f3d3858c2a5c22a15aa90600090a350505050565b6104c2813361127f565b60008281527fd3889cc5458b268d0544e5534672df1296288ca3f93cbd39bd6f497a5c622811602052604081206104d19083611388565b60008281527fd3889cc5458b268d0544e5534672df1296288ca3f93cbd39bd6f497a5c622811602052604090206112b690826113aa565b5060405133906001600160a01b0383169084907ff6391f5c32d9c69d2a47ea670b442974b53935d1edc7fd64eb21e047a839171b90600090a45050565b6112fd8282611248565b61136f57611313816001600160a01b03166113bf565b61131e8360206113d1565b60405160200161132f929190611f1e565b60408051601f19818403018152908290527f08c379a000000000000000000000000000000000000000000000000000000000825261078a91600401611bee565b5050565b60006104d1836001600160a01b0384166115ca565b6001600160a01b038116600090815260018301602052604081205415156104d1565b60006104d1836001600160a01b03841661160d565b60606102e86001600160a01b03831660145b606060006113e0836002611f9f565b6113eb906002611c30565b67ffffffffffffffff81111561140357611403611aad565b6040519080825280601f01601f19166020018201604052801561142d576020820181803683370190505b5090507f30000000000000000000000000000000000000000000000000000000000000008160008151811061146457611464611fb6565b60200101907effffffffffffffffffffffffffffffffffffffffffffffffffffffffffffff1916908160001a9053507f7800000000000000000000000000000000000000000000000000000000000000816001815181106114c7576114c7611fb6565b60200101907effffffffffffffffffffffffffffffffffffffffffffffffffffffffffffff1916908160001a905350600160028402015b6001811115611591577f303132333435363738396162636465660000000000000000000000000000000085600f166010811061153c5761153c611fb6565b1a60f81b82828151811061155257611552611fb6565b60200101907effffffffffffffffffffffffffffffffffffffffffffffffffffffffffffff1916908160001a90535060049490941c93600019016114fe565b5083156104d1576040517fc913478500000000000000000000000000000000000000000000000000000000815260040160405180910390fd5b60008181526001830160205260408120546102e8575081546001808201845560008481526020808220909301849055845493815293810190915260409092205590565b600081815260018301602052604081205480156116cb5783546000908590600019810190811061163f5761163f611fb6565b906000526020600020015490508085600001600184038154811061166557611665611fb6565b600091825260208083209091019290925591825260018601905260409020819055835484908061169757611697611fcc565b6001900381819060005260206000200160009055905583600101600084815260200190815260200160002060009055600191505b5092915050565b6000602082840312156116e457600080fd5b81357fffffffff00000000000000000000000000000000000000000000000000000000811681146104d157600080fd5b6001600160a01b03811681146104c257600080fd5b60008083601f84011261173b57600080fd5b50813567ffffffffffffffff81111561175357600080fd5b60208301915083602082850101111561176b57600080fd5b9250929050565b60008060008060006080868803121561178a57600080fd5b853561179581611714565b945060208601356117a581611714565b935060408601359250606086013567ffffffffffffffff8111156117c857600080fd5b6117d488828901611729565b969995985093965092949392505050565b6000602082840312156117f757600080fd5b5035919050565b6000806040838503121561181157600080fd5b82359150602083013561182381611714565b809150509250929050565b60008060008060008060c0878903121561184757600080fd5b863561185281611714565b95506020870135945060408701359350606087013592506080870135915060a08701356002811061188257600080fd5b809150509295509295509295565b60008083601f8401126118a257600080fd5b50813567ffffffffffffffff8111156118ba57600080fd5b6020830191508360208260051b850101111561176b57600080fd5b600080600080600080600060a0888a0312156118f057600080fd5b8735965060208801359550604088013561ffff8116811461191057600080fd5b9450606088013567ffffffffffffffff8082111561192d57600080fd5b6119398b838c01611729565b909650945060808a013591508082111561195257600080fd5b5061195f8a828b01611890565b989b979a50959850939692959293505050565b60008060008060008060008060a0898b03121561198e57600080fd5b883561199981611714565b975060208901356119a981611714565b9650604089013567ffffffffffffffff808211156119c657600080fd5b6119d28c838d01611890565b909850965060608b01359150808211156119eb57600080fd5b6119f78c838d01611890565b909650945060808b0135915080821115611a1057600080fd5b50611a1d8b828c01611729565b999c989b5096995094979396929594505050565b60008060008060008060a08789031215611a4a57600080fd5b8635611a5581611714565b95506020870135611a6581611714565b94506040870135935060608701359250608087013567ffffffffffffffff811115611a8f57600080fd5b611a9b89828a01611729565b979a9699509497509295939492505050565b634e487b7160e01b600052604160045260246000fd5b8035611ace81611714565b919050565b600080600060608486031215611ae857600080fd5b833567ffffffffffffffff80821115611b0057600080fd5b818601915086601f830112611b1457600080fd5b813581811115611b2657611b26611aad565b604051601f8201601f19908116603f01168101908382118183101715611b4e57611b4e611aad565b81604052828152896020848701011115611b6757600080fd5b82602086016020830137600060208483010152809750505050505060208401359150611b9560408501611ac3565b90509250925092565b60005b83811015611bb9578181015183820152602001611ba1565b50506000910152565b60008151808452611bda816020860160208601611b9e565b601f01601f19169290920160200192915050565b6020815260006104d16020830184611bc2565b600060208284031215611c1357600080fd5b5051919050565b634e487b7160e01b600052601160045260246000fd5b808201808211156102e8576102e8611c1a565b60006000198203611c5657611c56611c1a565b5060010190565b634e487b7160e01b600052602160045260246000fd5b600060208284031215611c8557600080fd5b815180151581146104d157600080fd5b60006001600160a01b03808816835280871660208401525084604083015283606083015260a06080830152611ccd60a0830184611bc2565b979650505050505050565b600281106104c257634e487b7160e01b600052602160045260246000fd5b611cff81611cd8565b9052565b6000610120820190506001600160a01b038084511683528060208501511660208401525060408301516040830152606083015160608301526080830151608083015260a083015160a083015260c083015160c083015260e0830151611d6b60e0840182611cf6565b5061010080840151611d7f82850182611cf6565b505092915050565b6001600160a01b038816815260006020888184015260e06040840152611db060e0840189611bc2565b87606085015286608085015283810360a08501528086518083528383019150838160051b84010184890160005b83811015611e0b57601f19868403018552611df9838351611bc2565b94870194925090860190600101611ddd565b50506001600160a01b03881660c08801529450611e289350505050565b98975050505050505050565b600060e082019050888252876020830152866040830152856060830152846080830152611e6084611cd8565b8360a0830152611e6f83611cd8565b8260c083015298975050505050505050565b8581528460208201526080604082015261ffff84511660808201526001600160a01b0360208501511660a082015260006040850151606060c0840152611eca60e0840182611bc2565b905082810360608401528381527f07ffffffffffffffffffffffffffffffffffffffffffffffffffffffffffffff841115611f0457600080fd5b8360051b8086602084013701602001979650505050505050565b7f416363657373436f6e74726f6c3a206163636f756e7420000000000000000000815260008351611f56816017850160208801611b9e565b7f206973206d697373696e6720726f6c65200000000000000000000000000000006017918401918201528351611f93816028840160208801611b9e565b01602801949350505050565b80820281158282048414176102e8576102e8611c1a565b634e487b7160e01b600052603260045260246000fd5b634e487b7160e01b600052603160045260246000fdfea2646970667358221220558069d4bc691b18fb2df2c9770b0e5f1a0156b5557ee63f6e7cdfc577f7e50064736f6c63430008110033",
  "linkReferences": {},
  "deployedLinkReferences": {}
}