{
    "contractName": "ERC721A",
    "abi": [
        {
            "inputs": [
                {
                    "internalType": "string",
                    "name": "name_",
                    "type": "string"
                },
                {
                    "internalType": "string",
                    "name": "symbol_",
                    "type": "string"
                }
            ],
            "stateMutability": "nonpayable",
            "type": "constructor"
        },
        {
            "inputs": [],
            "name": "ApprovalCallerNotOwnerNorApproved",
            "type": "error"
        },
        {
            "inputs": [],
            "name": "ApprovalQueryForNonexistentToken",
            "type": "error"
        },
        {
            "inputs": [],
            "name": "BalanceQueryForZeroAddress",
            "type": "error"
        },
        {
            "inputs": [],
            "name": "MintERC2309QuantityExceedsLimit",
            "type": "error"
        },
        {
            "inputs": [],
            "name": "MintToZeroAddress",
            "type": "error"
        },
        {
            "inputs": [],
            "name": "MintZeroQuantity",
            "type": "error"
        },
        {
            "inputs": [],
            "name": "OwnerQueryForNonexistentToken",
            "type": "error"
        },
        {
            "inputs": [],
            "name": "OwnershipNotInitializedForExtraData",
            "type": "error"
        },
        {
            "inputs": [],
            "name": "TransferCallerNotOwnerNorApproved",
            "type": "error"
        },
        {
            "inputs": [],
            "name": "TransferFromIncorrectOwner",
            "type": "error"
        },
        {
            "inputs": [],
            "name": "TransferToNonERC721ReceiverImplementer",
            "type": "error"
        },
        {
            "inputs": [],
            "name": "TransferToZeroAddress",
            "type": "error"
        },
        {
            "inputs": [],
            "name": "URIQueryForNonexistentToken",
            "type": "error"
        },
        {
            "anonymous": false,
            "inputs": [
                {
                    "indexed": true,
                    "internalType": "address",
                    "name": "owner",
                    "type": "address"
                },
                {
                    "indexed": true,
                    "internalType": "address",
                    "name": "approved",
                    "type": "address"
                },
                {
                    "indexed": true,
                    "internalType": "uint256",
                    "name": "tokenId",
                    "type": "uint256"
                }
            ],
            "name": "Approval",
            "type": "event"
        },
        {
            "anonymous": false,
            "inputs": [
                {
                    "indexed": true,
                    "internalType": "address",
                    "name": "owner",
                    "type": "address"
                },
                {
                    "indexed": true,
                    "internalType": "address",
                    "name": "operator",
                    "type": "address"
                },
                {
                    "indexed": false,
                    "internalType": "bool",
                    "name": "approved",
                    "type": "bool"
                }
            ],
            "name": "ApprovalForAll",
            "type": "event"
        },
        {
            "anonymous": false,
            "inputs": [
                {
                    "indexed": true,
                    "internalType": "uint256",
                    "name": "fromTokenId",
                    "type": "uint256"
                },
                {
                    "indexed": false,
                    "internalType": "uint256",
                    "name": "toTokenId",
                    "type": "uint256"
                },
                {
                    "indexed": true,
                    "internalType": "address",
                    "name": "from",
                    "type": "address"
                },
                {
                    "indexed": true,
                    "internalType": "address",
                    "name": "to",
                    "type": "address"
                }
            ],
            "name": "ConsecutiveTransfer",
            "type": "event"
        },
        {
            "anonymous": false,
            "inputs": [
                {
                    "indexed": true,
                    "internalType": "address",
                    "name": "from",
                    "type": "address"
                },
                {
                    "indexed": true,
                    "internalType": "address",
                    "name": "to",
                    "type": "address"
                },
                {
                    "indexed": true,
                    "internalType": "uint256",
                    "name": "tokenId",
                    "type": "uint256"
                }
            ],
            "name": "Transfer",
            "type": "event"
        },
        {
            "inputs": [
                {
                    "internalType": "address",
                    "name": "to",
                    "type": "address"
                },
                {
                    "internalType": "uint256",
                    "name": "tokenId",
                    "type": "uint256"
                }
            ],
            "name": "approve",
            "outputs": [],
            "stateMutability": "payable",
            "type": "function"
        },
        {
            "inputs": [
                {
                    "internalType": "address",
                    "name": "owner",
                    "type": "address"
                }
            ],
            "name": "balanceOf",
            "outputs": [
                {
                    "internalType": "uint256",
                    "name": "",
                    "type": "uint256"
                }
            ],
            "stateMutability": "view",
            "type": "function"
        },
        {
            "inputs": [
                {
                    "internalType": "uint256",
                    "name": "tokenId",
                    "type": "uint256"
                }
            ],
            "name": "getApproved",
            "outputs": [
                {
                    "internalType": "address",
                    "name": "",
                    "type": "address"
                }
            ],
            "stateMutability": "view",
            "type": "function"
        },
        {
            "inputs": [
                {
                    "internalType": "address",
                    "name": "owner",
                    "type": "address"
                },
                {
                    "internalType": "address",
                    "name": "operator",
                    "type": "address"
                }
            ],
            "name": "isApprovedForAll",
            "outputs": [
                {
                    "internalType": "bool",
                    "name": "",
                    "type": "bool"
                }
            ],
            "stateMutability": "view",
            "type": "function"
        },
        {
            "inputs": [],
            "name": "name",
            "outputs": [
                {
                    "internalType": "string",
                    "name": "",
                    "type": "string"
                }
            ],
            "stateMutability": "view",
            "type": "function"
        },
        {
            "inputs": [
                {
                    "internalType": "uint256",
                    "name": "tokenId",
                    "type": "uint256"
                }
            ],
            "name": "ownerOf",
            "outputs": [
                {
                    "internalType": "address",
                    "name": "",
                    "type": "address"
                }
            ],
            "stateMutability": "view",
            "type": "function"
        },
        {
            "inputs": [
                {
                    "internalType": "address",
                    "name": "from",
                    "type": "address"
                },
                {
                    "internalType": "address",
                    "name": "to",
                    "type": "address"
                },
                {
                    "internalType": "uint256",
                    "name": "tokenId",
                    "type": "uint256"
                }
            ],
            "name": "safeTransferFrom",
            "outputs": [],
            "stateMutability": "payable",
            "type": "function"
        },
        {
            "inputs": [
                {
                    "internalType": "address",
                    "name": "from",
                    "type": "address"
                },
                {
                    "internalType": "address",
                    "name": "to",
                    "type": "address"
                },
                {
                    "internalType": "uint256",
                    "name": "tokenId",
                    "type": "uint256"
                },
                {
                    "internalType": "bytes",
                    "name": "_data",
                    "type": "bytes"
                }
            ],
            "name": "safeTransferFrom",
            "outputs": [],
            "stateMutability": "payable",
            "type": "function"
        },
        {
            "inputs": [
                {
                    "internalType": "address",
                    "name": "operator",
                    "type": "address"
                },
                {
                    "internalType": "bool",
                    "name": "approved",
                    "type": "bool"
                }
            ],
            "name": "setApprovalForAll",
            "outputs": [],
            "stateMutability": "nonpayable",
            "type": "function"
        },
        {
            "inputs": [
                {
                    "internalType": "bytes4",
                    "name": "interfaceId",
                    "type": "bytes4"
                }
            ],
            "name": "supportsInterface",
            "outputs": [
                {
                    "internalType": "bool",
                    "name": "",
                    "type": "bool"
                }
            ],
            "stateMutability": "view",
            "type": "function"
        },
        {
            "inputs": [],
            "name": "symbol",
            "outputs": [
                {
                    "internalType": "string",
                    "name": "",
                    "type": "string"
                }
            ],
            "stateMutability": "view",
            "type": "function"
        },
        {
            "inputs": [
                {
                    "internalType": "uint256",
                    "name": "tokenId",
                    "type": "uint256"
                }
            ],
            "name": "tokenURI",
            "outputs": [
                {
                    "internalType": "string",
                    "name": "",
                    "type": "string"
                }
            ],
            "stateMutability": "view",
            "type": "function"
        },
        {
            "inputs": [],
            "name": "totalSupply",
            "outputs": [
                {
                    "internalType": "uint256",
                    "name": "",
                    "type": "uint256"
                }
            ],
            "stateMutability": "view",
            "type": "function"
        },
        {
            "inputs": [
                {
                    "internalType": "address",
                    "name": "from",
                    "type": "address"
                },
                {
                    "internalType": "address",
                    "name": "to",
                    "type": "address"
                },
                {
                    "internalType": "uint256",
                    "name": "tokenId",
                    "type": "uint256"
                }
            ],
            "name": "transferFrom",
            "outputs": [],
            "stateMutability": "payable",
            "type": "function"
        }
    ],
    "bytecode": "608060405234801562000010575f80fd5b5060405162000f9938038062000f9983398101604081905262000033916200011a565b60026200004183826200020c565b5060036200005082826200020c565b50505f805550620002d4565b634e487b7160e01b5f52604160045260245ffd5b5f82601f83011262000080575f80fd5b81516001600160401b03808211156200009d576200009d6200005c565b604051601f8301601f19908116603f01168101908282118183101715620000c857620000c86200005c565b81604052838152602092508683858801011115620000e4575f80fd5b5f91505b83821015620001075785820183015181830184015290820190620000e8565b5f93810190920192909252949350505050565b5f80604083850312156200012c575f80fd5b82516001600160401b038082111562000143575f80fd5b620001518683870162000070565b9350602085015191508082111562000167575f80fd5b50620001768582860162000070565b9150509250929050565b600181811c908216806200019557607f821691505b602082108103620001b457634e487b7160e01b5f52602260045260245ffd5b50919050565b601f82111562000207575f81815260208120601f850160051c81016020861015620001e25750805b601f850160051c820191505b818110156200020357828155600101620001ee565b5050505b505050565b81516001600160401b038111156200022857620002286200005c565b620002408162000239845462000180565b84620001ba565b602080601f83116001811462000276575f84156200025e5750858301515b5f19600386901b1c1916600185901b17855562000203565b5f85815260208120601f198616915b82811015620002a65788860151825594840194600190910190840162000285565b5085821015620002c457878501515f19600388901b60f8161c191681555b5050505050600190811b01905550565b610cb780620002e25f395ff3fe6080604052600436106100d9575f3560e01c80636352211e1161007c578063a22cb46511610057578063a22cb46514610217578063b88d4fde14610236578063c87b56dd14610249578063e985e9c514610268575f80fd5b80636352211e146101c557806370a08231146101e457806395d89b4114610203575f80fd5b8063095ea7b3116100b7578063095ea7b31461016957806318160ddd1461017e57806323b872dd1461019f57806342842e0e146101b2575f80fd5b806301ffc9a7146100dd57806306fdde0314610111578063081812fc14610132575b5f80fd5b3480156100e8575f80fd5b506100fc6100f7366004610950565b6102af565b60405190151581526020015b60405180910390f35b34801561011c575f80fd5b50610125610300565b60405161010891906109b8565b34801561013d575f80fd5b5061015161014c3660046109ca565b610390565b6040516001600160a01b039091168152602001610108565b61017c6101773660046109f7565b6103c9565b005b348015610189575f80fd5b506001545f54035b604051908152602001610108565b61017c6101ad366004610a1f565b6103d9565b61017c6101c0366004610a1f565b610533565b3480156101d0575f80fd5b506101516101df3660046109ca565b610552565b3480156101ef575f80fd5b506101916101fe366004610a58565b61055c565b34801561020e575f80fd5b506101256105a0565b348015610222575f80fd5b5061017c610231366004610a71565b6105af565b61017c610244366004610abe565b61061a565b348015610254575f80fd5b506101256102633660046109ca565b61065b565b348015610273575f80fd5b506100fc610282366004610b93565b6001600160a01b039182165f90815260076020908152604080832093909416825291909152205460ff1690565b5f6301ffc9a760e01b6001600160e01b0319831614806102df57506380ac58cd60e01b6001600160e01b03198316145b806102fa5750635b5e139f60e01b6001600160e01b03198316145b92915050565b60606002805461030f90610bc4565b80601f016020809104026020016040519081016040528092919081815260200182805461033b90610bc4565b80156103865780601f1061035d57610100808354040283529160200191610386565b820191905f5260205f20905b81548152906001019060200180831161036957829003601f168201915b5050505050905090565b5f61039a826106df565b6103ae576103ae6333d1c03960e21b610704565b505f908152600660205260409020546001600160a01b031690565b6103d58282600161070c565b5050565b5f6103e3826107ad565b6001600160a01b0394851694909150811684146104095761040962a1148160e81b610704565b5f8281526006602052604090208054338082146001600160a01b0388169091141761044c576104388633610282565b61044c5761044c632ce44b5f60e11b610704565b8015610456575f82555b6001600160a01b038681165f9081526005602052604080822080545f19019055918716808252919020805460010190554260a01b17600160e11b175f85815260046020526040812091909155600160e11b841690036104e257600184015f8181526004602052604081205490036104e0575f5481146104e0575f8181526004602052604090208490555b505b6001600160a01b0385168481887fddf252ad1be2c89b69c2b068fc378daa952ba7f163c4a11628f55a4df523b3ef5f80a4805f0361052a5761052a633a954ecd60e21b610704565b50505050505050565b61054d83838360405180602001604052805f81525061061a565b505050565b5f6102fa826107ad565b5f6001600160a01b03821661057b5761057b6323d3ad8160e21b610704565b506001600160a01b03165f9081526005602052604090205467ffffffffffffffff1690565b60606003805461030f90610bc4565b335f8181526007602090815260408083206001600160a01b03871680855290835292819020805460ff191686151590811790915590519081529192917f17307eab39ab6107e8899845ad3d59bd9653f200f220920489ca2b5937696c31910160405180910390a35050565b6106258484846103d9565b6001600160a01b0383163b156106555761064184848484610817565b610655576106556368d2bf6b60e11b610704565b50505050565b6060610666826106df565b61067a5761067a630a14c4b560e41b610704565b5f61068f60408051602081019091525f815290565b905080515f036106ad5760405180602001604052805f8152506106d8565b806106b7846108f5565b6040516020016106c8929190610bfc565b6040516020818303038152906040525b9392505050565b5f8054821080156102fa5750505f90815260046020526040902054600160e01b161590565b805f5260045ffd5b5f61071683610552565b905081801561072e5750336001600160a01b03821614155b156107515761073d8133610282565b610751576107516367d9dca160e11b610704565b5f8381526006602052604080822080546001600160a01b0319166001600160a01b0388811691821790925591518693918516917f8c5be1e5ebec7d5bd14f71427d1e84f3dd0314c0f7b2291e5b200ac8c7c3b92591a450505050565b5f8181526004602052604081205490600160e01b8216900361080757805f03610802575f5482106107e8576107e8636f96cda160e11b610704565b5b505f19015f8181526004602052604090205480156107e9575b919050565b610802636f96cda160e11b610704565b604051630a85bd0160e11b81525f906001600160a01b0385169063150b7a029061084b903390899088908890600401610c2a565b6020604051808303815f875af1925050508015610885575060408051601f3d908101601f1916820190925261088291810190610c66565b60015b6108d8573d8080156108b2576040519150601f19603f3d011682016040523d82523d5f602084013e6108b7565b606091505b5080515f036108d0576108d06368d2bf6b60e11b610704565b805181602001fd5b6001600160e01b031916630a85bd0160e11b149050949350505050565b606060a06040510180604052602081039150505f815280825b600183039250600a81066030018353600a90048061090e5750819003601f19909101908152919050565b6001600160e01b03198116811461094d575f80fd5b50565b5f60208284031215610960575f80fd5b81356106d881610938565b5f5b8381101561098557818101518382015260200161096d565b50505f910152565b5f81518084526109a481602086016020860161096b565b601f01601f19169290920160200192915050565b602081525f6106d8602083018461098d565b5f602082840312156109da575f80fd5b5035919050565b80356001600160a01b0381168114610802575f80fd5b5f8060408385031215610a08575f80fd5b610a11836109e1565b946020939093013593505050565b5f805f60608486031215610a31575f80fd5b610a3a846109e1565b9250610a48602085016109e1565b9150604084013590509250925092565b5f60208284031215610a68575f80fd5b6106d8826109e1565b5f8060408385031215610a82575f80fd5b610a8b836109e1565b915060208301358015158114610a9f575f80fd5b809150509250929050565b634e487b7160e01b5f52604160045260245ffd5b5f805f8060808587031215610ad1575f80fd5b610ada856109e1565b9350610ae8602086016109e1565b925060408501359150606085013567ffffffffffffffff80821115610b0b575f80fd5b818701915087601f830112610b1e575f80fd5b813581811115610b3057610b30610aaa565b604051601f8201601f19908116603f01168101908382118183101715610b5857610b58610aaa565b816040528281528a6020848701011115610b70575f80fd5b826020860160208301375f60208483010152809550505050505092959194509250565b5f8060408385031215610ba4575f80fd5b610bad836109e1565b9150610bbb602084016109e1565b90509250929050565b600181811c90821680610bd857607f821691505b602082108103610bf657634e487b7160e01b5f52602260045260245ffd5b50919050565b5f8351610c0d81846020880161096b565b835190830190610c2181836020880161096b565b01949350505050565b6001600160a01b03858116825284166020820152604081018390526080606082018190525f90610c5c9083018461098d565b9695505050505050565b5f60208284031215610c76575f80fd5b81516106d88161093856fea26469706673582212201663a8a3ee9d134c1a6d1bbda34db918395241877c5f8e0b45ac8e7d66fa93d164736f6c63430008150033",
    "sourcePath": "//wsl$/Ubuntu/home/curion/crypto_dev/_audits/naffles/hardhat/contracts/tokens/ERC721A.sol",
    "compiler": {
        "name": "solc",
        "version": "0.8.21+commit.d9974bed"
    },
    "functionHashes": {
        "approve(address,uint256)": "095ea7b3",
        "balanceOf(address)": "70a08231",
        "getApproved(uint256)": "081812fc",
        "isApprovedForAll(address,address)": "e985e9c5",
        "name()": "06fdde03",
        "ownerOf(uint256)": "6352211e",
        "safeTransferFrom(address,address,uint256)": "42842e0e",
        "safeTransferFrom(address,address,uint256,bytes)": "b88d4fde",
        "setApprovalForAll(address,bool)": "a22cb465",
        "supportsInterface(bytes4)": "01ffc9a7",
        "symbol()": "95d89b41",
        "tokenURI(uint256)": "c87b56dd",
        "totalSupply()": "18160ddd",
        "transferFrom(address,address,uint256)": "23b872dd"
    },
    "gasEstimates": {
        "creation": {
            "codeDepositCost": "651000",
            "executionCost": "infinite",
            "totalCost": "infinite"
        },
        "external": {
            "approve(address,uint256)": "infinite",
            "balanceOf(address)": "2636",
            "getApproved(uint256)": "6919",
            "isApprovedForAll(address,address)": "infinite",
            "name()": "infinite",
            "ownerOf(uint256)": "infinite",
            "safeTransferFrom(address,address,uint256)": "infinite",
            "safeTransferFrom(address,address,uint256,bytes)": "infinite",
            "setApprovalForAll(address,bool)": "26604",
            "supportsInterface(bytes4)": "531",
            "symbol()": "infinite",
            "tokenURI(uint256)": "infinite",
            "totalSupply()": "4430",
            "transferFrom(address,address,uint256)": "infinite"
        },
        "internal": {
            "_afterTokenTransfers(address,address,uint256,uint256)": "infinite",
            "_approve(address,uint256)": "infinite",
            "_approve(address,uint256,bool)": "infinite",
            "_baseURI()": "infinite",
            "_beforeTokenTransfers(address,address,uint256,uint256)": "infinite",
            "_burn(uint256)": "infinite",
            "_burn(uint256,bool)": "infinite",
            "_checkContractOnERC721Received(address,address,uint256,bytes memory)": "infinite",
            "_exists(uint256)": "4335",
            "_extraData(address,address,uint24)": "infinite",
            "_getApprovedSlotAndAddress(uint256)": "infinite",
            "_getAux(address)": "infinite",
            "_initializeOwnershipAt(uint256)": "infinite",
            "_isSenderApprovedOrOwner(address,address,address)": "infinite",
            "_mint(address,uint256)": "infinite",
            "_mintERC2309(address,uint256)": "infinite",
            "_msgSenderERC721A()": "infinite",
            "_nextExtraData(address,address,uint256)": "infinite",
            "_nextInitializedFlag(uint256)": "infinite",
            "_nextTokenId()": "infinite",
            "_numberBurned(address)": "infinite",
            "_numberMinted(address)": "infinite",
            "_ownershipAt(uint256)": "infinite",
            "_ownershipOf(uint256)": "infinite",
            "_packOwnershipData(address,uint256)": "infinite",
            "_packedOwnershipOf(uint256)": "infinite",
            "_revert(bytes4)": "17",
            "_safeMint(address,uint256)": "infinite",
            "_safeMint(address,uint256,bytes memory)": "infinite",
            "_setAux(address,uint64)": "infinite",
            "_setExtraDataAt(uint256,uint24)": "infinite",
            "_startTokenId()": "infinite",
            "_toString(uint256)": "infinite",
            "_totalBurned()": "infinite",
            "_totalMinted()": "infinite",
            "_unpackedOwnership(uint256)": "infinite"
        }
    }
}