{
  "_format": "hh-sol-artifact-1",
  "contractName": "L2NaffleBase",
  "sourceName": "contracts/naffle/zksync/L2NaffleBase.sol",
  "abi": [
    {
      "inputs": [],
      "name": "InsufficientFunds",
      "type": "error"
    },
    {
      "inputs": [
        {
          "internalType": "uint256",
          "name": "naffleId",
          "type": "uint256"
        }
      ],
      "name": "InvalidNaffleId",
      "type": "error"
    },
    {
      "inputs": [
        {
          "internalType": "enum NaffleTypes.NaffleStatus",
          "name": "status",
          "type": "uint8"
        }
      ],
      "name": "InvalidNaffleStatus",
      "type": "error"
    },
    {
      "inputs": [
        {
          "internalType": "enum NaffleTypes.NaffleType",
          "name": "naffleType",
          "type": "uint8"
        }
      ],
      "name": "InvalidNaffleType",
      "type": "error"
    },
    {
      "inputs": [
        {
          "internalType": "uint256",
          "name": "endTime",
          "type": "uint256"
        }
      ],
      "name": "NaffleNotEndedYet",
      "type": "error"
    },
    {
      "inputs": [],
      "name": "NaffleSoldOut",
      "type": "error"
    },
    {
      "inputs": [],
      "name": "NoTicketsBought",
      "type": "error"
    },
    {
      "inputs": [],
      "name": "NotAllowed",
      "type": "error"
    },
    {
      "inputs": [
        {
          "internalType": "uint256",
          "name": "amount",
          "type": "uint256"
        }
      ],
      "name": "NotEnoughFunds",
      "type": "error"
    },
    {
      "inputs": [
        {
          "internalType": "uint256",
          "name": "amount",
          "type": "uint256"
        }
      ],
      "name": "NotEnoughOpenEntryTicketSpots",
      "type": "error"
    },
    {
      "inputs": [
        {
          "internalType": "uint256",
          "name": "amount",
          "type": "uint256"
        }
      ],
      "name": "NotEnoughPaidTicketSpots",
      "type": "error"
    },
    {
      "inputs": [],
      "name": "OpenTicketRatioCannotBeZero",
      "type": "error"
    },
    {
      "inputs": [],
      "name": "UintUtils__InsufficientHexLength",
      "type": "error"
    },
    {
      "inputs": [],
      "name": "UnableToSendFunds",
      "type": "error"
    },
    {
      "anonymous": false,
      "inputs": [
        {
          "indexed": true,
          "internalType": "uint256",
          "name": "naffleId",
          "type": "uint256"
        },
        {
          "indexed": false,
          "internalType": "bytes32",
          "name": "messageHash",
          "type": "bytes32"
        }
      ],
      "name": "L2NaffleCancelled",
      "type": "event"
    },
    {
      "anonymous": false,
      "inputs": [
        {
          "indexed": false,
          "internalType": "uint256",
          "name": "naffleId",
          "type": "uint256"
        },
        {
          "indexed": true,
          "internalType": "address",
          "name": "owner",
          "type": "address"
        },
        {
          "indexed": true,
          "internalType": "address",
          "name": "ethTokenAddress",
          "type": "address"
        },
        {
          "indexed": false,
          "internalType": "uint256",
          "name": "nftId",
          "type": "uint256"
        },
        {
          "indexed": false,
          "internalType": "uint256",
          "name": "paidTicketSpots",
          "type": "uint256"
        },
        {
          "indexed": false,
          "internalType": "uint256",
          "name": "freeTicketSpots",
          "type": "uint256"
        },
        {
          "indexed": false,
          "internalType": "uint256",
          "name": "ticketPriceInWei",
          "type": "uint256"
        },
        {
          "indexed": false,
          "internalType": "uint256",
          "name": "endTime",
          "type": "uint256"
        },
        {
          "indexed": true,
          "internalType": "enum NaffleTypes.NaffleType",
          "name": "naffleType",
          "type": "uint8"
        },
        {
          "indexed": false,
          "internalType": "enum NaffleTypes.TokenContractType",
          "name": "tokenContractType",
          "type": "uint8"
        }
      ],
      "name": "L2NaffleCreated",
      "type": "event"
    },
    {
      "anonymous": false,
      "inputs": [
        {
          "indexed": true,
          "internalType": "uint256",
          "name": "naffleId",
          "type": "uint256"
        },
        {
          "indexed": false,
          "internalType": "address",
          "name": "winner",
          "type": "address"
        },
        {
          "indexed": false,
          "internalType": "bytes32",
          "name": "messageHash",
          "type": "bytes32"
        }
      ],
      "name": "L2NaffleFinished",
      "type": "event"
    },
    {
      "anonymous": false,
      "inputs": [
        {
          "indexed": true,
          "internalType": "uint256",
          "name": "naffleId",
          "type": "uint256"
        },
        {
          "indexed": true,
          "internalType": "address",
          "name": "owner",
          "type": "address"
        },
        {
          "indexed": false,
          "internalType": "uint256[]",
          "name": "ticketIds",
          "type": "uint256[]"
        }
      ],
      "name": "OpenEntryTicketsUsed",
      "type": "event"
    },
    {
      "anonymous": false,
      "inputs": [
        {
          "indexed": true,
          "internalType": "bytes32",
          "name": "role",
          "type": "bytes32"
        },
        {
          "indexed": true,
          "internalType": "bytes32",
          "name": "previousAdminRole",
          "type": "bytes32"
        },
        {
          "indexed": true,
          "internalType": "bytes32",
          "name": "newAdminRole",
          "type": "bytes32"
        }
      ],
      "name": "RoleAdminChanged",
      "type": "event"
    },
    {
      "anonymous": false,
      "inputs": [
        {
          "indexed": true,
          "internalType": "bytes32",
          "name": "role",
          "type": "bytes32"
        },
        {
          "indexed": true,
          "internalType": "address",
          "name": "account",
          "type": "address"
        },
        {
          "indexed": true,
          "internalType": "address",
          "name": "sender",
          "type": "address"
        }
      ],
      "name": "RoleGranted",
      "type": "event"
    },
    {
      "anonymous": false,
      "inputs": [
        {
          "indexed": true,
          "internalType": "bytes32",
          "name": "role",
          "type": "bytes32"
        },
        {
          "indexed": true,
          "internalType": "address",
          "name": "account",
          "type": "address"
        },
        {
          "indexed": true,
          "internalType": "address",
          "name": "sender",
          "type": "address"
        }
      ],
      "name": "RoleRevoked",
      "type": "event"
    },
    {
      "anonymous": false,
      "inputs": [
        {
          "indexed": true,
          "internalType": "uint256",
          "name": "naffleId",
          "type": "uint256"
        },
        {
          "indexed": true,
          "internalType": "address",
          "name": "buyer",
          "type": "address"
        },
        {
          "indexed": false,
          "internalType": "uint256[]",
          "name": "ticketIds",
          "type": "uint256[]"
        },
        {
          "indexed": false,
          "internalType": "uint256",
          "name": "ticketPriceInWei",
          "type": "uint256"
        }
      ],
      "name": "TicketsBought",
      "type": "event"
    },
    {
      "inputs": [
        {
          "internalType": "uint256",
          "name": "_amount",
          "type": "uint256"
        },
        {
          "internalType": "uint256",
          "name": "_naffleId",
          "type": "uint256"
        }
      ],
      "name": "buyTickets",
      "outputs": [
        {
          "internalType": "uint256[]",
          "name": "",
          "type": "uint256[]"
        }
      ],
      "stateMutability": "payable",
      "type": "function"
    },
    {
      "inputs": [
        {
          "components": [
            {
              "internalType": "address",
              "name": "ethTokenAddress",
              "type": "address"
            },
            {
              "internalType": "address",
              "name": "owner",
              "type": "address"
            },
            {
              "internalType": "uint256",
              "name": "naffleId",
              "type": "uint256"
            },
            {
              "internalType": "uint256",
              "name": "nftId",
              "type": "uint256"
            },
            {
              "internalType": "uint256",
              "name": "paidTicketSpots",
              "type": "uint256"
            },
            {
              "internalType": "uint256",
              "name": "ticketPriceInWei",
              "type": "uint256"
            },
            {
              "internalType": "uint256",
              "name": "endTime",
              "type": "uint256"
            },
            {
              "internalType": "enum NaffleTypes.NaffleType",
              "name": "naffleType",
              "type": "uint8"
            },
            {
              "internalType": "enum NaffleTypes.TokenContractType",
              "name": "naffleTokenType",
              "type": "uint8"
            }
          ],
          "internalType": "struct NaffleTypes.CreateZkSyncNaffleParams",
          "name": "_params",
          "type": "tuple"
        }
      ],
      "name": "createNaffle",
      "outputs": [],
      "stateMutability": "nonpayable",
      "type": "function"
    },
    {
      "inputs": [
        {
          "internalType": "bytes32",
          "name": "role",
          "type": "bytes32"
        }
      ],
      "name": "getRoleAdmin",
      "outputs": [
        {
          "internalType": "bytes32",
          "name": "",
          "type": "bytes32"
        }
      ],
      "stateMutability": "view",
      "type": "function"
    },
    {
      "inputs": [
        {
          "internalType": "bytes32",
          "name": "role",
          "type": "bytes32"
        },
        {
          "internalType": "address",
          "name": "account",
          "type": "address"
        }
      ],
      "name": "grantRole",
      "outputs": [],
      "stateMutability": "nonpayable",
      "type": "function"
    },
    {
      "inputs": [
        {
          "internalType": "bytes32",
          "name": "role",
          "type": "bytes32"
        },
        {
          "internalType": "address",
          "name": "account",
          "type": "address"
        }
      ],
      "name": "hasRole",
      "outputs": [
        {
          "internalType": "bool",
          "name": "",
          "type": "bool"
        }
      ],
      "stateMutability": "view",
      "type": "function"
    },
    {
      "inputs": [
        {
          "internalType": "uint256",
          "name": "_naffleId",
          "type": "uint256"
        }
      ],
      "name": "ownerCancelNaffle",
      "outputs": [],
      "stateMutability": "nonpayable",
      "type": "function"
    },
    {
      "inputs": [
        {
          "internalType": "uint256",
          "name": "_naffleId",
          "type": "uint256"
        }
      ],
      "name": "ownerDrawWinner",
      "outputs": [
        {
          "internalType": "bytes32",
          "name": "",
          "type": "bytes32"
        }
      ],
      "stateMutability": "nonpayable",
      "type": "function"
    },
    {
      "inputs": [
        {
          "internalType": "bytes32",
          "name": "role",
          "type": "bytes32"
        }
      ],
      "name": "renounceRole",
      "outputs": [],
      "stateMutability": "nonpayable",
      "type": "function"
    },
    {
      "inputs": [
        {
          "internalType": "bytes32",
          "name": "role",
          "type": "bytes32"
        },
        {
          "internalType": "address",
          "name": "account",
          "type": "address"
        }
      ],
      "name": "revokeRole",
      "outputs": [],
      "stateMutability": "nonpayable",
      "type": "function"
    },
    {
      "inputs": [
        {
          "internalType": "uint256[]",
          "name": "_ticketIds",
          "type": "uint256[]"
        },
        {
          "internalType": "uint256",
          "name": "_naffleId",
          "type": "uint256"
        }
      ],
      "name": "useOpenEntryTickets",
      "outputs": [],
      "stateMutability": "nonpayable",
      "type": "function"
    }
  ],
  "bytecode": "0x608060405234801561001057600080fd5b506120c1806100206000396000f3fe6080604052600436106100b15760003560e01c80638bb9c5bf11610069578063ad365dc31161004e578063ad365dc3146101bb578063b433b593146101db578063d547741f146101fb57600080fd5b80638bb9c5bf1461016b57806391d148541461018b57600080fd5b806336681dab1161009a57806336681dab1461010b5780638627df461461012b578063866650931461014b57600080fd5b8063248a9ca3146100b65780632f2ff15d146100e9575b600080fd5b3480156100c257600080fd5b506100d66100d1366004611a86565b61021b565b6040519081526020015b60405180910390f35b3480156100f557600080fd5b50610109610104366004611ac4565b610253565b005b34801561011757600080fd5b50610109610126366004611b89565b61029c565b61013e610139366004611c25565b6102aa565b6040516100e09190611c82565b34801561015757600080fd5b50610109610166366004611ca4565b6102bd565b34801561017757600080fd5b50610109610186366004611a86565b610313565b34801561019757600080fd5b506101ab6101a6366004611ac4565b61031c565b60405190151581526020016100e0565b3480156101c757600080fd5b506101096101d6366004611a86565b610328565b3480156101e757600080fd5b506100d66101f6366004611a86565b610331565b34801561020757600080fd5b50610109610216366004611ac4565b61033c565b60008181527fd3889cc5458b268d0544e5534672df1296288ca3f93cbd39bd6f497a5c62281160205260408120600201545b92915050565b60008281527fd3889cc5458b268d0544e5534672df1296288ca3f93cbd39bd6f497a5c622811602052604090206002015461028d81610380565b610297838361038a565b505050565b6102a682826103fe565b5050565b60606102b68383610639565b9392505050565b7f02c0f6ea35402fd9c5779ec907d98e3386cbf20055e86ccc8f3265ae1f50659e546001600160a01b0316331461030757604051631eb49d6d60e11b815260040160405180910390fd5b61031081610920565b50565b61031081610c92565b60006102b68383610c9c565b6102a681610cd3565b600061024d82610e52565b60008281527fd3889cc5458b268d0544e5534672df1296288ca3f93cbd39bd6f497a5c622811602052604090206002015461037681610380565b6102978383610ed9565b6103108133610f4d565b60008281527fd3889cc5458b268d0544e5534672df1296288ca3f93cbd39bd6f497a5c622811602052604090206103c19082610fc9565b5060405133906001600160a01b0383169084907f2f8788117e7eff1d82e926ec794901d17c78024a50270940304540a733656f0d90600090a45050565b60008181527f02c0f6ea35402fd9c5779ec907d98e3386cbf20055e86ccc8f3265ae1f5065a46020526040902080547f02c0f6ea35402fd9c5779ec907d98e3386cbf20055e86ccc8f3265ae1f50659e91906001600160a01b031661047e576040516315cce73360e01b8152600481018490526024015b60405180910390fd5b6000600b820154610100900460ff16600481111561049e5761049e611d37565b141580156104ca57506001600b820154610100900460ff1660048111156104c7576104c7611d37565b14155b156104f657600b810154604051633d3bba2560e21b815261047591610100900460ff1690600401611d4d565b6000845182600701546105099190611d7d565b905081600501548111156105515781600501546040517fe846ac4a00000000000000000000000000000000000000000000000000000000815260040161047591815260200190565b6000826007015460016105649190611d7d565b6007840183905560038501546040517ffb8b28160000000000000000000000000000000000000000000000000000000081529192506001600160a01b03169063fb8b2816906105bd9088908a9086903390600401611d90565b600060405180830381600087803b1580156105d757600080fd5b505af11580156105eb573d6000803e3d6000fd5b50505050336001600160a01b0316857f3a0c028798dd669aaed9bebac5032439bcfbb0e556ef117bb92ae5bcd4c01ecd886040516106299190611c82565b60405180910390a3505050505050565b60008181527f02c0f6ea35402fd9c5779ec907d98e3386cbf20055e86ccc8f3265ae1f5065a46020526040902080546060917f02c0f6ea35402fd9c5779ec907d98e3386cbf20055e86ccc8f3265ae1f50659e916001600160a01b03166106b6576040516315cce73360e01b815260048101859052602401610475565b6000600b820154610100900460ff1660048111156106d6576106d6611d37565b1415801561070257506001600b820154610100900460ff1660048111156106ff576106ff611d37565b14155b1561072e57600b810154604051633d3bba2560e21b815261047591610100900460ff1690600401611d4d565b60008160080154866107409190611dc9565b90508034101561077e576040517f8228b9cb000000000000000000000000000000000000000000000000000000008152346004820152602401610475565b60008683600601546107909190611d7d565b90506000600b8401546301000000900460ff1660018111156107b4576107b4611d37565b1480156107c45750826004015481115b15610801576004838101546040517f10f94d6200000000000000000000000000000000000000000000000000000000815291820152602401610475565b6000836006015460016108149190611d7d565b60068501839055600286015460088601546040517f60f87c96000000000000000000000000000000000000000000000000000000008152336004820152602481018c9052604481018b90526064810191909152608481018390529192506001600160a01b0316906360f87c969060a4016000604051808303816000875af11580156108a3573d6000803e3d6000fd5b505050506040513d6000823e601f3d908101601f191682016040526108cb9190810190611de0565b9550336001600160a01b0316877f7fc3de757bd85bf7b855a768357c5f2b0f78b6bf6c98febcc972eb51ea2eac5888876008015460405161090d929190611e71565b60405180910390a3505050505092915050565b60007f02c0f6ea35402fd9c5779ec907d98e3386cbf20055e86ccc8f3265ae1f50659e90506000808360e00151600181111561095e5761095e611d37565b0361097a57816004015483608001516109779190611ea9565b90505b604051806101e0016040528084600001516001600160a01b0316815260200184602001516001600160a01b0316815260200184604001518152602001846060015181526020018460800151815260200182815260200160008152602001600081526020018460a0015181526020018460c0015181526020016000815260200160006002811115610a0c57610a0c611d37565b8152602001600081526020018461010001516001811115610a2f57610a2f611d37565b81526020018460e001516001811115610a4a57610a4a611d37565b905260408085015160009081526006808601602090815291839020845181546001600160a01b039182167fffffffffffffffffffffffff00000000000000000000000000000000000000009182161783559386015160018084018054929093169190951617905592840151600280850191909155606085015160038501556080850151600485015560a0850151600585015560c08501519184019190915560e0840151600784015561010084015160088401556101208401516009840155610140840151600a840155610160840151600b840180549193909260ff19909216918490811115610b3b57610b3b611d37565b0217905550610180820151600b8201805461ff001916610100836004811115610b6657610b66611d37565b02179055506101a0820151600b820180547fffffffffffffffffffffffffffffffffffffffffffffffffffffffffff00ffff1662010000836001811115610baf57610baf611d37565b02179055506101c0820151600b820180547fffffffffffffffffffffffffffffffffffffffffffffffffffffffff00ffffff166301000000836001811115610bf957610bf9611d37565b0217905550505060e08301516001811115610c1657610c16611d37565b83600001516001600160a01b031684602001516001600160a01b03167e8b801327d989d1cadca085d2a93c387d6e65557605be0b4c72f7418ceb3b92866040015187606001518860800151878a60a001518b60c001518c6101000151604051610c859796959493929190611ecd565b60405180910390a4505050565b6103108133610ed9565b60008281527fd3889cc5458b268d0544e5534672df1296288ca3f93cbd39bd6f497a5c622811602052604081206102b69083610fde565b60008181527f02c0f6ea35402fd9c5779ec907d98e3386cbf20055e86ccc8f3265ae1f5065a46020526040812060018101547f02c0f6ea35402fd9c5779ec907d98e3386cbf20055e86ccc8f3265ae1f50659e91906001600160a01b03163314610d5057604051631eb49d6d60e11b815260040160405180910390fd5b4281600901541115610d965780600901546040517f4bfdc84800000000000000000000000000000000000000000000000000000000815260040161047591815260200190565b6001600b8201546301000000900460ff166001811115610db857610db8611d37565b03610dff57600b8101546040517ff2f521fb000000000000000000000000000000000000000000000000000000008152610475916301000000900460ff1690600401611f11565b8060060154816004015403610e40576040517f8939130b00000000000000000000000000000000000000000000000000000000815260040160405180910390fd5b610e4a8183611000565b949350505050565b60008181527f02c0f6ea35402fd9c5779ec907d98e3386cbf20055e86ccc8f3265ae1f5065a46020526040812060018101547f02c0f6ea35402fd9c5779ec907d98e3386cbf20055e86ccc8f3265ae1f50659e91906001600160a01b03163314610ecf57604051631eb49d6d60e11b815260040160405180910390fd5b610e4a81856111ba565b60008281527fd3889cc5458b268d0544e5534672df1296288ca3f93cbd39bd6f497a5c62281160205260409020610f1090826116e2565b5060405133906001600160a01b0383169084907ff6391f5c32d9c69d2a47ea670b442974b53935d1edc7fd64eb21e047a839171b90600090a45050565b610f578282610c9c565b6102a657610f6d816001600160a01b03166116f7565b610f78836020611709565b604051602001610f89929190611f42565b60408051601f19818403018152908290527f08c379a000000000000000000000000000000000000000000000000000000000825261047591600401611fef565b60006102b6836001600160a01b038416611902565b6001600160a01b038116600090815260018301602052604081205415156102b6565b600080600b840154610100900460ff16600481111561102157611021611d37565b1415801561104d57506001600b840154610100900460ff16600481111561104a5761104a611d37565b14155b1561107957600b830154604051633d3bba2560e21b815261047591610100900460ff1690600401611d4d565b600b8301805461020061ff001990911617905560028301546040805160208101829052600660608201527f63616e63656c000000000000000000000000000000000000000000000000000060808201529081019190915260009060a00160408051601f198184030181529082905260018501547f62f84b240000000000000000000000000000000000000000000000000000000083529092506001600160a01b0316906362f84b2490611130908490600401611fef565b6020604051808303816000875af115801561114f573d6000803e3d6000fd5b505050506040513d601f19601f820116820180604052508101906111739190612002565b915083600201547f3651136a95955357cd04f86fd827e949f3dd8285073eeb90807f6b6dfcf5fce2836040516111ab91815260200190565b60405180910390a25092915050565b81546000907f02c0f6ea35402fd9c5779ec907d98e3386cbf20055e86ccc8f3265ae1f50659e906001600160a01b031661120a576040516315cce73360e01b815260048101849052602401610475565b6000600b850154610100900460ff16600481111561122a5761122a611d37565b1415801561125657506001600b850154610100900460ff16600481111561125357611253611d37565b14155b1561128257600b840154604051633d3bba2560e21b815261047591610100900460ff1690600401611d4d565b42846009015411156112c85783600901546040517f4bfdc84800000000000000000000000000000000000000000000000000000000815260040161047591815260200190565b836007015484600601546112dc9190611d7d565b600003611315576040517fd10cc50f00000000000000000000000000000000000000000000000000000000815260040160405180910390fd5b60006113338560070154866006015461132e9190611d7d565b611945565b90506000856006015482116113ef57600b8601805460ff19166002908117909155600a87018390558301546040517f6b9dc11a00000000000000000000000000000000000000000000000000000000815260048101879052602481018490526001600160a01b0390911690636b9dc11a90604401602060405180830381865afa1580156113c4573d6000803e3d6000fd5b505050506040513d601f19601f820116820180604052508101906113e8919061201b565b90506114a5565b600b8601805460ff19166001179055600686015461140d9083612038565b600a870181905560038401546040517f6b9dc11a0000000000000000000000000000000000000000000000000000000081526004810188905260248101929092526001600160a01b031690636b9dc11a90604401602060405180830381865afa15801561147e573d6000803e3d6000fd5b505050506040513d601f19601f820116820180604052508101906114a2919061201b565b90505b600b8601805461ff001916610400179055600686015460088701546000916114cc91611dc9565b905060006127108560050154836114e39190611dc9565b6114ed9190611ea9565b905060006114fb8284612038565b90506000888560405160200161155a92919060608082526009908201527f73657457696e6e65720000000000000000000000000000000000000000000000608082015260208101929092526001600160a01b0316604082015260a00190565b60408051601f198184030181529082905260018901547f62f84b240000000000000000000000000000000000000000000000000000000083529092506001600160a01b0316906362f84b24906115b4908490600401611fef565b6020604051808303816000875af11580156115d3573d6000803e3d6000fd5b505050506040513d601f19601f820116820180604052508101906115f79190612002565b97508287600701546116099190611d7d565b6007880155604051600090339084908381818185875af1925050503d8060008114611650576040519150601f19603f3d011682016040523d82523d6000602084013e611655565b606091505b5050905080611690576040517fa7777a3d00000000000000000000000000000000000000000000000000000000815260040160405180910390fd5b604080516001600160a01b0388168152602081018b90528b917f920aec71830aeb4c44e75ad66f2ac2abb9fe7b190e725394b108d2edd7be0e3e910160405180910390a2505050505050505092915050565b60006102b6836001600160a01b0384166119c1565b606061024d6001600160a01b03831660145b60606000611718836002611dc9565b611723906002611d7d565b67ffffffffffffffff81111561173b5761173b611af4565b6040519080825280601f01601f191660200182016040528015611765576020820181803683370190505b5090507f30000000000000000000000000000000000000000000000000000000000000008160008151811061179c5761179c61204b565b60200101907effffffffffffffffffffffffffffffffffffffffffffffffffffffffffffff1916908160001a9053507f7800000000000000000000000000000000000000000000000000000000000000816001815181106117ff576117ff61204b565b60200101907effffffffffffffffffffffffffffffffffffffffffffffffffffffffffffff1916908160001a905350600160028402015b60018111156118c9577f303132333435363738396162636465660000000000000000000000000000000085600f16601081106118745761187461204b565b1a60f81b82828151811061188a5761188a61204b565b60200101907effffffffffffffffffffffffffffffffffffffffffffffffffffffffffffff1916908160001a90535060049490941c9360001901611836565b5083156102b6576040517fc913478500000000000000000000000000000000000000000000000000000000815260040160405180910390fd5b600081815260018301602052604081205461024d575081546001808201845560008481526020808220909301849055845493815293810190915260409092205590565b60008132611954600143612038565b60405160609290921b7fffffffffffffffffffffffffffffffffffffffff0000000000000000000000001660208301524060348201524260548201526074016040516020818303038152906040528051906020012060001c6119b69190612061565b61024d906001611d7d565b60008181526001830160205260408120548015611a7f578354600090859060001981019081106119f3576119f361204b565b9060005260206000200154905080856000016001840381548110611a1957611a1961204b565b6000918252602080832090910192909255918252600186019052604090208190558354849080611a4b57611a4b612075565b6001900381819060005260206000200160009055905583600101600084815260200190815260200160002060009055600191505b5092915050565b600060208284031215611a9857600080fd5b5035919050565b6001600160a01b038116811461031057600080fd5b8035611abf81611a9f565b919050565b60008060408385031215611ad757600080fd5b823591506020830135611ae981611a9f565b809150509250929050565b634e487b7160e01b600052604160045260246000fd5b604051610120810167ffffffffffffffff81118282101715611b2e57611b2e611af4565b60405290565b604051601f8201601f1916810167ffffffffffffffff81118282101715611b5d57611b5d611af4565b604052919050565b600067ffffffffffffffff821115611b7f57611b7f611af4565b5060051b60200190565b60008060408385031215611b9c57600080fd5b823567ffffffffffffffff811115611bb357600080fd5b8301601f81018513611bc457600080fd5b80356020611bd9611bd483611b65565b611b34565b82815260059290921b83018101918181019088841115611bf857600080fd5b938201935b83851015611c1657843582529382019390820190611bfd565b98969091013596505050505050565b60008060408385031215611c3857600080fd5b50508035926020909101359150565b600081518084526020808501945080840160005b83811015611c7757815187529582019590820190600101611c5b565b509495945050505050565b6020815260006102b66020830184611c47565b803560028110611abf57600080fd5b60006101208284031215611cb757600080fd5b611cbf611b0a565b611cc883611ab4565b8152611cd660208401611ab4565b602082015260408301356040820152606083013560608201526080830135608082015260a083013560a082015260c083013560c0820152611d1960e08401611c95565b60e0820152610100611d2c818501611c95565b908201529392505050565b634e487b7160e01b600052602160045260246000fd5b6020810160058310611d6157611d61611d37565b91905290565b634e487b7160e01b600052601160045260246000fd5b8082018082111561024d5761024d611d67565b848152608060208201526000611da96080830186611c47565b90508360408301526001600160a01b038316606083015295945050505050565b808202811582820484141761024d5761024d611d67565b60006020808385031215611df357600080fd5b825167ffffffffffffffff811115611e0a57600080fd5b8301601f81018513611e1b57600080fd5b8051611e29611bd482611b65565b81815260059190911b82018301908381019087831115611e4857600080fd5b928401925b82841015611e6657835182529284019290840190611e4d565b979650505050505050565b604081526000611e846040830185611c47565b90508260208301529392505050565b634e487b7160e01b600052601260045260246000fd5b600082611eb857611eb8611e93565b500490565b6002811061031057610310611d37565b600060e0820190508882528760208301528660408301528560608301528460808301528360a0830152611eff83611ebd565b8260c083015298975050505050505050565b60208101611d6183611ebd565b60005b83811015611f39578181015183820152602001611f21565b50506000910152565b7f416363657373436f6e74726f6c3a206163636f756e7420000000000000000000815260008351611f7a816017850160208801611f1e565b7f206973206d697373696e6720726f6c65200000000000000000000000000000006017918401918201528351611fb7816028840160208801611f1e565b01602801949350505050565b60008151808452611fdb816020860160208601611f1e565b601f01601f19169290920160200192915050565b6020815260006102b66020830184611fc3565b60006020828403121561201457600080fd5b5051919050565b60006020828403121561202d57600080fd5b81516102b681611a9f565b8181038181111561024d5761024d611d67565b634e487b7160e01b600052603260045260246000fd5b60008261207057612070611e93565b500690565b634e487b7160e01b600052603160045260246000fdfea26469706673582212201727d3be87398606272c35b410db004128fcd0a770de7f4eef1076b9a330ba5664736f6c63430008110033",
  "linkReferences": {},
  "deployedLinkReferences": {}
}