{
  "_format": "hh-sol-artifact-1",
  "contractName": "Plonk4VerifierWithAccessToDNext",
  "sourceName": "@matterlabs/zksync-contracts/l1/contracts/zksync/Plonk4VerifierWithAccessToDNext.sol",
  "abi": [
    {
      "inputs": [
        {
          "components": [
            {
              "components": [
                {
                  "internalType": "uint256",
                  "name": "value",
                  "type": "uint256"
                }
              ],
              "internalType": "struct PairingsBn254.Fr",
              "name": "zero",
              "type": "tuple"
            },
            {
              "components": [
                {
                  "internalType": "uint256",
                  "name": "value",
                  "type": "uint256"
                }
              ],
              "internalType": "struct PairingsBn254.Fr",
              "name": "alpha",
              "type": "tuple"
            },
            {
              "components": [
                {
                  "internalType": "uint256",
                  "name": "value",
                  "type": "uint256"
                }
              ],
              "internalType": "struct PairingsBn254.Fr",
              "name": "beta",
              "type": "tuple"
            },
            {
              "components": [
                {
                  "internalType": "uint256",
                  "name": "value",
                  "type": "uint256"
                }
              ],
              "internalType": "struct PairingsBn254.Fr",
              "name": "gamma",
              "type": "tuple"
            },
            {
              "components": [
                {
                  "internalType": "uint256",
                  "name": "value",
                  "type": "uint256"
                }
              ],
              "internalType": "struct PairingsBn254.Fr[9]",
              "name": "alpha_values",
              "type": "tuple[9]"
            },
            {
              "components": [
                {
                  "internalType": "uint256",
                  "name": "value",
                  "type": "uint256"
                }
              ],
              "internalType": "struct PairingsBn254.Fr",
              "name": "eta",
              "type": "tuple"
            },
            {
              "components": [
                {
                  "internalType": "uint256",
                  "name": "value",
                  "type": "uint256"
                }
              ],
              "internalType": "struct PairingsBn254.Fr",
              "name": "beta_lookup",
              "type": "tuple"
            },
            {
              "components": [
                {
                  "internalType": "uint256",
                  "name": "value",
                  "type": "uint256"
                }
              ],
              "internalType": "struct PairingsBn254.Fr",
              "name": "gamma_lookup",
              "type": "tuple"
            },
            {
              "components": [
                {
                  "internalType": "uint256",
                  "name": "value",
                  "type": "uint256"
                }
              ],
              "internalType": "struct PairingsBn254.Fr",
              "name": "beta_plus_one",
              "type": "tuple"
            },
            {
              "components": [
                {
                  "internalType": "uint256",
                  "name": "value",
                  "type": "uint256"
                }
              ],
              "internalType": "struct PairingsBn254.Fr",
              "name": "beta_gamma",
              "type": "tuple"
            },
            {
              "components": [
                {
                  "internalType": "uint256",
                  "name": "value",
                  "type": "uint256"
                }
              ],
              "internalType": "struct PairingsBn254.Fr",
              "name": "v",
              "type": "tuple"
            },
            {
              "components": [
                {
                  "internalType": "uint256",
                  "name": "value",
                  "type": "uint256"
                }
              ],
              "internalType": "struct PairingsBn254.Fr",
              "name": "u",
              "type": "tuple"
            },
            {
              "components": [
                {
                  "internalType": "uint256",
                  "name": "value",
                  "type": "uint256"
                }
              ],
              "internalType": "struct PairingsBn254.Fr",
              "name": "z",
              "type": "tuple"
            },
            {
              "components": [
                {
                  "internalType": "uint256",
                  "name": "value",
                  "type": "uint256"
                }
              ],
              "internalType": "struct PairingsBn254.Fr",
              "name": "z_omega",
              "type": "tuple"
            },
            {
              "components": [
                {
                  "internalType": "uint256",
                  "name": "value",
                  "type": "uint256"
                }
              ],
              "internalType": "struct PairingsBn254.Fr",
              "name": "z_minus_last_omega",
              "type": "tuple"
            },
            {
              "components": [
                {
                  "internalType": "uint256",
                  "name": "value",
                  "type": "uint256"
                }
              ],
              "internalType": "struct PairingsBn254.Fr",
              "name": "l_0_at_z",
              "type": "tuple"
            },
            {
              "components": [
                {
                  "internalType": "uint256",
                  "name": "value",
                  "type": "uint256"
                }
              ],
              "internalType": "struct PairingsBn254.Fr",
              "name": "l_n_minus_one_at_z",
              "type": "tuple"
            },
            {
              "components": [
                {
                  "internalType": "uint256",
                  "name": "value",
                  "type": "uint256"
                }
              ],
              "internalType": "struct PairingsBn254.Fr",
              "name": "t",
              "type": "tuple"
            },
            {
              "components": [
                {
                  "internalType": "uint256",
                  "name": "X",
                  "type": "uint256"
                },
                {
                  "internalType": "uint256",
                  "name": "Y",
                  "type": "uint256"
                }
              ],
              "internalType": "struct PairingsBn254.G1Point",
              "name": "tp",
              "type": "tuple"
            }
          ],
          "internalType": "struct Plonk4VerifierWithAccessToDNext.PartialVerifierState",
          "name": "state",
          "type": "tuple"
        }
      ],
      "name": "compute_powers_of_alpha",
      "outputs": [],
      "stateMutability": "pure",
      "type": "function"
    },
    {
      "inputs": [
        {
          "components": [
            {
              "internalType": "uint256",
              "name": "domain_size",
              "type": "uint256"
            },
            {
              "internalType": "uint256",
              "name": "num_inputs",
              "type": "uint256"
            },
            {
              "components": [
                {
                  "internalType": "uint256",
                  "name": "value",
                  "type": "uint256"
                }
              ],
              "internalType": "struct PairingsBn254.Fr",
              "name": "omega",
              "type": "tuple"
            },
            {
              "components": [
                {
                  "internalType": "uint256",
                  "name": "X",
                  "type": "uint256"
                },
                {
                  "internalType": "uint256",
                  "name": "Y",
                  "type": "uint256"
                }
              ],
              "internalType": "struct PairingsBn254.G1Point[2]",
              "name": "gate_selectors_commitments",
              "type": "tuple[2]"
            },
            {
              "components": [
                {
                  "internalType": "uint256",
                  "name": "X",
                  "type": "uint256"
                },
                {
                  "internalType": "uint256",
                  "name": "Y",
                  "type": "uint256"
                }
              ],
              "internalType": "struct PairingsBn254.G1Point[8]",
              "name": "gate_setup_commitments",
              "type": "tuple[8]"
            },
            {
              "components": [
                {
                  "internalType": "uint256",
                  "name": "X",
                  "type": "uint256"
                },
                {
                  "internalType": "uint256",
                  "name": "Y",
                  "type": "uint256"
                }
              ],
              "internalType": "struct PairingsBn254.G1Point[4]",
              "name": "permutation_commitments",
              "type": "tuple[4]"
            },
            {
              "components": [
                {
                  "internalType": "uint256",
                  "name": "X",
                  "type": "uint256"
                },
                {
                  "internalType": "uint256",
                  "name": "Y",
                  "type": "uint256"
                }
              ],
              "internalType": "struct PairingsBn254.G1Point",
              "name": "lookup_selector_commitment",
              "type": "tuple"
            },
            {
              "components": [
                {
                  "internalType": "uint256",
                  "name": "X",
                  "type": "uint256"
                },
                {
                  "internalType": "uint256",
                  "name": "Y",
                  "type": "uint256"
                }
              ],
              "internalType": "struct PairingsBn254.G1Point[4]",
              "name": "lookup_tables_commitments",
              "type": "tuple[4]"
            },
            {
              "components": [
                {
                  "internalType": "uint256",
                  "name": "X",
                  "type": "uint256"
                },
                {
                  "internalType": "uint256",
                  "name": "Y",
                  "type": "uint256"
                }
              ],
              "internalType": "struct PairingsBn254.G1Point",
              "name": "lookup_table_type_commitment",
              "type": "tuple"
            },
            {
              "components": [
                {
                  "internalType": "uint256",
                  "name": "value",
                  "type": "uint256"
                }
              ],
              "internalType": "struct PairingsBn254.Fr[3]",
              "name": "non_residues",
              "type": "tuple[3]"
            },
            {
              "components": [
                {
                  "internalType": "uint256[2]",
                  "name": "X",
                  "type": "uint256[2]"
                },
                {
                  "internalType": "uint256[2]",
                  "name": "Y",
                  "type": "uint256[2]"
                }
              ],
              "internalType": "struct PairingsBn254.G2Point[2]",
              "name": "g2_elements",
              "type": "tuple[2]"
            }
          ],
          "internalType": "struct VerificationKey",
          "name": "vk",
          "type": "tuple"
        },
        {
          "components": [
            {
              "internalType": "uint256[]",
              "name": "input_values",
              "type": "uint256[]"
            },
            {
              "components": [
                {
                  "internalType": "uint256",
                  "name": "X",
                  "type": "uint256"
                },
                {
                  "internalType": "uint256",
                  "name": "Y",
                  "type": "uint256"
                }
              ],
              "internalType": "struct PairingsBn254.G1Point[4]",
              "name": "state_polys_commitments",
              "type": "tuple[4]"
            },
            {
              "components": [
                {
                  "internalType": "uint256",
                  "name": "X",
                  "type": "uint256"
                },
                {
                  "internalType": "uint256",
                  "name": "Y",
                  "type": "uint256"
                }
              ],
              "internalType": "struct PairingsBn254.G1Point",
              "name": "copy_permutation_grand_product_commitment",
              "type": "tuple"
            },
            {
              "components": [
                {
                  "internalType": "uint256",
                  "name": "X",
                  "type": "uint256"
                },
                {
                  "internalType": "uint256",
                  "name": "Y",
                  "type": "uint256"
                }
              ],
              "internalType": "struct PairingsBn254.G1Point[4]",
              "name": "quotient_poly_parts_commitments",
              "type": "tuple[4]"
            },
            {
              "components": [
                {
                  "internalType": "uint256",
                  "name": "value",
                  "type": "uint256"
                }
              ],
              "internalType": "struct PairingsBn254.Fr[4]",
              "name": "state_polys_openings_at_z",
              "type": "tuple[4]"
            },
            {
              "components": [
                {
                  "internalType": "uint256",
                  "name": "value",
                  "type": "uint256"
                }
              ],
              "internalType": "struct PairingsBn254.Fr[1]",
              "name": "state_polys_openings_at_z_omega",
              "type": "tuple[1]"
            },
            {
              "components": [
                {
                  "internalType": "uint256",
                  "name": "value",
                  "type": "uint256"
                }
              ],
              "internalType": "struct PairingsBn254.Fr[1]",
              "name": "gate_selectors_openings_at_z",
              "type": "tuple[1]"
            },
            {
              "components": [
                {
                  "internalType": "uint256",
                  "name": "value",
                  "type": "uint256"
                }
              ],
              "internalType": "struct PairingsBn254.Fr[3]",
              "name": "copy_permutation_polys_openings_at_z",
              "type": "tuple[3]"
            },
            {
              "components": [
                {
                  "internalType": "uint256",
                  "name": "value",
                  "type": "uint256"
                }
              ],
              "internalType": "struct PairingsBn254.Fr",
              "name": "copy_permutation_grand_product_opening_at_z_omega",
              "type": "tuple"
            },
            {
              "components": [
                {
                  "internalType": "uint256",
                  "name": "value",
                  "type": "uint256"
                }
              ],
              "internalType": "struct PairingsBn254.Fr",
              "name": "quotient_poly_opening_at_z",
              "type": "tuple"
            },
            {
              "components": [
                {
                  "internalType": "uint256",
                  "name": "value",
                  "type": "uint256"
                }
              ],
              "internalType": "struct PairingsBn254.Fr",
              "name": "linearization_poly_opening_at_z",
              "type": "tuple"
            },
            {
              "components": [
                {
                  "internalType": "uint256",
                  "name": "X",
                  "type": "uint256"
                },
                {
                  "internalType": "uint256",
                  "name": "Y",
                  "type": "uint256"
                }
              ],
              "internalType": "struct PairingsBn254.G1Point",
              "name": "lookup_s_poly_commitment",
              "type": "tuple"
            },
            {
              "components": [
                {
                  "internalType": "uint256",
                  "name": "X",
                  "type": "uint256"
                },
                {
                  "internalType": "uint256",
                  "name": "Y",
                  "type": "uint256"
                }
              ],
              "internalType": "struct PairingsBn254.G1Point",
              "name": "lookup_grand_product_commitment",
              "type": "tuple"
            },
            {
              "components": [
                {
                  "internalType": "uint256",
                  "name": "value",
                  "type": "uint256"
                }
              ],
              "internalType": "struct PairingsBn254.Fr",
              "name": "lookup_s_poly_opening_at_z_omega",
              "type": "tuple"
            },
            {
              "components": [
                {
                  "internalType": "uint256",
                  "name": "value",
                  "type": "uint256"
                }
              ],
              "internalType": "struct PairingsBn254.Fr",
              "name": "lookup_grand_product_opening_at_z_omega",
              "type": "tuple"
            },
            {
              "components": [
                {
                  "internalType": "uint256",
                  "name": "value",
                  "type": "uint256"
                }
              ],
              "internalType": "struct PairingsBn254.Fr",
              "name": "lookup_t_poly_opening_at_z",
              "type": "tuple"
            },
            {
              "components": [
                {
                  "internalType": "uint256",
                  "name": "value",
                  "type": "uint256"
                }
              ],
              "internalType": "struct PairingsBn254.Fr",
              "name": "lookup_t_poly_opening_at_z_omega",
              "type": "tuple"
            },
            {
              "components": [
                {
                  "internalType": "uint256",
                  "name": "value",
                  "type": "uint256"
                }
              ],
              "internalType": "struct PairingsBn254.Fr",
              "name": "lookup_selector_poly_opening_at_z",
              "type": "tuple"
            },
            {
              "components": [
                {
                  "internalType": "uint256",
                  "name": "value",
                  "type": "uint256"
                }
              ],
              "internalType": "struct PairingsBn254.Fr",
              "name": "lookup_table_type_poly_opening_at_z",
              "type": "tuple"
            },
            {
              "components": [
                {
                  "internalType": "uint256",
                  "name": "X",
                  "type": "uint256"
                },
                {
                  "internalType": "uint256",
                  "name": "Y",
                  "type": "uint256"
                }
              ],
              "internalType": "struct PairingsBn254.G1Point",
              "name": "opening_proof_at_z",
              "type": "tuple"
            },
            {
              "components": [
                {
                  "internalType": "uint256",
                  "name": "X",
                  "type": "uint256"
                },
                {
                  "internalType": "uint256",
                  "name": "Y",
                  "type": "uint256"
                }
              ],
              "internalType": "struct PairingsBn254.G1Point",
              "name": "opening_proof_at_z_omega",
              "type": "tuple"
            }
          ],
          "internalType": "struct Plonk4VerifierWithAccessToDNext.Proof",
          "name": "proof",
          "type": "tuple"
        },
        {
          "components": [
            {
              "components": [
                {
                  "internalType": "uint256",
                  "name": "value",
                  "type": "uint256"
                }
              ],
              "internalType": "struct PairingsBn254.Fr",
              "name": "zero",
              "type": "tuple"
            },
            {
              "components": [
                {
                  "internalType": "uint256",
                  "name": "value",
                  "type": "uint256"
                }
              ],
              "internalType": "struct PairingsBn254.Fr",
              "name": "alpha",
              "type": "tuple"
            },
            {
              "components": [
                {
                  "internalType": "uint256",
                  "name": "value",
                  "type": "uint256"
                }
              ],
              "internalType": "struct PairingsBn254.Fr",
              "name": "beta",
              "type": "tuple"
            },
            {
              "components": [
                {
                  "internalType": "uint256",
                  "name": "value",
                  "type": "uint256"
                }
              ],
              "internalType": "struct PairingsBn254.Fr",
              "name": "gamma",
              "type": "tuple"
            },
            {
              "components": [
                {
                  "internalType": "uint256",
                  "name": "value",
                  "type": "uint256"
                }
              ],
              "internalType": "struct PairingsBn254.Fr[9]",
              "name": "alpha_values",
              "type": "tuple[9]"
            },
            {
              "components": [
                {
                  "internalType": "uint256",
                  "name": "value",
                  "type": "uint256"
                }
              ],
              "internalType": "struct PairingsBn254.Fr",
              "name": "eta",
              "type": "tuple"
            },
            {
              "components": [
                {
                  "internalType": "uint256",
                  "name": "value",
                  "type": "uint256"
                }
              ],
              "internalType": "struct PairingsBn254.Fr",
              "name": "beta_lookup",
              "type": "tuple"
            },
            {
              "components": [
                {
                  "internalType": "uint256",
                  "name": "value",
                  "type": "uint256"
                }
              ],
              "internalType": "struct PairingsBn254.Fr",
              "name": "gamma_lookup",
              "type": "tuple"
            },
            {
              "components": [
                {
                  "internalType": "uint256",
                  "name": "value",
                  "type": "uint256"
                }
              ],
              "internalType": "struct PairingsBn254.Fr",
              "name": "beta_plus_one",
              "type": "tuple"
            },
            {
              "components": [
                {
                  "internalType": "uint256",
                  "name": "value",
                  "type": "uint256"
                }
              ],
              "internalType": "struct PairingsBn254.Fr",
              "name": "beta_gamma",
              "type": "tuple"
            },
            {
              "components": [
                {
                  "internalType": "uint256",
                  "name": "value",
                  "type": "uint256"
                }
              ],
              "internalType": "struct PairingsBn254.Fr",
              "name": "v",
              "type": "tuple"
            },
            {
              "components": [
                {
                  "internalType": "uint256",
                  "name": "value",
                  "type": "uint256"
                }
              ],
              "internalType": "struct PairingsBn254.Fr",
              "name": "u",
              "type": "tuple"
            },
            {
              "components": [
                {
                  "internalType": "uint256",
                  "name": "value",
                  "type": "uint256"
                }
              ],
              "internalType": "struct PairingsBn254.Fr",
              "name": "z",
              "type": "tuple"
            },
            {
              "components": [
                {
                  "internalType": "uint256",
                  "name": "value",
                  "type": "uint256"
                }
              ],
              "internalType": "struct PairingsBn254.Fr",
              "name": "z_omega",
              "type": "tuple"
            },
            {
              "components": [
                {
                  "internalType": "uint256",
                  "name": "value",
                  "type": "uint256"
                }
              ],
              "internalType": "struct PairingsBn254.Fr",
              "name": "z_minus_last_omega",
              "type": "tuple"
            },
            {
              "components": [
                {
                  "internalType": "uint256",
                  "name": "value",
                  "type": "uint256"
                }
              ],
              "internalType": "struct PairingsBn254.Fr",
              "name": "l_0_at_z",
              "type": "tuple"
            },
            {
              "components": [
                {
                  "internalType": "uint256",
                  "name": "value",
                  "type": "uint256"
                }
              ],
              "internalType": "struct PairingsBn254.Fr",
              "name": "l_n_minus_one_at_z",
              "type": "tuple"
            },
            {
              "components": [
                {
                  "internalType": "uint256",
                  "name": "value",
                  "type": "uint256"
                }
              ],
              "internalType": "struct PairingsBn254.Fr",
              "name": "t",
              "type": "tuple"
            },
            {
              "components": [
                {
                  "internalType": "uint256",
                  "name": "X",
                  "type": "uint256"
                },
                {
                  "internalType": "uint256",
                  "name": "Y",
                  "type": "uint256"
                }
              ],
              "internalType": "struct PairingsBn254.G1Point",
              "name": "tp",
              "type": "tuple"
            }
          ],
          "internalType": "struct Plonk4VerifierWithAccessToDNext.PartialVerifierState",
          "name": "state",
          "type": "tuple"
        }
      ],
      "name": "prepare_queries",
      "outputs": [
        {
          "components": [
            {
              "components": [
                {
                  "internalType": "uint256",
                  "name": "X",
                  "type": "uint256"
                },
                {
                  "internalType": "uint256",
                  "name": "Y",
                  "type": "uint256"
                }
              ],
              "internalType": "struct PairingsBn254.G1Point[13]",
              "name": "commitments_at_z",
              "type": "tuple[13]"
            },
            {
              "components": [
                {
                  "internalType": "uint256",
                  "name": "value",
                  "type": "uint256"
                }
              ],
              "internalType": "struct PairingsBn254.Fr[13]",
              "name": "values_at_z",
              "type": "tuple[13]"
            },
            {
              "components": [
                {
                  "internalType": "uint256",
                  "name": "X",
                  "type": "uint256"
                },
                {
                  "internalType": "uint256",
                  "name": "Y",
                  "type": "uint256"
                }
              ],
              "internalType": "struct PairingsBn254.G1Point[6]",
              "name": "commitments_at_z_omega",
              "type": "tuple[6]"
            },
            {
              "components": [
                {
                  "internalType": "uint256",
                  "name": "value",
                  "type": "uint256"
                }
              ],
              "internalType": "struct PairingsBn254.Fr[6]",
              "name": "values_at_z_omega",
              "type": "tuple[6]"
            }
          ],
          "internalType": "struct Plonk4VerifierWithAccessToDNext.Queries",
          "name": "queries",
          "type": "tuple"
        }
      ],
      "stateMutability": "view",
      "type": "function"
    },
    {
      "inputs": [
        {
          "components": [
            {
              "internalType": "uint256",
              "name": "domain_size",
              "type": "uint256"
            },
            {
              "internalType": "uint256",
              "name": "num_inputs",
              "type": "uint256"
            },
            {
              "components": [
                {
                  "internalType": "uint256",
                  "name": "value",
                  "type": "uint256"
                }
              ],
              "internalType": "struct PairingsBn254.Fr",
              "name": "omega",
              "type": "tuple"
            },
            {
              "components": [
                {
                  "internalType": "uint256",
                  "name": "X",
                  "type": "uint256"
                },
                {
                  "internalType": "uint256",
                  "name": "Y",
                  "type": "uint256"
                }
              ],
              "internalType": "struct PairingsBn254.G1Point[2]",
              "name": "gate_selectors_commitments",
              "type": "tuple[2]"
            },
            {
              "components": [
                {
                  "internalType": "uint256",
                  "name": "X",
                  "type": "uint256"
                },
                {
                  "internalType": "uint256",
                  "name": "Y",
                  "type": "uint256"
                }
              ],
              "internalType": "struct PairingsBn254.G1Point[8]",
              "name": "gate_setup_commitments",
              "type": "tuple[8]"
            },
            {
              "components": [
                {
                  "internalType": "uint256",
                  "name": "X",
                  "type": "uint256"
                },
                {
                  "internalType": "uint256",
                  "name": "Y",
                  "type": "uint256"
                }
              ],
              "internalType": "struct PairingsBn254.G1Point[4]",
              "name": "permutation_commitments",
              "type": "tuple[4]"
            },
            {
              "components": [
                {
                  "internalType": "uint256",
                  "name": "X",
                  "type": "uint256"
                },
                {
                  "internalType": "uint256",
                  "name": "Y",
                  "type": "uint256"
                }
              ],
              "internalType": "struct PairingsBn254.G1Point",
              "name": "lookup_selector_commitment",
              "type": "tuple"
            },
            {
              "components": [
                {
                  "internalType": "uint256",
                  "name": "X",
                  "type": "uint256"
                },
                {
                  "internalType": "uint256",
                  "name": "Y",
                  "type": "uint256"
                }
              ],
              "internalType": "struct PairingsBn254.G1Point[4]",
              "name": "lookup_tables_commitments",
              "type": "tuple[4]"
            },
            {
              "components": [
                {
                  "internalType": "uint256",
                  "name": "X",
                  "type": "uint256"
                },
                {
                  "internalType": "uint256",
                  "name": "Y",
                  "type": "uint256"
                }
              ],
              "internalType": "struct PairingsBn254.G1Point",
              "name": "lookup_table_type_commitment",
              "type": "tuple"
            },
            {
              "components": [
                {
                  "internalType": "uint256",
                  "name": "value",
                  "type": "uint256"
                }
              ],
              "internalType": "struct PairingsBn254.Fr[3]",
              "name": "non_residues",
              "type": "tuple[3]"
            },
            {
              "components": [
                {
                  "internalType": "uint256[2]",
                  "name": "X",
                  "type": "uint256[2]"
                },
                {
                  "internalType": "uint256[2]",
                  "name": "Y",
                  "type": "uint256[2]"
                }
              ],
              "internalType": "struct PairingsBn254.G2Point[2]",
              "name": "g2_elements",
              "type": "tuple[2]"
            }
          ],
          "internalType": "struct VerificationKey",
          "name": "vk",
          "type": "tuple"
        },
        {
          "components": [
            {
              "internalType": "uint256[]",
              "name": "input_values",
              "type": "uint256[]"
            },
            {
              "components": [
                {
                  "internalType": "uint256",
                  "name": "X",
                  "type": "uint256"
                },
                {
                  "internalType": "uint256",
                  "name": "Y",
                  "type": "uint256"
                }
              ],
              "internalType": "struct PairingsBn254.G1Point[4]",
              "name": "state_polys_commitments",
              "type": "tuple[4]"
            },
            {
              "components": [
                {
                  "internalType": "uint256",
                  "name": "X",
                  "type": "uint256"
                },
                {
                  "internalType": "uint256",
                  "name": "Y",
                  "type": "uint256"
                }
              ],
              "internalType": "struct PairingsBn254.G1Point",
              "name": "copy_permutation_grand_product_commitment",
              "type": "tuple"
            },
            {
              "components": [
                {
                  "internalType": "uint256",
                  "name": "X",
                  "type": "uint256"
                },
                {
                  "internalType": "uint256",
                  "name": "Y",
                  "type": "uint256"
                }
              ],
              "internalType": "struct PairingsBn254.G1Point[4]",
              "name": "quotient_poly_parts_commitments",
              "type": "tuple[4]"
            },
            {
              "components": [
                {
                  "internalType": "uint256",
                  "name": "value",
                  "type": "uint256"
                }
              ],
              "internalType": "struct PairingsBn254.Fr[4]",
              "name": "state_polys_openings_at_z",
              "type": "tuple[4]"
            },
            {
              "components": [
                {
                  "internalType": "uint256",
                  "name": "value",
                  "type": "uint256"
                }
              ],
              "internalType": "struct PairingsBn254.Fr[1]",
              "name": "state_polys_openings_at_z_omega",
              "type": "tuple[1]"
            },
            {
              "components": [
                {
                  "internalType": "uint256",
                  "name": "value",
                  "type": "uint256"
                }
              ],
              "internalType": "struct PairingsBn254.Fr[1]",
              "name": "gate_selectors_openings_at_z",
              "type": "tuple[1]"
            },
            {
              "components": [
                {
                  "internalType": "uint256",
                  "name": "value",
                  "type": "uint256"
                }
              ],
              "internalType": "struct PairingsBn254.Fr[3]",
              "name": "copy_permutation_polys_openings_at_z",
              "type": "tuple[3]"
            },
            {
              "components": [
                {
                  "internalType": "uint256",
                  "name": "value",
                  "type": "uint256"
                }
              ],
              "internalType": "struct PairingsBn254.Fr",
              "name": "copy_permutation_grand_product_opening_at_z_omega",
              "type": "tuple"
            },
            {
              "components": [
                {
                  "internalType": "uint256",
                  "name": "value",
                  "type": "uint256"
                }
              ],
              "internalType": "struct PairingsBn254.Fr",
              "name": "quotient_poly_opening_at_z",
              "type": "tuple"
            },
            {
              "components": [
                {
                  "internalType": "uint256",
                  "name": "value",
                  "type": "uint256"
                }
              ],
              "internalType": "struct PairingsBn254.Fr",
              "name": "linearization_poly_opening_at_z",
              "type": "tuple"
            },
            {
              "components": [
                {
                  "internalType": "uint256",
                  "name": "X",
                  "type": "uint256"
                },
                {
                  "internalType": "uint256",
                  "name": "Y",
                  "type": "uint256"
                }
              ],
              "internalType": "struct PairingsBn254.G1Point",
              "name": "lookup_s_poly_commitment",
              "type": "tuple"
            },
            {
              "components": [
                {
                  "internalType": "uint256",
                  "name": "X",
                  "type": "uint256"
                },
                {
                  "internalType": "uint256",
                  "name": "Y",
                  "type": "uint256"
                }
              ],
              "internalType": "struct PairingsBn254.G1Point",
              "name": "lookup_grand_product_commitment",
              "type": "tuple"
            },
            {
              "components": [
                {
                  "internalType": "uint256",
                  "name": "value",
                  "type": "uint256"
                }
              ],
              "internalType": "struct PairingsBn254.Fr",
              "name": "lookup_s_poly_opening_at_z_omega",
              "type": "tuple"
            },
            {
              "components": [
                {
                  "internalType": "uint256",
                  "name": "value",
                  "type": "uint256"
                }
              ],
              "internalType": "struct PairingsBn254.Fr",
              "name": "lookup_grand_product_opening_at_z_omega",
              "type": "tuple"
            },
            {
              "components": [
                {
                  "internalType": "uint256",
                  "name": "value",
                  "type": "uint256"
                }
              ],
              "internalType": "struct PairingsBn254.Fr",
              "name": "lookup_t_poly_opening_at_z",
              "type": "tuple"
            },
            {
              "components": [
                {
                  "internalType": "uint256",
                  "name": "value",
                  "type": "uint256"
                }
              ],
              "internalType": "struct PairingsBn254.Fr",
              "name": "lookup_t_poly_opening_at_z_omega",
              "type": "tuple"
            },
            {
              "components": [
                {
                  "internalType": "uint256",
                  "name": "value",
                  "type": "uint256"
                }
              ],
              "internalType": "struct PairingsBn254.Fr",
              "name": "lookup_selector_poly_opening_at_z",
              "type": "tuple"
            },
            {
              "components": [
                {
                  "internalType": "uint256",
                  "name": "value",
                  "type": "uint256"
                }
              ],
              "internalType": "struct PairingsBn254.Fr",
              "name": "lookup_table_type_poly_opening_at_z",
              "type": "tuple"
            },
            {
              "components": [
                {
                  "internalType": "uint256",
                  "name": "X",
                  "type": "uint256"
                },
                {
                  "internalType": "uint256",
                  "name": "Y",
                  "type": "uint256"
                }
              ],
              "internalType": "struct PairingsBn254.G1Point",
              "name": "opening_proof_at_z",
              "type": "tuple"
            },
            {
              "components": [
                {
                  "internalType": "uint256",
                  "name": "X",
                  "type": "uint256"
                },
                {
                  "internalType": "uint256",
                  "name": "Y",
                  "type": "uint256"
                }
              ],
              "internalType": "struct PairingsBn254.G1Point",
              "name": "opening_proof_at_z_omega",
              "type": "tuple"
            }
          ],
          "internalType": "struct Plonk4VerifierWithAccessToDNext.Proof",
          "name": "proof",
          "type": "tuple"
        },
        {
          "components": [
            {
              "components": [
                {
                  "internalType": "uint256",
                  "name": "value",
                  "type": "uint256"
                }
              ],
              "internalType": "struct PairingsBn254.Fr",
              "name": "zero",
              "type": "tuple"
            },
            {
              "components": [
                {
                  "internalType": "uint256",
                  "name": "value",
                  "type": "uint256"
                }
              ],
              "internalType": "struct PairingsBn254.Fr",
              "name": "alpha",
              "type": "tuple"
            },
            {
              "components": [
                {
                  "internalType": "uint256",
                  "name": "value",
                  "type": "uint256"
                }
              ],
              "internalType": "struct PairingsBn254.Fr",
              "name": "beta",
              "type": "tuple"
            },
            {
              "components": [
                {
                  "internalType": "uint256",
                  "name": "value",
                  "type": "uint256"
                }
              ],
              "internalType": "struct PairingsBn254.Fr",
              "name": "gamma",
              "type": "tuple"
            },
            {
              "components": [
                {
                  "internalType": "uint256",
                  "name": "value",
                  "type": "uint256"
                }
              ],
              "internalType": "struct PairingsBn254.Fr[9]",
              "name": "alpha_values",
              "type": "tuple[9]"
            },
            {
              "components": [
                {
                  "internalType": "uint256",
                  "name": "value",
                  "type": "uint256"
                }
              ],
              "internalType": "struct PairingsBn254.Fr",
              "name": "eta",
              "type": "tuple"
            },
            {
              "components": [
                {
                  "internalType": "uint256",
                  "name": "value",
                  "type": "uint256"
                }
              ],
              "internalType": "struct PairingsBn254.Fr",
              "name": "beta_lookup",
              "type": "tuple"
            },
            {
              "components": [
                {
                  "internalType": "uint256",
                  "name": "value",
                  "type": "uint256"
                }
              ],
              "internalType": "struct PairingsBn254.Fr",
              "name": "gamma_lookup",
              "type": "tuple"
            },
            {
              "components": [
                {
                  "internalType": "uint256",
                  "name": "value",
                  "type": "uint256"
                }
              ],
              "internalType": "struct PairingsBn254.Fr",
              "name": "beta_plus_one",
              "type": "tuple"
            },
            {
              "components": [
                {
                  "internalType": "uint256",
                  "name": "value",
                  "type": "uint256"
                }
              ],
              "internalType": "struct PairingsBn254.Fr",
              "name": "beta_gamma",
              "type": "tuple"
            },
            {
              "components": [
                {
                  "internalType": "uint256",
                  "name": "value",
                  "type": "uint256"
                }
              ],
              "internalType": "struct PairingsBn254.Fr",
              "name": "v",
              "type": "tuple"
            },
            {
              "components": [
                {
                  "internalType": "uint256",
                  "name": "value",
                  "type": "uint256"
                }
              ],
              "internalType": "struct PairingsBn254.Fr",
              "name": "u",
              "type": "tuple"
            },
            {
              "components": [
                {
                  "internalType": "uint256",
                  "name": "value",
                  "type": "uint256"
                }
              ],
              "internalType": "struct PairingsBn254.Fr",
              "name": "z",
              "type": "tuple"
            },
            {
              "components": [
                {
                  "internalType": "uint256",
                  "name": "value",
                  "type": "uint256"
                }
              ],
              "internalType": "struct PairingsBn254.Fr",
              "name": "z_omega",
              "type": "tuple"
            },
            {
              "components": [
                {
                  "internalType": "uint256",
                  "name": "value",
                  "type": "uint256"
                }
              ],
              "internalType": "struct PairingsBn254.Fr",
              "name": "z_minus_last_omega",
              "type": "tuple"
            },
            {
              "components": [
                {
                  "internalType": "uint256",
                  "name": "value",
                  "type": "uint256"
                }
              ],
              "internalType": "struct PairingsBn254.Fr",
              "name": "l_0_at_z",
              "type": "tuple"
            },
            {
              "components": [
                {
                  "internalType": "uint256",
                  "name": "value",
                  "type": "uint256"
                }
              ],
              "internalType": "struct PairingsBn254.Fr",
              "name": "l_n_minus_one_at_z",
              "type": "tuple"
            },
            {
              "components": [
                {
                  "internalType": "uint256",
                  "name": "value",
                  "type": "uint256"
                }
              ],
              "internalType": "struct PairingsBn254.Fr",
              "name": "t",
              "type": "tuple"
            },
            {
              "components": [
                {
                  "internalType": "uint256",
                  "name": "X",
                  "type": "uint256"
                },
                {
                  "internalType": "uint256",
                  "name": "Y",
                  "type": "uint256"
                }
              ],
              "internalType": "struct PairingsBn254.G1Point",
              "name": "tp",
              "type": "tuple"
            }
          ],
          "internalType": "struct Plonk4VerifierWithAccessToDNext.PartialVerifierState",
          "name": "state",
          "type": "tuple"
        }
      ],
      "name": "rescue_custom_gate_linearization_contribution",
      "outputs": [
        {
          "components": [
            {
              "internalType": "uint256",
              "name": "X",
              "type": "uint256"
            },
            {
              "internalType": "uint256",
              "name": "Y",
              "type": "uint256"
            }
          ],
          "internalType": "struct PairingsBn254.G1Point",
          "name": "result",
          "type": "tuple"
        }
      ],
      "stateMutability": "view",
      "type": "function"
    }
  ],
  "bytecode": "0x608060405234801561001057600080fd5b5061151b806100206000396000f3fe608060405234801561001057600080fd5b50600436106100415760003560e01c80633ec236cb14610046578063c2ef60411461006f578063fec4e96e1461008f575b600080fd5b610059610054366004611245565b6100a4565b6040516100669190611370565b60405180910390f35b61008261007d366004611245565b6101f9565b60405161006691906113e9565b6100a261009d36600461148a565b61055d565b005b604080518082019091526000808252602082015260408051602081019091526000815260408051602081019091526000815260808501516100fd9060005b60200201516040805160208101909152600081529051815290565b9150610109828061060b565b60808501516101219060015b60200201518390610637565b60808401516101399060015b6020020151839061060b565b610143818361068d565b60808501516101539060016100e2565b915061015f828061060b565b608085015161016f906002610115565b608084015161017f90600261012d565b610189818361068d565b60808501516101999060026100e2565b60808601519092506101ac90600061012d565b60808501516101bc906003610115565b60808401516101cc90600361012d565b6101d6818361068d565b60608601516101ef90829060015b6020020151906106b9565b9695505050505050565b61020161082c565b600260005b60048110156102845784602001518160048110610225576102256114ae565b6020020151835183600d811061023d5761023d6114ae565b602002015260808501518160048110610258576102586114ae565b6020020151836020015183600d8110610273576102736114ae565b602002015260019182019101610206565b50606085015151825182600d811061029e5761029e6114ae565b602002015260c084015160006020020151826020015182600d81106102c5576102c56114ae565b602002015260010160005b6102dc600160046114c4565b811015610358578560a0015181600481106102f9576102f96114ae565b6020020151835183600d8110610311576103116114ae565b602002015260e0850151816003811061032c5761032c6114ae565b6020020151836020015183600d8110610347576103476114ae565b6020020152600191820191016102d0565b5060408481015190830151526020840151610375600160046114c4565b60048110610385576103856114ae565b6020908102919091015160408401518201526101008501516060840180519190915260a0808701515191519092015260e086015151908401516000906103db906040805160208101909152600081529051815290565b905060015b600481101561042e57610403828960e0015183600481106101e4576101e46114ae565b61024087018190526104169084906106fe565b60a086015161042690839061060b565b6001016103e0565b508351829084600d8110610444576104446114ae565b6020020181905250856101e00151846020015184600d8110610468576104686114ae565b602002015260c087015184516001949094019384600d811061048c5761048c6114ae565b6020020181905250856102200151846020015184600d81106104b0576104b06114ae565b602002015261010087015184516001949094019384600d81106104d5576104d56114ae565b6020020181905250856102400151846020015184600d81106104f9576104f96114ae565b602002015250610160850151604084810180518201929092526101a0870151606080870180519093019190915261018088015183518201526101c0880151825190910152905160809081019290925261020090950151945101939093529392505050565b60208101515160000361056f57600080fd5b610579600161070d565b608082018051919091526020808301805160408051808501825260008082529251815294518401949094529051835192830190935281529051815260025b60098110156106065760208301516105d090839061060b565b60408051602081019091526000815282518152836080015182600981106105f9576105f96114ae565b60200201526001016105b7565b505050565b7f30644e72e131a029b85045b68181585d2833e84879b9709143e1f593f0000001815183510990915250565b7f30644e72e131a029b85045b68181585d2833e84879b9709143e1f593f00000018151610684907f30644e72e131a029b85045b68181585d2833e84879b9709143e1f593f00000016114c4565b83510890915250565b7f30644e72e131a029b85045b68181585d2833e84879b9709143e1f593f0000001815183510890915250565b604080518082019091526000808252602082015282511580156106e0575082602001516001145b156106ed57600060208401525b6106f883838361075a565b92915050565b61070982828461079c565b5050565b6040805160208101909152600081527f30644e72e131a029b85045b68181585d2833e84879b9709143e1f593f0000001821061074857600080fd5b50604080516020810190915290815290565b61076261086b565b835181526020840151816001602002015282518160026020020152600060408360608460075afa90508061079557600080fd5b5050505050565b81511580156107ad57506020820151155b156107c5578251815260209283015192019190915250565b82511580156107d657506020830151155b156107eb578151815260209182015191015250565b6107f3610889565b835181526020808501518183015283516040808401919091529084015160608301526000908360808460065afa90508061079557600080fd5b604051806080016040528061083f6108a7565b815260200161084c6108e1565b8152602001610859610916565b8152602001610866610940565b905290565b60405180606001604052806003906020820280368337509192915050565b60405180608001604052806004906020820280368337509192915050565b604051806101a00160405280600d905b60408051808201909152600080825260208201528152602001906001900390816108b75790505090565b604051806101a00160405280600d905b6040805160208101909152600081528152602001906001900390816108f15790505090565b604080516101008101909152600060c0820181815260e083019190915281526005602082016108b7565b6040805160e08101909152600060c0820190815281526005602082016108f1565b634e487b7160e01b600052604160045260246000fd5b6040805190810167ffffffffffffffff8111828210171561099a5761099a610961565b60405290565b6040516102a0810167ffffffffffffffff8111828210171561099a5761099a610961565b604051610260810167ffffffffffffffff8111828210171561099a5761099a610961565b604051610160810167ffffffffffffffff8111828210171561099a5761099a610961565b6040516080810167ffffffffffffffff8111828210171561099a5761099a610961565b600060208284031215610a4157600080fd5b6040516020810181811067ffffffffffffffff82111715610a6457610a64610961565b6040529135825250919050565b600060408284031215610a8357600080fd5b610a8b610977565b9050813581526020820135602082015292915050565b600082601f830112610ab257600080fd5b610aba610977565b806080840185811115610acc57600080fd5b845b81811015610af057610ae08782610a71565b8452602090930192604001610ace565b509095945050505050565b600082601f830112610b0c57600080fd5b60408051610100810181811067ffffffffffffffff82111715610b3157610b31610961565b825280610200850186811115610b4657600080fd5b855b81811015610b6957610b5a8882610a71565b83526020909201918401610b48565b50919695505050505050565b600082601f830112610b8657600080fd5b610b8e610a0c565b80610100840185811115610ba157600080fd5b845b81811015610af057610bb58782610a71565b8452602090930192604001610ba3565b600082601f830112610bd657600080fd5b6040516060810181811067ffffffffffffffff82111715610bf957610bf9610961565b604052806060840185811115610c0e57600080fd5b845b81811015610c3057610c228782610a2f565b835260209283019201610c10565b509195945050505050565b600082601f830112610c4c57600080fd5b610c54610977565b806040840185811115610c6657600080fd5b845b81811015610af0578035845260209384019301610c68565b600082601f830112610c9157600080fd5b610c99610977565b80610100840185811115610cac57600080fd5b845b81811015610af05760808188031215610cc75760008081fd5b610ccf610977565b610cd98883610c3b565b8152610ce88860408401610c3b565b6020828101919091529085529390930192608001610cae565b600082601f830112610d1257600080fd5b8135602067ffffffffffffffff80831115610d2f57610d2f610961565b8260051b6040517fffffffffffffffffffffffffffffffffffffffffffffffffffffffffffffffe0603f83011681018181108482111715610d7257610d72610961565b604052938452858101830193838101925087851115610d9057600080fd5b83870191505b84821015610daf57813583529183019190830190610d96565b979650505050505050565b600082601f830112610dcb57600080fd5b610dd3610a0c565b806080840185811115610de557600080fd5b845b81811015610af057610df98782610a2f565b845260209384019301610de7565b600082601f830112610e1857600080fd5b604051602080820182811067ffffffffffffffff82111715610e3c57610e3c610961565b6040528184820186811115610e5057600080fd5b855b81811015610e7157610e648882610a2f565b8352918301918301610e52565b50929695505050505050565b60006105a08284031215610e9057600080fd5b610e986109a0565b9050813567ffffffffffffffff811115610eb157600080fd5b610ebd84828501610d01565b825250610ecd8360208401610b75565b6020820152610120610ee184828501610a71565b6040830152610160610ef585828601610b75565b6060840152610260610f0986828701610dba565b6080850152610f1c866102e08701610e07565b60a0850152610f2f866103008701610e07565b60c0850152610f42866103208701610bc5565b60e0850152610f55866103808701610a2f565b610100850152610f69866103a08701610a2f565b83850152610f7b866103c08701610a2f565b610140850152610f8f866103e08701610a71565b82850152610fa1866104208701610a71565b610180850152610fb5866104608701610a2f565b6101a0850152610fc9866104808701610a2f565b6101c0850152610fdd866104a08701610a2f565b6101e0850152610ff1866104c08701610a2f565b610200850152611005866104e08701610a2f565b610220850152611019866105008701610a2f565b61024085015261102d866105208701610a71565b81850152505050611042836105608401610a71565b61028082015292915050565b600082601f83011261105f57600080fd5b60405161012080820182811067ffffffffffffffff8211171561108457611084610961565b6040528301818582111561109757600080fd5b845b82811015610c30576110ab8782610a2f565b825260209182019101611099565b600061038082840312156110cc57600080fd5b6110d46109c4565b90506110e08383610a2f565b81526110ef8360208401610a2f565b60208201526111018360408401610a2f565b60408201526111138360608401610a2f565b6060820152611125836080840161104e565b60808201526101a061113984828501610a2f565b60a08301526101c061114d85828601610a2f565b60c08401526101e061116186828701610a2f565b60e085015261020061117587828801610a2f565b61010086015261022061118a88828901610a2f565b61012087015261024061119f89828a01610a2f565b6101408801526111b3896102608a01610a2f565b6101608801526111c7896102808a01610a2f565b6101808801526111db896102a08a01610a2f565b868801526111ed896102c08a01610a2f565b858801526111ff896102e08a01610a2f565b84880152611211896103008a01610a2f565b83880152611223896103208a01610a2f565b82880152611235896103408a01610a71565b8188015250505050505092915050565b6000806000838503610a6081121561125c57600080fd5b6106c08082121561126c57600080fd5b6112746109e8565b915085358252602086013560208301526112918760408801610a2f565b60408301526112a38760608801610aa1565b60608301526112b58760e08801610afb565b60808301526112c8876102e08801610b75565b60a08301526112db876103e08801610a71565b60c08301526112ee876104208801610b75565b60e0830152611301876105208801610a71565b610100830152611315876105608801610bc5565b610120830152611329876105c08801610c80565b61014083015290935084013567ffffffffffffffff81111561134a57600080fd5b61135686828701610e7d565b925050611367856106e086016110b9565b90509250925092565b8151815260208083015190820152604081016106f8565b8060005b60068110156113bf576113a984835180518252602090810151910152565b604093909301926020919091019060010161138b565b50505050565b8060005b60068110156113bf578151518452602093840193909101906001016113c9565b81516107208201908260005b600d8110156114295761141382845180518252602090810151910152565b60209290920191604091909101906001016113f5565b505050602080840151610340840160005b600d811015611458578251518252918301919083019060010161143a565b50505050604083015161146f6104e0840182611387565b5060608301516114836106608401826113c5565b5092915050565b6000610380828403121561149d57600080fd5b6114a783836110b9565b9392505050565b634e487b7160e01b600052603260045260246000fd5b818103818111156106f857634e487b7160e01b600052601160045260246000fdfea26469706673582212207d9d0047785247298bfcf86267ff36dfe4c5597806d4a8c7330ed691a940c0e464736f6c63430008110033",
  "linkReferences": {},
  "deployedLinkReferences": {}
}