{
  "_format": "hh-sol-artifact-1",
  "contractName": "L1NaffleView",
  "sourceName": "contracts/naffle/ethereum/L1NaffleView.sol",
  "abi": [
    {
      "inputs": [],
      "name": "FailedMessageInclusion",
      "type": "error"
    },
    {
      "inputs": [],
      "name": "InvalidAction",
      "type": "error"
    },
    {
      "inputs": [
        {
          "internalType": "uint256",
          "name": "endTime",
          "type": "uint256"
        }
      ],
      "name": "InvalidEndTime",
      "type": "error"
    },
    {
      "inputs": [
        {
          "internalType": "uint256",
          "name": "spots",
          "type": "uint256"
        }
      ],
      "name": "InvalidPaidTicketSpots",
      "type": "error"
    },
    {
      "inputs": [],
      "name": "InvalidTokenType",
      "type": "error"
    },
    {
      "inputs": [],
      "name": "MessageAlreadyProcessed",
      "type": "error"
    },
    {
      "inputs": [],
      "name": "NotAllowed",
      "type": "error"
    },
    {
      "anonymous": false,
      "inputs": [
        {
          "indexed": false,
          "internalType": "uint256",
          "name": "naffleId",
          "type": "uint256"
        }
      ],
      "name": "L1NaffleCancelled",
      "type": "event"
    },
    {
      "anonymous": false,
      "inputs": [
        {
          "indexed": false,
          "internalType": "uint256",
          "name": "naffleId",
          "type": "uint256"
        },
        {
          "indexed": true,
          "internalType": "address",
          "name": "owner",
          "type": "address"
        },
        {
          "indexed": true,
          "internalType": "address",
          "name": "ethTokenAddress",
          "type": "address"
        },
        {
          "indexed": false,
          "internalType": "uint256",
          "name": "nftId",
          "type": "uint256"
        },
        {
          "indexed": false,
          "internalType": "uint256",
          "name": "paidTicketSpots",
          "type": "uint256"
        },
        {
          "indexed": false,
          "internalType": "uint256",
          "name": "ticketPriceInWei",
          "type": "uint256"
        },
        {
          "indexed": false,
          "internalType": "uint256",
          "name": "endTime",
          "type": "uint256"
        },
        {
          "indexed": false,
          "internalType": "enum NaffleTypes.NaffleType",
          "name": "naffleType",
          "type": "uint8"
        },
        {
          "indexed": false,
          "internalType": "enum NaffleTypes.TokenContractType",
          "name": "tokenContractType",
          "type": "uint8"
        }
      ],
      "name": "L1NaffleCreated",
      "type": "event"
    },
    {
      "anonymous": false,
      "inputs": [
        {
          "indexed": true,
          "internalType": "uint256",
          "name": "naffleId",
          "type": "uint256"
        },
        {
          "indexed": true,
          "internalType": "address",
          "name": "winner",
          "type": "address"
        }
      ],
      "name": "L1NaffleWinnerSet",
      "type": "event"
    },
    {
      "anonymous": false,
      "inputs": [
        {
          "indexed": true,
          "internalType": "bytes32",
          "name": "role",
          "type": "bytes32"
        },
        {
          "indexed": true,
          "internalType": "bytes32",
          "name": "previousAdminRole",
          "type": "bytes32"
        },
        {
          "indexed": true,
          "internalType": "bytes32",
          "name": "newAdminRole",
          "type": "bytes32"
        }
      ],
      "name": "RoleAdminChanged",
      "type": "event"
    },
    {
      "anonymous": false,
      "inputs": [
        {
          "indexed": true,
          "internalType": "bytes32",
          "name": "role",
          "type": "bytes32"
        },
        {
          "indexed": true,
          "internalType": "address",
          "name": "account",
          "type": "address"
        },
        {
          "indexed": true,
          "internalType": "address",
          "name": "sender",
          "type": "address"
        }
      ],
      "name": "RoleGranted",
      "type": "event"
    },
    {
      "anonymous": false,
      "inputs": [
        {
          "indexed": true,
          "internalType": "bytes32",
          "name": "role",
          "type": "bytes32"
        },
        {
          "indexed": true,
          "internalType": "address",
          "name": "account",
          "type": "address"
        },
        {
          "indexed": true,
          "internalType": "address",
          "name": "sender",
          "type": "address"
        }
      ],
      "name": "RoleRevoked",
      "type": "event"
    },
    {
      "inputs": [
        {
          "internalType": "uint256",
          "name": "_naffleId",
          "type": "uint256"
        }
      ],
      "name": "_getNaffleById",
      "outputs": [
        {
          "components": [
            {
              "internalType": "address",
              "name": "tokenAddress",
              "type": "address"
            },
            {
              "internalType": "uint256",
              "name": "nftId",
              "type": "uint256"
            },
            {
              "internalType": "uint256",
              "name": "naffleId",
              "type": "uint256"
            },
            {
              "internalType": "address",
              "name": "owner",
              "type": "address"
            },
            {
              "internalType": "address",
              "name": "winner",
              "type": "address"
            },
            {
              "internalType": "bool",
              "name": "cancelled",
              "type": "bool"
            },
            {
              "internalType": "enum NaffleTypes.TokenContractType",
              "name": "naffleTokenType",
              "type": "uint8"
            }
          ],
          "internalType": "struct NaffleTypes.L1Naffle",
          "name": "naffle",
          "type": "tuple"
        }
      ],
      "stateMutability": "view",
      "type": "function"
    },
    {
      "inputs": [],
      "name": "getAdminRole",
      "outputs": [
        {
          "internalType": "bytes32",
          "name": "",
          "type": "bytes32"
        }
      ],
      "stateMutability": "view",
      "type": "function"
    },
    {
      "inputs": [],
      "name": "getFoundersKeyAddress",
      "outputs": [
        {
          "internalType": "address",
          "name": "",
          "type": "address"
        }
      ],
      "stateMutability": "view",
      "type": "function"
    },
    {
      "inputs": [],
      "name": "getFoundersKeyPlaceholderAddress",
      "outputs": [
        {
          "internalType": "address",
          "name": "",
          "type": "address"
        }
      ],
      "stateMutability": "view",
      "type": "function"
    },
    {
      "inputs": [],
      "name": "getMinimumNaffleDuration",
      "outputs": [
        {
          "internalType": "uint256",
          "name": "",
          "type": "uint256"
        }
      ],
      "stateMutability": "view",
      "type": "function"
    },
    {
      "inputs": [],
      "name": "getMinimumPaidTicketPriceInWei",
      "outputs": [
        {
          "internalType": "uint256",
          "name": "",
          "type": "uint256"
        }
      ],
      "stateMutability": "view",
      "type": "function"
    },
    {
      "inputs": [],
      "name": "getMinimumPaidTicketSpots",
      "outputs": [
        {
          "internalType": "uint256",
          "name": "",
          "type": "uint256"
        }
      ],
      "stateMutability": "view",
      "type": "function"
    },
    {
      "inputs": [
        {
          "internalType": "uint256",
          "name": "_id",
          "type": "uint256"
        }
      ],
      "name": "getNaffleById",
      "outputs": [
        {
          "components": [
            {
              "internalType": "address",
              "name": "tokenAddress",
              "type": "address"
            },
            {
              "internalType": "uint256",
              "name": "nftId",
              "type": "uint256"
            },
            {
              "internalType": "uint256",
              "name": "naffleId",
              "type": "uint256"
            },
            {
              "internalType": "address",
              "name": "owner",
              "type": "address"
            },
            {
              "internalType": "address",
              "name": "winner",
              "type": "address"
            },
            {
              "internalType": "bool",
              "name": "cancelled",
              "type": "bool"
            },
            {
              "internalType": "enum NaffleTypes.TokenContractType",
              "name": "naffleTokenType",
              "type": "uint8"
            }
          ],
          "internalType": "struct NaffleTypes.L1Naffle",
          "name": "",
          "type": "tuple"
        }
      ],
      "stateMutability": "view",
      "type": "function"
    },
    {
      "inputs": [],
      "name": "getZkSyncAddress",
      "outputs": [
        {
          "internalType": "address",
          "name": "",
          "type": "address"
        }
      ],
      "stateMutability": "view",
      "type": "function"
    },
    {
      "inputs": [],
      "name": "getZkSyncNaffleContractAddress",
      "outputs": [
        {
          "internalType": "address",
          "name": "",
          "type": "address"
        }
      ],
      "stateMutability": "view",
      "type": "function"
    }
  ],
  "bytecode": "0x608060405234801561001057600080fd5b50610595806100206000396000f3fe608060405234801561001057600080fd5b50600436106100be5760003560e01c806345be4c5b11610076578063765c196e1161005b578063765c196e14610156578063b3ecf2361461015e578063d42d54d01461016557600080fd5b806345be4c5b1461014657806368ee5b0a1461014e57600080fd5b80632995e4d1116100a75780632995e4d1146101155780632e152d5e146101285780633c4e70981461013057600080fd5b80630c8dca98146100c3578063184ff1e4146100f5575b600080fd5b6100cb61016d565b60405173ffffffffffffffffffffffffffffffffffffffff90911681526020015b60405180910390f35b610108610103366004610472565b6101b2565b6040516100ec91906104ba565b610108610123366004610472565b6102e8565b6100cb610334565b610138610374565b6040519081526020016100ec565b6100cb61039e565b6101386103de565b610138610408565b6000610138565b6100cb610432565b60006101ad7f470a3a09bc7c093da4939d34501d4f187895d1929b6aa0b7092dcd8f223c67bd5473ffffffffffffffffffffffffffffffffffffffff1690565b905090565b6101ef6040805160e081018252600080825260208201819052918101829052606081018290526080810182905260a081018290529060c082015290565b60008281527f470a3a09bc7c093da4939d34501d4f187895d1929b6aa0b7092dcd8f223c67c26020908152604091829020825160e081018452815473ffffffffffffffffffffffffffffffffffffffff9081168252600180840154948301949094526002830154948201949094526003820154841660608201526004820154938416608082015260ff7401000000000000000000000000000000000000000085048116151560a08301529093919260c085019275010000000000000000000000000000000000000000009004909116908111156102ce576102ce61048b565b60018111156102df576102df61048b565b90525092915050565b6103256040805160e081018252600080825260208201819052918101829052606081018290526080810182905260a081018290529060c082015290565b61032e826101b2565b92915050565b60006101ad7f470a3a09bc7c093da4939d34501d4f187895d1929b6aa0b7092dcd8f223c67bc5473ffffffffffffffffffffffffffffffffffffffff1690565b60006101ad7f470a3a09bc7c093da4939d34501d4f187895d1929b6aa0b7092dcd8f223c67c15490565b60006101ad7f470a3a09bc7c093da4939d34501d4f187895d1929b6aa0b7092dcd8f223c67bb5473ffffffffffffffffffffffffffffffffffffffff1690565b60006101ad7f470a3a09bc7c093da4939d34501d4f187895d1929b6aa0b7092dcd8f223c67c05490565b60006101ad7f470a3a09bc7c093da4939d34501d4f187895d1929b6aa0b7092dcd8f223c67bf5490565b60006101ad7f470a3a09bc7c093da4939d34501d4f187895d1929b6aa0b7092dcd8f223c67ba5473ffffffffffffffffffffffffffffffffffffffff1690565b60006020828403121561048457600080fd5b5035919050565b7f4e487b7100000000000000000000000000000000000000000000000000000000600052602160045260246000fd5b600060e08201905073ffffffffffffffffffffffffffffffffffffffff80845116835260208401516020840152604084015160408401528060608501511660608401528060808501511660808401525060a0830151151560a083015260c083015160028110610552577f4e487b7100000000000000000000000000000000000000000000000000000000600052602160045260246000fd5b8060c0840152509291505056fea264697066735822122082744bcee2e788da923b98f7ca347ba7fc18ca82f2fb86338fef9c032c3901a864736f6c63430008110033",
  "linkReferences": {},
  "deployedLinkReferences": {}
}