{
  "_format": "hh-sol-artifact-1",
  "contractName": "L1NaffleAdmin",
  "sourceName": "contracts/naffle/ethereum/L1NaffleAdmin.sol",
  "abi": [
    {
      "inputs": [],
      "name": "FailedMessageInclusion",
      "type": "error"
    },
    {
      "inputs": [],
      "name": "InvalidAction",
      "type": "error"
    },
    {
      "inputs": [
        {
          "internalType": "uint256",
          "name": "endTime",
          "type": "uint256"
        }
      ],
      "name": "InvalidEndTime",
      "type": "error"
    },
    {
      "inputs": [
        {
          "internalType": "uint256",
          "name": "spots",
          "type": "uint256"
        }
      ],
      "name": "InvalidPaidTicketSpots",
      "type": "error"
    },
    {
      "inputs": [],
      "name": "InvalidTokenType",
      "type": "error"
    },
    {
      "inputs": [],
      "name": "MessageAlreadyProcessed",
      "type": "error"
    },
    {
      "inputs": [],
      "name": "NotAllowed",
      "type": "error"
    },
    {
      "inputs": [],
      "name": "Ownable__NotOwner",
      "type": "error"
    },
    {
      "inputs": [],
      "name": "Ownable__NotTransitiveOwner",
      "type": "error"
    },
    {
      "inputs": [],
      "name": "SafeOwnable__NotNomineeOwner",
      "type": "error"
    },
    {
      "inputs": [],
      "name": "UintUtils__InsufficientHexLength",
      "type": "error"
    },
    {
      "anonymous": false,
      "inputs": [
        {
          "indexed": false,
          "internalType": "uint256",
          "name": "naffleId",
          "type": "uint256"
        }
      ],
      "name": "L1NaffleCancelled",
      "type": "event"
    },
    {
      "anonymous": false,
      "inputs": [
        {
          "indexed": false,
          "internalType": "uint256",
          "name": "naffleId",
          "type": "uint256"
        },
        {
          "indexed": true,
          "internalType": "address",
          "name": "owner",
          "type": "address"
        },
        {
          "indexed": true,
          "internalType": "address",
          "name": "ethTokenAddress",
          "type": "address"
        },
        {
          "indexed": false,
          "internalType": "uint256",
          "name": "nftId",
          "type": "uint256"
        },
        {
          "indexed": false,
          "internalType": "uint256",
          "name": "paidTicketSpots",
          "type": "uint256"
        },
        {
          "indexed": false,
          "internalType": "uint256",
          "name": "ticketPriceInWei",
          "type": "uint256"
        },
        {
          "indexed": false,
          "internalType": "uint256",
          "name": "endTime",
          "type": "uint256"
        },
        {
          "indexed": false,
          "internalType": "enum NaffleTypes.NaffleType",
          "name": "naffleType",
          "type": "uint8"
        },
        {
          "indexed": false,
          "internalType": "enum NaffleTypes.TokenContractType",
          "name": "tokenContractType",
          "type": "uint8"
        }
      ],
      "name": "L1NaffleCreated",
      "type": "event"
    },
    {
      "anonymous": false,
      "inputs": [
        {
          "indexed": true,
          "internalType": "uint256",
          "name": "naffleId",
          "type": "uint256"
        },
        {
          "indexed": true,
          "internalType": "address",
          "name": "winner",
          "type": "address"
        }
      ],
      "name": "L1NaffleWinnerSet",
      "type": "event"
    },
    {
      "anonymous": false,
      "inputs": [
        {
          "indexed": true,
          "internalType": "address",
          "name": "previousOwner",
          "type": "address"
        },
        {
          "indexed": true,
          "internalType": "address",
          "name": "newOwner",
          "type": "address"
        }
      ],
      "name": "OwnershipTransferred",
      "type": "event"
    },
    {
      "anonymous": false,
      "inputs": [
        {
          "indexed": true,
          "internalType": "bytes32",
          "name": "role",
          "type": "bytes32"
        },
        {
          "indexed": true,
          "internalType": "bytes32",
          "name": "previousAdminRole",
          "type": "bytes32"
        },
        {
          "indexed": true,
          "internalType": "bytes32",
          "name": "newAdminRole",
          "type": "bytes32"
        }
      ],
      "name": "RoleAdminChanged",
      "type": "event"
    },
    {
      "anonymous": false,
      "inputs": [
        {
          "indexed": true,
          "internalType": "bytes32",
          "name": "role",
          "type": "bytes32"
        },
        {
          "indexed": true,
          "internalType": "address",
          "name": "account",
          "type": "address"
        },
        {
          "indexed": true,
          "internalType": "address",
          "name": "sender",
          "type": "address"
        }
      ],
      "name": "RoleGranted",
      "type": "event"
    },
    {
      "anonymous": false,
      "inputs": [
        {
          "indexed": true,
          "internalType": "bytes32",
          "name": "role",
          "type": "bytes32"
        },
        {
          "indexed": true,
          "internalType": "address",
          "name": "account",
          "type": "address"
        },
        {
          "indexed": true,
          "internalType": "address",
          "name": "sender",
          "type": "address"
        }
      ],
      "name": "RoleRevoked",
      "type": "event"
    },
    {
      "inputs": [
        {
          "internalType": "uint256",
          "name": "_naffleId",
          "type": "uint256"
        }
      ],
      "name": "_getNaffleById",
      "outputs": [
        {
          "components": [
            {
              "internalType": "address",
              "name": "tokenAddress",
              "type": "address"
            },
            {
              "internalType": "uint256",
              "name": "nftId",
              "type": "uint256"
            },
            {
              "internalType": "uint256",
              "name": "naffleId",
              "type": "uint256"
            },
            {
              "internalType": "address",
              "name": "owner",
              "type": "address"
            },
            {
              "internalType": "address",
              "name": "winner",
              "type": "address"
            },
            {
              "internalType": "bool",
              "name": "cancelled",
              "type": "bool"
            },
            {
              "internalType": "enum NaffleTypes.TokenContractType",
              "name": "naffleTokenType",
              "type": "uint8"
            }
          ],
          "internalType": "struct NaffleTypes.L1Naffle",
          "name": "naffle",
          "type": "tuple"
        }
      ],
      "stateMutability": "view",
      "type": "function"
    },
    {
      "inputs": [],
      "name": "acceptOwnership",
      "outputs": [],
      "stateMutability": "nonpayable",
      "type": "function"
    },
    {
      "inputs": [
        {
          "internalType": "address",
          "name": "_zkSyncAddress",
          "type": "address"
        },
        {
          "internalType": "uint256",
          "name": "_l2BlockNumber",
          "type": "uint256"
        },
        {
          "internalType": "uint256",
          "name": "_index",
          "type": "uint256"
        },
        {
          "internalType": "uint16",
          "name": "_l2TxNumberInBlock",
          "type": "uint16"
        },
        {
          "internalType": "bytes",
          "name": "_message",
          "type": "bytes"
        },
        {
          "internalType": "bytes32[]",
          "name": "_proof",
          "type": "bytes32[]"
        }
      ],
      "name": "consumeAdminCancelMessage",
      "outputs": [],
      "stateMutability": "nonpayable",
      "type": "function"
    },
    {
      "inputs": [
        {
          "internalType": "bytes32",
          "name": "role",
          "type": "bytes32"
        }
      ],
      "name": "getRoleAdmin",
      "outputs": [
        {
          "internalType": "bytes32",
          "name": "",
          "type": "bytes32"
        }
      ],
      "stateMutability": "view",
      "type": "function"
    },
    {
      "inputs": [
        {
          "internalType": "bytes32",
          "name": "role",
          "type": "bytes32"
        },
        {
          "internalType": "address",
          "name": "account",
          "type": "address"
        }
      ],
      "name": "grantRole",
      "outputs": [],
      "stateMutability": "nonpayable",
      "type": "function"
    },
    {
      "inputs": [
        {
          "internalType": "bytes32",
          "name": "role",
          "type": "bytes32"
        },
        {
          "internalType": "address",
          "name": "account",
          "type": "address"
        }
      ],
      "name": "hasRole",
      "outputs": [
        {
          "internalType": "bool",
          "name": "",
          "type": "bool"
        }
      ],
      "stateMutability": "view",
      "type": "function"
    },
    {
      "inputs": [],
      "name": "nomineeOwner",
      "outputs": [
        {
          "internalType": "address",
          "name": "",
          "type": "address"
        }
      ],
      "stateMutability": "view",
      "type": "function"
    },
    {
      "inputs": [],
      "name": "owner",
      "outputs": [
        {
          "internalType": "address",
          "name": "",
          "type": "address"
        }
      ],
      "stateMutability": "view",
      "type": "function"
    },
    {
      "inputs": [
        {
          "internalType": "bytes32",
          "name": "role",
          "type": "bytes32"
        }
      ],
      "name": "renounceRole",
      "outputs": [],
      "stateMutability": "nonpayable",
      "type": "function"
    },
    {
      "inputs": [
        {
          "internalType": "bytes32",
          "name": "role",
          "type": "bytes32"
        },
        {
          "internalType": "address",
          "name": "account",
          "type": "address"
        }
      ],
      "name": "revokeRole",
      "outputs": [],
      "stateMutability": "nonpayable",
      "type": "function"
    },
    {
      "inputs": [
        {
          "internalType": "address",
          "name": "_admin",
          "type": "address"
        }
      ],
      "name": "setAdmin",
      "outputs": [],
      "stateMutability": "nonpayable",
      "type": "function"
    },
    {
      "inputs": [
        {
          "internalType": "address",
          "name": "_foundersKeyAddress",
          "type": "address"
        }
      ],
      "name": "setFoundersKeyAddress",
      "outputs": [],
      "stateMutability": "nonpayable",
      "type": "function"
    },
    {
      "inputs": [
        {
          "internalType": "address",
          "name": "_foundersKeyPlaceholderAddress",
          "type": "address"
        }
      ],
      "name": "setFoundersKeyPlaceholderAddress",
      "outputs": [],
      "stateMutability": "nonpayable",
      "type": "function"
    },
    {
      "inputs": [
        {
          "internalType": "uint256",
          "name": "_minimumNaffleDuration",
          "type": "uint256"
        }
      ],
      "name": "setMinimumNaffleDuration",
      "outputs": [],
      "stateMutability": "nonpayable",
      "type": "function"
    },
    {
      "inputs": [
        {
          "internalType": "uint256",
          "name": "_minimumPaidTicketPriceInWei",
          "type": "uint256"
        }
      ],
      "name": "setMinimumPaidTicketPriceInWei",
      "outputs": [],
      "stateMutability": "nonpayable",
      "type": "function"
    },
    {
      "inputs": [
        {
          "internalType": "uint256",
          "name": "_minimumPaidTicketSpots",
          "type": "uint256"
        }
      ],
      "name": "setMinimumPaidTicketSpots",
      "outputs": [],
      "stateMutability": "nonpayable",
      "type": "function"
    },
    {
      "inputs": [
        {
          "internalType": "address",
          "name": "_zksyncAddress",
          "type": "address"
        }
      ],
      "name": "setZkSyncAddress",
      "outputs": [],
      "stateMutability": "nonpayable",
      "type": "function"
    },
    {
      "inputs": [
        {
          "internalType": "address",
          "name": "_zksyncNaffleContractAddress",
          "type": "address"
        }
      ],
      "name": "setZkSyncNaffleContractAddress",
      "outputs": [],
      "stateMutability": "nonpayable",
      "type": "function"
    },
    {
      "inputs": [
        {
          "internalType": "address",
          "name": "account",
          "type": "address"
        }
      ],
      "name": "transferOwnership",
      "outputs": [],
      "stateMutability": "nonpayable",
      "type": "function"
    }
  ],
  "bytecode": "0x608060405234801561001057600080fd5b506117b4806100206000396000f3fe608060405234801561001057600080fd5b50600436106101515760003560e01c80638a0ce0a2116100cd57806391d1485411610081578063c3a4490811610066578063c3a44908146102b3578063d547741f146102c6578063f2fde38b146102d957600080fd5b806391d148541461027d578063a411e09d146102a057600080fd5b80638bb9c5bf116100b25780638bb9c5bf1461024f5780638da5cb5b146102625780638f5ffa831461026a57600080fd5b80638a0ce0a21461021c5780638ab5150a1461022f57600080fd5b80632f2ff15d11610124578063704b6c0211610109578063704b6c02146101ee5780637914f4e41461020157806379ba50971461021457600080fd5b80632f2ff15d146101c85780636bae2916146101db57600080fd5b806302611eae14610156578063184ff1e41461016b5780631d29f29414610194578063248a9ca3146101a7575b600080fd5b61016961016436600461126c565b6102ec565b005b61017e61017936600461126c565b610323565b60405161018b919061129b565b60405180910390f35b6101696101a2366004611336565b61044c565b6101ba6101b536600461126c565b6104a2565b60405190815260200161018b565b6101696101d6366004611351565b6104da565b6101696101e9366004611336565b610523565b6101696101fc366004611336565b610579565b61016961020f36600461126c565b6105d9565b61016961060c565b61016961022a366004611336565b610668565b61023761067c565b6040516001600160a01b03909116815260200161018b565b61016961025d36600461126c565b61068b565b610237610694565b610169610278366004611336565b61069e565b61029061028b366004611351565b6106f4565b604051901515815260200161018b565b6101696102ae36600461126c565b610707565b6101696102c13660046113c9565b61073a565b6101696102d4366004611351565b61086f565b6101696102e7366004611336565b6108b3565b60006102f78161090e565b61031f827f470a3a09bc7c093da4939d34501d4f187895d1929b6aa0b7092dcd8f223c67c155565b5050565b6103606040805160e081018252600080825260208201819052918101829052606081018290526080810182905260a081018290529060c082015290565b60008281527f470a3a09bc7c093da4939d34501d4f187895d1929b6aa0b7092dcd8f223c67c26020908152604091829020825160e08101845281546001600160a01b039081168252600180840154948301949094526002830154948201949094526003820154841660608201526004820154938416608082015260ff7401000000000000000000000000000000000000000085048116151560a08301529093919260c0850192750100000000000000000000000000000000000000000090049091169081111561043257610432611285565b600181111561044357610443611285565b90525092915050565b60006104578161090e565b7f470a3a09bc7c093da4939d34501d4f187895d1929b6aa0b7092dcd8f223c67bd805473ffffffffffffffffffffffffffffffffffffffff19166001600160a01b0384161790555050565b60008181527fd3889cc5458b268d0544e5534672df1296288ca3f93cbd39bd6f497a5c62281160205260408120600201545b92915050565b60008281527fd3889cc5458b268d0544e5534672df1296288ca3f93cbd39bd6f497a5c62281160205260409020600201546105148161090e565b61051e8383610918565b505050565b600061052e8161090e565b7f470a3a09bc7c093da4939d34501d4f187895d1929b6aa0b7092dcd8f223c67bc805473ffffffffffffffffffffffffffffffffffffffff19166001600160a01b0384161790555050565b61058161098c565b6001600160a01b0316336001600160a01b0316146105cb576040517f2f7a8ee100000000000000000000000000000000000000000000000000000000815260040160405180910390fd5b6105d6600082610918565b50565b60006105e48161090e565b61031f827f470a3a09bc7c093da4939d34501d4f187895d1929b6aa0b7092dcd8f223c67bf55565b6106146109bf565b6001600160a01b0316336001600160a01b03161461065e576040517fefd1052d00000000000000000000000000000000000000000000000000000000815260040160405180910390fd5b6106666109e7565b565b60006106738161090e565b61031f82610a2e565b60006106866109bf565b905090565b6105d681610a7f565b600061068661098c565b60006106a98161090e565b7f470a3a09bc7c093da4939d34501d4f187895d1929b6aa0b7092dcd8f223c67bb805473ffffffffffffffffffffffffffffffffffffffff19166001600160a01b0384161790555050565b60006107008383610a89565b9392505050565b60006107128161090e565b61031f827f470a3a09bc7c093da4939d34501d4f187895d1929b6aa0b7092dcd8f223c67c055565b60006107458161090e565b61078c8989898989898080601f0160208091040260200160405190810160405280939291908181526020018383808284376000920191909152508b92508a9150610ac09050565b60008061079b868801886114ba565b915091506040516020016107e09060208082526006908201527f63616e63656c0000000000000000000000000000000000000000000000000000604082015260600190565b604051602081830303815290604052805190602001208260405160200161080791906115bf565b60405160208183030381529060405280519060200120036108305761082b81610c96565b610862565b6040517f4a7f394f00000000000000000000000000000000000000000000000000000000815260040160405180910390fd5b5050505050505050505050565b60008281527fd3889cc5458b268d0544e5534672df1296288ca3f93cbd39bd6f497a5c62281160205260409020600201546108a98161090e565b61051e8383610d5d565b6108bb61098c565b6001600160a01b0316336001600160a01b031614610905576040517f2f7a8ee100000000000000000000000000000000000000000000000000000000815260040160405180910390fd5b6105d681610dd1565b6105d68133610dda565b60008281527fd3889cc5458b268d0544e5534672df1296288ca3f93cbd39bd6f497a5c6228116020526040902061094f9082610e5f565b5060405133906001600160a01b0383169084907f2f8788117e7eff1d82e926ec794901d17c78024a50270940304540a733656f0d90600090a45050565b60007f8a22373512790c48b83a1fe2efdd2888d4a917bcdc24d0adf63e60f6716804605b546001600160a01b0316919050565b60007f24aa1f7b31fd188a8d3ecfb06bc55c806040e59b03bd4396283442fce66178906109b0565b6109f033610e74565b7f24aa1f7b31fd188a8d3ecfb06bc55c806040e59b03bd4396283442fce6617890805473ffffffffffffffffffffffffffffffffffffffff19169055565b807f470a3a09bc7c093da4939d34501d4f187895d1929b6aa0b7092dcd8f223c67ba5b805473ffffffffffffffffffffffffffffffffffffffff19166001600160a01b039290921691909117905550565b6105d68133610d5d565b60008281527fd3889cc5458b268d0544e5534672df1296288ca3f93cbd39bd6f497a5c622811602052604081206107009083610efb565b60008681527f470a3a09bc7c093da4939d34501d4f187895d1929b6aa0b7092dcd8f223c67c4602090815260408083208884529091529020547f470a3a09bc7c093da4939d34501d4f187895d1929b6aa0b7092dcd8f223c67ba9060ff1615610b55576040517f7b04260900000000000000000000000000000000000000000000000000000000815260040160405180910390fd5b80546040805160608101825261ffff8816815260018401546001600160a01b03908116602083015281830188905291517fe4948f43000000000000000000000000000000000000000000000000000000008152919092169190600090839063e4948f4390610bcf908d908d9087908c908c906004016115d2565b602060405180830381865afa158015610bec573d6000803e3d6000fd5b505050506040513d601f19601f82011682018060405250810190610c10919061166f565b905080610c49576040517fa0df83c200000000000000000000000000000000000000000000000000000000815260040160405180910390fd5b5050506000968752600a0160209081526040808820968852959052505050912080547fffffffffffffffffffffffffffffffffffffffffffffffffffffffffffffff001660011790555050565b60008181527f470a3a09bc7c093da4939d34501d4f187895d1929b6aa0b7092dcd8f223c67c2602090815260409182902060040180547fffffffffffffffffffffff00ffffffffffffffffffffffffffffffffffffffff167401000000000000000000000000000000000000000017905590518281527f470a3a09bc7c093da4939d34501d4f187895d1929b6aa0b7092dcd8f223c67ba917fbf391fc106280840a78dba14c035188d7d1b9b020bf03281196a1ff4b75a7a4c910160405180910390a15050565b60008281527fd3889cc5458b268d0544e5534672df1296288ca3f93cbd39bd6f497a5c62281160205260409020610d949082610f1d565b5060405133906001600160a01b0383169084907ff6391f5c32d9c69d2a47ea670b442974b53935d1edc7fd64eb21e047a839171b90600090a45050565b6105d681610f32565b610de48282610a89565b61031f57610dfa816001600160a01b0316610f59565b610e05836020610f6b565b604051602001610e16929190611691565b60408051601f19818403018152908290527f08c379a0000000000000000000000000000000000000000000000000000000008252610e56916004016115bf565b60405180910390fd5b6000610700836001600160a01b038416611164565b7f8a22373512790c48b83a1fe2efdd2888d4a917bcdc24d0adf63e60f67168046080546040516001600160a01b038481169216907f8be0079c531659141344cd1fd0a4f28419497f9722a3daafe3b4186f6b6457e090600090a3805473ffffffffffffffffffffffffffffffffffffffff19166001600160a01b0392909216919091179055565b6001600160a01b03811660009081526001830160205260408120541515610700565b6000610700836001600160a01b0384166111a7565b807f24aa1f7b31fd188a8d3ecfb06bc55c806040e59b03bd4396283442fce6617890610a51565b60606104d46001600160a01b03831660145b60606000610f7a836002611728565b610f8590600261173f565b67ffffffffffffffff811115610f9d57610f9d6114a4565b6040519080825280601f01601f191660200182016040528015610fc7576020820181803683370190505b5090507f300000000000000000000000000000000000000000000000000000000000000081600081518110610ffe57610ffe611752565b60200101907effffffffffffffffffffffffffffffffffffffffffffffffffffffffffffff1916908160001a9053507f78000000000000000000000000000000000000000000000000000000000000008160018151811061106157611061611752565b60200101907effffffffffffffffffffffffffffffffffffffffffffffffffffffffffffff1916908160001a905350600160028402015b600181111561112b577f303132333435363738396162636465660000000000000000000000000000000085600f16601081106110d6576110d6611752565b1a60f81b8282815181106110ec576110ec611752565b60200101907effffffffffffffffffffffffffffffffffffffffffffffffffffffffffffff1916908160001a90535060049490941c9360001901611098565b508315610700576040517fc913478500000000000000000000000000000000000000000000000000000000815260040160405180910390fd5b60008181526001830160205260408120546104d4575081546001808201845560008481526020808220909301849055845493815293810190915260409092205590565b60008181526001830160205260408120548015611265578354600090859060001981019081106111d9576111d9611752565b90600052602060002001549050808560000160018403815481106111ff576111ff611752565b600091825260208083209091019290925591825260018601905260409020819055835484908061123157611231611768565b6001900381819060005260206000200160009055905583600101600084815260200190815260200160002060009055600191505b5092915050565b60006020828403121561127e57600080fd5b5035919050565b634e487b7160e01b600052602160045260246000fd5b600060e0820190506001600160a01b0380845116835260208401516020840152604084015160408401528060608501511660608401528060808501511660808401525060a0830151151560a083015260c08301516002811061130d57634e487b7160e01b600052602160045260246000fd5b8060c08401525092915050565b80356001600160a01b038116811461133157600080fd5b919050565b60006020828403121561134857600080fd5b6107008261131a565b6000806040838503121561136457600080fd5b823591506113746020840161131a565b90509250929050565b60008083601f84011261138f57600080fd5b50813567ffffffffffffffff8111156113a757600080fd5b6020830191508360208260051b85010111156113c257600080fd5b9250929050565b60008060008060008060008060c0898b0312156113e557600080fd5b6113ee8961131a565b97506020890135965060408901359550606089013561ffff8116811461141357600080fd5b9450608089013567ffffffffffffffff8082111561143057600080fd5b818b0191508b601f83011261144457600080fd5b81358181111561145357600080fd5b8c602082850101111561146557600080fd5b6020830196508095505060a08b013591508082111561148357600080fd5b506114908b828c0161137d565b999c989b5096995094979396929594505050565b634e487b7160e01b600052604160045260246000fd5b600080604083850312156114cd57600080fd5b823567ffffffffffffffff808211156114e557600080fd5b818501915085601f8301126114f957600080fd5b81358181111561150b5761150b6114a4565b604051601f8201601f19908116603f01168101908382118183101715611533576115336114a4565b8160405282815288602084870101111561154c57600080fd5b826020860160208301376000602093820184015298969091013596505050505050565b60005b8381101561158a578181015183820152602001611572565b50506000910152565b600081518084526115ab81602086016020860161156f565b601f01601f19169290920160200192915050565b6020815260006107006020830184611593565b8581528460208201526080604082015261ffff84511660808201526001600160a01b0360208501511660a082015260006040850151606060c084015261161b60e0840182611593565b905082810360608401528381527f07ffffffffffffffffffffffffffffffffffffffffffffffffffffffffffffff84111561165557600080fd5b8360051b8086602084013701602001979650505050505050565b60006020828403121561168157600080fd5b8151801515811461070057600080fd5b7f416363657373436f6e74726f6c3a206163636f756e74200000000000000000008152600083516116c981601785016020880161156f565b7f206973206d697373696e6720726f6c6520000000000000000000000000000000601791840191820152835161170681602884016020880161156f565b01602801949350505050565b634e487b7160e01b600052601160045260246000fd5b80820281158282048414176104d4576104d4611712565b808201808211156104d4576104d4611712565b634e487b7160e01b600052603260045260246000fd5b634e487b7160e01b600052603160045260246000fdfea2646970667358221220db44f2a0d7fbd14fd4163d952a2dc463c24b5907bf8033e814c38e6ed454b42b64736f6c63430008110033",
  "linkReferences": {},
  "deployedLinkReferences": {}
}