{
  "_format": "hh-sol-artifact-1",
  "contractName": "FoundersKeyStaking",
  "sourceName": "contracts/staking/FoundersKeyStaking.sol",
  "abi": [
    {
      "inputs": [],
      "stateMutability": "nonpayable",
      "type": "constructor"
    },
    {
      "inputs": [
        {
          "internalType": "address",
          "name": "addr",
          "type": "address"
        }
      ],
      "name": "AddressIsZero",
      "type": "error"
    },
    {
      "inputs": [
        {
          "internalType": "uint16",
          "name": "nftId",
          "type": "uint16"
        },
        {
          "internalType": "uint256",
          "name": "unlockTime",
          "type": "uint256"
        }
      ],
      "name": "NFTLocked",
      "type": "error"
    },
    {
      "anonymous": false,
      "inputs": [
        {
          "indexed": false,
          "internalType": "address",
          "name": "previousAdmin",
          "type": "address"
        },
        {
          "indexed": false,
          "internalType": "address",
          "name": "newAdmin",
          "type": "address"
        }
      ],
      "name": "AdminChanged",
      "type": "event"
    },
    {
      "anonymous": false,
      "inputs": [
        {
          "indexed": true,
          "internalType": "address",
          "name": "beacon",
          "type": "address"
        }
      ],
      "name": "BeaconUpgraded",
      "type": "event"
    },
    {
      "anonymous": false,
      "inputs": [
        {
          "indexed": false,
          "internalType": "uint8",
          "name": "version",
          "type": "uint8"
        }
      ],
      "name": "Initialized",
      "type": "event"
    },
    {
      "anonymous": false,
      "inputs": [
        {
          "indexed": true,
          "internalType": "address",
          "name": "previousOwner",
          "type": "address"
        },
        {
          "indexed": true,
          "internalType": "address",
          "name": "newOwner",
          "type": "address"
        }
      ],
      "name": "OwnershipTransferred",
      "type": "event"
    },
    {
      "anonymous": false,
      "inputs": [
        {
          "indexed": false,
          "internalType": "address",
          "name": "account",
          "type": "address"
        }
      ],
      "name": "Paused",
      "type": "event"
    },
    {
      "anonymous": false,
      "inputs": [
        {
          "indexed": false,
          "internalType": "address",
          "name": "account",
          "type": "address"
        }
      ],
      "name": "Unpaused",
      "type": "event"
    },
    {
      "anonymous": false,
      "inputs": [
        {
          "indexed": true,
          "internalType": "address",
          "name": "implementation",
          "type": "address"
        }
      ],
      "name": "Upgraded",
      "type": "event"
    },
    {
      "anonymous": false,
      "inputs": [
        {
          "indexed": false,
          "internalType": "address",
          "name": "userAddress",
          "type": "address"
        },
        {
          "indexed": false,
          "internalType": "uint16",
          "name": "nftId",
          "type": "uint16"
        },
        {
          "indexed": false,
          "internalType": "uint256",
          "name": "stakeTime",
          "type": "uint256"
        },
        {
          "indexed": false,
          "internalType": "enum FoundersKeyStaking.StakingPeriod",
          "name": "stakingPeriod",
          "type": "uint8"
        }
      ],
      "name": "UserStaked",
      "type": "event"
    },
    {
      "anonymous": false,
      "inputs": [
        {
          "indexed": false,
          "internalType": "address",
          "name": "userAddress",
          "type": "address"
        },
        {
          "indexed": false,
          "internalType": "uint16",
          "name": "nftId",
          "type": "uint16"
        },
        {
          "indexed": false,
          "internalType": "uint256",
          "name": "unstakeTime",
          "type": "uint256"
        }
      ],
      "name": "UserUnstaked",
      "type": "event"
    },
    {
      "inputs": [],
      "name": "FoundersKeyAddress",
      "outputs": [
        {
          "internalType": "contract IFoundersKey",
          "name": "",
          "type": "address"
        }
      ],
      "stateMutability": "view",
      "type": "function"
    },
    {
      "inputs": [],
      "name": "ONE_MONTH",
      "outputs": [
        {
          "internalType": "uint256",
          "name": "",
          "type": "uint256"
        }
      ],
      "stateMutability": "view",
      "type": "function"
    },
    {
      "inputs": [],
      "name": "SIX_MONTHS",
      "outputs": [
        {
          "internalType": "uint256",
          "name": "",
          "type": "uint256"
        }
      ],
      "stateMutability": "view",
      "type": "function"
    },
    {
      "inputs": [],
      "name": "SoulboundFoundersKeyAddress",
      "outputs": [
        {
          "internalType": "contract ISoulboundFoundersKey",
          "name": "",
          "type": "address"
        }
      ],
      "stateMutability": "view",
      "type": "function"
    },
    {
      "inputs": [],
      "name": "THREE_MONTHS",
      "outputs": [
        {
          "internalType": "uint256",
          "name": "",
          "type": "uint256"
        }
      ],
      "stateMutability": "view",
      "type": "function"
    },
    {
      "inputs": [],
      "name": "TWELVE_MONTHS",
      "outputs": [
        {
          "internalType": "uint256",
          "name": "",
          "type": "uint256"
        }
      ],
      "stateMutability": "view",
      "type": "function"
    },
    {
      "inputs": [
        {
          "internalType": "address",
          "name": "_userAddress",
          "type": "address"
        }
      ],
      "name": "getBestStakedNFTInfo",
      "outputs": [
        {
          "internalType": "uint8",
          "name": "",
          "type": "uint8"
        },
        {
          "internalType": "uint16",
          "name": "",
          "type": "uint16"
        },
        {
          "internalType": "uint256",
          "name": "",
          "type": "uint256"
        }
      ],
      "stateMutability": "view",
      "type": "function"
    },
    {
      "inputs": [
        {
          "internalType": "address",
          "name": "_userAddress",
          "type": "address"
        },
        {
          "internalType": "uint16",
          "name": "_nftId",
          "type": "uint16"
        }
      ],
      "name": "getStakedInfoForNFTId",
      "outputs": [
        {
          "components": [
            {
              "internalType": "uint16",
              "name": "nftId",
              "type": "uint16"
            },
            {
              "internalType": "uint256",
              "name": "stakedSince",
              "type": "uint256"
            },
            {
              "internalType": "enum FoundersKeyStaking.StakingPeriod",
              "name": "stakingPeriod",
              "type": "uint8"
            }
          ],
          "internalType": "struct FoundersKeyStaking.StakeInfo",
          "name": "",
          "type": "tuple"
        }
      ],
      "stateMutability": "view",
      "type": "function"
    },
    {
      "inputs": [
        {
          "internalType": "address",
          "name": "_userAddress",
          "type": "address"
        }
      ],
      "name": "getStakedNFTInfos",
      "outputs": [
        {
          "components": [
            {
              "internalType": "uint16",
              "name": "nftId",
              "type": "uint16"
            },
            {
              "internalType": "uint256",
              "name": "stakedSince",
              "type": "uint256"
            },
            {
              "internalType": "enum FoundersKeyStaking.StakingPeriod",
              "name": "stakingPeriod",
              "type": "uint8"
            }
          ],
          "internalType": "struct FoundersKeyStaking.StakeInfo[]",
          "name": "",
          "type": "tuple[]"
        }
      ],
      "stateMutability": "view",
      "type": "function"
    },
    {
      "inputs": [],
      "name": "initialize",
      "outputs": [],
      "stateMutability": "nonpayable",
      "type": "function"
    },
    {
      "inputs": [
        {
          "internalType": "address",
          "name": "",
          "type": "address"
        },
        {
          "internalType": "address",
          "name": "",
          "type": "address"
        },
        {
          "internalType": "uint256",
          "name": "",
          "type": "uint256"
        },
        {
          "internalType": "bytes",
          "name": "",
          "type": "bytes"
        }
      ],
      "name": "onERC721Received",
      "outputs": [
        {
          "internalType": "bytes4",
          "name": "",
          "type": "bytes4"
        }
      ],
      "stateMutability": "nonpayable",
      "type": "function"
    },
    {
      "inputs": [],
      "name": "owner",
      "outputs": [
        {
          "internalType": "address",
          "name": "",
          "type": "address"
        }
      ],
      "stateMutability": "view",
      "type": "function"
    },
    {
      "inputs": [],
      "name": "pause",
      "outputs": [],
      "stateMutability": "nonpayable",
      "type": "function"
    },
    {
      "inputs": [],
      "name": "paused",
      "outputs": [
        {
          "internalType": "bool",
          "name": "",
          "type": "bool"
        }
      ],
      "stateMutability": "view",
      "type": "function"
    },
    {
      "inputs": [],
      "name": "proxiableUUID",
      "outputs": [
        {
          "internalType": "bytes32",
          "name": "",
          "type": "bytes32"
        }
      ],
      "stateMutability": "view",
      "type": "function"
    },
    {
      "inputs": [],
      "name": "renounceOwnership",
      "outputs": [],
      "stateMutability": "nonpayable",
      "type": "function"
    },
    {
      "inputs": [
        {
          "internalType": "address",
          "name": "_foundersKeyAddress",
          "type": "address"
        }
      ],
      "name": "setFoundersKeyAddress",
      "outputs": [],
      "stateMutability": "nonpayable",
      "type": "function"
    },
    {
      "inputs": [
        {
          "internalType": "address",
          "name": "_soulboundFoundersKeyAddress",
          "type": "address"
        }
      ],
      "name": "setSoulboundFoundersKeyAddress",
      "outputs": [],
      "stateMutability": "nonpayable",
      "type": "function"
    },
    {
      "inputs": [
        {
          "internalType": "uint16",
          "name": "_nftId",
          "type": "uint16"
        },
        {
          "internalType": "enum FoundersKeyStaking.StakingPeriod",
          "name": "_stakingPeriod",
          "type": "uint8"
        }
      ],
      "name": "stake",
      "outputs": [],
      "stateMutability": "nonpayable",
      "type": "function"
    },
    {
      "inputs": [
        {
          "internalType": "address",
          "name": "newOwner",
          "type": "address"
        }
      ],
      "name": "transferOwnership",
      "outputs": [],
      "stateMutability": "nonpayable",
      "type": "function"
    },
    {
      "inputs": [],
      "name": "unpause",
      "outputs": [],
      "stateMutability": "nonpayable",
      "type": "function"
    },
    {
      "inputs": [
        {
          "internalType": "uint16",
          "name": "_nftId",
          "type": "uint16"
        }
      ],
      "name": "unstake",
      "outputs": [],
      "stateMutability": "nonpayable",
      "type": "function"
    },
    {
      "inputs": [
        {
          "internalType": "address",
          "name": "newImplementation",
          "type": "address"
        }
      ],
      "name": "upgradeTo",
      "outputs": [],
      "stateMutability": "nonpayable",
      "type": "function"
    },
    {
      "inputs": [
        {
          "internalType": "address",
          "name": "newImplementation",
          "type": "address"
        },
        {
          "internalType": "bytes",
          "name": "data",
          "type": "bytes"
        }
      ],
      "name": "upgradeToAndCall",
      "outputs": [],
      "stateMutability": "payable",
      "type": "function"
    },
    {
      "inputs": [
        {
          "internalType": "address",
          "name": "",
          "type": "address"
        },
        {
          "internalType": "uint256",
          "name": "",
          "type": "uint256"
        }
      ],
      "name": "userStakeInfo",
      "outputs": [
        {
          "internalType": "uint16",
          "name": "nftId",
          "type": "uint16"
        },
        {
          "internalType": "uint256",
          "name": "stakedSince",
          "type": "uint256"
        },
        {
          "internalType": "enum FoundersKeyStaking.StakingPeriod",
          "name": "stakingPeriod",
          "type": "uint8"
        }
      ],
      "stateMutability": "view",
      "type": "function"
    }
  ],
  "bytecode": "0x60a06040523060805234801561001457600080fd5b5061001d610022565b6100e2565b600054610100900460ff161561008e5760405162461bcd60e51b815260206004820152602760248201527f496e697469616c697a61626c653a20636f6e747261637420697320696e697469604482015266616c697a696e6760c81b606482015260840160405180910390fd5b60005460ff90811610156100e0576000805460ff191660ff9081179091556040519081527f7f26b83ff96e1f2b6a682f133852f6798a09c465da95921460cefb38474024989060200160405180910390a15b565b6080516124436200011a600039600081816107fe01528181610894015281816109ad01528181610a430152610b3e01526124436000f3fe6080604052600436106101955760003560e01c80637c4a485c116100e15780638d7a78961161008a578063ba579c7411610064578063ba579c741461046f578063eaa461f414610486578063ecbefab7146104c8578063f2fde38b146104df57600080fd5b80638d7a7896146104025780638da5cb5b146104315780638ec3c7cf1461044f57600080fd5b80638456cb59116100bb5780638456cb59146103a057806387db4d78146103b55780638c736012146103e257600080fd5b80637c4a485c146103465780637c65834b1461035e5780638129fc1c1461038b57600080fd5b80634f14ca44116101435780635c975abb1161011d5780635c975abb146102ee5780636bae291614610311578063715018a61461033157600080fd5b80634f14ca44146102a55780634f1ef286146102c657806352d1902d146102d957600080fd5b806320988cef1161017457806320988cef1461024b5780633659cfe6146102705780633f4ba83a1461029057600080fd5b806246aba31461019a578063119d4fa3146101bc578063150b7a02146101fa575b600080fd5b3480156101a657600080fd5b506101ba6101b5366004611f5c565b6104ff565b005b3480156101c857600080fd5b5061012e546101dd906001600160a01b031681565b6040516001600160a01b0390911681526020015b60405180910390f35b34801561020657600080fd5b5061021a610215366004612031565b6107ca565b6040517fffffffff0000000000000000000000000000000000000000000000000000000090911681526020016101f1565b34801561025757600080fd5b5061026262278d0081565b6040519081526020016101f1565b34801561027c57600080fd5b506101ba61028b366004612099565b6107f4565b34801561029c57600080fd5b506101ba610991565b3480156102b157600080fd5b5061012d546101dd906001600160a01b031681565b6101ba6102d43660046120b4565b6109a3565b3480156102e557600080fd5b50610262610b31565b3480156102fa57600080fd5b5060fb5460ff1660405190151581526020016101f1565b34801561031d57600080fd5b506101ba61032c366004612099565b610bf6565b34801561033d57600080fd5b506101ba610c79565b34801561035257600080fd5b506102626301e1338081565b34801561036a57600080fd5b5061037e610379366004612099565b610c8b565b6040516101f1919061215e565b34801561039757600080fd5b506101ba610d4d565b3480156103ac57600080fd5b506101ba610eae565b3480156103c157600080fd5b506103d56103d03660046121ac565b610ebe565b6040516101f191906121df565b3480156103ee57600080fd5b506101ba6103fd366004612099565b610f89565b34801561040e57600080fd5b5061042261041d3660046121ed565b61100c565b6040516101f193929190612217565b34801561043d57600080fd5b5060c9546001600160a01b03166101dd565b34801561045b57600080fd5b506101ba61046a366004612236565b611057565b34801561047b57600080fd5b5061026262ed4e0081565b34801561049257600080fd5b506104a66104a1366004612099565b611270565b6040805160ff909416845261ffff9092166020840152908201526060016101f1565b3480156104d457600080fd5b506102626276a70081565b3480156104eb57600080fd5b506101ba6104fa366004612099565b611464565b61ffff8116600090815261012f6020908152604080832054338452610130909252822080549192918390811061053757610537612271565b6000918252602091829020604080516060810182526003938402909201805461ffff16835260018101549483019490945260028401549193929084019160ff169081111561058757610587612102565b600381111561059857610598612102565b815250509050426105ac82604001516114f1565b82602001516105bb919061229d565b111561062157826105cf82604001516114f1565b82602001516105de919061229d565b6040517fb4888f0a00000000000000000000000000000000000000000000000000000000815261ffff909216600483015260248201526044015b60405180910390fd5b61012d546040517f23b872dd00000000000000000000000000000000000000000000000000000000815230600482015233602482015261ffff851660448201526001600160a01b03909116906323b872dd90606401600060405180830381600087803b15801561069057600080fd5b505af11580156106a4573d6000803e3d6000fd5b505061012e546040517f42966c6800000000000000000000000000000000000000000000000000000000815261ffff871660048201526001600160a01b0390911692506342966c689150602401600060405180830381600087803b15801561070b57600080fd5b505af115801561071f573d6000803e3d6000fd5b5050336000908152610130602052604090208054909250849150811061074757610747612271565b60009182526020808320600392909202909101805461ffff1916815560018101839055600201805460ff1916905561ffff851680835261012f8252604080842093909355825133815291820152428183015290517ffc3a857c0b7e66e6ac8782a61bf3b36e033e84526430dba194f2ede13db674559181900360600190a1505050565b7f150b7a02000000000000000000000000000000000000000000000000000000005b949350505050565b6001600160a01b037f00000000000000000000000000000000000000000000000000000000000000001630036108925760405162461bcd60e51b815260206004820152602c60248201527f46756e6374696f6e206d7573742062652063616c6c6564207468726f7567682060448201527f64656c656761746563616c6c00000000000000000000000000000000000000006064820152608401610618565b7f00000000000000000000000000000000000000000000000000000000000000006001600160a01b03166108ed7f360894a13ba1a3210667c828492db98dca3e2076cc3735a920a3ca505d382bbc546001600160a01b031690565b6001600160a01b0316146109695760405162461bcd60e51b815260206004820152602c60248201527f46756e6374696f6e206d7573742062652063616c6c6564207468726f7567682060448201527f6163746976652070726f787900000000000000000000000000000000000000006064820152608401610618565b610972816115cc565b6040805160008082526020820190925261098e918391906115d4565b50565b610999611779565b6109a16117d3565b565b6001600160a01b037f0000000000000000000000000000000000000000000000000000000000000000163003610a415760405162461bcd60e51b815260206004820152602c60248201527f46756e6374696f6e206d7573742062652063616c6c6564207468726f7567682060448201527f64656c656761746563616c6c00000000000000000000000000000000000000006064820152608401610618565b7f00000000000000000000000000000000000000000000000000000000000000006001600160a01b0316610a9c7f360894a13ba1a3210667c828492db98dca3e2076cc3735a920a3ca505d382bbc546001600160a01b031690565b6001600160a01b031614610b185760405162461bcd60e51b815260206004820152602c60248201527f46756e6374696f6e206d7573742062652063616c6c6564207468726f7567682060448201527f6163746976652070726f787900000000000000000000000000000000000000006064820152608401610618565b610b21826115cc565b610b2d828260016115d4565b5050565b6000306001600160a01b037f00000000000000000000000000000000000000000000000000000000000000001614610bd15760405162461bcd60e51b815260206004820152603860248201527f555550535570677261646561626c653a206d757374206e6f742062652063616c60448201527f6c6564207468726f7567682064656c656761746563616c6c00000000000000006064820152608401610618565b507f360894a13ba1a3210667c828492db98dca3e2076cc3735a920a3ca505d382bbc90565b610bfe611779565b6001600160a01b038116610c49576040517ffacce3d80000000000000000000000000000000000000000000000000000000081526001600160a01b0382166004820152602401610618565b61012d805473ffffffffffffffffffffffffffffffffffffffff19166001600160a01b0392909216919091179055565b610c81611779565b6109a16000611825565b6001600160a01b038116600090815261013060209081526040808320805482518185028101850190935280835260609492939192909184015b82821015610d42576000848152602090819020604080516060810182526003808702909301805461ffff16825260018101549482019490945260028401549093929184019160ff90911690811115610d1e57610d1e612102565b6003811115610d2f57610d2f612102565b8152505081526020019060010190610cc4565b505050509050919050565b600054610100900460ff1615808015610d6d5750600054600160ff909116105b80610d875750303b158015610d87575060005460ff166001145b610df95760405162461bcd60e51b815260206004820152602e60248201527f496e697469616c697a61626c653a20636f6e747261637420697320616c72656160448201527f647920696e697469616c697a65640000000000000000000000000000000000006064820152608401610618565b6000805460ff191660011790558015610e1c576000805461ff0019166101001790555b610e4e7302eab30603dad3e17d0bda0f14a683f51475cd99731eddcb3a7e703f67495e9814b9518a1828ea0b79611884565b610e566118f9565b610e5e61196c565b610e666119df565b801561098e576000805461ff0019169055604051600181527f7f26b83ff96e1f2b6a682f133852f6798a09c465da95921460cefb38474024989060200160405180910390a150565b610eb6611779565b6109a1611a4a565b610edf60408051606081018252600080825260208201819052909182015290565b6001600160a01b03831660009081526101306020908152604080832061ffff8616845261012f9092529091205481548110610f1c57610f1c612271565b6000918252602091829020604080516060810182526003938402909201805461ffff16835260018101549483019490945260028401549193929084019160ff1690811115610f6c57610f6c612102565b6003811115610f7d57610f7d612102565b90525090505b92915050565b610f91611779565b6001600160a01b038116610fdc576040517ffacce3d80000000000000000000000000000000000000000000000000000000081526001600160a01b0382166004820152602401610618565b61012e805473ffffffffffffffffffffffffffffffffffffffff19166001600160a01b0392909216919091179055565b610130602052816000526040600020818154811061102957600080fd5b600091825260209091206003909102018054600182015460029092015461ffff909116935090915060ff1683565b61105f611a87565b61012e546040517fa144819400000000000000000000000000000000000000000000000000000000815233600482015261ffff841660248201526001600160a01b039091169063a144819490604401600060405180830381600087803b1580156110c857600080fd5b505af11580156110dc573d6000803e3d6000fd5b505061012d546040517f23b872dd00000000000000000000000000000000000000000000000000000000815233600482015230602482015261ffff861660448201526001600160a01b0390911692506323b872dd9150606401600060405180830381600087803b15801561114f57600080fd5b505af1158015611163573d6000803e3d6000fd5b50505050600060405180606001604052808461ffff16815260200142815260200183600381111561119657611196612102565b9052336000908152610130602090815260408083208054600180820183558286529484902086516003808402909201805461ffff191661ffff9092169190911781559487015185870155928601516002850180549798509296919588959491939260ff191691849081111561120d5761120d612102565b0217905550505061ffff8516600090815261012f602052604090819020829055517fd903db8f485b9ffc38dbb8a63b3a9d8d005f805f7a0a9f468901e50e497fbd3d906112619033908890429089906122b0565b60405180910390a15050505050565b6001600160a01b0381166000908152610130602090815260408083208054825181850281018501909352808352849384938493849384938493929190849084015b8282101561132f576000848152602090819020604080516060810182526003808702909301805461ffff16825260018101549482019490945260028401549093929184019160ff9091169081111561130b5761130b612102565b600381111561131c5761131c612102565b81525050815260200190600101906112b1565b50505050905060005b815181101561145657600082828151811061135557611355612271565b602090810291909101015161012d5481516040517fbc3bce1a00000000000000000000000000000000000000000000000000000000815261ffff90911660048201529192506000916001600160a01b039091169063bc3bce1a90602401602060405180830381865afa1580156113cf573d6000803e3d6000fd5b505050506040513d601f19601f820116820180604052508101906113f391906122de565b90508660ff168160ff16036114265761140b86612301565b9550816020015185111561142157816020015194505b611443565b8660ff168160ff1611156114435780965060019550816020015194505b50508061144f90612322565b9050611338565b509297919650945092505050565b61146c611779565b6001600160a01b0381166114e85760405162461bcd60e51b815260206004820152602660248201527f4f776e61626c653a206e6577206f776e657220697320746865207a65726f206160448201527f64647265737300000000000000000000000000000000000000000000000000006064820152608401610618565b61098e81611825565b60008082600381111561150657611506612102565b03611515575062278d00919050565b600182600381111561152957611529612102565b0361153857506276a700919050565b600282600381111561154c5761154c612102565b0361155b575062ed4e00919050565b600382600381111561156f5761156f612102565b0361157f57506301e13380919050565b60405162461bcd60e51b815260206004820152601760248201527f496e76616c6964207374616b696e6720706572696f64210000000000000000006044820152606401610618565b919050565b61098e611779565b7f4910fdfa16fed3260ed0e7147f7cc6da11a60208b5b9406d12a635614ffd91435460ff161561160c5761160783611ada565b505050565b826001600160a01b03166352d1902d6040518163ffffffff1660e01b8152600401602060405180830381865afa925050508015611666575060408051601f3d908101601f191682019092526116639181019061235a565b60015b6116d85760405162461bcd60e51b815260206004820152602e60248201527f45524331393637557067726164653a206e657720696d706c656d656e7461746960448201527f6f6e206973206e6f7420555550530000000000000000000000000000000000006064820152608401610618565b7f360894a13ba1a3210667c828492db98dca3e2076cc3735a920a3ca505d382bbc811461176d5760405162461bcd60e51b815260206004820152602960248201527f45524331393637557067726164653a20756e737570706f727465642070726f7860448201527f6961626c655555494400000000000000000000000000000000000000000000006064820152608401610618565b50611607838383611ba5565b60c9546001600160a01b031633146109a15760405162461bcd60e51b815260206004820181905260248201527f4f776e61626c653a2063616c6c6572206973206e6f7420746865206f776e65726044820152606401610618565b6117db611bd0565b60fb805460ff191690557f5db9ee0a495bf2e6ff9c91a7834c1ba4fdd244a5e8aa4e537bd38aeae4b073aa335b6040516001600160a01b03909116815260200160405180910390a1565b60c980546001600160a01b0383811673ffffffffffffffffffffffffffffffffffffffff19831681179093556040519116919082907f8be0079c531659141344cd1fd0a4f28419497f9722a3daafe3b4186f6b6457e090600090a35050565b600054610100900460ff166118ef5760405162461bcd60e51b815260206004820152602b60248201527f496e697469616c697a61626c653a20636f6e7472616374206973206e6f74206960448201526a6e697469616c697a696e6760a81b6064820152608401610618565b610b2d8282611c22565b600054610100900460ff166119645760405162461bcd60e51b815260206004820152602b60248201527f496e697469616c697a61626c653a20636f6e7472616374206973206e6f74206960448201526a6e697469616c697a696e6760a81b6064820152608401610618565b6109a1611cca565b600054610100900460ff166119d75760405162461bcd60e51b815260206004820152602b60248201527f496e697469616c697a61626c653a20636f6e7472616374206973206e6f74206960448201526a6e697469616c697a696e6760a81b6064820152608401610618565b6109a1611d3e565b600054610100900460ff166109a15760405162461bcd60e51b815260206004820152602b60248201527f496e697469616c697a61626c653a20636f6e7472616374206973206e6f74206960448201526a6e697469616c697a696e6760a81b6064820152608401610618565b611a52611a87565b60fb805460ff191660011790557f62e78cea01bee320cd4e420270b5ea74000d11b0c9f74754ebdbfc544b05a2586118083390565b60fb5460ff16156109a15760405162461bcd60e51b815260206004820152601060248201527f5061757361626c653a20706175736564000000000000000000000000000000006044820152606401610618565b6001600160a01b0381163b611b575760405162461bcd60e51b815260206004820152602d60248201527f455243313936373a206e657720696d706c656d656e746174696f6e206973206e60448201527f6f74206120636f6e7472616374000000000000000000000000000000000000006064820152608401610618565b7f360894a13ba1a3210667c828492db98dca3e2076cc3735a920a3ca505d382bbc805473ffffffffffffffffffffffffffffffffffffffff19166001600160a01b0392909216919091179055565b611bae83611db5565b600082511180611bbb5750805b1561160757611bca8383611df5565b50505050565b60fb5460ff166109a15760405162461bcd60e51b815260206004820152601460248201527f5061757361626c653a206e6f74207061757365640000000000000000000000006044820152606401610618565b600054610100900460ff16611c8d5760405162461bcd60e51b815260206004820152602b60248201527f496e697469616c697a61626c653a20636f6e7472616374206973206e6f74206960448201526a6e697469616c697a696e6760a81b6064820152608401610618565b61012d80546001600160a01b0393841673ffffffffffffffffffffffffffffffffffffffff199182161790915561012e8054929093169116179055565b600054610100900460ff16611d355760405162461bcd60e51b815260206004820152602b60248201527f496e697469616c697a61626c653a20636f6e7472616374206973206e6f74206960448201526a6e697469616c697a696e6760a81b6064820152608401610618565b6109a133611825565b600054610100900460ff16611da95760405162461bcd60e51b815260206004820152602b60248201527f496e697469616c697a61626c653a20636f6e7472616374206973206e6f74206960448201526a6e697469616c697a696e6760a81b6064820152608401610618565b60fb805460ff19169055565b611dbe81611ada565b6040516001600160a01b038216907fbc7cd75a20ee27fd9adebab32041f755214dbc6bffa90cc0225b39da2e5c2d3b90600090a250565b60606001600160a01b0383163b611e745760405162461bcd60e51b815260206004820152602660248201527f416464726573733a2064656c65676174652063616c6c20746f206e6f6e2d636f60448201527f6e747261637400000000000000000000000000000000000000000000000000006064820152608401610618565b600080846001600160a01b031684604051611e8f9190612397565b600060405180830381855af49150503d8060008114611eca576040519150601f19603f3d011682016040523d82523d6000602084013e611ecf565b606091505b5091509150611ef782826040518060600160405280602781526020016123e760279139611f00565b95945050505050565b60608315611f0f575081611f19565b611f198383611f20565b9392505050565b815115611f305781518083602001fd5b8060405162461bcd60e51b815260040161061891906123b3565b803561ffff811681146115c757600080fd5b600060208284031215611f6e57600080fd5b611f1982611f4a565b80356001600160a01b03811681146115c757600080fd5b634e487b7160e01b600052604160045260246000fd5b600082601f830112611fb557600080fd5b813567ffffffffffffffff80821115611fd057611fd0611f8e565b604051601f8301601f19908116603f01168101908282118183101715611ff857611ff8611f8e565b8160405283815286602085880101111561201157600080fd5b836020870160208301376000602085830101528094505050505092915050565b6000806000806080858703121561204757600080fd5b61205085611f77565b935061205e60208601611f77565b925060408501359150606085013567ffffffffffffffff81111561208157600080fd5b61208d87828801611fa4565b91505092959194509250565b6000602082840312156120ab57600080fd5b611f1982611f77565b600080604083850312156120c757600080fd5b6120d083611f77565b9150602083013567ffffffffffffffff8111156120ec57600080fd5b6120f885828601611fa4565b9150509250929050565b634e487b7160e01b600052602160045260246000fd5b6004811061213657634e487b7160e01b600052602160045260246000fd5b9052565b61ffff81511682526020810151602083015260408101516116076040840182612118565b6020808252825182820181905260009190848201906040850190845b818110156121a05761218d83855161213a565b928401926060929092019160010161217a565b50909695505050505050565b600080604083850312156121bf57600080fd5b6121c883611f77565b91506121d660208401611f4a565b90509250929050565b60608101610f83828461213a565b6000806040838503121561220057600080fd5b61220983611f77565b946020939093013593505050565b61ffff8416815260208101839052606081016107ec6040830184612118565b6000806040838503121561224957600080fd5b61225283611f4a565b915060208301356004811061226657600080fd5b809150509250929050565b634e487b7160e01b600052603260045260246000fd5b634e487b7160e01b600052601160045260246000fd5b80820180821115610f8357610f83612287565b6001600160a01b038516815261ffff841660208201526040810183905260808101611ef76060830184612118565b6000602082840312156122f057600080fd5b815160ff81168114611f1957600080fd5b600061ffff80831681810361231857612318612287565b6001019392505050565b60007fffffffffffffffffffffffffffffffffffffffffffffffffffffffffffffffff820361235357612353612287565b5060010190565b60006020828403121561236c57600080fd5b5051919050565b60005b8381101561238e578181015183820152602001612376565b50506000910152565b600082516123a9818460208701612373565b9190910192915050565b60208152600082518060208401526123d2816040850160208701612373565b601f01601f1916919091016040019291505056fe416464726573733a206c6f772d6c6576656c2064656c65676174652063616c6c206661696c6564a2646970667358221220fa83263b9b0e94c86100394ad32f1a5f100573637409cf4e70297f6d3db09ae264736f6c63430008110033",
  "linkReferences": {},
  "deployedLinkReferences": {}
}