{
  "_format": "hh-sol-artifact-1",
  "contractName": "L2NaffleAdmin",
  "sourceName": "contracts/naffle/zksync/L2NaffleAdmin.sol",
  "abi": [
    {
      "inputs": [],
      "name": "InsufficientFunds",
      "type": "error"
    },
    {
      "inputs": [
        {
          "internalType": "uint256",
          "name": "naffleId",
          "type": "uint256"
        }
      ],
      "name": "InvalidNaffleId",
      "type": "error"
    },
    {
      "inputs": [
        {
          "internalType": "enum NaffleTypes.NaffleStatus",
          "name": "status",
          "type": "uint8"
        }
      ],
      "name": "InvalidNaffleStatus",
      "type": "error"
    },
    {
      "inputs": [
        {
          "internalType": "enum NaffleTypes.NaffleType",
          "name": "naffleType",
          "type": "uint8"
        }
      ],
      "name": "InvalidNaffleType",
      "type": "error"
    },
    {
      "inputs": [
        {
          "internalType": "uint256",
          "name": "endTime",
          "type": "uint256"
        }
      ],
      "name": "NaffleNotEndedYet",
      "type": "error"
    },
    {
      "inputs": [],
      "name": "NaffleSoldOut",
      "type": "error"
    },
    {
      "inputs": [],
      "name": "NoTicketsBought",
      "type": "error"
    },
    {
      "inputs": [],
      "name": "NotAllowed",
      "type": "error"
    },
    {
      "inputs": [
        {
          "internalType": "uint256",
          "name": "amount",
          "type": "uint256"
        }
      ],
      "name": "NotEnoughFunds",
      "type": "error"
    },
    {
      "inputs": [
        {
          "internalType": "uint256",
          "name": "amount",
          "type": "uint256"
        }
      ],
      "name": "NotEnoughOpenEntryTicketSpots",
      "type": "error"
    },
    {
      "inputs": [
        {
          "internalType": "uint256",
          "name": "amount",
          "type": "uint256"
        }
      ],
      "name": "NotEnoughPaidTicketSpots",
      "type": "error"
    },
    {
      "inputs": [],
      "name": "OpenTicketRatioCannotBeZero",
      "type": "error"
    },
    {
      "inputs": [],
      "name": "Ownable__NotOwner",
      "type": "error"
    },
    {
      "inputs": [],
      "name": "Ownable__NotTransitiveOwner",
      "type": "error"
    },
    {
      "inputs": [],
      "name": "SafeOwnable__NotNomineeOwner",
      "type": "error"
    },
    {
      "inputs": [],
      "name": "UintUtils__InsufficientHexLength",
      "type": "error"
    },
    {
      "inputs": [],
      "name": "UnableToSendFunds",
      "type": "error"
    },
    {
      "anonymous": false,
      "inputs": [
        {
          "indexed": true,
          "internalType": "uint256",
          "name": "naffleId",
          "type": "uint256"
        },
        {
          "indexed": false,
          "internalType": "bytes32",
          "name": "messageHash",
          "type": "bytes32"
        }
      ],
      "name": "L2NaffleCancelled",
      "type": "event"
    },
    {
      "anonymous": false,
      "inputs": [
        {
          "indexed": false,
          "internalType": "uint256",
          "name": "naffleId",
          "type": "uint256"
        },
        {
          "indexed": true,
          "internalType": "address",
          "name": "owner",
          "type": "address"
        },
        {
          "indexed": true,
          "internalType": "address",
          "name": "ethTokenAddress",
          "type": "address"
        },
        {
          "indexed": false,
          "internalType": "uint256",
          "name": "nftId",
          "type": "uint256"
        },
        {
          "indexed": false,
          "internalType": "uint256",
          "name": "paidTicketSpots",
          "type": "uint256"
        },
        {
          "indexed": false,
          "internalType": "uint256",
          "name": "freeTicketSpots",
          "type": "uint256"
        },
        {
          "indexed": false,
          "internalType": "uint256",
          "name": "ticketPriceInWei",
          "type": "uint256"
        },
        {
          "indexed": false,
          "internalType": "uint256",
          "name": "endTime",
          "type": "uint256"
        },
        {
          "indexed": true,
          "internalType": "enum NaffleTypes.NaffleType",
          "name": "naffleType",
          "type": "uint8"
        },
        {
          "indexed": false,
          "internalType": "enum NaffleTypes.TokenContractType",
          "name": "tokenContractType",
          "type": "uint8"
        }
      ],
      "name": "L2NaffleCreated",
      "type": "event"
    },
    {
      "anonymous": false,
      "inputs": [
        {
          "indexed": true,
          "internalType": "uint256",
          "name": "naffleId",
          "type": "uint256"
        },
        {
          "indexed": false,
          "internalType": "address",
          "name": "winner",
          "type": "address"
        },
        {
          "indexed": false,
          "internalType": "bytes32",
          "name": "messageHash",
          "type": "bytes32"
        }
      ],
      "name": "L2NaffleFinished",
      "type": "event"
    },
    {
      "anonymous": false,
      "inputs": [
        {
          "indexed": true,
          "internalType": "uint256",
          "name": "naffleId",
          "type": "uint256"
        },
        {
          "indexed": true,
          "internalType": "address",
          "name": "owner",
          "type": "address"
        },
        {
          "indexed": false,
          "internalType": "uint256[]",
          "name": "ticketIds",
          "type": "uint256[]"
        }
      ],
      "name": "OpenEntryTicketsUsed",
      "type": "event"
    },
    {
      "anonymous": false,
      "inputs": [
        {
          "indexed": true,
          "internalType": "address",
          "name": "previousOwner",
          "type": "address"
        },
        {
          "indexed": true,
          "internalType": "address",
          "name": "newOwner",
          "type": "address"
        }
      ],
      "name": "OwnershipTransferred",
      "type": "event"
    },
    {
      "anonymous": false,
      "inputs": [
        {
          "indexed": true,
          "internalType": "bytes32",
          "name": "role",
          "type": "bytes32"
        },
        {
          "indexed": true,
          "internalType": "bytes32",
          "name": "previousAdminRole",
          "type": "bytes32"
        },
        {
          "indexed": true,
          "internalType": "bytes32",
          "name": "newAdminRole",
          "type": "bytes32"
        }
      ],
      "name": "RoleAdminChanged",
      "type": "event"
    },
    {
      "anonymous": false,
      "inputs": [
        {
          "indexed": true,
          "internalType": "bytes32",
          "name": "role",
          "type": "bytes32"
        },
        {
          "indexed": true,
          "internalType": "address",
          "name": "account",
          "type": "address"
        },
        {
          "indexed": true,
          "internalType": "address",
          "name": "sender",
          "type": "address"
        }
      ],
      "name": "RoleGranted",
      "type": "event"
    },
    {
      "anonymous": false,
      "inputs": [
        {
          "indexed": true,
          "internalType": "bytes32",
          "name": "role",
          "type": "bytes32"
        },
        {
          "indexed": true,
          "internalType": "address",
          "name": "account",
          "type": "address"
        },
        {
          "indexed": true,
          "internalType": "address",
          "name": "sender",
          "type": "address"
        }
      ],
      "name": "RoleRevoked",
      "type": "event"
    },
    {
      "anonymous": false,
      "inputs": [
        {
          "indexed": true,
          "internalType": "uint256",
          "name": "naffleId",
          "type": "uint256"
        },
        {
          "indexed": true,
          "internalType": "address",
          "name": "buyer",
          "type": "address"
        },
        {
          "indexed": false,
          "internalType": "uint256[]",
          "name": "ticketIds",
          "type": "uint256[]"
        },
        {
          "indexed": false,
          "internalType": "uint256",
          "name": "ticketPriceInWei",
          "type": "uint256"
        }
      ],
      "name": "TicketsBought",
      "type": "event"
    },
    {
      "inputs": [],
      "name": "acceptOwnership",
      "outputs": [],
      "stateMutability": "nonpayable",
      "type": "function"
    },
    {
      "inputs": [
        {
          "internalType": "uint256",
          "name": "_naffleId",
          "type": "uint256"
        }
      ],
      "name": "adminCancelNaffle",
      "outputs": [],
      "stateMutability": "nonpayable",
      "type": "function"
    },
    {
      "inputs": [
        {
          "internalType": "uint256",
          "name": "_naffleId",
          "type": "uint256"
        }
      ],
      "name": "adminDrawWinner",
      "outputs": [
        {
          "internalType": "bytes32",
          "name": "",
          "type": "bytes32"
        }
      ],
      "stateMutability": "nonpayable",
      "type": "function"
    },
    {
      "inputs": [
        {
          "internalType": "bytes32",
          "name": "role",
          "type": "bytes32"
        }
      ],
      "name": "getRoleAdmin",
      "outputs": [
        {
          "internalType": "bytes32",
          "name": "",
          "type": "bytes32"
        }
      ],
      "stateMutability": "view",
      "type": "function"
    },
    {
      "inputs": [
        {
          "internalType": "bytes32",
          "name": "role",
          "type": "bytes32"
        },
        {
          "internalType": "address",
          "name": "account",
          "type": "address"
        }
      ],
      "name": "grantRole",
      "outputs": [],
      "stateMutability": "nonpayable",
      "type": "function"
    },
    {
      "inputs": [
        {
          "internalType": "bytes32",
          "name": "role",
          "type": "bytes32"
        },
        {
          "internalType": "address",
          "name": "account",
          "type": "address"
        }
      ],
      "name": "hasRole",
      "outputs": [
        {
          "internalType": "bool",
          "name": "",
          "type": "bool"
        }
      ],
      "stateMutability": "view",
      "type": "function"
    },
    {
      "inputs": [],
      "name": "nomineeOwner",
      "outputs": [
        {
          "internalType": "address",
          "name": "",
          "type": "address"
        }
      ],
      "stateMutability": "view",
      "type": "function"
    },
    {
      "inputs": [],
      "name": "owner",
      "outputs": [
        {
          "internalType": "address",
          "name": "",
          "type": "address"
        }
      ],
      "stateMutability": "view",
      "type": "function"
    },
    {
      "inputs": [
        {
          "internalType": "bytes32",
          "name": "role",
          "type": "bytes32"
        }
      ],
      "name": "renounceRole",
      "outputs": [],
      "stateMutability": "nonpayable",
      "type": "function"
    },
    {
      "inputs": [
        {
          "internalType": "bytes32",
          "name": "role",
          "type": "bytes32"
        },
        {
          "internalType": "address",
          "name": "account",
          "type": "address"
        }
      ],
      "name": "revokeRole",
      "outputs": [],
      "stateMutability": "nonpayable",
      "type": "function"
    },
    {
      "inputs": [
        {
          "internalType": "address",
          "name": "_admin",
          "type": "address"
        }
      ],
      "name": "setAdmin",
      "outputs": [],
      "stateMutability": "nonpayable",
      "type": "function"
    },
    {
      "inputs": [
        {
          "internalType": "address",
          "name": "_l1MessengerContractAddress",
          "type": "address"
        }
      ],
      "name": "setL1MessengerContractAddress",
      "outputs": [],
      "stateMutability": "nonpayable",
      "type": "function"
    },
    {
      "inputs": [
        {
          "internalType": "address",
          "name": "_l1NaffleContractAddress",
          "type": "address"
        }
      ],
      "name": "setL1NaffleContractAddress",
      "outputs": [],
      "stateMutability": "nonpayable",
      "type": "function"
    },
    {
      "inputs": [
        {
          "internalType": "uint256",
          "name": "_freeTicketRatio",
          "type": "uint256"
        }
      ],
      "name": "setOpenEntryRatio",
      "outputs": [],
      "stateMutability": "nonpayable",
      "type": "function"
    },
    {
      "inputs": [
        {
          "internalType": "address",
          "name": "_openEntryTicketContractAddress",
          "type": "address"
        }
      ],
      "name": "setOpenEntryTicketContractAddress",
      "outputs": [],
      "stateMutability": "nonpayable",
      "type": "function"
    },
    {
      "inputs": [
        {
          "internalType": "address",
          "name": "_paidTicketContractAddress",
          "type": "address"
        }
      ],
      "name": "setPaidTicketContractAddress",
      "outputs": [],
      "stateMutability": "nonpayable",
      "type": "function"
    },
    {
      "inputs": [
        {
          "internalType": "uint256",
          "name": "_platformFee",
          "type": "uint256"
        }
      ],
      "name": "setPlatformFee",
      "outputs": [],
      "stateMutability": "nonpayable",
      "type": "function"
    },
    {
      "inputs": [
        {
          "internalType": "address",
          "name": "account",
          "type": "address"
        }
      ],
      "name": "transferOwnership",
      "outputs": [],
      "stateMutability": "nonpayable",
      "type": "function"
    },
    {
      "inputs": [
        {
          "internalType": "uint256",
          "name": "_amount",
          "type": "uint256"
        },
        {
          "internalType": "address",
          "name": "_to",
          "type": "address"
        }
      ],
      "name": "withdrawPlatformFees",
      "outputs": [],
      "stateMutability": "nonpayable",
      "type": "function"
    }
  ],
  "bytecode": "0x608060405234801561001057600080fd5b50611a4d806100206000396000f3fe608060405234801561001057600080fd5b50600436106101515760003560e01c806379ba5097116100cd57806391d1485411610081578063d547741f11610066578063d547741f146102a2578063ef9f261d146102b5578063f2fde38b146102c857600080fd5b806391d148541461026c578063d344f2471461028f57600080fd5b80638ab5150a116100b25780638ab5150a146102315780638bb9c5bf146102515780638da5cb5b1461026457600080fd5b806379ba50971461021657806384cdcf6a1461021e57600080fd5b80632f2ff15d11610124578063586acb2511610109578063586acb25146101dd57806368f890a3146101f0578063704b6c021461020357600080fd5b80632f2ff15d146101b75780634cd38d34146101ca57600080fd5b806312e8e2c3146101565780631e2c672e1461016b578063248a9ca31461017e5780632c75878b146101a4575b600080fd5b610169610164366004611771565b6102db565b005b61016961017936600461179f565b610312565b61019161018c366004611771565b610326565b6040519081526020015b60405180910390f35b6101916101b2366004611771565b61035e565b6101696101c53660046117bc565b61037a565b6101696101d8366004611771565b6103c3565b6101696101eb36600461179f565b6103d7565b6101696101fe36600461179f565b61042d565b61016961021136600461179f565b610483565b6101696104e3565b61016961022c3660046117bc565b61053f565b610239610554565b6040516001600160a01b03909116815260200161019b565b61016961025f366004611771565b610563565b61023961056c565b61027f61027a3660046117bc565b610576565b604051901515815260200161019b565b61016961029d36600461179f565b610582565b6101696102b03660046117bc565b6105d8565b6101696102c3366004611771565b61061c565b6101696102d636600461179f565b610630565b60006102e68161068b565b61030e827f02c0f6ea35402fd9c5779ec907d98e3386cbf20055e86ccc8f3265ae1f5065a355565b5050565b600061031d8161068b565b61030e82610695565b60008181527fd3889cc5458b268d0544e5534672df1296288ca3f93cbd39bd6f497a5c62281160205260408120600201545b92915050565b60008061036a8161068b565b610373836106e6565b9392505050565b60008281527fd3889cc5458b268d0544e5534672df1296288ca3f93cbd39bd6f497a5c62281160205260409020600201546103b48161068b565b6103be8383610747565b505050565b60006103ce8161068b565b61030e826107bb565b60006103e28161068b565b7f02c0f6ea35402fd9c5779ec907d98e3386cbf20055e86ccc8f3265ae1f50659f805473ffffffffffffffffffffffffffffffffffffffff19166001600160a01b0384161790555050565b60006104388161068b565b7f02c0f6ea35402fd9c5779ec907d98e3386cbf20055e86ccc8f3265ae1f5065a1805473ffffffffffffffffffffffffffffffffffffffff19166001600160a01b0384161790555050565b61048b610819565b6001600160a01b0316336001600160a01b0316146104d5576040517f2f7a8ee100000000000000000000000000000000000000000000000000000000815260040160405180910390fd5b6104e0600082610747565b50565b6104eb61084c565b6001600160a01b0316336001600160a01b031614610535576040517fefd1052d00000000000000000000000000000000000000000000000000000000815260040160405180910390fd5b61053d610874565b565b600061054a8161068b565b6103be83836108bb565b600061055e61084c565b905090565b6104e0816109de565b600061055e610819565b600061037383836109e8565b600061058d8161068b565b7f02c0f6ea35402fd9c5779ec907d98e3386cbf20055e86ccc8f3265ae1f5065a0805473ffffffffffffffffffffffffffffffffffffffff19166001600160a01b0384161790555050565b60008281527fd3889cc5458b268d0544e5534672df1296288ca3f93cbd39bd6f497a5c62281160205260409020600201546106128161068b565b6103be8383610a1f565b60006106278161068b565b6103be82610a93565b610638610819565b6001600160a01b0316336001600160a01b031614610682576040517f2f7a8ee100000000000000000000000000000000000000000000000000000000815260040160405180910390fd5b6104e081610b36565b6104e08133610b3f565b807f02c0f6ea35402fd9c5779ec907d98e3386cbf20055e86ccc8f3265ae1f50659e5b805473ffffffffffffffffffffffffffffffffffffffff19166001600160a01b039290921691909117905550565b60008181527f02c0f6ea35402fd9c5779ec907d98e3386cbf20055e86ccc8f3265ae1f5065a4602052604081207f02c0f6ea35402fd9c5779ec907d98e3386cbf20055e86ccc8f3265ae1f50659e9061073f8185610bbb565b949350505050565b60008281527fd3889cc5458b268d0544e5534672df1296288ca3f93cbd39bd6f497a5c6228116020526040902061077e9082611115565b5060405133906001600160a01b0383169084907f2f8788117e7eff1d82e926ec794901d17c78024a50270940304540a733656f0d90600090a45050565b806000036107f5576040517ff4f6b20500000000000000000000000000000000000000000000000000000000815260040160405180910390fd5b7f02c0f6ea35402fd9c5779ec907d98e3386cbf20055e86ccc8f3265ae1f5065a255565b60007f8a22373512790c48b83a1fe2efdd2888d4a917bcdc24d0adf63e60f6716804605b546001600160a01b0316919050565b60007f24aa1f7b31fd188a8d3ecfb06bc55c806040e59b03bd4396283442fce661789061083d565b61087d3361112a565b7f24aa1f7b31fd188a8d3ecfb06bc55c806040e59b03bd4396283442fce6617890805473ffffffffffffffffffffffffffffffffffffffff19169055565b7f02c0f6ea35402fd9c5779ec907d98e3386cbf20055e86ccc8f3265ae1f5065a5547f02c0f6ea35402fd9c5779ec907d98e3386cbf20055e86ccc8f3265ae1f50659e90831115610938576040517f356680b700000000000000000000000000000000000000000000000000000000815260040160405180910390fd5b8281600701546109489190611802565b60078201556040516000906001600160a01b0384169085908381818185875af1925050503d8060008114610998576040519150601f19603f3d011682016040523d82523d6000602084013e61099d565b606091505b50509050806109d8576040517fa7777a3d00000000000000000000000000000000000000000000000000000000815260040160405180910390fd5b50505050565b6104e08133610a1f565b60008281527fd3889cc5458b268d0544e5534672df1296288ca3f93cbd39bd6f497a5c6228116020526040812061037390836111b1565b60008281527fd3889cc5458b268d0544e5534672df1296288ca3f93cbd39bd6f497a5c62281160205260409020610a5690826111d3565b5060405133906001600160a01b0383169084907ff6391f5c32d9c69d2a47ea670b442974b53935d1edc7fd64eb21e047a839171b90600090a45050565b60008181527f02c0f6ea35402fd9c5779ec907d98e3386cbf20055e86ccc8f3265ae1f5065a46020526040812080547f02c0f6ea35402fd9c5779ec907d98e3386cbf20055e86ccc8f3265ae1f50659e91906001600160a01b0316610b2c576040517f15cce733000000000000000000000000000000000000000000000000000000008152600481018590526024015b60405180910390fd5b61073f81836111e8565b6104e0816113bb565b610b4982826109e8565b61030e57610b5f816001600160a01b03166113e2565b610b6a8360206113f4565b604051602001610b7b929190611839565b60408051601f19818403018152908290527f08c379a0000000000000000000000000000000000000000000000000000000008252610b23916004016118e6565b81546000907f02c0f6ea35402fd9c5779ec907d98e3386cbf20055e86ccc8f3265ae1f50659e906001600160a01b0316610c24576040517f15cce73300000000000000000000000000000000000000000000000000000000815260048101849052602401610b23565b6000600b850154610100900460ff166004811115610c4457610c446118f9565b14158015610c7057506001600b850154610100900460ff166004811115610c6d57610c6d6118f9565b14155b15610cb557600b8401546040517ff4eee894000000000000000000000000000000000000000000000000000000008152610b2391610100900460ff169060040161190f565b4284600901541115610cfb5783600901546040517f4bfdc848000000000000000000000000000000000000000000000000000000008152600401610b2391815260200190565b83600701548460060154610d0f9190611937565b600003610d48576040517fd10cc50f00000000000000000000000000000000000000000000000000000000815260040160405180910390fd5b6000610d6685600701548660060154610d619190611937565b6115ed565b9050600085600601548211610e2257600b8601805460ff19166002908117909155600a87018390558301546040517f6b9dc11a00000000000000000000000000000000000000000000000000000000815260048101879052602481018490526001600160a01b0390911690636b9dc11a90604401602060405180830381865afa158015610df7573d6000803e3d6000fd5b505050506040513d601f19601f82011682018060405250810190610e1b919061194a565b9050610ed8565b600b8601805460ff191660011790556006860154610e409083611802565b600a870181905560038401546040517f6b9dc11a0000000000000000000000000000000000000000000000000000000081526004810188905260248101929092526001600160a01b031690636b9dc11a90604401602060405180830381865afa158015610eb1573d6000803e3d6000fd5b505050506040513d601f19601f82011682018060405250810190610ed5919061194a565b90505b600b8601805461ff00191661040017905560068601546008870154600091610eff91611967565b90506000612710856005015483610f169190611967565b610f209190611994565b90506000610f2e8284611802565b905060008885604051602001610f8d92919060608082526009908201527f73657457696e6e65720000000000000000000000000000000000000000000000608082015260208101929092526001600160a01b0316604082015260a00190565b60408051601f198184030181529082905260018901547f62f84b240000000000000000000000000000000000000000000000000000000083529092506001600160a01b0316906362f84b2490610fe79084906004016118e6565b6020604051808303816000875af1158015611006573d6000803e3d6000fd5b505050506040513d601f19601f8201168201806040525081019061102a91906119a8565b975082876007015461103c9190611937565b6007880155604051600090339084908381818185875af1925050503d8060008114611083576040519150601f19603f3d011682016040523d82523d6000602084013e611088565b606091505b50509050806110c3576040517fa7777a3d00000000000000000000000000000000000000000000000000000000815260040160405180910390fd5b604080516001600160a01b0388168152602081018b90528b917f920aec71830aeb4c44e75ad66f2ac2abb9fe7b190e725394b108d2edd7be0e3e910160405180910390a2505050505050505092915050565b6000610373836001600160a01b038416611669565b7f8a22373512790c48b83a1fe2efdd2888d4a917bcdc24d0adf63e60f67168046080546040516001600160a01b038481169216907f8be0079c531659141344cd1fd0a4f28419497f9722a3daafe3b4186f6b6457e090600090a3805473ffffffffffffffffffffffffffffffffffffffff19166001600160a01b0392909216919091179055565b6001600160a01b03811660009081526001830160205260408120541515610373565b6000610373836001600160a01b0384166116ac565b600080600b840154610100900460ff166004811115611209576112096118f9565b1415801561123557506001600b840154610100900460ff166004811115611232576112326118f9565b14155b1561127a57600b8301546040517ff4eee894000000000000000000000000000000000000000000000000000000008152610b2391610100900460ff169060040161190f565b600b8301805461020061ff001990911617905560028301546040805160208101829052600660608201527f63616e63656c000000000000000000000000000000000000000000000000000060808201529081019190915260009060a00160408051601f198184030181529082905260018501547f62f84b240000000000000000000000000000000000000000000000000000000083529092506001600160a01b0316906362f84b24906113319084906004016118e6565b6020604051808303816000875af1158015611350573d6000803e3d6000fd5b505050506040513d601f19601f8201168201806040525081019061137491906119a8565b915083600201547f3651136a95955357cd04f86fd827e949f3dd8285073eeb90807f6b6dfcf5fce2836040516113ac91815260200190565b60405180910390a25092915050565b807f24aa1f7b31fd188a8d3ecfb06bc55c806040e59b03bd4396283442fce66178906106b8565b60606103586001600160a01b03831660145b60606000611403836002611967565b61140e906002611937565b67ffffffffffffffff811115611426576114266119c1565b6040519080825280601f01601f191660200182016040528015611450576020820181803683370190505b5090507f300000000000000000000000000000000000000000000000000000000000000081600081518110611487576114876119d7565b60200101907effffffffffffffffffffffffffffffffffffffffffffffffffffffffffffff1916908160001a9053507f7800000000000000000000000000000000000000000000000000000000000000816001815181106114ea576114ea6119d7565b60200101907effffffffffffffffffffffffffffffffffffffffffffffffffffffffffffff1916908160001a905350600160028402015b60018111156115b4577f303132333435363738396162636465660000000000000000000000000000000085600f166010811061155f5761155f6119d7565b1a60f81b828281518110611575576115756119d7565b60200101907effffffffffffffffffffffffffffffffffffffffffffffffffffffffffffff1916908160001a90535060049490941c9360001901611521565b508315610373576040517fc913478500000000000000000000000000000000000000000000000000000000815260040160405180910390fd5b600081326115fc600143611802565b60405160609290921b7fffffffffffffffffffffffffffffffffffffffff0000000000000000000000001660208301524060348201524260548201526074016040516020818303038152906040528051906020012060001c61165e91906119ed565b610358906001611937565b6000818152600183016020526040812054610358575081546001808201845560008481526020808220909301849055845493815293810190915260409092205590565b6000818152600183016020526040812054801561176a578354600090859060001981019081106116de576116de6119d7565b9060005260206000200154905080856000016001840381548110611704576117046119d7565b600091825260208083209091019290925591825260018601905260409020819055835484908061173657611736611a01565b6001900381819060005260206000200160009055905583600101600084815260200190815260200160002060009055600191505b5092915050565b60006020828403121561178357600080fd5b5035919050565b6001600160a01b03811681146104e057600080fd5b6000602082840312156117b157600080fd5b81356103738161178a565b600080604083850312156117cf57600080fd5b8235915060208301356117e18161178a565b809150509250929050565b634e487b7160e01b600052601160045260246000fd5b81810381811115610358576103586117ec565b60005b83811015611830578181015183820152602001611818565b50506000910152565b7f416363657373436f6e74726f6c3a206163636f756e7420000000000000000000815260008351611871816017850160208801611815565b7f206973206d697373696e6720726f6c652000000000000000000000000000000060179184019182015283516118ae816028840160208801611815565b01602801949350505050565b600081518084526118d2816020860160208601611815565b601f01601f19169290920160200192915050565b60208152600061037360208301846118ba565b634e487b7160e01b600052602160045260246000fd5b602081016005831061193157634e487b7160e01b600052602160045260246000fd5b91905290565b80820180821115610358576103586117ec565b60006020828403121561195c57600080fd5b81516103738161178a565b8082028115828204841417610358576103586117ec565b634e487b7160e01b600052601260045260246000fd5b6000826119a3576119a361197e565b500490565b6000602082840312156119ba57600080fd5b5051919050565b634e487b7160e01b600052604160045260246000fd5b634e487b7160e01b600052603260045260246000fd5b6000826119fc576119fc61197e565b500690565b634e487b7160e01b600052603160045260246000fdfea2646970667358221220d78dad3d539a2c7afc3ba1d1ea6655ddd74903069bd753f8288bcbfeedb03cb664736f6c63430008110033",
  "linkReferences": {},
  "deployedLinkReferences": {}
}