{
  "_format": "hh-sol-artifact-1",
  "contractName": "OmnipotentNFT",
  "sourceName": "contracts/OmnipotentNFT.sol",
  "abi": [
    {
      "inputs": [
        {
          "internalType": "uint16",
          "name": "_maxSupply",
          "type": "uint16"
        },
        {
          "internalType": "uint16",
          "name": "_reservedTokens",
          "type": "uint16"
        },
        {
          "internalType": "uint16",
          "name": "_maxPerWallet",
          "type": "uint16"
        },
        {
          "internalType": "address",
          "name": "_internalMintAddress",
          "type": "address"
        },
        {
          "internalType": "uint256",
          "name": "_publicMintStartTime",
          "type": "uint256"
        }
      ],
      "stateMutability": "nonpayable",
      "type": "constructor"
    },
    {
      "inputs": [],
      "name": "ApprovalCallerNotOwnerNorApproved",
      "type": "error"
    },
    {
      "inputs": [],
      "name": "ApprovalQueryForNonexistentToken",
      "type": "error"
    },
    {
      "inputs": [],
      "name": "ApproveToCaller",
      "type": "error"
    },
    {
      "inputs": [],
      "name": "BalanceQueryForZeroAddress",
      "type": "error"
    },
    {
      "inputs": [
        {
          "internalType": "uint16",
          "name": "maxPerWallet",
          "type": "uint16"
        }
      ],
      "name": "ExceedingMaxTokensPerWallet",
      "type": "error"
    },
    {
      "inputs": [
        {
          "internalType": "uint16",
          "name": "whitelistAllowance",
          "type": "uint16"
        }
      ],
      "name": "ExceedingWhitelistAllowance",
      "type": "error"
    },
    {
      "inputs": [
        {
          "internalType": "uint256",
          "name": "funds",
          "type": "uint256"
        },
        {
          "internalType": "uint256",
          "name": "cost",
          "type": "uint256"
        }
      ],
      "name": "InsufficientFunds",
      "type": "error"
    },
    {
      "inputs": [
        {
          "internalType": "uint256",
          "name": "maxSupply",
          "type": "uint256"
        }
      ],
      "name": "InsufficientSupplyAvailable",
      "type": "error"
    },
    {
      "inputs": [
        {
          "internalType": "uint8",
          "name": "whitelistId",
          "type": "uint8"
        }
      ],
      "name": "InvalidWhitelistId",
      "type": "error"
    },
    {
      "inputs": [],
      "name": "InvalidWhitelistTime",
      "type": "error"
    },
    {
      "inputs": [],
      "name": "MintERC2309QuantityExceedsLimit",
      "type": "error"
    },
    {
      "inputs": [],
      "name": "MintToZeroAddress",
      "type": "error"
    },
    {
      "inputs": [],
      "name": "MintZeroQuantity",
      "type": "error"
    },
    {
      "inputs": [],
      "name": "NotWhitelisted",
      "type": "error"
    },
    {
      "inputs": [],
      "name": "OwnerQueryForNonexistentToken",
      "type": "error"
    },
    {
      "inputs": [],
      "name": "OwnershipNotInitializedForExtraData",
      "type": "error"
    },
    {
      "inputs": [],
      "name": "SaleNotActive",
      "type": "error"
    },
    {
      "inputs": [],
      "name": "TransferCallerNotOwnerNorApproved",
      "type": "error"
    },
    {
      "inputs": [],
      "name": "TransferFromIncorrectOwner",
      "type": "error"
    },
    {
      "inputs": [],
      "name": "TransferToNonERC721ReceiverImplementer",
      "type": "error"
    },
    {
      "inputs": [],
      "name": "TransferToZeroAddress",
      "type": "error"
    },
    {
      "inputs": [],
      "name": "URIQueryForNonexistentToken",
      "type": "error"
    },
    {
      "inputs": [
        {
          "internalType": "uint256",
          "name": "cashChange",
          "type": "uint256"
        }
      ],
      "name": "UnableToSendChange",
      "type": "error"
    },
    {
      "inputs": [
        {
          "internalType": "uint256",
          "name": "amount",
          "type": "uint256"
        }
      ],
      "name": "UnableToWithdraw",
      "type": "error"
    },
    {
      "anonymous": false,
      "inputs": [
        {
          "indexed": true,
          "internalType": "address",
          "name": "owner",
          "type": "address"
        },
        {
          "indexed": true,
          "internalType": "address",
          "name": "approved",
          "type": "address"
        },
        {
          "indexed": true,
          "internalType": "uint256",
          "name": "tokenId",
          "type": "uint256"
        }
      ],
      "name": "Approval",
      "type": "event"
    },
    {
      "anonymous": false,
      "inputs": [
        {
          "indexed": true,
          "internalType": "address",
          "name": "owner",
          "type": "address"
        },
        {
          "indexed": true,
          "internalType": "address",
          "name": "operator",
          "type": "address"
        },
        {
          "indexed": false,
          "internalType": "bool",
          "name": "approved",
          "type": "bool"
        }
      ],
      "name": "ApprovalForAll",
      "type": "event"
    },
    {
      "anonymous": false,
      "inputs": [
        {
          "indexed": true,
          "internalType": "uint256",
          "name": "fromTokenId",
          "type": "uint256"
        },
        {
          "indexed": false,
          "internalType": "uint256",
          "name": "toTokenId",
          "type": "uint256"
        },
        {
          "indexed": true,
          "internalType": "address",
          "name": "from",
          "type": "address"
        },
        {
          "indexed": true,
          "internalType": "address",
          "name": "to",
          "type": "address"
        }
      ],
      "name": "ConsecutiveTransfer",
      "type": "event"
    },
    {
      "anonymous": false,
      "inputs": [
        {
          "indexed": true,
          "internalType": "bytes32",
          "name": "role",
          "type": "bytes32"
        },
        {
          "indexed": true,
          "internalType": "bytes32",
          "name": "previousAdminRole",
          "type": "bytes32"
        },
        {
          "indexed": true,
          "internalType": "bytes32",
          "name": "newAdminRole",
          "type": "bytes32"
        }
      ],
      "name": "RoleAdminChanged",
      "type": "event"
    },
    {
      "anonymous": false,
      "inputs": [
        {
          "indexed": true,
          "internalType": "bytes32",
          "name": "role",
          "type": "bytes32"
        },
        {
          "indexed": true,
          "internalType": "address",
          "name": "account",
          "type": "address"
        },
        {
          "indexed": true,
          "internalType": "address",
          "name": "sender",
          "type": "address"
        }
      ],
      "name": "RoleGranted",
      "type": "event"
    },
    {
      "anonymous": false,
      "inputs": [
        {
          "indexed": true,
          "internalType": "bytes32",
          "name": "role",
          "type": "bytes32"
        },
        {
          "indexed": true,
          "internalType": "address",
          "name": "account",
          "type": "address"
        },
        {
          "indexed": true,
          "internalType": "address",
          "name": "sender",
          "type": "address"
        }
      ],
      "name": "RoleRevoked",
      "type": "event"
    },
    {
      "anonymous": false,
      "inputs": [
        {
          "indexed": true,
          "internalType": "address",
          "name": "from",
          "type": "address"
        },
        {
          "indexed": true,
          "internalType": "address",
          "name": "to",
          "type": "address"
        },
        {
          "indexed": true,
          "internalType": "uint256",
          "name": "tokenId",
          "type": "uint256"
        }
      ],
      "name": "Transfer",
      "type": "event"
    },
    {
      "inputs": [],
      "name": "DEFAULT_ADMIN_ROLE",
      "outputs": [
        {
          "internalType": "bytes32",
          "name": "",
          "type": "bytes32"
        }
      ],
      "stateMutability": "view",
      "type": "function"
    },
    {
      "inputs": [],
      "name": "WITHDRAW_ROLE",
      "outputs": [
        {
          "internalType": "bytes32",
          "name": "",
          "type": "bytes32"
        }
      ],
      "stateMutability": "view",
      "type": "function"
    },
    {
      "inputs": [
        {
          "internalType": "address",
          "name": "",
          "type": "address"
        }
      ],
      "name": "addressMintCount",
      "outputs": [
        {
          "internalType": "uint16",
          "name": "",
          "type": "uint16"
        }
      ],
      "stateMutability": "view",
      "type": "function"
    },
    {
      "inputs": [
        {
          "internalType": "address",
          "name": "to",
          "type": "address"
        },
        {
          "internalType": "uint256",
          "name": "tokenId",
          "type": "uint256"
        }
      ],
      "name": "approve",
      "outputs": [],
      "stateMutability": "nonpayable",
      "type": "function"
    },
    {
      "inputs": [
        {
          "internalType": "address",
          "name": "owner",
          "type": "address"
        }
      ],
      "name": "balanceOf",
      "outputs": [
        {
          "internalType": "uint256",
          "name": "",
          "type": "uint256"
        }
      ],
      "stateMutability": "view",
      "type": "function"
    },
    {
      "inputs": [],
      "name": "baseURI",
      "outputs": [
        {
          "internalType": "string",
          "name": "",
          "type": "string"
        }
      ],
      "stateMutability": "view",
      "type": "function"
    },
    {
      "inputs": [
        {
          "internalType": "bytes32",
          "name": "_root",
          "type": "bytes32"
        },
        {
          "internalType": "uint8",
          "name": "_whitelist_id",
          "type": "uint8"
        },
        {
          "internalType": "uint256",
          "name": "_startTime",
          "type": "uint256"
        },
        {
          "internalType": "uint256",
          "name": "_endTime",
          "type": "uint256"
        }
      ],
      "name": "createWhitelist",
      "outputs": [],
      "stateMutability": "nonpayable",
      "type": "function"
    },
    {
      "inputs": [
        {
          "internalType": "uint32",
          "name": "tokenId",
          "type": "uint32"
        }
      ],
      "name": "exists",
      "outputs": [
        {
          "internalType": "bool",
          "name": "",
          "type": "bool"
        }
      ],
      "stateMutability": "view",
      "type": "function"
    },
    {
      "inputs": [
        {
          "internalType": "uint256",
          "name": "tokenId",
          "type": "uint256"
        }
      ],
      "name": "getApproved",
      "outputs": [
        {
          "internalType": "address",
          "name": "",
          "type": "address"
        }
      ],
      "stateMutability": "view",
      "type": "function"
    },
    {
      "inputs": [
        {
          "internalType": "bytes32",
          "name": "role",
          "type": "bytes32"
        }
      ],
      "name": "getRoleAdmin",
      "outputs": [
        {
          "internalType": "bytes32",
          "name": "",
          "type": "bytes32"
        }
      ],
      "stateMutability": "view",
      "type": "function"
    },
    {
      "inputs": [
        {
          "internalType": "bytes32",
          "name": "role",
          "type": "bytes32"
        },
        {
          "internalType": "address",
          "name": "account",
          "type": "address"
        }
      ],
      "name": "grantRole",
      "outputs": [],
      "stateMutability": "nonpayable",
      "type": "function"
    },
    {
      "inputs": [
        {
          "internalType": "bytes32",
          "name": "role",
          "type": "bytes32"
        },
        {
          "internalType": "address",
          "name": "account",
          "type": "address"
        }
      ],
      "name": "hasRole",
      "outputs": [
        {
          "internalType": "bool",
          "name": "",
          "type": "bool"
        }
      ],
      "stateMutability": "view",
      "type": "function"
    },
    {
      "inputs": [
        {
          "internalType": "address",
          "name": "owner",
          "type": "address"
        },
        {
          "internalType": "address",
          "name": "operator",
          "type": "address"
        }
      ],
      "name": "isApprovedForAll",
      "outputs": [
        {
          "internalType": "bool",
          "name": "",
          "type": "bool"
        }
      ],
      "stateMutability": "view",
      "type": "function"
    },
    {
      "inputs": [],
      "name": "maxPerWallet",
      "outputs": [
        {
          "internalType": "uint16",
          "name": "",
          "type": "uint16"
        }
      ],
      "stateMutability": "view",
      "type": "function"
    },
    {
      "inputs": [],
      "name": "maxSupply",
      "outputs": [
        {
          "internalType": "uint16",
          "name": "",
          "type": "uint16"
        }
      ],
      "stateMutability": "view",
      "type": "function"
    },
    {
      "inputs": [
        {
          "components": [
            {
              "internalType": "uint8",
              "name": "whitelist_id",
              "type": "uint8"
            },
            {
              "internalType": "bytes32[]",
              "name": "proof",
              "type": "bytes32[]"
            }
          ],
          "internalType": "struct OmnipotentNFT.WhitelistProof",
          "name": "_proof",
          "type": "tuple"
        }
      ],
      "name": "mint",
      "outputs": [],
      "stateMutability": "payable",
      "type": "function"
    },
    {
      "inputs": [],
      "name": "mintPrice",
      "outputs": [
        {
          "internalType": "uint256",
          "name": "",
          "type": "uint256"
        }
      ],
      "stateMutability": "view",
      "type": "function"
    },
    {
      "inputs": [],
      "name": "name",
      "outputs": [
        {
          "internalType": "string",
          "name": "",
          "type": "string"
        }
      ],
      "stateMutability": "view",
      "type": "function"
    },
    {
      "inputs": [
        {
          "internalType": "uint256",
          "name": "tokenId",
          "type": "uint256"
        }
      ],
      "name": "ownerOf",
      "outputs": [
        {
          "internalType": "address",
          "name": "",
          "type": "address"
        }
      ],
      "stateMutability": "view",
      "type": "function"
    },
    {
      "inputs": [],
      "name": "publicMintStartTime",
      "outputs": [
        {
          "internalType": "uint256",
          "name": "",
          "type": "uint256"
        }
      ],
      "stateMutability": "view",
      "type": "function"
    },
    {
      "inputs": [
        {
          "internalType": "uint8",
          "name": "_id",
          "type": "uint8"
        }
      ],
      "name": "removeWhitelist",
      "outputs": [],
      "stateMutability": "nonpayable",
      "type": "function"
    },
    {
      "inputs": [
        {
          "internalType": "bytes32",
          "name": "role",
          "type": "bytes32"
        },
        {
          "internalType": "address",
          "name": "account",
          "type": "address"
        }
      ],
      "name": "renounceRole",
      "outputs": [],
      "stateMutability": "nonpayable",
      "type": "function"
    },
    {
      "inputs": [],
      "name": "reservedTokens",
      "outputs": [
        {
          "internalType": "uint16",
          "name": "",
          "type": "uint16"
        }
      ],
      "stateMutability": "view",
      "type": "function"
    },
    {
      "inputs": [
        {
          "internalType": "bytes32",
          "name": "role",
          "type": "bytes32"
        },
        {
          "internalType": "address",
          "name": "account",
          "type": "address"
        }
      ],
      "name": "revokeRole",
      "outputs": [],
      "stateMutability": "nonpayable",
      "type": "function"
    },
    {
      "inputs": [
        {
          "internalType": "address",
          "name": "from",
          "type": "address"
        },
        {
          "internalType": "address",
          "name": "to",
          "type": "address"
        },
        {
          "internalType": "uint256",
          "name": "tokenId",
          "type": "uint256"
        }
      ],
      "name": "safeTransferFrom",
      "outputs": [],
      "stateMutability": "nonpayable",
      "type": "function"
    },
    {
      "inputs": [
        {
          "internalType": "address",
          "name": "from",
          "type": "address"
        },
        {
          "internalType": "address",
          "name": "to",
          "type": "address"
        },
        {
          "internalType": "uint256",
          "name": "tokenId",
          "type": "uint256"
        },
        {
          "internalType": "bytes",
          "name": "_data",
          "type": "bytes"
        }
      ],
      "name": "safeTransferFrom",
      "outputs": [],
      "stateMutability": "nonpayable",
      "type": "function"
    },
    {
      "inputs": [
        {
          "internalType": "address",
          "name": "operator",
          "type": "address"
        },
        {
          "internalType": "bool",
          "name": "approved",
          "type": "bool"
        }
      ],
      "name": "setApprovalForAll",
      "outputs": [],
      "stateMutability": "nonpayable",
      "type": "function"
    },
    {
      "inputs": [
        {
          "internalType": "string",
          "name": "newBaseURI",
          "type": "string"
        }
      ],
      "name": "setBaseURI",
      "outputs": [],
      "stateMutability": "nonpayable",
      "type": "function"
    },
    {
      "inputs": [
        {
          "internalType": "bytes4",
          "name": "_interfaceId",
          "type": "bytes4"
        }
      ],
      "name": "supportsInterface",
      "outputs": [
        {
          "internalType": "bool",
          "name": "",
          "type": "bool"
        }
      ],
      "stateMutability": "view",
      "type": "function"
    },
    {
      "inputs": [],
      "name": "symbol",
      "outputs": [
        {
          "internalType": "string",
          "name": "",
          "type": "string"
        }
      ],
      "stateMutability": "view",
      "type": "function"
    },
    {
      "inputs": [
        {
          "internalType": "uint256",
          "name": "tokenId",
          "type": "uint256"
        }
      ],
      "name": "tokenURI",
      "outputs": [
        {
          "internalType": "string",
          "name": "",
          "type": "string"
        }
      ],
      "stateMutability": "view",
      "type": "function"
    },
    {
      "inputs": [],
      "name": "totalSupply",
      "outputs": [
        {
          "internalType": "uint256",
          "name": "",
          "type": "uint256"
        }
      ],
      "stateMutability": "view",
      "type": "function"
    },
    {
      "inputs": [
        {
          "internalType": "address",
          "name": "from",
          "type": "address"
        },
        {
          "internalType": "address",
          "name": "to",
          "type": "address"
        },
        {
          "internalType": "uint256",
          "name": "tokenId",
          "type": "uint256"
        }
      ],
      "name": "transferFrom",
      "outputs": [],
      "stateMutability": "nonpayable",
      "type": "function"
    },
    {
      "inputs": [],
      "name": "waitlist_id",
      "outputs": [
        {
          "internalType": "uint8",
          "name": "",
          "type": "uint8"
        }
      ],
      "stateMutability": "view",
      "type": "function"
    },
    {
      "inputs": [
        {
          "internalType": "address",
          "name": "",
          "type": "address"
        }
      ],
      "name": "whitelistMinted",
      "outputs": [
        {
          "internalType": "bool",
          "name": "",
          "type": "bool"
        }
      ],
      "stateMutability": "view",
      "type": "function"
    },
    {
      "inputs": [],
      "name": "whitelist_id",
      "outputs": [
        {
          "internalType": "uint8",
          "name": "",
          "type": "uint8"
        }
      ],
      "stateMutability": "view",
      "type": "function"
    },
    {
      "inputs": [
        {
          "internalType": "uint8",
          "name": "",
          "type": "uint8"
        }
      ],
      "name": "whitelists",
      "outputs": [
        {
          "internalType": "bytes32",
          "name": "root",
          "type": "bytes32"
        },
        {
          "internalType": "uint256",
          "name": "startTime",
          "type": "uint256"
        },
        {
          "internalType": "uint256",
          "name": "endTime",
          "type": "uint256"
        }
      ],
      "stateMutability": "view",
      "type": "function"
    },
    {
      "inputs": [],
      "name": "withdraw",
      "outputs": [],
      "stateMutability": "nonpayable",
      "type": "function"
    }
  ],
  "bytecode": "0x60806040526001600a60006101000a81548160ff021916908360ff1602179055506002600a60016101000a81548160ff021916908360ff16021790555060405180602001604052806000815250600d908051906020019062000063929190620009b3565b503480156200007157600080fd5b5060405162005b5638038062005b56833981810160405281019062000097919062000b47565b6040518060400160405280601581526020017f4e6166666c6573204f6d6e69706f74656e744e465400000000000000000000008152506040518060400160405280600481526020017f4e464c530000000000000000000000000000000000000000000000000000000081525081600290805190602001906200011b929190620009b3565b50806003908051906020019062000134929190620009b3565b50620001456200052760201b60201c565b60008190555050506001600981905550620001897f8a376d5257efeb4052134fd36513bac392e9c841500ed5d1a4814a94507ca63b60001b620005cc60201b60201c565b620001bd7f2b97773ac167a56ffa899f0eaba832d9f4969729138fef7b81bec6ccb47a27f160001b620005cc60201b60201c565b620001f17f262f341e2fdffc5a242051242f47ca6f1c2701af78bdf59768a1138f737cbdd760001b620005cc60201b60201c565b620002066000801b33620005cf60201b60201c565b6200023a7f0fb19a4917979c208326e32736a89f09f045f200d69b1f93d320429bcade1e3560001b620005cc60201b60201c565b6200026e7f69a9cd8b7de21543322ed9c881a0fa5eab4f59c31003468f233b70c3bd679f8660001b620005cc60201b60201c565b620002a07f5d8e12c39142ff96d79d04d15d1ba1269e4fe57bb9d26f43523628b34ba108ec33620005cf60201b60201c565b620002d47ffc1123c79a9e0835f4249bbdec71d020aefb2a375cf274959818f51bd5d6f18660001b620005cc60201b60201c565b620003087f3df21755224aa1c5a75b41dff769ff2cf63f6fc60432569b483fa4f40fd3d46e60001b620005cc60201b60201c565b84600a60026101000a81548161ffff021916908361ffff160217905550620003597fb1413b83496a8a7fb1586de2fab3165db67eacd18249f337ce3d6f44afb3bd5060001b620005cc60201b60201c565b6200038d7f0453eb23964eccd08671da70997790f50012816b2f1242aa2a4f8c1381b45b8b60001b620005cc60201b60201c565b83600a60046101000a81548161ffff021916908361ffff160217905550620003de7f7424a1b36f1a3d9d135552902960e1a948f0fea1bbc9bf22c49bb8bbc2f0e2ca60001b620005cc60201b60201c565b620004127f9ffbc6def702cf1ae9cf9f8997fec98fd90da4ab1da38f4a638e69ab0ebb05b760001b620005cc60201b60201c565b80600c819055506200044d7f1272bb74897f67442880c5917c8f500ca6310da8a5ebca8e980a66774cda023960001b620005cc60201b60201c565b620004817fede72c1ae7311fa0065012d83199357c136d9f4ab11ebb8be46a73257dca9c2e60001b620005cc60201b60201c565b82600a60066101000a81548161ffff021916908361ffff160217905550620004d27fd1ef1c1de58cc0f7eead2dc501ead8947da0cfd3eb5430a0f59b2b99bfaaa4c860001b620005cc60201b60201c565b620005067fa79d39a165c8a87087dae29177389950ba02529883886880c1ac2dc8466cefb760001b620005cc60201b60201c565b6200051c828561ffff16620005e560201b60201c565b505050505062000c34565b60006200055d7fcf01fdb684eb8d8b5ca8b260850bf79456cf9a678574cc881094760fce5f2e7060001b620005cc60201b60201c565b620005917f3b5baeb57601390e14984d09ea2e9d5889dc431ed11b1b7dd837e1ca89deb85860001b620005cc60201b60201c565b620005c57fb24887989465027c9de30c5c634a93abbe191b5f8eddcfa9d240801d942d295f60001b620005cc60201b60201c565b6001905090565b50565b620005e18282620007ce60201b60201c565b5050565b600080549050600082141562000627576040517fb562e8dd00000000000000000000000000000000000000000000000000000000815260040160405180910390fd5b6200063c6000848385620008c060201b60201c565b600160406001901b178202600560008573ffffffffffffffffffffffffffffffffffffffff1673ffffffffffffffffffffffffffffffffffffffff16815260200190815260200160002060008282540192505081905550620006cb83620006ad6000866000620008c660201b60201c565b620006be85620008f660201b60201c565b176200090660201b60201c565b6004600083815260200190815260200160002081905550600080838301905073ffffffffffffffffffffffffffffffffffffffff85169150828260007fddf252ad1be2c89b69c2b068fc378daa952ba7f163c4a11628f55a4df523b3ef600080a4600183015b8181146200076e57808360007fddf252ad1be2c89b69c2b068fc378daa952ba7f163c4a11628f55a4df523b3ef600080a460018101905062000731565b506000821415620007ab576040517f2e07630000000000000000000000000000000000000000000000000000000000815260040160405180910390fd5b806000819055505050620007c960008483856200093160201b60201c565b505050565b620007e082826200093760201b60201c565b620008bc5760016008600084815260200190815260200160002060000160008373ffffffffffffffffffffffffffffffffffffffff1673ffffffffffffffffffffffffffffffffffffffff16815260200190815260200160002060006101000a81548160ff02191690831515021790555062000861620009a260201b60201c565b73ffffffffffffffffffffffffffffffffffffffff168173ffffffffffffffffffffffffffffffffffffffff16837f2f8788117e7eff1d82e926ec794901d17c78024a50270940304540a733656f0d60405160405180910390a45b5050565b50505050565b60008060e883901c905060e8620008e5868684620009aa60201b60201c565b62ffffff16901b9150509392505050565b60006001821460e11b9050919050565b600073ffffffffffffffffffffffffffffffffffffffff83169250814260a01b178317905092915050565b50505050565b60006008600084815260200190815260200160002060000160008373ffffffffffffffffffffffffffffffffffffffff1673ffffffffffffffffffffffffffffffffffffffff16815260200190815260200160002060009054906101000a900460ff16905092915050565b600033905090565b60009392505050565b828054620009c19062000bfe565b90600052602060002090601f016020900481019282620009e5576000855562000a31565b82601f1062000a0057805160ff191683800117855562000a31565b8280016001018555821562000a31579182015b8281111562000a3057825182559160200191906001019062000a13565b5b50905062000a40919062000a44565b5090565b5b8082111562000a5f57600081600090555060010162000a45565b5090565b600080fd5b600061ffff82169050919050565b62000a818162000a68565b811462000a8d57600080fd5b50565b60008151905062000aa18162000a76565b92915050565b600073ffffffffffffffffffffffffffffffffffffffff82169050919050565b600062000ad48262000aa7565b9050919050565b62000ae68162000ac7565b811462000af257600080fd5b50565b60008151905062000b068162000adb565b92915050565b6000819050919050565b62000b218162000b0c565b811462000b2d57600080fd5b50565b60008151905062000b418162000b16565b92915050565b600080600080600060a0868803121562000b665762000b6562000a63565b5b600062000b768882890162000a90565b955050602062000b898882890162000a90565b945050604062000b9c8882890162000a90565b935050606062000baf8882890162000af5565b925050608062000bc28882890162000b30565b9150509295509295909350565b7f4e487b7100000000000000000000000000000000000000000000000000000000600052602260045260246000fd5b6000600282049050600182168062000c1757607f821691505b6020821081141562000c2e5762000c2d62000bcf565b5b50919050565b614f128062000c446000396000f3fe6080604052600436106102255760003560e01c80636817c76c11610123578063b88d4fde116100ab578063d547741f1161006f578063d547741f14610848578063d5abeb0114610871578063da9993151461089c578063e02023a1146108c5578063e985e9c5146108f057610225565b8063b88d4fde14610770578063c02e471914610799578063c87b56dd146107c4578063cd0a613014610801578063d3cf00a31461081d57610225565b806391d14854116100f257806391d148541461067757806395d89b41146106b457806398a8cffe146106df578063a217fddf1461071c578063a22cb4651461074757610225565b80636817c76c146105a557806369497b9d146105d05780636c0360eb1461060f57806370a082311461063a57610225565b806323b872dd116101b157806342842e0e1161017557806342842e0e146104c0578063453c2310146104e95780635545e2b91461051457806355f804b31461053f5780636352211e1461056857610225565b806323b872dd146103f1578063248a9ca31461041a5780632f2ff15d1461045757806336568abe146104805780633ccfd60b146104a957610225565b80630a40ec08116101f85780630a40ec08146102f857806313c369ed1461032157806315a553471461035e57806318160ddd146103895780631ba4f67d146103b457610225565b806301ffc9a71461022a57806306fdde0314610267578063081812fc14610292578063095ea7b3146102cf575b600080fd5b34801561023657600080fd5b50610251600480360381019061024c9190613d22565b61092d565b60405161025e9190613d6a565b60405180910390f35b34801561027357600080fd5b5061027c6109d3565b6040516102899190613e1e565b60405180910390f35b34801561029e57600080fd5b506102b960048036038101906102b49190613e76565b610a65565b6040516102c69190613ee4565b60405180910390f35b3480156102db57600080fd5b506102f660048036038101906102f19190613f2b565b610ae4565b005b34801561030457600080fd5b5061031f600480360381019061031a9190613fa4565b610c28565b005b34801561032d57600080fd5b506103486004803603810190610343919061400d565b610cc5565b6040516103559190613d6a565b60405180910390f35b34801561036a57600080fd5b50610373610d61565b6040516103809190614057565b60405180910390f35b34801561039557600080fd5b5061039e610d75565b6040516103ab9190614081565b60405180910390f35b3480156103c057600080fd5b506103db60048036038101906103d6919061409c565b610d8c565b6040516103e89190614057565b60405180910390f35b3480156103fd57600080fd5b50610418600480360381019061041391906140c9565b610dad565b005b34801561042657600080fd5b50610441600480360381019061043c9190614152565b6110d2565b60405161044e919061418e565b60405180910390f35b34801561046357600080fd5b5061047e600480360381019061047991906141a9565b6110f2565b005b34801561048c57600080fd5b506104a760048036038101906104a291906141a9565b611113565b005b3480156104b557600080fd5b506104be611196565b005b3480156104cc57600080fd5b506104e760048036038101906104e291906140c9565b6113d2565b005b3480156104f557600080fd5b506104fe6113f2565b60405161050b9190614057565b60405180910390f35b34801561052057600080fd5b50610529611406565b60405161053691906141f8565b60405180910390f35b34801561054b57600080fd5b5061056660048036038101906105619190614348565b611419565b005b34801561057457600080fd5b5061058f600480360381019061058a9190613e76565b6114c5565b60405161059c9190613ee4565b60405180910390f35b3480156105b157600080fd5b506105ba6114d7565b6040516105c79190614081565b60405180910390f35b3480156105dc57600080fd5b506105f760048036038101906105f29190613fa4565b6114dd565b60405161060693929190614391565b60405180910390f35b34801561061b57600080fd5b50610624611507565b6040516106319190613e1e565b60405180910390f35b34801561064657600080fd5b50610661600480360381019061065c919061409c565b611595565b60405161066e9190614081565b60405180910390f35b34801561068357600080fd5b5061069e600480360381019061069991906141a9565b61164e565b6040516106ab9190613d6a565b60405180910390f35b3480156106c057600080fd5b506106c96116b9565b6040516106d69190613e1e565b60405180910390f35b3480156106eb57600080fd5b506107066004803603810190610701919061409c565b61174b565b6040516107139190613d6a565b60405180910390f35b34801561072857600080fd5b5061073161176b565b60405161073e919061418e565b60405180910390f35b34801561075357600080fd5b5061076e600480360381019061076991906143f4565b611772565b005b34801561077c57600080fd5b50610797600480360381019061079291906144d5565b6118ea565b005b3480156107a557600080fd5b506107ae61195d565b6040516107bb91906141f8565b60405180910390f35b3480156107d057600080fd5b506107eb60048036038101906107e69190613e76565b611970565b6040516107f89190613e1e565b60405180910390f35b61081b6004803603810190610816919061457c565b611b70565b005b34801561082957600080fd5b506108326121cf565b60405161083f9190614081565b60405180910390f35b34801561085457600080fd5b5061086f600480360381019061086a91906141a9565b6121d5565b005b34801561087d57600080fd5b506108866121f6565b6040516108939190614057565b60405180910390f35b3480156108a857600080fd5b506108c360048036038101906108be91906145c5565b61220a565b005b3480156108d157600080fd5b506108da612580565b6040516108e7919061418e565b60405180910390f35b3480156108fc57600080fd5b506109176004803603810190610912919061462c565b6125a4565b6040516109249190613d6a565b60405180910390f35b600061095b7f80471aacce7dea5bbb3726642f4bb8dc85ade0b44dbf0048954927dea4cdae3d60001b612638565b6109877f49b052ee6ce03f6827f3815250a51e01234b8872bfd8b2de6d7deefb7ca8c05960001b612638565b6109b37f5778ecf26b988a8bcb9f486ad1d1ac1b43e282ed3d3de91bea1952682b780b2860001b612638565b6109bc8261263b565b806109cc57506109cb826126cd565b5b9050919050565b6060600280546109e29061469b565b80601f0160208091040260200160405190810160405280929190818152602001828054610a0e9061469b565b8015610a5b5780601f10610a3057610100808354040283529160200191610a5b565b820191906000526020600020905b815481529060010190602001808311610a3e57829003601f168201915b5050505050905090565b6000610a7082612747565b610aa6576040517fcf4700e400000000000000000000000000000000000000000000000000000000815260040160405180910390fd5b6006600083815260200190815260200160002060000160009054906101000a900473ffffffffffffffffffffffffffffffffffffffff169050919050565b6000610aef826114c5565b90508073ffffffffffffffffffffffffffffffffffffffff16610b106127a6565b73ffffffffffffffffffffffffffffffffffffffff1614610b7357610b3c81610b376127a6565b6125a4565b610b72576040517fcfb3b94200000000000000000000000000000000000000000000000000000000815260040160405180910390fd5b5b826006600084815260200190815260200160002060000160006101000a81548173ffffffffffffffffffffffffffffffffffffffff021916908373ffffffffffffffffffffffffffffffffffffffff160217905550818373ffffffffffffffffffffffffffffffffffffffff168273ffffffffffffffffffffffffffffffffffffffff167f8c5be1e5ebec7d5bd14f71427d1e84f3dd0314c0f7b2291e5b200ac8c7c3b92560405160405180910390a4505050565b6000801b610c35816127ae565b610c617fcc94a0272840a8ec16a927fcc57ad6fbcca0a0c07f825dd81d215e9e4afefc1b60001b612638565b610c8d7fa187b21bddc8437467a16a8d78a3df745f8573489db0335e6f28da3abdcd9d8f60001b612638565b600e60008360ff1660ff1681526020019081526020016000206000808201600090556001820160009055600282016000905550505050565b6000610cf37f624fa81658f3dc451466932dc2eddbe07efb6f5bc4289ab2473be2484795b8fe60001b612638565b610d1f7f217b2167b6bfe467c784169c46ec1d6b332c2fa92b97109b657ed9518b309bb560001b612638565b610d4b7f7be0ccfe88ef0022720f66aa17fbc122035e3358ea3d9eaa2f6a32ac2d18659660001b612638565b610d5a8263ffffffff16612747565b9050919050565b600a60049054906101000a900461ffff1681565b6000610d7f6127c2565b6001546000540303905090565b600f6020528060005260406000206000915054906101000a900461ffff1681565b6000610db88261284f565b90508373ffffffffffffffffffffffffffffffffffffffff168173ffffffffffffffffffffffffffffffffffffffff1614610e1f576040517fa114810000000000000000000000000000000000000000000000000000000000815260040160405180910390fd5b600080610e2b8461291d565b91509150610e418187610e3c6127a6565b612944565b610e8d57610e5686610e516127a6565b6125a4565b610e8c576040517f59c896be00000000000000000000000000000000000000000000000000000000815260040160405180910390fd5b5b600073ffffffffffffffffffffffffffffffffffffffff168573ffffffffffffffffffffffffffffffffffffffff161415610ef4576040517fea553b3400000000000000000000000000000000000000000000000000000000815260040160405180910390fd5b610f018686866001612988565b8015610f0c57600082555b600560008773ffffffffffffffffffffffffffffffffffffffff1673ffffffffffffffffffffffffffffffffffffffff168152602001908152602001600020600081546001900391905081905550600560008673ffffffffffffffffffffffffffffffffffffffff1673ffffffffffffffffffffffffffffffffffffffff1681526020019081526020016000206000815460010191905081905550610fda85610fb688888761298e565b7c0200000000000000000000000000000000000000000000000000000000176129b6565b600460008681526020019081526020016000208190555060007c02000000000000000000000000000000000000000000000000000000008416141561106257600060018501905060006004600083815260200190815260200160002054141561106057600054811461105f578360046000838152602001908152602001600020819055505b5b505b838573ffffffffffffffffffffffffffffffffffffffff168773ffffffffffffffffffffffffffffffffffffffff167fddf252ad1be2c89b69c2b068fc378daa952ba7f163c4a11628f55a4df523b3ef60405160405180910390a46110ca86868660016129e1565b505050505050565b600060086000838152602001908152602001600020600101549050919050565b6110fb826110d2565b611104816127ae565b61110e83836129e7565b505050565b61111b612ac8565b73ffffffffffffffffffffffffffffffffffffffff168173ffffffffffffffffffffffffffffffffffffffff1614611188576040517f08c379a000000000000000000000000000000000000000000000000000000000815260040161117f9061473f565b60405180910390fd5b6111928282612ad0565b5050565b7f5d8e12c39142ff96d79d04d15d1ba1269e4fe57bb9d26f43523628b34ba108ec6111c0816127ae565b6111ec7fe92b5efaf5417ff71388dcfffb6474318b2ca8d3f9ce4419e6d3a3f98fd8e18c60001b612638565b6112187f4ed3f0e91ec89c2851691b5587c5be97b4e4dcdad5c9d6a4bb6ac67c5a365c3b60001b612638565b6112447fc455926f8b722bebbb2415c38f6b90d12f8bb40fd812412db9fbfe9a785afbf360001b612638565b60003373ffffffffffffffffffffffffffffffffffffffff164760405161126a90614790565b60006040518083038185875af1925050503d80600081146112a7576040519150601f19603f3d011682016040523d82523d6000602084013e6112ac565b606091505b505090506112dc7f114f30a1de9329ab97f1e888c3ea9b3df12ab8c700ffa04b9421f6004f90216860001b612638565b6113087fdabd1d0b83c9d86e6afbe40decd93e752cfe6050b5ef5f67f9562610efa7b65360001b612638565b806113a2576113397f3d41003aa9393cd5d9dc021c231549e32d170c901598f7f1208feaa032efae0360001b612638565b6113657f42aecfe269c19332a4623d84ae2fbaa49b59b35e7325eff883ad80c839f57de660001b612638565b476040517fcccc3cc00000000000000000000000000000000000000000000000000000000081526004016113999190614081565b60405180910390fd5b6113ce7f35b2e92d599acd0ec836f152134f8ea66586632450e704684aa05ba8e4ce5ffc60001b612638565b5050565b6113ed838383604051806020016040528060008152506118ea565b505050565b600a60069054906101000a900461ffff1681565b600a60019054906101000a900460ff1681565b6000801b611426816127ae565b6114527f63e54b686ab02e33bf59bc2c6e847a2b528b7537083a61fd6a15452f8deee78960001b612638565b61147e7fff982f8af1efe2cb23556ae0ae8c0c46333a284a81fad63fb7cd5ff80f27bc9d60001b612638565b6114aa7f496758914661476f719419dcd7fdf6fce22a9416f7896b45aa6463a71744c34d60001b612638565b81600d90805190602001906114c0929190613c13565b505050565b60006114d08261284f565b9050919050565b600b5481565b600e6020528060005260406000206000915090508060000154908060010154908060020154905083565b600d80546115149061469b565b80601f01602080910402602001604051908101604052809291908181526020018280546115409061469b565b801561158d5780601f106115625761010080835404028352916020019161158d565b820191906000526020600020905b81548152906001019060200180831161157057829003601f168201915b505050505081565b60008073ffffffffffffffffffffffffffffffffffffffff168273ffffffffffffffffffffffffffffffffffffffff1614156115fd576040517f8f4eb60400000000000000000000000000000000000000000000000000000000815260040160405180910390fd5b67ffffffffffffffff600560008473ffffffffffffffffffffffffffffffffffffffff1673ffffffffffffffffffffffffffffffffffffffff16815260200190815260200160002054169050919050565b60006008600084815260200190815260200160002060000160008373ffffffffffffffffffffffffffffffffffffffff1673ffffffffffffffffffffffffffffffffffffffff16815260200190815260200160002060009054906101000a900460ff16905092915050565b6060600380546116c89061469b565b80601f01602080910402602001604051908101604052809291908181526020018280546116f49061469b565b80156117415780601f1061171657610100808354040283529160200191611741565b820191906000526020600020905b81548152906001019060200180831161172457829003601f168201915b5050505050905090565b60106020528060005260406000206000915054906101000a900460ff1681565b6000801b81565b61177a6127a6565b73ffffffffffffffffffffffffffffffffffffffff168273ffffffffffffffffffffffffffffffffffffffff1614156117df576040517fb06307db00000000000000000000000000000000000000000000000000000000815260040160405180910390fd5b80600760006117ec6127a6565b73ffffffffffffffffffffffffffffffffffffffff1673ffffffffffffffffffffffffffffffffffffffff16815260200190815260200160002060008473ffffffffffffffffffffffffffffffffffffffff1673ffffffffffffffffffffffffffffffffffffffff16815260200190815260200160002060006101000a81548160ff0219169083151502179055508173ffffffffffffffffffffffffffffffffffffffff166118996127a6565b73ffffffffffffffffffffffffffffffffffffffff167f17307eab39ab6107e8899845ad3d59bd9653f200f220920489ca2b5937696c31836040516118de9190613d6a565b60405180910390a35050565b6118f5848484610dad565b60008373ffffffffffffffffffffffffffffffffffffffff163b146119575761192084848484612bb2565b611956576040517fd1a57ed600000000000000000000000000000000000000000000000000000000815260040160405180910390fd5b5b50505050565b600a60009054906101000a900460ff1681565b606061199e7fa96d6cc4f63013ca3fe231a190a09e95af9976f62f2501b1424df99590882ed360001b612638565b6119ca7ffdd7d9505f6c746282d71021d11c0f2c3edc45cecf2163fa3bc781482561b8b560001b612638565b6119f67f8fc65d0e48d37b1013c193c038844c5547ef001144e09b0ebc33f2e5f9a294f060001b612638565b6119ff82612747565b611a8d57611a2f7f5ed955090deaafd3489dba8f82ea579ccddce14e4c468b082a81df10ed325c6260001b612638565b611a5b7f2e8ae30f6c8ab50374f75ae5f9388873f5677efdd8fbe4ae39880b5a6cd53fed60001b612638565b6040517fa14c4b5000000000000000000000000000000000000000000000000000000000815260040160405180910390fd5b611ab97fcde855c6ff6d640441640586c0e09b4098dbe7a20f862d06a558e6ae577c91e960001b612638565b611ae57f983a4e3705c42746245cff5137526ee3de81990f9b972ad936779a9d38f48cbf60001b612638565b611b117fc1583042cd994b6fa9de64b2d59bc9e495f5241cd037359f120bcb986587919a60001b612638565b6000600d8054611b209061469b565b90501415611b3d5760405180602001604052806000815250611b69565b600d611b4883612d12565b604051602001611b599291906148c1565b6040516020818303038152906040525b9050919050565b60026009541415611bb6576040517f08c379a0000000000000000000000000000000000000000000000000000000008152600401611bad9061493c565b60405180910390fd5b6002600981905550611bea7fcaf327ad3716ea05ab19ba34ce1b9664a355e7ed89601f8e91ae8d76439e71cc60001b612638565b611c167f038d8099c35028495ab7d9bfbf610f53af8bdf5b8810e8639c42c5cbb9cf9a5f60001b612638565b611c427f361252acf28ba807af009d2c4c8fe377f5c5416823689a20add52ad272d1f09b60001b612638565b600a60029054906101000a900461ffff1661ffff16611c5f612d62565b1415611d0a57611c917f62b8c6713aed912ba8382c0d35969368752ee62d7d3161a5e817798f9a0c754160001b612638565b611cbd7f0612bc86f3c0fcd2094e236e89a78036d99749f92847c378d4431e117eb4886160001b612638565b600a60029054906101000a900461ffff166040517ffbe6adbe000000000000000000000000000000000000000000000000000000008152600401611d019190614997565b60405180910390fd5b611d367f603f6d944285324f4d8218418afdf36658e0cdd3be68ed34204f130144b96f2c60001b612638565b611d627f205c2e1956bfcdce800e6597ddf1a61ea68f52ffa2af1cf7d5439f62742e421a60001b612638565b611d8e7f73a304e70f5067bd0172ba15ab8a9e9aa0f6ee277ad2f460cd98ab270a79a0e460001b612638565b600a60069054906101000a900461ffff1661ffff166001611dae33612d75565b611db891906149e1565b10611e6257611de97f050d8396b226f8fe422177ca88f85ae077c7bcd816e31964f735c99027804fa460001b612638565b611e157f586705ddb84b7cb30bfca86381c90c2ba94658689ea42b87a7d616a67aaf771760001b612638565b600a60069054906101000a900461ffff166040517ff84923d7000000000000000000000000000000000000000000000000000000008152600401611e599190614057565b60405180910390fd5b611e8e7f78fe59a452ac970f2009dbc2c0399f8d0d4817b26c0aa903cfce2f0937f138c860001b612638565b611eba7fda1135088761798d35d6850a9b20aca0d3200ff0b73d375856ce1d70818ec24a60001b612638565b611ee67fba5dd209a9871b769c3f096736603abc0b141516eb51b6131b36cc89636c6fd660001b612638565b6000600e6000836000016020810190611eff9190613fa4565b60ff1660ff16815260200190815260200160002060405180606001604052908160008201548152602001600182015481526020016002820154815250509050611f6a7ff89972820483b629c7eebc35331a9f36e85f1e9749114c50282a6dd6dee160e760001b612638565b611f967f86e380b3d9fb396305c0ae1d52156b5d5bc11648378399ebc902644392898d7f60001b612638565b80602001514210158015611fae575080604001514211155b1561204a57611fdf7f93fd980082c2f24c9f1e5453fc38d80fc66a72a1cb068dfe0cfade85457a2c8a60001b612638565b61200b7f85aa011275c3e9e54e0e0b62d8fdc22ec7c108d0393d67727a3ab2072da85cf060001b612638565b6120377f01fc5fa67e71f1c7ba236994f474e7c584004983137685a5fc06c7d299bca70960001b612638565b612045828260000151612dcc565b612163565b6120767f59cdc7ed262d9394f88446f979436a436fd4bc051cbc05ab3271792d6f99cb6260001b612638565b6120a27f02292e3ebc4422b09c940762e6473b8848a0de2e11817a3e18cf5a55992fc2d960001b612638565b600c54421015612136576120d87f98979276a1f3d4d389e55feea658ceb72137c8f097524d56f0e613d1681e69e160001b612638565b6121047fa488a6516c6799a6c9dbbff8c1438fd3f40d4cf0b13e6277dde0f929bf60f17a60001b612638565b6040517fb7b2409700000000000000000000000000000000000000000000000000000000815260040160405180910390fd5b6121627fdc4cc1a39543e921e0cc0d717a4845effdb9c9ad08e8f49f6a6455f7eca63c3360001b612638565b5b61218f7fed616fbdbc56b3a854401e171b7eabafbf2d52e4053375aae1c9f289d394280560001b612638565b6121bb7f0fe0b7d73bcbfdf2c0bec234661570719d45ea45f0fb6c198fc0c6a1a0cc7c4960001b612638565b6121c36131aa565b50600160098190555050565b600c5481565b6121de826110d2565b6121e7816127ae565b6121f18383612ad0565b505050565b600a60029054906101000a900461ffff1681565b6000801b612217816127ae565b6122437fbe41536ea197ce3f13bccd9da875d71f961add0064b89a555039adc96458985a60001b612638565b61226f7f335aac7070600b830ec1165e3bb7b211be0ac0952a4caabe8e699b9006ffe60b60001b612638565b61229b7f1ad15b6fa949f0cfd57ed2c19bec64c059eeb047550d0fe59698529e838d699b60001b612638565b600a60009054906101000a900460ff1660ff168460ff16141580156122d55750600a60019054906101000a900460ff1660ff168460ff1614155b1561236f576123067f27cf61c8383723c23cb182624b17964f9a98964cf4bacfb3c70e8700a93e203060001b612638565b6123327fd2201cceed3de5fc78b6d78a00c2512b839b839e86b2dc5b4013ff19286145e860001b612638565b836040517fb4f0b83d00000000000000000000000000000000000000000000000000000000815260040161236691906141f8565b60405180910390fd5b61239b7f4f3d7bbc0316a23fe29f80f3ba4e2270698e2348872940ed1b8529cd74cb3f5360001b612638565b6123c77f3c6b441812695df41c51e7d648c01738a0955971a214124912063326992b574460001b612638565b6123f37f4329bc64b3b180a4277046bd40c68498aaa87ce3fc873bf67048390e19affcc360001b612638565b600c54831015806124065750600c548210155b806124115750818311155b156124a0576124427fa4d8a45a5b6f0b6d7e30014731787b3ab2e8800d7b6ce00f9735c31212a8087f60001b612638565b61246e7f9ba7dad77712050d914d8312d2d94b5689660658728a5ae9e2ab35614566970460001b612638565b6040517fe731bf9400000000000000000000000000000000000000000000000000000000815260040160405180910390fd5b6124cc7f5b558afcab3a3a815b8695bd29b187e6361ce5563948c0a2fffeef2bddc163e860001b612638565b6124f87f0ee62381d61d94eb244d39fd86b26b61157c4718add407619a0aedaabe05470960001b612638565b6125247f629d3ef345c9a6855c08d99650aea38e2d785423e68a7cac4c01b0916e19206360001b612638565b604051806060016040528086815260200184815260200183815250600e60008660ff1660ff1681526020019081526020016000206000820151816000015560208201518160010155604082015181600201559050505050505050565b7f5d8e12c39142ff96d79d04d15d1ba1269e4fe57bb9d26f43523628b34ba108ec81565b6000600760008473ffffffffffffffffffffffffffffffffffffffff1673ffffffffffffffffffffffffffffffffffffffff16815260200190815260200160002060008373ffffffffffffffffffffffffffffffffffffffff1673ffffffffffffffffffffffffffffffffffffffff16815260200190815260200160002060009054906101000a900460ff16905092915050565b50565b60006301ffc9a760e01b827bffffffffffffffffffffffffffffffffffffffffffffffffffffffff1916148061269657506380ac58cd60e01b827bffffffffffffffffffffffffffffffffffffffffffffffffffffffff1916145b806126c65750635b5e139f60e01b827bffffffffffffffffffffffffffffffffffffffffffffffffffffffff1916145b9050919050565b60007f7965db0b000000000000000000000000000000000000000000000000000000007bffffffffffffffffffffffffffffffffffffffffffffffffffffffff1916827bffffffffffffffffffffffffffffffffffffffffffffffffffffffff19161480612740575061273f8261364b565b5b9050919050565b6000816127526127c2565b11158015612761575060005482105b801561279f575060007c0100000000000000000000000000000000000000000000000000000000600460008581526020019081526020016000205416145b9050919050565b600033905090565b6127bf816127ba612ac8565b6136b5565b50565b60006127f07fcf01fdb684eb8d8b5ca8b260850bf79456cf9a678574cc881094760fce5f2e7060001b612638565b61281c7f3b5baeb57601390e14984d09ea2e9d5889dc431ed11b1b7dd837e1ca89deb85860001b612638565b6128487fb24887989465027c9de30c5c634a93abbe191b5f8eddcfa9d240801d942d295f60001b612638565b6001905090565b6000808290508061285e6127c2565b116128e6576000548110156128e55760006004600083815260200190815260200160002054905060007c0100000000000000000000000000000000000000000000000000000000821614156128e3575b60008114156128d95760046000836001900393508381526020019081526020016000205490506128ae565b8092505050612918565b505b5b6040517fdf2d9b4200000000000000000000000000000000000000000000000000000000815260040160405180910390fd5b919050565b60008060006006600085815260200190815260200160002090508092508254915050915091565b600073ffffffffffffffffffffffffffffffffffffffff8316925073ffffffffffffffffffffffffffffffffffffffff821691508382148383141790509392505050565b50505050565b60008060e883901c905060e86129a5868684613752565b62ffffff16901b9150509392505050565b600073ffffffffffffffffffffffffffffffffffffffff83169250814260a01b178317905092915050565b50505050565b6129f1828261164e565b612ac45760016008600084815260200190815260200160002060000160008373ffffffffffffffffffffffffffffffffffffffff1673ffffffffffffffffffffffffffffffffffffffff16815260200190815260200160002060006101000a81548160ff021916908315150217905550612a69612ac8565b73ffffffffffffffffffffffffffffffffffffffff168173ffffffffffffffffffffffffffffffffffffffff16837f2f8788117e7eff1d82e926ec794901d17c78024a50270940304540a733656f0d60405160405180910390a45b5050565b600033905090565b612ada828261164e565b15612bae5760006008600084815260200190815260200160002060000160008373ffffffffffffffffffffffffffffffffffffffff1673ffffffffffffffffffffffffffffffffffffffff16815260200190815260200160002060006101000a81548160ff021916908315150217905550612b53612ac8565b73ffffffffffffffffffffffffffffffffffffffff168173ffffffffffffffffffffffffffffffffffffffff16837ff6391f5c32d9c69d2a47ea670b442974b53935d1edc7fd64eb21e047a839171b60405160405180910390a45b5050565b60008373ffffffffffffffffffffffffffffffffffffffff1663150b7a02612bd86127a6565b8786866040518563ffffffff1660e01b8152600401612bfa9493929190614a8c565b602060405180830381600087803b158015612c1457600080fd5b505af1925050508015612c4557506040513d601f19601f82011682018060405250810190612c429190614aed565b60015b612cbf573d8060008114612c75576040519150601f19603f3d011682016040523d82523d6000602084013e612c7a565b606091505b50600081511415612cb7576040517fd1a57ed600000000000000000000000000000000000000000000000000000000815260040160405180910390fd5b805181602001fd5b63150b7a0260e01b7bffffffffffffffffffffffffffffffffffffffffffffffffffffffff1916817bffffffffffffffffffffffffffffffffffffffffffffffffffffffff191614915050949350505050565b606060806040510190508060405280825b600115612d4e57600183039250600a81066030018353600a8104905080612d4957612d4e565b612d23565b508181036020830392508083525050919050565b6000612d6c6127c2565b60005403905090565b600067ffffffffffffffff6040600560008573ffffffffffffffffffffffffffffffffffffffff1673ffffffffffffffffffffffffffffffffffffffff16815260200190815260200160002054901c169050919050565b612df87fe675d8a320a332667a30fa7b2e6a22d629c9d8355bb0f90e78d66e974122453160001b612638565b612e247f0f6348d555e054ebfe33f9f5d81b9daf937fe9047040d10453b065829e4028d660001b612638565b612e507f9d7230a089d8b236d06d29fd84bf66565b23f27397322da98a23fa24fdb7156060001b612638565b612ed0828060200190612e639190614b29565b80806020026020016040519081016040528093929190818152602001838360200280828437600081840152601f19601f820116905080830192505050505050508233604051602001612eb59190614bd4565b6040516020818303038152906040528051906020012061375b565b612f5e57612f007f3fc61a8b02738bf90f3c8c05fc6b9b37c807a988cb3f575c5d14d03b958fe87460001b612638565b612f2c7f04a6b5a770be70d0e0f0d01a772b1be50490e8d384822d388e94ebd85b82fa0060001b612638565b6040517f584a793800000000000000000000000000000000000000000000000000000000815260040160405180910390fd5b612f8a7fb712dfca6fecef1d29be42e97eef80154eea4f8719a1762e68a6a9d4c84b37ee60001b612638565b612fb67fdb28c0e30855cb29dec0a5b8fc532e5c778ddad72ed22d78c03fb9851b6dfab460001b612638565b612fe27f37dec9e006226ee1c1f3fd9af2435167749682b2c70fcbdc6a600bbec34e17ef60001b612638565b601060003373ffffffffffffffffffffffffffffffffffffffff1673ffffffffffffffffffffffffffffffffffffffff16815260200190815260200160002060009054906101000a900460ff16156130ca576130607fe0a8bdb55bdaa267758a22f3cb96d725461067cfbf4b48102a278fddfd0742f760001b612638565b61308c7fc52059a5c720cbbb1dc0c4372a40996947357ff9b63423fe4c672b206426970160001b612638565b60016040517fc63f43070000000000000000000000000000000000000000000000000000000081526004016130c19190614c2a565b60405180910390fd5b6130f67ff73c04fd612f0e20984492b5c182c2ae5f724de084c9511571d0c0131945fdae60001b612638565b6131227f3ec7b0ba70bb334a288c036a481602638e0a002f290c73738464db3c81300fdf60001b612638565b61314e7fb47b6bdd61c68aeafeed5aed1a3c346b7d52da891bd5214a77446bdb5f34277b60001b612638565b6001601060003373ffffffffffffffffffffffffffffffffffffffff1673ffffffffffffffffffffffffffffffffffffffff16815260200190815260200160002060006101000a81548160ff0219169083151502179055505050565b6131d67fbb34b40bb108d630f7a3bb48cb906f9ba41eeb0152ef115fcba49711e26b914f60001b612638565b6132027f8a1db8cd364553e36130f153ca85aaf3643ac1efe2659694e50d02e99389823860001b612638565b61322e7f1c08afacfd84adbc6e7e6987e873f344c9507262c53587b8b8a5897e60480d9c60001b612638565b600b543410156132d1576132647f0fe5bc286c269ebd4d31d5c52df87136d393de989317d3bcfa7b9c582d507e6760001b612638565b6132907ffef96115cbefdcfb115ca1ace4a7065c9c1a3d0ca1b14691b6383d928458cb3860001b612638565b34600b546040517f03eb8b540000000000000000000000000000000000000000000000000000000081526004016132c8929190614c45565b60405180910390fd5b6132fd7fdd630788215ab3aa6dbf3ee00b514827852226dd9e2c5536706b9ca8e28b346760001b612638565b6133297f323a89478b926006c0570f0b2014323907823a0f2fd407a9573c2474466f296560001b612638565b6133557f785a2728198c30f487f2deacf00c0e9909ad721c5e000ad36db313d2166e741160001b612638565b600b543411156135b95761338b7f4161d86103e1cdb68caef1ad247c8b38d363a7cf561a047d888121bf9aa6c48d60001b612638565b6133b77faec790e4f8dc46542f8b10ac0a3e3d08194b257c8b4f1d21e66db6193504c0cd60001b612638565b6133e37fd4b03fdd610c6ce6791bfbc343565740a40667536205c4c569bf745a32fe183260001b612638565b6000600b54346133f39190614c6e565b90506134217f3cc37d6c611769d71c06bc94530ebb86c4dc7df5d71fbebaec19a7c587f46cba60001b612638565b61344d7f73fadde10c0a5c6d4b1df832e68bc392094a40e0532ca905887a58207df39d4060001b612638565b6000613457612ac8565b73ffffffffffffffffffffffffffffffffffffffff168260405161347a90614790565b60006040518083038185875af1925050503d80600081146134b7576040519150601f19603f3d011682016040523d82523d6000602084013e6134bc565b606091505b505090506134ec7fead650232d5772ffd5acb367c912a58209665d4933c8f328c48e135c4e6f548360001b612638565b6135187f3e2fb3df0a764ba871aca7fcf05e2965cfd2f24e5be5030bed2150005bdac0fa60001b612638565b80613586576135497f2e373e22cd12bea51dae13fcaee929012fa998951a1c8e7eb903f34ad89a89ce60001b612638565b816040517f4c6ecc2100000000000000000000000000000000000000000000000000000000815260040161357d9190614081565b60405180910390fd5b6135b27fba694bc55926731231f170d135a3eee7756d5053644e6d469f0db5d2a32544a760001b612638565b50506135e6565b6135e57f3ddcdf84a0b3a32eb5c66c45f9a804a4b17128644932a4d415fdf5bfc8597c6860001b612638565b5b6136127f0f6c28e0dfc351ac236444e994d13c8501147135b600c44abec2e94d021e9f4f60001b612638565b61363e7fbc4c32029c777a0c756d61e91048787edd165cace26440903c0398822574d16b60001b612638565b613649336001613772565b565b60007f01ffc9a7000000000000000000000000000000000000000000000000000000007bffffffffffffffffffffffffffffffffffffffffffffffffffffffff1916827bffffffffffffffffffffffffffffffffffffffffffffffffffffffff1916149050919050565b6136bf828261164e565b61374e576136e48173ffffffffffffffffffffffffffffffffffffffff16601461392f565b6136f28360001c602061392f565b604051602001613703929190614d3a565b6040516020818303038152906040526040517f08c379a00000000000000000000000000000000000000000000000000000000081526004016137459190613e1e565b60405180910390fd5b5050565b60009392505050565b6000826137688584613b6b565b1490509392505050565b60008054905060008214156137b3576040517fb562e8dd00000000000000000000000000000000000000000000000000000000815260040160405180910390fd5b6137c06000848385612988565b600160406001901b178202600560008573ffffffffffffffffffffffffffffffffffffffff1673ffffffffffffffffffffffffffffffffffffffff1681526020019081526020016000206000828254019250508190555061383783613828600086600061298e565b61383185613bc1565b176129b6565b6004600083815260200190815260200160002081905550600080838301905073ffffffffffffffffffffffffffffffffffffffff85169150828260007fddf252ad1be2c89b69c2b068fc378daa952ba7f163c4a11628f55a4df523b3ef600080a4600183015b8181146138d857808360007fddf252ad1be2c89b69c2b068fc378daa952ba7f163c4a11628f55a4df523b3ef600080a460018101905061389d565b506000821415613914576040517f2e07630000000000000000000000000000000000000000000000000000000000815260040160405180910390fd5b80600081905550505061392a60008483856129e1565b505050565b6060600060028360026139429190614d74565b61394c91906149e1565b67ffffffffffffffff8111156139655761396461421d565b5b6040519080825280601f01601f1916602001820160405280156139975781602001600182028036833780820191505090505b5090507f3000000000000000000000000000000000000000000000000000000000000000816000815181106139cf576139ce614dce565b5b60200101907effffffffffffffffffffffffffffffffffffffffffffffffffffffffffffff1916908160001a9053507f780000000000000000000000000000000000000000000000000000000000000081600181518110613a3357613a32614dce565b5b60200101907effffffffffffffffffffffffffffffffffffffffffffffffffffffffffffff1916908160001a90535060006001846002613a739190614d74565b613a7d91906149e1565b90505b6001811115613b1d577f3031323334353637383961626364656600000000000000000000000000000000600f861660108110613abf57613abe614dce565b5b1a60f81b828281518110613ad657613ad5614dce565b5b60200101907effffffffffffffffffffffffffffffffffffffffffffffffffffffffffffff1916908160001a905350600485901c945080613b1690614dfd565b9050613a80565b5060008414613b61576040517f08c379a0000000000000000000000000000000000000000000000000000000008152600401613b5890614e73565b60405180910390fd5b8091505092915050565b60008082905060005b8451811015613bb657613ba182868381518110613b9457613b93614dce565b5b6020026020010151613bd1565b91508080613bae90614e93565b915050613b74565b508091505092915050565b60006001821460e11b9050919050565b6000818310613be957613be48284613bfc565b613bf4565b613bf38383613bfc565b5b905092915050565b600082600052816020526040600020905092915050565b828054613c1f9061469b565b90600052602060002090601f016020900481019282613c415760008555613c88565b82601f10613c5a57805160ff1916838001178555613c88565b82800160010185558215613c88579182015b82811115613c87578251825591602001919060010190613c6c565b5b509050613c959190613c99565b5090565b5b80821115613cb2576000816000905550600101613c9a565b5090565b6000604051905090565b600080fd5b600080fd5b60007fffffffff0000000000000000000000000000000000000000000000000000000082169050919050565b613cff81613cca565b8114613d0a57600080fd5b50565b600081359050613d1c81613cf6565b92915050565b600060208284031215613d3857613d37613cc0565b5b6000613d4684828501613d0d565b91505092915050565b60008115159050919050565b613d6481613d4f565b82525050565b6000602082019050613d7f6000830184613d5b565b92915050565b600081519050919050565b600082825260208201905092915050565b60005b83811015613dbf578082015181840152602081019050613da4565b83811115613dce576000848401525b50505050565b6000601f19601f8301169050919050565b6000613df082613d85565b613dfa8185613d90565b9350613e0a818560208601613da1565b613e1381613dd4565b840191505092915050565b60006020820190508181036000830152613e388184613de5565b905092915050565b6000819050919050565b613e5381613e40565b8114613e5e57600080fd5b50565b600081359050613e7081613e4a565b92915050565b600060208284031215613e8c57613e8b613cc0565b5b6000613e9a84828501613e61565b91505092915050565b600073ffffffffffffffffffffffffffffffffffffffff82169050919050565b6000613ece82613ea3565b9050919050565b613ede81613ec3565b82525050565b6000602082019050613ef96000830184613ed5565b92915050565b613f0881613ec3565b8114613f1357600080fd5b50565b600081359050613f2581613eff565b92915050565b60008060408385031215613f4257613f41613cc0565b5b6000613f5085828601613f16565b9250506020613f6185828601613e61565b9150509250929050565b600060ff82169050919050565b613f8181613f6b565b8114613f8c57600080fd5b50565b600081359050613f9e81613f78565b92915050565b600060208284031215613fba57613fb9613cc0565b5b6000613fc884828501613f8f565b91505092915050565b600063ffffffff82169050919050565b613fea81613fd1565b8114613ff557600080fd5b50565b60008135905061400781613fe1565b92915050565b60006020828403121561402357614022613cc0565b5b600061403184828501613ff8565b91505092915050565b600061ffff82169050919050565b6140518161403a565b82525050565b600060208201905061406c6000830184614048565b92915050565b61407b81613e40565b82525050565b60006020820190506140966000830184614072565b92915050565b6000602082840312156140b2576140b1613cc0565b5b60006140c084828501613f16565b91505092915050565b6000806000606084860312156140e2576140e1613cc0565b5b60006140f086828701613f16565b935050602061410186828701613f16565b925050604061411286828701613e61565b9150509250925092565b6000819050919050565b61412f8161411c565b811461413a57600080fd5b50565b60008135905061414c81614126565b92915050565b60006020828403121561416857614167613cc0565b5b60006141768482850161413d565b91505092915050565b6141888161411c565b82525050565b60006020820190506141a3600083018461417f565b92915050565b600080604083850312156141c0576141bf613cc0565b5b60006141ce8582860161413d565b92505060206141df85828601613f16565b9150509250929050565b6141f281613f6b565b82525050565b600060208201905061420d60008301846141e9565b92915050565b600080fd5b600080fd5b7f4e487b7100000000000000000000000000000000000000000000000000000000600052604160045260246000fd5b61425582613dd4565b810181811067ffffffffffffffff821117156142745761427361421d565b5b80604052505050565b6000614287613cb6565b9050614293828261424c565b919050565b600067ffffffffffffffff8211156142b3576142b261421d565b5b6142bc82613dd4565b9050602081019050919050565b82818337600083830152505050565b60006142eb6142e684614298565b61427d565b90508281526020810184848401111561430757614306614218565b5b6143128482856142c9565b509392505050565b600082601f83011261432f5761432e614213565b5b813561433f8482602086016142d8565b91505092915050565b60006020828403121561435e5761435d613cc0565b5b600082013567ffffffffffffffff81111561437c5761437b613cc5565b5b6143888482850161431a565b91505092915050565b60006060820190506143a6600083018661417f565b6143b36020830185614072565b6143c06040830184614072565b949350505050565b6143d181613d4f565b81146143dc57600080fd5b50565b6000813590506143ee816143c8565b92915050565b6000806040838503121561440b5761440a613cc0565b5b600061441985828601613f16565b925050602061442a858286016143df565b9150509250929050565b600067ffffffffffffffff82111561444f5761444e61421d565b5b61445882613dd4565b9050602081019050919050565b600061447861447384614434565b61427d565b90508281526020810184848401111561449457614493614218565b5b61449f8482856142c9565b509392505050565b600082601f8301126144bc576144bb614213565b5b81356144cc848260208601614465565b91505092915050565b600080600080608085870312156144ef576144ee613cc0565b5b60006144fd87828801613f16565b945050602061450e87828801613f16565b935050604061451f87828801613e61565b925050606085013567ffffffffffffffff8111156145405761453f613cc5565b5b61454c878288016144a7565b91505092959194509250565b600080fd5b60006040828403121561457357614572614558565b5b81905092915050565b60006020828403121561459257614591613cc0565b5b600082013567ffffffffffffffff8111156145b0576145af613cc5565b5b6145bc8482850161455d565b91505092915050565b600080600080608085870312156145df576145de613cc0565b5b60006145ed8782880161413d565b94505060206145fe87828801613f8f565b935050604061460f87828801613e61565b925050606061462087828801613e61565b91505092959194509250565b6000806040838503121561464357614642613cc0565b5b600061465185828601613f16565b925050602061466285828601613f16565b9150509250929050565b7f4e487b7100000000000000000000000000000000000000000000000000000000600052602260045260246000fd5b600060028204905060018216806146b357607f821691505b602082108114156146c7576146c661466c565b5b50919050565b7f416363657373436f6e74726f6c3a2063616e206f6e6c792072656e6f756e636560008201527f20726f6c657320666f722073656c660000000000000000000000000000000000602082015250565b6000614729602f83613d90565b9150614734826146cd565b604082019050919050565b600060208201905081810360008301526147588161471c565b9050919050565b600081905092915050565b50565b600061477a60008361475f565b91506147858261476a565b600082019050919050565b600061479b8261476d565b9150819050919050565b600081905092915050565b60008190508160005260206000209050919050565b600081546147d28161469b565b6147dc81866147a5565b945060018216600081146147f757600181146148085761483b565b60ff1983168652818601935061483b565b614811856147b0565b60005b8381101561483357815481890152600182019150602081019050614814565b838801955050505b50505092915050565b600061484f82613d85565b61485981856147a5565b9350614869818560208601613da1565b80840191505092915050565b7f2e6a736f6e000000000000000000000000000000000000000000000000000000600082015250565b60006148ab6005836147a5565b91506148b682614875565b600582019050919050565b60006148cd82856147c5565b91506148d98284614844565b91506148e48261489e565b91508190509392505050565b7f5265656e7472616e637947756172643a207265656e7472616e742063616c6c00600082015250565b6000614926601f83613d90565b9150614931826148f0565b602082019050919050565b6000602082019050818103600083015261495581614919565b9050919050565b6000819050919050565b600061498161497c6149778461403a565b61495c565b613e40565b9050919050565b61499181614966565b82525050565b60006020820190506149ac6000830184614988565b92915050565b7f4e487b7100000000000000000000000000000000000000000000000000000000600052601160045260246000fd5b60006149ec82613e40565b91506149f783613e40565b9250827fffffffffffffffffffffffffffffffffffffffffffffffffffffffffffffffff03821115614a2c57614a2b6149b2565b5b828201905092915050565b600081519050919050565b600082825260208201905092915050565b6000614a5e82614a37565b614a688185614a42565b9350614a78818560208601613da1565b614a8181613dd4565b840191505092915050565b6000608082019050614aa16000830187613ed5565b614aae6020830186613ed5565b614abb6040830185614072565b8181036060830152614acd8184614a53565b905095945050505050565b600081519050614ae781613cf6565b92915050565b600060208284031215614b0357614b02613cc0565b5b6000614b1184828501614ad8565b91505092915050565b600080fd5b600080fd5b600080fd5b60008083356001602003843603038112614b4657614b45614b1a565b5b80840192508235915067ffffffffffffffff821115614b6857614b67614b1f565b5b602083019250602082023603831315614b8457614b83614b24565b5b509250929050565b60008160601b9050919050565b6000614ba482614b8c565b9050919050565b6000614bb682614b99565b9050919050565b614bce614bc982613ec3565b614bab565b82525050565b6000614be08284614bbd565b60148201915081905092915050565b6000819050919050565b6000614c14614c0f614c0a84614bef565b61495c565b61403a565b9050919050565b614c2481614bf9565b82525050565b6000602082019050614c3f6000830184614c1b565b92915050565b6000604082019050614c5a6000830185614072565b614c676020830184614072565b9392505050565b6000614c7982613e40565b9150614c8483613e40565b925082821015614c9757614c966149b2565b5b828203905092915050565b7f416363657373436f6e74726f6c3a206163636f756e7420000000000000000000600082015250565b6000614cd86017836147a5565b9150614ce382614ca2565b601782019050919050565b7f206973206d697373696e6720726f6c6520000000000000000000000000000000600082015250565b6000614d246011836147a5565b9150614d2f82614cee565b601182019050919050565b6000614d4582614ccb565b9150614d518285614844565b9150614d5c82614d17565b9150614d688284614844565b91508190509392505050565b6000614d7f82613e40565b9150614d8a83613e40565b9250817fffffffffffffffffffffffffffffffffffffffffffffffffffffffffffffffff0483118215151615614dc357614dc26149b2565b5b828202905092915050565b7f4e487b7100000000000000000000000000000000000000000000000000000000600052603260045260246000fd5b6000614e0882613e40565b91506000821415614e1c57614e1b6149b2565b5b600182039050919050565b7f537472696e67733a20686578206c656e67746820696e73756666696369656e74600082015250565b6000614e5d602083613d90565b9150614e6882614e27565b602082019050919050565b60006020820190508181036000830152614e8c81614e50565b9050919050565b6000614e9e82613e40565b91507fffffffffffffffffffffffffffffffffffffffffffffffffffffffffffffffff821415614ed157614ed06149b2565b5b60018201905091905056fea2646970667358221220dbbaa6ff220270d206715ebada1e9277367277e28e5d951606a9f6b5e2a1c5d964736f6c63430008090033",
  "linkReferences": {},
  "deployedLinkReferences": {}
}