{
  "_format": "hh-sol-artifact-1",
  "contractName": "OmnipotentNFT",
  "sourceName": "contracts/OmnipotentNFT.sol",
  "abi": [
    {
      "inputs": [
        {
          "internalType": "uint16",
          "name": "_maxSupply",
          "type": "uint16"
        },
        {
          "internalType": "uint16",
          "name": "_reservedTokens",
          "type": "uint16"
        },
        {
          "internalType": "uint16",
          "name": "_maxPerWallet",
          "type": "uint16"
        },
        {
          "internalType": "uint256",
          "name": "_mintPrice",
          "type": "uint256"
        },
        {
          "internalType": "address",
          "name": "_internalMintAddress",
          "type": "address"
        },
        {
          "internalType": "uint256",
          "name": "_publicMintStartTime",
          "type": "uint256"
        }
      ],
      "stateMutability": "nonpayable",
      "type": "constructor"
    },
    {
      "inputs": [],
      "name": "ApprovalCallerNotOwnerNorApproved",
      "type": "error"
    },
    {
      "inputs": [],
      "name": "ApprovalQueryForNonexistentToken",
      "type": "error"
    },
    {
      "inputs": [],
      "name": "ApproveToCaller",
      "type": "error"
    },
    {
      "inputs": [],
      "name": "BalanceQueryForZeroAddress",
      "type": "error"
    },
    {
      "inputs": [
        {
          "internalType": "uint16",
          "name": "maxPerWallet",
          "type": "uint16"
        }
      ],
      "name": "ExceedingMaxTokensPerWallet",
      "type": "error"
    },
    {
      "inputs": [
        {
          "internalType": "uint16",
          "name": "whitelistAllowance",
          "type": "uint16"
        }
      ],
      "name": "ExceedingWhitelistAllowance",
      "type": "error"
    },
    {
      "inputs": [
        {
          "internalType": "uint256",
          "name": "funds",
          "type": "uint256"
        },
        {
          "internalType": "uint256",
          "name": "cost",
          "type": "uint256"
        }
      ],
      "name": "InsufficientFunds",
      "type": "error"
    },
    {
      "inputs": [
        {
          "internalType": "uint256",
          "name": "maxSupply",
          "type": "uint256"
        }
      ],
      "name": "InsufficientSupplyAvailable",
      "type": "error"
    },
    {
      "inputs": [
        {
          "internalType": "uint8",
          "name": "whitelistId",
          "type": "uint8"
        }
      ],
      "name": "InvalidWhitelistId",
      "type": "error"
    },
    {
      "inputs": [],
      "name": "InvalidWhitelistTime",
      "type": "error"
    },
    {
      "inputs": [],
      "name": "MintERC2309QuantityExceedsLimit",
      "type": "error"
    },
    {
      "inputs": [],
      "name": "MintToZeroAddress",
      "type": "error"
    },
    {
      "inputs": [],
      "name": "MintZeroQuantity",
      "type": "error"
    },
    {
      "inputs": [],
      "name": "NotWhitelisted",
      "type": "error"
    },
    {
      "inputs": [],
      "name": "OwnerQueryForNonexistentToken",
      "type": "error"
    },
    {
      "inputs": [],
      "name": "OwnershipNotInitializedForExtraData",
      "type": "error"
    },
    {
      "inputs": [],
      "name": "SaleNotActive",
      "type": "error"
    },
    {
      "inputs": [],
      "name": "TransferCallerNotOwnerNorApproved",
      "type": "error"
    },
    {
      "inputs": [],
      "name": "TransferFromIncorrectOwner",
      "type": "error"
    },
    {
      "inputs": [],
      "name": "TransferToNonERC721ReceiverImplementer",
      "type": "error"
    },
    {
      "inputs": [],
      "name": "TransferToZeroAddress",
      "type": "error"
    },
    {
      "inputs": [],
      "name": "URIQueryForNonexistentToken",
      "type": "error"
    },
    {
      "inputs": [
        {
          "internalType": "uint256",
          "name": "cashChange",
          "type": "uint256"
        }
      ],
      "name": "UnableToSendChange",
      "type": "error"
    },
    {
      "inputs": [
        {
          "internalType": "uint256",
          "name": "amount",
          "type": "uint256"
        }
      ],
      "name": "UnableToWithdraw",
      "type": "error"
    },
    {
      "anonymous": false,
      "inputs": [
        {
          "indexed": true,
          "internalType": "address",
          "name": "owner",
          "type": "address"
        },
        {
          "indexed": true,
          "internalType": "address",
          "name": "approved",
          "type": "address"
        },
        {
          "indexed": true,
          "internalType": "uint256",
          "name": "tokenId",
          "type": "uint256"
        }
      ],
      "name": "Approval",
      "type": "event"
    },
    {
      "anonymous": false,
      "inputs": [
        {
          "indexed": true,
          "internalType": "address",
          "name": "owner",
          "type": "address"
        },
        {
          "indexed": true,
          "internalType": "address",
          "name": "operator",
          "type": "address"
        },
        {
          "indexed": false,
          "internalType": "bool",
          "name": "approved",
          "type": "bool"
        }
      ],
      "name": "ApprovalForAll",
      "type": "event"
    },
    {
      "anonymous": false,
      "inputs": [
        {
          "indexed": true,
          "internalType": "uint256",
          "name": "fromTokenId",
          "type": "uint256"
        },
        {
          "indexed": false,
          "internalType": "uint256",
          "name": "toTokenId",
          "type": "uint256"
        },
        {
          "indexed": true,
          "internalType": "address",
          "name": "from",
          "type": "address"
        },
        {
          "indexed": true,
          "internalType": "address",
          "name": "to",
          "type": "address"
        }
      ],
      "name": "ConsecutiveTransfer",
      "type": "event"
    },
    {
      "anonymous": false,
      "inputs": [
        {
          "indexed": true,
          "internalType": "bytes32",
          "name": "role",
          "type": "bytes32"
        },
        {
          "indexed": true,
          "internalType": "bytes32",
          "name": "previousAdminRole",
          "type": "bytes32"
        },
        {
          "indexed": true,
          "internalType": "bytes32",
          "name": "newAdminRole",
          "type": "bytes32"
        }
      ],
      "name": "RoleAdminChanged",
      "type": "event"
    },
    {
      "anonymous": false,
      "inputs": [
        {
          "indexed": true,
          "internalType": "bytes32",
          "name": "role",
          "type": "bytes32"
        },
        {
          "indexed": true,
          "internalType": "address",
          "name": "account",
          "type": "address"
        },
        {
          "indexed": true,
          "internalType": "address",
          "name": "sender",
          "type": "address"
        }
      ],
      "name": "RoleGranted",
      "type": "event"
    },
    {
      "anonymous": false,
      "inputs": [
        {
          "indexed": true,
          "internalType": "bytes32",
          "name": "role",
          "type": "bytes32"
        },
        {
          "indexed": true,
          "internalType": "address",
          "name": "account",
          "type": "address"
        },
        {
          "indexed": true,
          "internalType": "address",
          "name": "sender",
          "type": "address"
        }
      ],
      "name": "RoleRevoked",
      "type": "event"
    },
    {
      "anonymous": false,
      "inputs": [
        {
          "indexed": true,
          "internalType": "address",
          "name": "from",
          "type": "address"
        },
        {
          "indexed": true,
          "internalType": "address",
          "name": "to",
          "type": "address"
        },
        {
          "indexed": true,
          "internalType": "uint256",
          "name": "tokenId",
          "type": "uint256"
        }
      ],
      "name": "Transfer",
      "type": "event"
    },
    {
      "inputs": [],
      "name": "DEFAULT_ADMIN_ROLE",
      "outputs": [
        {
          "internalType": "bytes32",
          "name": "",
          "type": "bytes32"
        }
      ],
      "stateMutability": "view",
      "type": "function"
    },
    {
      "inputs": [],
      "name": "WITHDRAW_ROLE",
      "outputs": [
        {
          "internalType": "bytes32",
          "name": "",
          "type": "bytes32"
        }
      ],
      "stateMutability": "view",
      "type": "function"
    },
    {
      "inputs": [
        {
          "internalType": "address",
          "name": "",
          "type": "address"
        }
      ],
      "name": "addressMintCount",
      "outputs": [
        {
          "internalType": "uint16",
          "name": "",
          "type": "uint16"
        }
      ],
      "stateMutability": "view",
      "type": "function"
    },
    {
      "inputs": [
        {
          "internalType": "address",
          "name": "to",
          "type": "address"
        },
        {
          "internalType": "uint256",
          "name": "tokenId",
          "type": "uint256"
        }
      ],
      "name": "approve",
      "outputs": [],
      "stateMutability": "nonpayable",
      "type": "function"
    },
    {
      "inputs": [
        {
          "internalType": "address",
          "name": "owner",
          "type": "address"
        }
      ],
      "name": "balanceOf",
      "outputs": [
        {
          "internalType": "uint256",
          "name": "",
          "type": "uint256"
        }
      ],
      "stateMutability": "view",
      "type": "function"
    },
    {
      "inputs": [],
      "name": "baseURI",
      "outputs": [
        {
          "internalType": "string",
          "name": "",
          "type": "string"
        }
      ],
      "stateMutability": "view",
      "type": "function"
    },
    {
      "inputs": [
        {
          "internalType": "bytes32",
          "name": "_root",
          "type": "bytes32"
        },
        {
          "internalType": "uint8",
          "name": "_whitelist_id",
          "type": "uint8"
        },
        {
          "internalType": "uint256",
          "name": "_startTime",
          "type": "uint256"
        },
        {
          "internalType": "uint256",
          "name": "_endTime",
          "type": "uint256"
        }
      ],
      "name": "createWhitelist",
      "outputs": [],
      "stateMutability": "nonpayable",
      "type": "function"
    },
    {
      "inputs": [
        {
          "internalType": "uint32",
          "name": "tokenId",
          "type": "uint32"
        }
      ],
      "name": "exists",
      "outputs": [
        {
          "internalType": "bool",
          "name": "",
          "type": "bool"
        }
      ],
      "stateMutability": "view",
      "type": "function"
    },
    {
      "inputs": [
        {
          "internalType": "uint256",
          "name": "tokenId",
          "type": "uint256"
        }
      ],
      "name": "getApproved",
      "outputs": [
        {
          "internalType": "address",
          "name": "",
          "type": "address"
        }
      ],
      "stateMutability": "view",
      "type": "function"
    },
    {
      "inputs": [
        {
          "internalType": "bytes32",
          "name": "role",
          "type": "bytes32"
        }
      ],
      "name": "getRoleAdmin",
      "outputs": [
        {
          "internalType": "bytes32",
          "name": "",
          "type": "bytes32"
        }
      ],
      "stateMutability": "view",
      "type": "function"
    },
    {
      "inputs": [
        {
          "internalType": "bytes32",
          "name": "role",
          "type": "bytes32"
        },
        {
          "internalType": "address",
          "name": "account",
          "type": "address"
        }
      ],
      "name": "grantRole",
      "outputs": [],
      "stateMutability": "nonpayable",
      "type": "function"
    },
    {
      "inputs": [
        {
          "internalType": "bytes32",
          "name": "role",
          "type": "bytes32"
        },
        {
          "internalType": "address",
          "name": "account",
          "type": "address"
        }
      ],
      "name": "hasRole",
      "outputs": [
        {
          "internalType": "bool",
          "name": "",
          "type": "bool"
        }
      ],
      "stateMutability": "view",
      "type": "function"
    },
    {
      "inputs": [
        {
          "internalType": "address",
          "name": "owner",
          "type": "address"
        },
        {
          "internalType": "address",
          "name": "operator",
          "type": "address"
        }
      ],
      "name": "isApprovedForAll",
      "outputs": [
        {
          "internalType": "bool",
          "name": "",
          "type": "bool"
        }
      ],
      "stateMutability": "view",
      "type": "function"
    },
    {
      "inputs": [],
      "name": "maxPerWallet",
      "outputs": [
        {
          "internalType": "uint16",
          "name": "",
          "type": "uint16"
        }
      ],
      "stateMutability": "view",
      "type": "function"
    },
    {
      "inputs": [],
      "name": "maxSupply",
      "outputs": [
        {
          "internalType": "uint16",
          "name": "",
          "type": "uint16"
        }
      ],
      "stateMutability": "view",
      "type": "function"
    },
    {
      "inputs": [],
      "name": "mint",
      "outputs": [],
      "stateMutability": "payable",
      "type": "function"
    },
    {
      "inputs": [],
      "name": "mintPrice",
      "outputs": [
        {
          "internalType": "uint256",
          "name": "",
          "type": "uint256"
        }
      ],
      "stateMutability": "view",
      "type": "function"
    },
    {
      "inputs": [],
      "name": "name",
      "outputs": [
        {
          "internalType": "string",
          "name": "",
          "type": "string"
        }
      ],
      "stateMutability": "view",
      "type": "function"
    },
    {
      "inputs": [
        {
          "internalType": "uint256",
          "name": "tokenId",
          "type": "uint256"
        }
      ],
      "name": "ownerOf",
      "outputs": [
        {
          "internalType": "address",
          "name": "",
          "type": "address"
        }
      ],
      "stateMutability": "view",
      "type": "function"
    },
    {
      "inputs": [],
      "name": "publicMintStartTime",
      "outputs": [
        {
          "internalType": "uint256",
          "name": "",
          "type": "uint256"
        }
      ],
      "stateMutability": "view",
      "type": "function"
    },
    {
      "inputs": [
        {
          "internalType": "uint8",
          "name": "_id",
          "type": "uint8"
        }
      ],
      "name": "removeWhitelist",
      "outputs": [],
      "stateMutability": "nonpayable",
      "type": "function"
    },
    {
      "inputs": [
        {
          "internalType": "bytes32",
          "name": "role",
          "type": "bytes32"
        },
        {
          "internalType": "address",
          "name": "account",
          "type": "address"
        }
      ],
      "name": "renounceRole",
      "outputs": [],
      "stateMutability": "nonpayable",
      "type": "function"
    },
    {
      "inputs": [],
      "name": "reservedTokens",
      "outputs": [
        {
          "internalType": "uint16",
          "name": "",
          "type": "uint16"
        }
      ],
      "stateMutability": "view",
      "type": "function"
    },
    {
      "inputs": [
        {
          "internalType": "bytes32",
          "name": "role",
          "type": "bytes32"
        },
        {
          "internalType": "address",
          "name": "account",
          "type": "address"
        }
      ],
      "name": "revokeRole",
      "outputs": [],
      "stateMutability": "nonpayable",
      "type": "function"
    },
    {
      "inputs": [
        {
          "internalType": "address",
          "name": "from",
          "type": "address"
        },
        {
          "internalType": "address",
          "name": "to",
          "type": "address"
        },
        {
          "internalType": "uint256",
          "name": "tokenId",
          "type": "uint256"
        }
      ],
      "name": "safeTransferFrom",
      "outputs": [],
      "stateMutability": "nonpayable",
      "type": "function"
    },
    {
      "inputs": [
        {
          "internalType": "address",
          "name": "from",
          "type": "address"
        },
        {
          "internalType": "address",
          "name": "to",
          "type": "address"
        },
        {
          "internalType": "uint256",
          "name": "tokenId",
          "type": "uint256"
        },
        {
          "internalType": "bytes",
          "name": "_data",
          "type": "bytes"
        }
      ],
      "name": "safeTransferFrom",
      "outputs": [],
      "stateMutability": "nonpayable",
      "type": "function"
    },
    {
      "inputs": [
        {
          "internalType": "address",
          "name": "operator",
          "type": "address"
        },
        {
          "internalType": "bool",
          "name": "approved",
          "type": "bool"
        }
      ],
      "name": "setApprovalForAll",
      "outputs": [],
      "stateMutability": "nonpayable",
      "type": "function"
    },
    {
      "inputs": [
        {
          "internalType": "string",
          "name": "newBaseURI",
          "type": "string"
        }
      ],
      "name": "setBaseURI",
      "outputs": [],
      "stateMutability": "nonpayable",
      "type": "function"
    },
    {
      "inputs": [
        {
          "internalType": "bytes4",
          "name": "_interfaceId",
          "type": "bytes4"
        }
      ],
      "name": "supportsInterface",
      "outputs": [
        {
          "internalType": "bool",
          "name": "",
          "type": "bool"
        }
      ],
      "stateMutability": "view",
      "type": "function"
    },
    {
      "inputs": [],
      "name": "symbol",
      "outputs": [
        {
          "internalType": "string",
          "name": "",
          "type": "string"
        }
      ],
      "stateMutability": "view",
      "type": "function"
    },
    {
      "inputs": [
        {
          "internalType": "uint256",
          "name": "tokenId",
          "type": "uint256"
        }
      ],
      "name": "tokenURI",
      "outputs": [
        {
          "internalType": "string",
          "name": "",
          "type": "string"
        }
      ],
      "stateMutability": "view",
      "type": "function"
    },
    {
      "inputs": [],
      "name": "totalSupply",
      "outputs": [
        {
          "internalType": "uint256",
          "name": "",
          "type": "uint256"
        }
      ],
      "stateMutability": "view",
      "type": "function"
    },
    {
      "inputs": [
        {
          "internalType": "address",
          "name": "from",
          "type": "address"
        },
        {
          "internalType": "address",
          "name": "to",
          "type": "address"
        },
        {
          "internalType": "uint256",
          "name": "tokenId",
          "type": "uint256"
        }
      ],
      "name": "transferFrom",
      "outputs": [],
      "stateMutability": "nonpayable",
      "type": "function"
    },
    {
      "inputs": [],
      "name": "waitlist_id",
      "outputs": [
        {
          "internalType": "uint8",
          "name": "",
          "type": "uint8"
        }
      ],
      "stateMutability": "view",
      "type": "function"
    },
    {
      "inputs": [
        {
          "components": [
            {
              "internalType": "uint8",
              "name": "whitelist_id",
              "type": "uint8"
            },
            {
              "internalType": "bytes32[]",
              "name": "proof",
              "type": "bytes32[]"
            }
          ],
          "internalType": "struct OmnipotentNFT.WhitelistProof",
          "name": "_proof",
          "type": "tuple"
        }
      ],
      "name": "whitelistMint",
      "outputs": [],
      "stateMutability": "payable",
      "type": "function"
    },
    {
      "inputs": [
        {
          "internalType": "address",
          "name": "",
          "type": "address"
        }
      ],
      "name": "whitelistMinted",
      "outputs": [
        {
          "internalType": "bool",
          "name": "",
          "type": "bool"
        }
      ],
      "stateMutability": "view",
      "type": "function"
    },
    {
      "inputs": [],
      "name": "whitelist_id",
      "outputs": [
        {
          "internalType": "uint8",
          "name": "",
          "type": "uint8"
        }
      ],
      "stateMutability": "view",
      "type": "function"
    },
    {
      "inputs": [
        {
          "internalType": "uint8",
          "name": "",
          "type": "uint8"
        }
      ],
      "name": "whitelists",
      "outputs": [
        {
          "internalType": "bytes32",
          "name": "root",
          "type": "bytes32"
        },
        {
          "internalType": "uint256",
          "name": "startTime",
          "type": "uint256"
        },
        {
          "internalType": "uint256",
          "name": "endTime",
          "type": "uint256"
        }
      ],
      "stateMutability": "view",
      "type": "function"
    },
    {
      "inputs": [],
      "name": "withdraw",
      "outputs": [],
      "stateMutability": "nonpayable",
      "type": "function"
    }
  ],
  "bytecode": "0x60806040526001600a60006101000a81548160ff021916908360ff1602179055506002600a60016101000a81548160ff021916908360ff16021790555060405180602001604052806000815250600d90805190602001906200006392919062000a23565b503480156200007157600080fd5b506040516200612938038062006129833981810160405281019062000097919062000bb7565b6040518060400160405280601581526020017f4e6166666c6573204f6d6e69706f74656e744e465400000000000000000000008152506040518060400160405280600481526020017f4e464c530000000000000000000000000000000000000000000000000000000081525081600290805190602001906200011b92919062000a23565b5080600390805190602001906200013492919062000a23565b50620001456200059760201b60201c565b60008190555050506001600981905550620001897f51849711982e842cd6d8df923fb7b63d59ccc2313b9f699c422f52acfe44566560001b6200063c60201b60201c565b620001bd7f819e083476ab3ce7f4d1bf8dff28387a3b94c6b7e9a645aa7cd10424c07b9dd160001b6200063c60201b60201c565b620001f17fccc73d8bf57ba7daa56df95cbb6396b1f36643cea544ed699b769a51b936aa0a60001b6200063c60201b60201c565b620002066000801b336200063f60201b60201c565b6200023a7f94966d393ee1cc2001c6027f8aaa617addf27be9f57498923ebdb840f55908a160001b6200063c60201b60201c565b6200026e7fc7efec0a943e3b58230744c9f631a66c59aa624fc2a56733f9c68f45e671673b60001b6200063c60201b60201c565b620002a07f5d8e12c39142ff96d79d04d15d1ba1269e4fe57bb9d26f43523628b34ba108ec336200063f60201b60201c565b620002d47fcc5ef2c604ae8e1d2ac9e82b95c5d430728690ffc1591826b7535499cb098a9460001b6200063c60201b60201c565b620003087f94e1f9097855bb500fc02c81f171e11f79ccaab2330534b86aafe1cef051783860001b6200063c60201b60201c565b85600a60026101000a81548161ffff021916908361ffff160217905550620003597f663016c29a3be25a965e0c56d24deeecc8245eb13d688d41c620f53d1708e3e360001b6200063c60201b60201c565b6200038d7f0fa1ad602baebe12bb846c641fd33555cb328a8723ed2c951ecb53842dcd501b60001b6200063c60201b60201c565b84600a60046101000a81548161ffff021916908361ffff160217905550620003de7f6f51ec8ed9845758f1371a0a8d0c7bba8629337843c06dbe2443ebd21448c8d760001b6200063c60201b60201c565b620004127f327f32f56c0f49d02ec29f186a5f15839b440ba3a71039322ecade53677e4de360001b6200063c60201b60201c565b80600c819055506200044d7fd6e2b5e9944e095131754031b6e7acf8b3e9c9a940ef048300eff8bd09df30fc60001b6200063c60201b60201c565b620004817f8a376d5257efeb4052134fd36513bac392e9c841500ed5d1a4814a94507ca63b60001b6200063c60201b60201c565b82600b81905550620004bc7f2b97773ac167a56ffa899f0eaba832d9f4969729138fef7b81bec6ccb47a27f160001b6200063c60201b60201c565b620004f07f262f341e2fdffc5a242051242f47ca6f1c2701af78bdf59768a1138f737cbdd760001b6200063c60201b60201c565b83600a60066101000a81548161ffff021916908361ffff160217905550620005417f0fb19a4917979c208326e32736a89f09f045f200d69b1f93d320429bcade1e3560001b6200063c60201b60201c565b620005757f69a9cd8b7de21543322ed9c881a0fa5eab4f59c31003468f233b70c3bd679f8660001b6200063c60201b60201c565b6200058b828661ffff166200065560201b60201c565b50505050505062000cb8565b6000620005cd7fb24887989465027c9de30c5c634a93abbe191b5f8eddcfa9d240801d942d295f60001b6200063c60201b60201c565b620006017fbe41536ea197ce3f13bccd9da875d71f961add0064b89a555039adc96458985a60001b6200063c60201b60201c565b620006357f335aac7070600b830ec1165e3bb7b211be0ac0952a4caabe8e699b9006ffe60b60001b6200063c60201b60201c565b6001905090565b50565b6200065182826200083e60201b60201c565b5050565b600080549050600082141562000697576040517fb562e8dd00000000000000000000000000000000000000000000000000000000815260040160405180910390fd5b620006ac60008483856200093060201b60201c565b600160406001901b178202600560008573ffffffffffffffffffffffffffffffffffffffff1673ffffffffffffffffffffffffffffffffffffffff168152602001908152602001600020600082825401925050819055506200073b836200071d60008660006200093660201b60201c565b6200072e856200096660201b60201c565b176200097660201b60201c565b6004600083815260200190815260200160002081905550600080838301905073ffffffffffffffffffffffffffffffffffffffff85169150828260007fddf252ad1be2c89b69c2b068fc378daa952ba7f163c4a11628f55a4df523b3ef600080a4600183015b818114620007de57808360007fddf252ad1be2c89b69c2b068fc378daa952ba7f163c4a11628f55a4df523b3ef600080a4600181019050620007a1565b5060008214156200081b576040517f2e07630000000000000000000000000000000000000000000000000000000000815260040160405180910390fd5b806000819055505050620008396000848385620009a160201b60201c565b505050565b620008508282620009a760201b60201c565b6200092c5760016008600084815260200190815260200160002060000160008373ffffffffffffffffffffffffffffffffffffffff1673ffffffffffffffffffffffffffffffffffffffff16815260200190815260200160002060006101000a81548160ff021916908315150217905550620008d162000a1260201b60201c565b73ffffffffffffffffffffffffffffffffffffffff168173ffffffffffffffffffffffffffffffffffffffff16837f2f8788117e7eff1d82e926ec794901d17c78024a50270940304540a733656f0d60405160405180910390a45b5050565b50505050565b60008060e883901c905060e86200095586868462000a1a60201b60201c565b62ffffff16901b9150509392505050565b60006001821460e11b9050919050565b600073ffffffffffffffffffffffffffffffffffffffff83169250814260a01b178317905092915050565b50505050565b60006008600084815260200190815260200160002060000160008373ffffffffffffffffffffffffffffffffffffffff1673ffffffffffffffffffffffffffffffffffffffff16815260200190815260200160002060009054906101000a900460ff16905092915050565b600033905090565b60009392505050565b82805462000a319062000c82565b90600052602060002090601f01602090048101928262000a55576000855562000aa1565b82601f1062000a7057805160ff191683800117855562000aa1565b8280016001018555821562000aa1579182015b8281111562000aa057825182559160200191906001019062000a83565b5b50905062000ab0919062000ab4565b5090565b5b8082111562000acf57600081600090555060010162000ab5565b5090565b600080fd5b600061ffff82169050919050565b62000af18162000ad8565b811462000afd57600080fd5b50565b60008151905062000b118162000ae6565b92915050565b6000819050919050565b62000b2c8162000b17565b811462000b3857600080fd5b50565b60008151905062000b4c8162000b21565b92915050565b600073ffffffffffffffffffffffffffffffffffffffff82169050919050565b600062000b7f8262000b52565b9050919050565b62000b918162000b72565b811462000b9d57600080fd5b50565b60008151905062000bb18162000b86565b92915050565b60008060008060008060c0878903121562000bd75762000bd662000ad3565b5b600062000be789828a0162000b00565b965050602062000bfa89828a0162000b00565b955050604062000c0d89828a0162000b00565b945050606062000c2089828a0162000b3b565b935050608062000c3389828a0162000ba0565b92505060a062000c4689828a0162000b3b565b9150509295509295509295565b7f4e487b7100000000000000000000000000000000000000000000000000000000600052602260045260246000fd5b6000600282049050600182168062000c9b57607f821691505b6020821081141562000cb25762000cb162000c53565b5b50919050565b6154618062000cc86000396000f3fe6080604052600436106102305760003560e01c80636352211e1161012e578063a22cb465116100ab578063d547741f1161006f578063d547741f1461085d578063d5abeb0114610886578063da999315146108b1578063e02023a1146108da578063e985e9c51461090557610230565b8063a22cb46514610778578063b88d4fde146107a1578063c02e4719146107ca578063c87b56dd146107f5578063d3cf00a31461083257610230565b806370a08231116100f257806370a082311461066b57806391d14854146106a857806395d89b41146106e557806398a8cffe14610710578063a217fddf1461074d57610230565b80636352211e1461057d5780636817c76c146105ba57806369497b9d146105e55780636c0360eb146106245780636df9e51f1461064f57610230565b80631ba4f67d116101bc5780633ccfd60b116101805780633ccfd60b146104be57806342842e0e146104d5578063453c2310146104fe5780635545e2b91461052957806355f804b31461055457610230565b80631ba4f67d146103c957806323b872dd14610406578063248a9ca31461042f5780632f2ff15d1461046c57806336568abe1461049557610230565b80630a40ec08116102035780630a40ec08146103035780631249c58b1461032c57806313c369ed1461033657806315a553471461037357806318160ddd1461039e57610230565b806301ffc9a71461023557806306fdde0314610272578063081812fc1461029d578063095ea7b3146102da575b600080fd5b34801561024157600080fd5b5061025c60048036038101906102579190614271565b610942565b60405161026991906142b9565b60405180910390f35b34801561027e57600080fd5b506102876109e8565b604051610294919061436d565b60405180910390f35b3480156102a957600080fd5b506102c460048036038101906102bf91906143c5565b610a7a565b6040516102d19190614433565b60405180910390f35b3480156102e657600080fd5b5061030160048036038101906102fc919061447a565b610af9565b005b34801561030f57600080fd5b5061032a600480360381019061032591906144f3565b610c3d565b005b610334610cda565b005b34801561034257600080fd5b5061035d6004803603810190610358919061455c565b6111c7565b60405161036a91906142b9565b60405180910390f35b34801561037f57600080fd5b50610388611263565b60405161039591906145a6565b60405180910390f35b3480156103aa57600080fd5b506103b3611277565b6040516103c091906145d0565b60405180910390f35b3480156103d557600080fd5b506103f060048036038101906103eb91906145eb565b61128e565b6040516103fd91906145a6565b60405180910390f35b34801561041257600080fd5b5061042d60048036038101906104289190614618565b6112af565b005b34801561043b57600080fd5b50610456600480360381019061045191906146a1565b6115d4565b60405161046391906146dd565b60405180910390f35b34801561047857600080fd5b50610493600480360381019061048e91906146f8565b6115f4565b005b3480156104a157600080fd5b506104bc60048036038101906104b791906146f8565b611615565b005b3480156104ca57600080fd5b506104d3611698565b005b3480156104e157600080fd5b506104fc60048036038101906104f79190614618565b6118d4565b005b34801561050a57600080fd5b506105136118f4565b60405161052091906145a6565b60405180910390f35b34801561053557600080fd5b5061053e611908565b60405161054b9190614747565b60405180910390f35b34801561056057600080fd5b5061057b60048036038101906105769190614897565b61191b565b005b34801561058957600080fd5b506105a4600480360381019061059f91906143c5565b6119c7565b6040516105b19190614433565b60405180910390f35b3480156105c657600080fd5b506105cf6119d9565b6040516105dc91906145d0565b60405180910390f35b3480156105f157600080fd5b5061060c600480360381019061060791906144f3565b6119df565b60405161061b939291906148e0565b60405180910390f35b34801561063057600080fd5b50610639611a09565b604051610646919061436d565b60405180910390f35b6106696004803603810190610664919061493b565b611a97565b005b34801561067757600080fd5b50610692600480360381019061068d91906145eb565b612143565b60405161069f91906145d0565b60405180910390f35b3480156106b457600080fd5b506106cf60048036038101906106ca91906146f8565b6121fc565b6040516106dc91906142b9565b60405180910390f35b3480156106f157600080fd5b506106fa612267565b604051610707919061436d565b60405180910390f35b34801561071c57600080fd5b50610737600480360381019061073291906145eb565b6122f9565b60405161074491906142b9565b60405180910390f35b34801561075957600080fd5b50610762612319565b60405161076f91906146dd565b60405180910390f35b34801561078457600080fd5b5061079f600480360381019061079a91906149b0565b612320565b005b3480156107ad57600080fd5b506107c860048036038101906107c39190614a91565b612498565b005b3480156107d657600080fd5b506107df61250b565b6040516107ec9190614747565b60405180910390f35b34801561080157600080fd5b5061081c600480360381019061081791906143c5565b61251e565b604051610829919061436d565b60405180910390f35b34801561083e57600080fd5b5061084761271e565b60405161085491906145d0565b60405180910390f35b34801561086957600080fd5b50610884600480360381019061087f91906146f8565b612724565b005b34801561089257600080fd5b5061089b612745565b6040516108a891906145a6565b60405180910390f35b3480156108bd57600080fd5b506108d860048036038101906108d39190614b14565b612759565b005b3480156108e657600080fd5b506108ef612acf565b6040516108fc91906146dd565b60405180910390f35b34801561091157600080fd5b5061092c60048036038101906109279190614b7b565b612af3565b60405161093991906142b9565b60405180910390f35b60006109707f80471aacce7dea5bbb3726642f4bb8dc85ade0b44dbf0048954927dea4cdae3d60001b612b87565b61099c7f49b052ee6ce03f6827f3815250a51e01234b8872bfd8b2de6d7deefb7ca8c05960001b612b87565b6109c87f5778ecf26b988a8bcb9f486ad1d1ac1b43e282ed3d3de91bea1952682b780b2860001b612b87565b6109d182612b8a565b806109e157506109e082612c1c565b5b9050919050565b6060600280546109f790614bea565b80601f0160208091040260200160405190810160405280929190818152602001828054610a2390614bea565b8015610a705780601f10610a4557610100808354040283529160200191610a70565b820191906000526020600020905b815481529060010190602001808311610a5357829003601f168201915b5050505050905090565b6000610a8582612c96565b610abb576040517fcf4700e400000000000000000000000000000000000000000000000000000000815260040160405180910390fd5b6006600083815260200190815260200160002060000160009054906101000a900473ffffffffffffffffffffffffffffffffffffffff169050919050565b6000610b04826119c7565b90508073ffffffffffffffffffffffffffffffffffffffff16610b25612cf5565b73ffffffffffffffffffffffffffffffffffffffff1614610b8857610b5181610b4c612cf5565b612af3565b610b87576040517fcfb3b94200000000000000000000000000000000000000000000000000000000815260040160405180910390fd5b5b826006600084815260200190815260200160002060000160006101000a81548173ffffffffffffffffffffffffffffffffffffffff021916908373ffffffffffffffffffffffffffffffffffffffff160217905550818373ffffffffffffffffffffffffffffffffffffffff168273ffffffffffffffffffffffffffffffffffffffff167f8c5be1e5ebec7d5bd14f71427d1e84f3dd0314c0f7b2291e5b200ac8c7c3b92560405160405180910390a4505050565b6000801b610c4a81612cfd565b610c767fcaf327ad3716ea05ab19ba34ce1b9664a355e7ed89601f8e91ae8d76439e71cc60001b612b87565b610ca27f038d8099c35028495ab7d9bfbf610f53af8bdf5b8810e8639c42c5cbb9cf9a5f60001b612b87565b600e60008360ff1660ff1681526020019081526020016000206000808201600090556001820160009055600282016000905550505050565b610d067ffc1123c79a9e0835f4249bbdec71d020aefb2a375cf274959818f51bd5d6f18660001b612b87565b610d327f3df21755224aa1c5a75b41dff769ff2cf63f6fc60432569b483fa4f40fd3d46e60001b612b87565b610d5e7fb1413b83496a8a7fb1586de2fab3165db67eacd18249f337ce3d6f44afb3bd5060001b612b87565b600a60029054906101000a900461ffff1661ffff16610d7b612d11565b1415610e2657610dad7f0453eb23964eccd08671da70997790f50012816b2f1242aa2a4f8c1381b45b8b60001b612b87565b610dd97f7424a1b36f1a3d9d135552902960e1a948f0fea1bbc9bf22c49bb8bbc2f0e2ca60001b612b87565b600a60029054906101000a900461ffff166040517ffbe6adbe000000000000000000000000000000000000000000000000000000008152600401610e1d9190614c57565b60405180910390fd5b610e527f9ffbc6def702cf1ae9cf9f8997fec98fd90da4ab1da38f4a638e69ab0ebb05b760001b612b87565b610e7e7f1272bb74897f67442880c5917c8f500ca6310da8a5ebca8e980a66774cda023960001b612b87565b610eaa7fede72c1ae7311fa0065012d83199357c136d9f4ab11ebb8be46a73257dca9c2e60001b612b87565b600a60069054906101000a900461ffff1661ffff16610ec833612d24565b1415610f7357610efa7fd1ef1c1de58cc0f7eead2dc501ead8947da0cfd3eb5430a0f59b2b99bfaaa4c860001b612b87565b610f267fa79d39a165c8a87087dae29177389950ba02529883886880c1ac2dc8466cefb760001b612b87565b600a60069054906101000a900461ffff166040517ff84923d7000000000000000000000000000000000000000000000000000000008152600401610f6a91906145a6565b60405180910390fd5b610f9f7fcf01fdb684eb8d8b5ca8b260850bf79456cf9a678574cc881094760fce5f2e7060001b612b87565b610fcb7f3b5baeb57601390e14984d09ea2e9d5889dc431ed11b1b7dd837e1ca89deb85860001b612b87565b60026009541415611011576040517f08c379a000000000000000000000000000000000000000000000000000000000815260040161100890614cbe565b60405180910390fd5b60026009819055506110457f361252acf28ba807af009d2c4c8fe377f5c5416823689a20add52ad272d1f09b60001b612b87565b6110717f62b8c6713aed912ba8382c0d35969368752ee62d7d3161a5e817798f9a0c754160001b612b87565b61109d7f0612bc86f3c0fcd2094e236e89a78036d99749f92847c378d4431e117eb4886160001b612b87565b600c54421015611131576110d37f603f6d944285324f4d8218418afdf36658e0cdd3be68ed34204f130144b96f2c60001b612b87565b6110ff7f205c2e1956bfcdce800e6597ddf1a61ea68f52ffa2af1cf7d5439f62742e421a60001b612b87565b6040517fb7b2409700000000000000000000000000000000000000000000000000000000815260040160405180910390fd5b61115d7f73a304e70f5067bd0172ba15ab8a9e9aa0f6ee277ad2f460cd98ab270a79a0e460001b612b87565b6111897f050d8396b226f8fe422177ca88f85ae077c7bcd816e31964f735c99027804fa460001b612b87565b6111b57f586705ddb84b7cb30bfca86381c90c2ba94658689ea42b87a7d616a67aaf771760001b612b87565b6111bd612d7b565b6001600981905550565b60006111f57f624fa81658f3dc451466932dc2eddbe07efb6f5bc4289ab2473be2484795b8fe60001b612b87565b6112217f217b2167b6bfe467c784169c46ec1d6b332c2fa92b97109b657ed9518b309bb560001b612b87565b61124d7f7be0ccfe88ef0022720f66aa17fbc122035e3358ea3d9eaa2f6a32ac2d18659660001b612b87565b61125c8263ffffffff16612c96565b9050919050565b600a60049054906101000a900461ffff1681565b600061128161321c565b6001546000540303905090565b600f6020528060005260406000206000915054906101000a900461ffff1681565b60006112ba826132a9565b90508373ffffffffffffffffffffffffffffffffffffffff168173ffffffffffffffffffffffffffffffffffffffff1614611321576040517fa114810000000000000000000000000000000000000000000000000000000000815260040160405180910390fd5b60008061132d84613377565b91509150611343818761133e612cf5565b61339e565b61138f5761135886611353612cf5565b612af3565b61138e576040517f59c896be00000000000000000000000000000000000000000000000000000000815260040160405180910390fd5b5b600073ffffffffffffffffffffffffffffffffffffffff168573ffffffffffffffffffffffffffffffffffffffff1614156113f6576040517fea553b3400000000000000000000000000000000000000000000000000000000815260040160405180910390fd5b61140386868660016133e2565b801561140e57600082555b600560008773ffffffffffffffffffffffffffffffffffffffff1673ffffffffffffffffffffffffffffffffffffffff168152602001908152602001600020600081546001900391905081905550600560008673ffffffffffffffffffffffffffffffffffffffff1673ffffffffffffffffffffffffffffffffffffffff16815260200190815260200160002060008154600101919050819055506114dc856114b88888876133e8565b7c020000000000000000000000000000000000000000000000000000000017613410565b600460008681526020019081526020016000208190555060007c020000000000000000000000000000000000000000000000000000000084161415611564576000600185019050600060046000838152602001908152602001600020541415611562576000548114611561578360046000838152602001908152602001600020819055505b5b505b838573ffffffffffffffffffffffffffffffffffffffff168773ffffffffffffffffffffffffffffffffffffffff167fddf252ad1be2c89b69c2b068fc378daa952ba7f163c4a11628f55a4df523b3ef60405160405180910390a46115cc868686600161343b565b505050505050565b600060086000838152602001908152602001600020600101549050919050565b6115fd826115d4565b61160681612cfd565b6116108383613441565b505050565b61161d613522565b73ffffffffffffffffffffffffffffffffffffffff168173ffffffffffffffffffffffffffffffffffffffff161461168a576040517f08c379a000000000000000000000000000000000000000000000000000000000815260040161168190614d50565b60405180910390fd5b611694828261352a565b5050565b7f5d8e12c39142ff96d79d04d15d1ba1269e4fe57bb9d26f43523628b34ba108ec6116c281612cfd565b6116ee7fe92b5efaf5417ff71388dcfffb6474318b2ca8d3f9ce4419e6d3a3f98fd8e18c60001b612b87565b61171a7f4ed3f0e91ec89c2851691b5587c5be97b4e4dcdad5c9d6a4bb6ac67c5a365c3b60001b612b87565b6117467fc455926f8b722bebbb2415c38f6b90d12f8bb40fd812412db9fbfe9a785afbf360001b612b87565b60003373ffffffffffffffffffffffffffffffffffffffff164760405161176c90614da1565b60006040518083038185875af1925050503d80600081146117a9576040519150601f19603f3d011682016040523d82523d6000602084013e6117ae565b606091505b505090506117de7f114f30a1de9329ab97f1e888c3ea9b3df12ab8c700ffa04b9421f6004f90216860001b612b87565b61180a7fdabd1d0b83c9d86e6afbe40decd93e752cfe6050b5ef5f67f9562610efa7b65360001b612b87565b806118a45761183b7f3d41003aa9393cd5d9dc021c231549e32d170c901598f7f1208feaa032efae0360001b612b87565b6118677f42aecfe269c19332a4623d84ae2fbaa49b59b35e7325eff883ad80c839f57de660001b612b87565b476040517fcccc3cc000000000000000000000000000000000000000000000000000000000815260040161189b91906145d0565b60405180910390fd5b6118d07f35b2e92d599acd0ec836f152134f8ea66586632450e704684aa05ba8e4ce5ffc60001b612b87565b5050565b6118ef83838360405180602001604052806000815250612498565b505050565b600a60069054906101000a900461ffff1681565b600a60019054906101000a900460ff1681565b6000801b61192881612cfd565b6119547f63e54b686ab02e33bf59bc2c6e847a2b528b7537083a61fd6a15452f8deee78960001b612b87565b6119807fff982f8af1efe2cb23556ae0ae8c0c46333a284a81fad63fb7cd5ff80f27bc9d60001b612b87565b6119ac7f496758914661476f719419dcd7fdf6fce22a9416f7896b45aa6463a71744c34d60001b612b87565b81600d90805190602001906119c2929190614162565b505050565b60006119d2826132a9565b9050919050565b600b5481565b600e6020528060005260406000206000915090508060000154908060010154908060020154905083565b600d8054611a1690614bea565b80601f0160208091040260200160405190810160405280929190818152602001828054611a4290614bea565b8015611a8f5780601f10611a6457610100808354040283529160200191611a8f565b820191906000526020600020905b815481529060010190602001808311611a7257829003601f168201915b505050505081565b611ac37ffc1123c79a9e0835f4249bbdec71d020aefb2a375cf274959818f51bd5d6f18660001b612b87565b611aef7f3df21755224aa1c5a75b41dff769ff2cf63f6fc60432569b483fa4f40fd3d46e60001b612b87565b611b1b7fb1413b83496a8a7fb1586de2fab3165db67eacd18249f337ce3d6f44afb3bd5060001b612b87565b600a60029054906101000a900461ffff1661ffff16611b38612d11565b1415611be357611b6a7f0453eb23964eccd08671da70997790f50012816b2f1242aa2a4f8c1381b45b8b60001b612b87565b611b967f7424a1b36f1a3d9d135552902960e1a948f0fea1bbc9bf22c49bb8bbc2f0e2ca60001b612b87565b600a60029054906101000a900461ffff166040517ffbe6adbe000000000000000000000000000000000000000000000000000000008152600401611bda9190614c57565b60405180910390fd5b611c0f7f9ffbc6def702cf1ae9cf9f8997fec98fd90da4ab1da38f4a638e69ab0ebb05b760001b612b87565b611c3b7f1272bb74897f67442880c5917c8f500ca6310da8a5ebca8e980a66774cda023960001b612b87565b611c677fede72c1ae7311fa0065012d83199357c136d9f4ab11ebb8be46a73257dca9c2e60001b612b87565b600a60069054906101000a900461ffff1661ffff16611c8533612d24565b1415611d3057611cb77fd1ef1c1de58cc0f7eead2dc501ead8947da0cfd3eb5430a0f59b2b99bfaaa4c860001b612b87565b611ce37fa79d39a165c8a87087dae29177389950ba02529883886880c1ac2dc8466cefb760001b612b87565b600a60069054906101000a900461ffff166040517ff84923d7000000000000000000000000000000000000000000000000000000008152600401611d2791906145a6565b60405180910390fd5b611d5c7fcf01fdb684eb8d8b5ca8b260850bf79456cf9a678574cc881094760fce5f2e7060001b612b87565b611d887f3b5baeb57601390e14984d09ea2e9d5889dc431ed11b1b7dd837e1ca89deb85860001b612b87565b60026009541415611dce576040517f08c379a0000000000000000000000000000000000000000000000000000000008152600401611dc590614cbe565b60405180910390fd5b6002600981905550611e027f78fe59a452ac970f2009dbc2c0399f8d0d4817b26c0aa903cfce2f0937f138c860001b612b87565b611e2e7fda1135088761798d35d6850a9b20aca0d3200ff0b73d375856ce1d70818ec24a60001b612b87565b611e5a7fba5dd209a9871b769c3f096736603abc0b141516eb51b6131b36cc89636c6fd660001b612b87565b6000600e6000836000016020810190611e7391906144f3565b60ff1660ff16815260200190815260200160002060405180606001604052908160008201548152602001600182015481526020016002820154815250509050611ede7ff89972820483b629c7eebc35331a9f36e85f1e9749114c50282a6dd6dee160e760001b612b87565b611f0a7f86e380b3d9fb396305c0ae1d52156b5d5bc11648378399ebc902644392898d7f60001b612b87565b80602001514210158015611f22575080604001514211155b15611fbe57611f537f93fd980082c2f24c9f1e5453fc38d80fc66a72a1cb068dfe0cfade85457a2c8a60001b612b87565b611f7f7f85aa011275c3e9e54e0e0b62d8fdc22ec7c108d0393d67727a3ab2072da85cf060001b612b87565b611fab7f01fc5fa67e71f1c7ba236994f474e7c584004983137685a5fc06c7d299bca70960001b612b87565b611fb982826000015161360c565b6120d7565b611fea7f59cdc7ed262d9394f88446f979436a436fd4bc051cbc05ab3271792d6f99cb6260001b612b87565b6120167f02292e3ebc4422b09c940762e6473b8848a0de2e11817a3e18cf5a55992fc2d960001b612b87565b600c544210156120aa5761204c7f98979276a1f3d4d389e55feea658ceb72137c8f097524d56f0e613d1681e69e160001b612b87565b6120787fa488a6516c6799a6c9dbbff8c1438fd3f40d4cf0b13e6277dde0f929bf60f17a60001b612b87565b6040517fb7b2409700000000000000000000000000000000000000000000000000000000815260040160405180910390fd5b6120d67fdc4cc1a39543e921e0cc0d717a4845effdb9c9ad08e8f49f6a6455f7eca63c3360001b612b87565b5b6121037fed616fbdbc56b3a854401e171b7eabafbf2d52e4053375aae1c9f289d394280560001b612b87565b61212f7f0fe0b7d73bcbfdf2c0bec234661570719d45ea45f0fb6c198fc0c6a1a0cc7c4960001b612b87565b612137612d7b565b50600160098190555050565b60008073ffffffffffffffffffffffffffffffffffffffff168273ffffffffffffffffffffffffffffffffffffffff1614156121ab576040517f8f4eb60400000000000000000000000000000000000000000000000000000000815260040160405180910390fd5b67ffffffffffffffff600560008473ffffffffffffffffffffffffffffffffffffffff1673ffffffffffffffffffffffffffffffffffffffff16815260200190815260200160002054169050919050565b60006008600084815260200190815260200160002060000160008373ffffffffffffffffffffffffffffffffffffffff1673ffffffffffffffffffffffffffffffffffffffff16815260200190815260200160002060009054906101000a900460ff16905092915050565b60606003805461227690614bea565b80601f01602080910402602001604051908101604052809291908181526020018280546122a290614bea565b80156122ef5780601f106122c4576101008083540402835291602001916122ef565b820191906000526020600020905b8154815290600101906020018083116122d257829003601f168201915b5050505050905090565b60106020528060005260406000206000915054906101000a900460ff1681565b6000801b81565b612328612cf5565b73ffffffffffffffffffffffffffffffffffffffff168273ffffffffffffffffffffffffffffffffffffffff16141561238d576040517fb06307db00000000000000000000000000000000000000000000000000000000815260040160405180910390fd5b806007600061239a612cf5565b73ffffffffffffffffffffffffffffffffffffffff1673ffffffffffffffffffffffffffffffffffffffff16815260200190815260200160002060008473ffffffffffffffffffffffffffffffffffffffff1673ffffffffffffffffffffffffffffffffffffffff16815260200190815260200160002060006101000a81548160ff0219169083151502179055508173ffffffffffffffffffffffffffffffffffffffff16612447612cf5565b73ffffffffffffffffffffffffffffffffffffffff167f17307eab39ab6107e8899845ad3d59bd9653f200f220920489ca2b5937696c318360405161248c91906142b9565b60405180910390a35050565b6124a38484846112af565b60008373ffffffffffffffffffffffffffffffffffffffff163b14612505576124ce848484846139ea565b612504576040517fd1a57ed600000000000000000000000000000000000000000000000000000000815260040160405180910390fd5b5b50505050565b600a60009054906101000a900460ff1681565b606061254c7fa96d6cc4f63013ca3fe231a190a09e95af9976f62f2501b1424df99590882ed360001b612b87565b6125787ffdd7d9505f6c746282d71021d11c0f2c3edc45cecf2163fa3bc781482561b8b560001b612b87565b6125a47f8fc65d0e48d37b1013c193c038844c5547ef001144e09b0ebc33f2e5f9a294f060001b612b87565b6125ad82612c96565b61263b576125dd7f5ed955090deaafd3489dba8f82ea579ccddce14e4c468b082a81df10ed325c6260001b612b87565b6126097f2e8ae30f6c8ab50374f75ae5f9388873f5677efdd8fbe4ae39880b5a6cd53fed60001b612b87565b6040517fa14c4b5000000000000000000000000000000000000000000000000000000000815260040160405180910390fd5b6126677fcde855c6ff6d640441640586c0e09b4098dbe7a20f862d06a558e6ae577c91e960001b612b87565b6126937f983a4e3705c42746245cff5137526ee3de81990f9b972ad936779a9d38f48cbf60001b612b87565b6126bf7fc1583042cd994b6fa9de64b2d59bc9e495f5241cd037359f120bcb986587919a60001b612b87565b6000600d80546126ce90614bea565b905014156126eb5760405180602001604052806000815250612717565b600d6126f683613b4a565b604051602001612707929190614ed2565b6040516020818303038152906040525b9050919050565b600c5481565b61272d826115d4565b61273681612cfd565b612740838361352a565b505050565b600a60029054906101000a900461ffff1681565b6000801b61276681612cfd565b6127927f1ad15b6fa949f0cfd57ed2c19bec64c059eeb047550d0fe59698529e838d699b60001b612b87565b6127be7f27cf61c8383723c23cb182624b17964f9a98964cf4bacfb3c70e8700a93e203060001b612b87565b6127ea7fd2201cceed3de5fc78b6d78a00c2512b839b839e86b2dc5b4013ff19286145e860001b612b87565b600a60009054906101000a900460ff1660ff168460ff16141580156128245750600a60019054906101000a900460ff1660ff168460ff1614155b156128be576128557f4f3d7bbc0316a23fe29f80f3ba4e2270698e2348872940ed1b8529cd74cb3f5360001b612b87565b6128817f3c6b441812695df41c51e7d648c01738a0955971a214124912063326992b574460001b612b87565b836040517fb4f0b83d0000000000000000000000000000000000000000000000000000000081526004016128b59190614747565b60405180910390fd5b6128ea7f4329bc64b3b180a4277046bd40c68498aaa87ce3fc873bf67048390e19affcc360001b612b87565b6129167fa4d8a45a5b6f0b6d7e30014731787b3ab2e8800d7b6ce00f9735c31212a8087f60001b612b87565b6129427f9ba7dad77712050d914d8312d2d94b5689660658728a5ae9e2ab35614566970460001b612b87565b600c54831015806129555750600c548210155b806129605750818310155b156129ef576129917f5b558afcab3a3a815b8695bd29b187e6361ce5563948c0a2fffeef2bddc163e860001b612b87565b6129bd7f0ee62381d61d94eb244d39fd86b26b61157c4718add407619a0aedaabe05470960001b612b87565b6040517fe731bf9400000000000000000000000000000000000000000000000000000000815260040160405180910390fd5b612a1b7f629d3ef345c9a6855c08d99650aea38e2d785423e68a7cac4c01b0916e19206360001b612b87565b612a477fcc94a0272840a8ec16a927fcc57ad6fbcca0a0c07f825dd81d215e9e4afefc1b60001b612b87565b612a737fa187b21bddc8437467a16a8d78a3df745f8573489db0335e6f28da3abdcd9d8f60001b612b87565b604051806060016040528086815260200184815260200183815250600e60008660ff1660ff1681526020019081526020016000206000820151816000015560208201518160010155604082015181600201559050505050505050565b7f5d8e12c39142ff96d79d04d15d1ba1269e4fe57bb9d26f43523628b34ba108ec81565b6000600760008473ffffffffffffffffffffffffffffffffffffffff1673ffffffffffffffffffffffffffffffffffffffff16815260200190815260200160002060008373ffffffffffffffffffffffffffffffffffffffff1673ffffffffffffffffffffffffffffffffffffffff16815260200190815260200160002060009054906101000a900460ff16905092915050565b50565b60006301ffc9a760e01b827bffffffffffffffffffffffffffffffffffffffffffffffffffffffff19161480612be557506380ac58cd60e01b827bffffffffffffffffffffffffffffffffffffffffffffffffffffffff1916145b80612c155750635b5e139f60e01b827bffffffffffffffffffffffffffffffffffffffffffffffffffffffff1916145b9050919050565b60007f7965db0b000000000000000000000000000000000000000000000000000000007bffffffffffffffffffffffffffffffffffffffffffffffffffffffff1916827bffffffffffffffffffffffffffffffffffffffffffffffffffffffff19161480612c8f5750612c8e82613b9a565b5b9050919050565b600081612ca161321c565b11158015612cb0575060005482105b8015612cee575060007c0100000000000000000000000000000000000000000000000000000000600460008581526020019081526020016000205416145b9050919050565b600033905090565b612d0e81612d09613522565b613c04565b50565b6000612d1b61321c565b60005403905090565b600067ffffffffffffffff6040600560008573ffffffffffffffffffffffffffffffffffffffff1673ffffffffffffffffffffffffffffffffffffffff16815260200190815260200160002054901c169050919050565b612da77fbb34b40bb108d630f7a3bb48cb906f9ba41eeb0152ef115fcba49711e26b914f60001b612b87565b612dd37f8a1db8cd364553e36130f153ca85aaf3643ac1efe2659694e50d02e99389823860001b612b87565b612dff7f1c08afacfd84adbc6e7e6987e873f344c9507262c53587b8b8a5897e60480d9c60001b612b87565b600b54341015612ea257612e357f0fe5bc286c269ebd4d31d5c52df87136d393de989317d3bcfa7b9c582d507e6760001b612b87565b612e617ffef96115cbefdcfb115ca1ace4a7065c9c1a3d0ca1b14691b6383d928458cb3860001b612b87565b34600b546040517f03eb8b54000000000000000000000000000000000000000000000000000000008152600401612e99929190614f01565b60405180910390fd5b612ece7fdd630788215ab3aa6dbf3ee00b514827852226dd9e2c5536706b9ca8e28b346760001b612b87565b612efa7f323a89478b926006c0570f0b2014323907823a0f2fd407a9573c2474466f296560001b612b87565b612f267f785a2728198c30f487f2deacf00c0e9909ad721c5e000ad36db313d2166e741160001b612b87565b600b5434111561318a57612f5c7f4161d86103e1cdb68caef1ad247c8b38d363a7cf561a047d888121bf9aa6c48d60001b612b87565b612f887faec790e4f8dc46542f8b10ac0a3e3d08194b257c8b4f1d21e66db6193504c0cd60001b612b87565b612fb47fd4b03fdd610c6ce6791bfbc343565740a40667536205c4c569bf745a32fe183260001b612b87565b6000600b5434612fc49190614f59565b9050612ff27f3cc37d6c611769d71c06bc94530ebb86c4dc7df5d71fbebaec19a7c587f46cba60001b612b87565b61301e7f73fadde10c0a5c6d4b1df832e68bc392094a40e0532ca905887a58207df39d4060001b612b87565b6000613028613522565b73ffffffffffffffffffffffffffffffffffffffff168260405161304b90614da1565b60006040518083038185875af1925050503d8060008114613088576040519150601f19603f3d011682016040523d82523d6000602084013e61308d565b606091505b505090506130bd7fead650232d5772ffd5acb367c912a58209665d4933c8f328c48e135c4e6f548360001b612b87565b6130e97f3e2fb3df0a764ba871aca7fcf05e2965cfd2f24e5be5030bed2150005bdac0fa60001b612b87565b806131575761311a7f2e373e22cd12bea51dae13fcaee929012fa998951a1c8e7eb903f34ad89a89ce60001b612b87565b816040517f4c6ecc2100000000000000000000000000000000000000000000000000000000815260040161314e91906145d0565b60405180910390fd5b6131837fba694bc55926731231f170d135a3eee7756d5053644e6d469f0db5d2a32544a760001b612b87565b50506131b7565b6131b67f3ddcdf84a0b3a32eb5c66c45f9a804a4b17128644932a4d415fdf5bfc8597c6860001b612b87565b5b6131e37f0f6c28e0dfc351ac236444e994d13c8501147135b600c44abec2e94d021e9f4f60001b612b87565b61320f7fbc4c32029c777a0c756d61e91048787edd165cace26440903c0398822574d16b60001b612b87565b61321a336001613ca1565b565b600061324a7fb24887989465027c9de30c5c634a93abbe191b5f8eddcfa9d240801d942d295f60001b612b87565b6132767fbe41536ea197ce3f13bccd9da875d71f961add0064b89a555039adc96458985a60001b612b87565b6132a27f335aac7070600b830ec1165e3bb7b211be0ac0952a4caabe8e699b9006ffe60b60001b612b87565b6001905090565b600080829050806132b861321c565b116133405760005481101561333f5760006004600083815260200190815260200160002054905060007c01000000000000000000000000000000000000000000000000000000008216141561333d575b6000811415613333576004600083600190039350838152602001908152602001600020549050613308565b8092505050613372565b505b5b6040517fdf2d9b4200000000000000000000000000000000000000000000000000000000815260040160405180910390fd5b919050565b60008060006006600085815260200190815260200160002090508092508254915050915091565b600073ffffffffffffffffffffffffffffffffffffffff8316925073ffffffffffffffffffffffffffffffffffffffff821691508382148383141790509392505050565b50505050565b60008060e883901c905060e86133ff868684613e5e565b62ffffff16901b9150509392505050565b600073ffffffffffffffffffffffffffffffffffffffff83169250814260a01b178317905092915050565b50505050565b61344b82826121fc565b61351e5760016008600084815260200190815260200160002060000160008373ffffffffffffffffffffffffffffffffffffffff1673ffffffffffffffffffffffffffffffffffffffff16815260200190815260200160002060006101000a81548160ff0219169083151502179055506134c3613522565b73ffffffffffffffffffffffffffffffffffffffff168173ffffffffffffffffffffffffffffffffffffffff16837f2f8788117e7eff1d82e926ec794901d17c78024a50270940304540a733656f0d60405160405180910390a45b5050565b600033905090565b61353482826121fc565b156136085760006008600084815260200190815260200160002060000160008373ffffffffffffffffffffffffffffffffffffffff1673ffffffffffffffffffffffffffffffffffffffff16815260200190815260200160002060006101000a81548160ff0219169083151502179055506135ad613522565b73ffffffffffffffffffffffffffffffffffffffff168173ffffffffffffffffffffffffffffffffffffffff16837ff6391f5c32d9c69d2a47ea670b442974b53935d1edc7fd64eb21e047a839171b60405160405180910390a45b5050565b6136387fe675d8a320a332667a30fa7b2e6a22d629c9d8355bb0f90e78d66e974122453160001b612b87565b6136647f0f6348d555e054ebfe33f9f5d81b9daf937fe9047040d10453b065829e4028d660001b612b87565b6136907f9d7230a089d8b236d06d29fd84bf66565b23f27397322da98a23fa24fdb7156060001b612b87565b6137108280602001906136a39190614f9c565b80806020026020016040519081016040528093929190818152602001838360200280828437600081840152601f19601f8201169050808301925050505050505082336040516020016136f59190615047565b60405160208183030381529060405280519060200120613e67565b61379e576137407f3fc61a8b02738bf90f3c8c05fc6b9b37c807a988cb3f575c5d14d03b958fe87460001b612b87565b61376c7f04a6b5a770be70d0e0f0d01a772b1be50490e8d384822d388e94ebd85b82fa0060001b612b87565b6040517f584a793800000000000000000000000000000000000000000000000000000000815260040160405180910390fd5b6137ca7fb712dfca6fecef1d29be42e97eef80154eea4f8719a1762e68a6a9d4c84b37ee60001b612b87565b6137f67fdb28c0e30855cb29dec0a5b8fc532e5c778ddad72ed22d78c03fb9851b6dfab460001b612b87565b6138227f37dec9e006226ee1c1f3fd9af2435167749682b2c70fcbdc6a600bbec34e17ef60001b612b87565b601060003373ffffffffffffffffffffffffffffffffffffffff1673ffffffffffffffffffffffffffffffffffffffff16815260200190815260200160002060009054906101000a900460ff161561390a576138a07fe0a8bdb55bdaa267758a22f3cb96d725461067cfbf4b48102a278fddfd0742f760001b612b87565b6138cc7fc52059a5c720cbbb1dc0c4372a40996947357ff9b63423fe4c672b206426970160001b612b87565b60016040517fc63f4307000000000000000000000000000000000000000000000000000000008152600401613901919061509d565b60405180910390fd5b6139367ff73c04fd612f0e20984492b5c182c2ae5f724de084c9511571d0c0131945fdae60001b612b87565b6139627f3ec7b0ba70bb334a288c036a481602638e0a002f290c73738464db3c81300fdf60001b612b87565b61398e7fb47b6bdd61c68aeafeed5aed1a3c346b7d52da891bd5214a77446bdb5f34277b60001b612b87565b6001601060003373ffffffffffffffffffffffffffffffffffffffff1673ffffffffffffffffffffffffffffffffffffffff16815260200190815260200160002060006101000a81548160ff0219169083151502179055505050565b60008373ffffffffffffffffffffffffffffffffffffffff1663150b7a02613a10612cf5565b8786866040518563ffffffff1660e01b8152600401613a32949392919061510d565b602060405180830381600087803b158015613a4c57600080fd5b505af1925050508015613a7d57506040513d601f19601f82011682018060405250810190613a7a919061516e565b60015b613af7573d8060008114613aad576040519150601f19603f3d011682016040523d82523d6000602084013e613ab2565b606091505b50600081511415613aef576040517fd1a57ed600000000000000000000000000000000000000000000000000000000815260040160405180910390fd5b805181602001fd5b63150b7a0260e01b7bffffffffffffffffffffffffffffffffffffffffffffffffffffffff1916817bffffffffffffffffffffffffffffffffffffffffffffffffffffffff191614915050949350505050565b606060806040510190508060405280825b600115613b8657600183039250600a81066030018353600a8104905080613b8157613b86565b613b5b565b508181036020830392508083525050919050565b60007f01ffc9a7000000000000000000000000000000000000000000000000000000007bffffffffffffffffffffffffffffffffffffffffffffffffffffffff1916827bffffffffffffffffffffffffffffffffffffffffffffffffffffffff1916149050919050565b613c0e82826121fc565b613c9d57613c338173ffffffffffffffffffffffffffffffffffffffff166014613e7e565b613c418360001c6020613e7e565b604051602001613c52929190615233565b6040516020818303038152906040526040517f08c379a0000000000000000000000000000000000000000000000000000000008152600401613c94919061436d565b60405180910390fd5b5050565b6000805490506000821415613ce2576040517fb562e8dd00000000000000000000000000000000000000000000000000000000815260040160405180910390fd5b613cef60008483856133e2565b600160406001901b178202600560008573ffffffffffffffffffffffffffffffffffffffff1673ffffffffffffffffffffffffffffffffffffffff16815260200190815260200160002060008282540192505081905550613d6683613d5760008660006133e8565b613d60856140ba565b17613410565b6004600083815260200190815260200160002081905550600080838301905073ffffffffffffffffffffffffffffffffffffffff85169150828260007fddf252ad1be2c89b69c2b068fc378daa952ba7f163c4a11628f55a4df523b3ef600080a4600183015b818114613e0757808360007fddf252ad1be2c89b69c2b068fc378daa952ba7f163c4a11628f55a4df523b3ef600080a4600181019050613dcc565b506000821415613e43576040517f2e07630000000000000000000000000000000000000000000000000000000000815260040160405180910390fd5b806000819055505050613e59600084838561343b565b505050565b60009392505050565b600082613e7485846140ca565b1490509392505050565b606060006002836002613e91919061526d565b613e9b91906152c7565b67ffffffffffffffff811115613eb457613eb361476c565b5b6040519080825280601f01601f191660200182016040528015613ee65781602001600182028036833780820191505090505b5090507f300000000000000000000000000000000000000000000000000000000000000081600081518110613f1e57613f1d61531d565b5b60200101907effffffffffffffffffffffffffffffffffffffffffffffffffffffffffffff1916908160001a9053507f780000000000000000000000000000000000000000000000000000000000000081600181518110613f8257613f8161531d565b5b60200101907effffffffffffffffffffffffffffffffffffffffffffffffffffffffffffff1916908160001a90535060006001846002613fc2919061526d565b613fcc91906152c7565b90505b600181111561406c577f3031323334353637383961626364656600000000000000000000000000000000600f86166010811061400e5761400d61531d565b5b1a60f81b8282815181106140255761402461531d565b5b60200101907effffffffffffffffffffffffffffffffffffffffffffffffffffffffffffff1916908160001a905350600485901c9450806140659061534c565b9050613fcf565b50600084146140b0576040517f08c379a00000000000000000000000000000000000000000000000000000000081526004016140a7906153c2565b60405180910390fd5b8091505092915050565b60006001821460e11b9050919050565b60008082905060005b845181101561411557614100828683815181106140f3576140f261531d565b5b6020026020010151614120565b9150808061410d906153e2565b9150506140d3565b508091505092915050565b600081831061413857614133828461414b565b614143565b614142838361414b565b5b905092915050565b600082600052816020526040600020905092915050565b82805461416e90614bea565b90600052602060002090601f01602090048101928261419057600085556141d7565b82601f106141a957805160ff19168380011785556141d7565b828001600101855582156141d7579182015b828111156141d65782518255916020019190600101906141bb565b5b5090506141e491906141e8565b5090565b5b808211156142015760008160009055506001016141e9565b5090565b6000604051905090565b600080fd5b600080fd5b60007fffffffff0000000000000000000000000000000000000000000000000000000082169050919050565b61424e81614219565b811461425957600080fd5b50565b60008135905061426b81614245565b92915050565b6000602082840312156142875761428661420f565b5b60006142958482850161425c565b91505092915050565b60008115159050919050565b6142b38161429e565b82525050565b60006020820190506142ce60008301846142aa565b92915050565b600081519050919050565b600082825260208201905092915050565b60005b8381101561430e5780820151818401526020810190506142f3565b8381111561431d576000848401525b50505050565b6000601f19601f8301169050919050565b600061433f826142d4565b61434981856142df565b93506143598185602086016142f0565b61436281614323565b840191505092915050565b600060208201905081810360008301526143878184614334565b905092915050565b6000819050919050565b6143a28161438f565b81146143ad57600080fd5b50565b6000813590506143bf81614399565b92915050565b6000602082840312156143db576143da61420f565b5b60006143e9848285016143b0565b91505092915050565b600073ffffffffffffffffffffffffffffffffffffffff82169050919050565b600061441d826143f2565b9050919050565b61442d81614412565b82525050565b60006020820190506144486000830184614424565b92915050565b61445781614412565b811461446257600080fd5b50565b6000813590506144748161444e565b92915050565b600080604083850312156144915761449061420f565b5b600061449f85828601614465565b92505060206144b0858286016143b0565b9150509250929050565b600060ff82169050919050565b6144d0816144ba565b81146144db57600080fd5b50565b6000813590506144ed816144c7565b92915050565b6000602082840312156145095761450861420f565b5b6000614517848285016144de565b91505092915050565b600063ffffffff82169050919050565b61453981614520565b811461454457600080fd5b50565b60008135905061455681614530565b92915050565b6000602082840312156145725761457161420f565b5b600061458084828501614547565b91505092915050565b600061ffff82169050919050565b6145a081614589565b82525050565b60006020820190506145bb6000830184614597565b92915050565b6145ca8161438f565b82525050565b60006020820190506145e560008301846145c1565b92915050565b6000602082840312156146015761460061420f565b5b600061460f84828501614465565b91505092915050565b6000806000606084860312156146315761463061420f565b5b600061463f86828701614465565b935050602061465086828701614465565b9250506040614661868287016143b0565b9150509250925092565b6000819050919050565b61467e8161466b565b811461468957600080fd5b50565b60008135905061469b81614675565b92915050565b6000602082840312156146b7576146b661420f565b5b60006146c58482850161468c565b91505092915050565b6146d78161466b565b82525050565b60006020820190506146f260008301846146ce565b92915050565b6000806040838503121561470f5761470e61420f565b5b600061471d8582860161468c565b925050602061472e85828601614465565b9150509250929050565b614741816144ba565b82525050565b600060208201905061475c6000830184614738565b92915050565b600080fd5b600080fd5b7f4e487b7100000000000000000000000000000000000000000000000000000000600052604160045260246000fd5b6147a482614323565b810181811067ffffffffffffffff821117156147c3576147c261476c565b5b80604052505050565b60006147d6614205565b90506147e2828261479b565b919050565b600067ffffffffffffffff8211156148025761480161476c565b5b61480b82614323565b9050602081019050919050565b82818337600083830152505050565b600061483a614835846147e7565b6147cc565b90508281526020810184848401111561485657614855614767565b5b614861848285614818565b509392505050565b600082601f83011261487e5761487d614762565b5b813561488e848260208601614827565b91505092915050565b6000602082840312156148ad576148ac61420f565b5b600082013567ffffffffffffffff8111156148cb576148ca614214565b5b6148d784828501614869565b91505092915050565b60006060820190506148f560008301866146ce565b61490260208301856145c1565b61490f60408301846145c1565b949350505050565b600080fd5b60006040828403121561493257614931614917565b5b81905092915050565b6000602082840312156149515761495061420f565b5b600082013567ffffffffffffffff81111561496f5761496e614214565b5b61497b8482850161491c565b91505092915050565b61498d8161429e565b811461499857600080fd5b50565b6000813590506149aa81614984565b92915050565b600080604083850312156149c7576149c661420f565b5b60006149d585828601614465565b92505060206149e68582860161499b565b9150509250929050565b600067ffffffffffffffff821115614a0b57614a0a61476c565b5b614a1482614323565b9050602081019050919050565b6000614a34614a2f846149f0565b6147cc565b905082815260208101848484011115614a5057614a4f614767565b5b614a5b848285614818565b509392505050565b600082601f830112614a7857614a77614762565b5b8135614a88848260208601614a21565b91505092915050565b60008060008060808587031215614aab57614aaa61420f565b5b6000614ab987828801614465565b9450506020614aca87828801614465565b9350506040614adb878288016143b0565b925050606085013567ffffffffffffffff811115614afc57614afb614214565b5b614b0887828801614a63565b91505092959194509250565b60008060008060808587031215614b2e57614b2d61420f565b5b6000614b3c8782880161468c565b9450506020614b4d878288016144de565b9350506040614b5e878288016143b0565b9250506060614b6f878288016143b0565b91505092959194509250565b60008060408385031215614b9257614b9161420f565b5b6000614ba085828601614465565b9250506020614bb185828601614465565b9150509250929050565b7f4e487b7100000000000000000000000000000000000000000000000000000000600052602260045260246000fd5b60006002820490506001821680614c0257607f821691505b60208210811415614c1657614c15614bbb565b5b50919050565b6000819050919050565b6000614c41614c3c614c3784614589565b614c1c565b61438f565b9050919050565b614c5181614c26565b82525050565b6000602082019050614c6c6000830184614c48565b92915050565b7f5265656e7472616e637947756172643a207265656e7472616e742063616c6c00600082015250565b6000614ca8601f836142df565b9150614cb382614c72565b602082019050919050565b60006020820190508181036000830152614cd781614c9b565b9050919050565b7f416363657373436f6e74726f6c3a2063616e206f6e6c792072656e6f756e636560008201527f20726f6c657320666f722073656c660000000000000000000000000000000000602082015250565b6000614d3a602f836142df565b9150614d4582614cde565b604082019050919050565b60006020820190508181036000830152614d6981614d2d565b9050919050565b600081905092915050565b50565b6000614d8b600083614d70565b9150614d9682614d7b565b600082019050919050565b6000614dac82614d7e565b9150819050919050565b600081905092915050565b60008190508160005260206000209050919050565b60008154614de381614bea565b614ded8186614db6565b94506001821660008114614e085760018114614e1957614e4c565b60ff19831686528186019350614e4c565b614e2285614dc1565b60005b83811015614e4457815481890152600182019150602081019050614e25565b838801955050505b50505092915050565b6000614e60826142d4565b614e6a8185614db6565b9350614e7a8185602086016142f0565b80840191505092915050565b7f2e6a736f6e000000000000000000000000000000000000000000000000000000600082015250565b6000614ebc600583614db6565b9150614ec782614e86565b600582019050919050565b6000614ede8285614dd6565b9150614eea8284614e55565b9150614ef582614eaf565b91508190509392505050565b6000604082019050614f1660008301856145c1565b614f2360208301846145c1565b9392505050565b7f4e487b7100000000000000000000000000000000000000000000000000000000600052601160045260246000fd5b6000614f648261438f565b9150614f6f8361438f565b925082821015614f8257614f81614f2a565b5b828203905092915050565b600080fd5b600080fd5b600080fd5b60008083356001602003843603038112614fb957614fb8614f8d565b5b80840192508235915067ffffffffffffffff821115614fdb57614fda614f92565b5b602083019250602082023603831315614ff757614ff6614f97565b5b509250929050565b60008160601b9050919050565b600061501782614fff565b9050919050565b60006150298261500c565b9050919050565b61504161503c82614412565b61501e565b82525050565b60006150538284615030565b60148201915081905092915050565b6000819050919050565b600061508761508261507d84615062565b614c1c565b614589565b9050919050565b6150978161506c565b82525050565b60006020820190506150b2600083018461508e565b92915050565b600081519050919050565b600082825260208201905092915050565b60006150df826150b8565b6150e981856150c3565b93506150f98185602086016142f0565b61510281614323565b840191505092915050565b60006080820190506151226000830187614424565b61512f6020830186614424565b61513c60408301856145c1565b818103606083015261514e81846150d4565b905095945050505050565b60008151905061516881614245565b92915050565b6000602082840312156151845761518361420f565b5b600061519284828501615159565b91505092915050565b7f416363657373436f6e74726f6c3a206163636f756e7420000000000000000000600082015250565b60006151d1601783614db6565b91506151dc8261519b565b601782019050919050565b7f206973206d697373696e6720726f6c6520000000000000000000000000000000600082015250565b600061521d601183614db6565b9150615228826151e7565b601182019050919050565b600061523e826151c4565b915061524a8285614e55565b915061525582615210565b91506152618284614e55565b91508190509392505050565b60006152788261438f565b91506152838361438f565b9250817fffffffffffffffffffffffffffffffffffffffffffffffffffffffffffffffff04831182151516156152bc576152bb614f2a565b5b828202905092915050565b60006152d28261438f565b91506152dd8361438f565b9250827fffffffffffffffffffffffffffffffffffffffffffffffffffffffffffffffff0382111561531257615311614f2a565b5b828201905092915050565b7f4e487b7100000000000000000000000000000000000000000000000000000000600052603260045260246000fd5b60006153578261438f565b9150600082141561536b5761536a614f2a565b5b600182039050919050565b7f537472696e67733a20686578206c656e67746820696e73756666696369656e74600082015250565b60006153ac6020836142df565b91506153b782615376565b602082019050919050565b600060208201905081810360008301526153db8161539f565b9050919050565b60006153ed8261438f565b91507fffffffffffffffffffffffffffffffffffffffffffffffffffffffffffffffff8214156154205761541f614f2a565b5b60018201905091905056fea26469706673582212209c56bfa16aa40ad03c125c9758b6e9b279e996c66258193f89038537a57e164464736f6c63430008090033",
  "linkReferences": {},
  "deployedLinkReferences": {}
}